{
	"RealEstateERC721.sol": {
		"RealEstateERC721": {
			"abi": [
				{
					"inputs": [
						{
							"internalType": "string",
							"name": "name_",
							"type": "string"
						},
						{
							"internalType": "string",
							"name": "symbol_",
							"type": "string"
						}
					],
					"stateMutability": "nonpayable",
					"type": "constructor"
				},
				{
					"anonymous": false,
					"inputs": [
						{
							"indexed": true,
							"internalType": "address",
							"name": "owner",
							"type": "address"
						},
						{
							"indexed": true,
							"internalType": "address",
							"name": "approved",
							"type": "address"
						},
						{
							"indexed": true,
							"internalType": "uint256",
							"name": "tokenId",
							"type": "uint256"
						}
					],
					"name": "Approval",
					"type": "event"
				},
				{
					"anonymous": false,
					"inputs": [
						{
							"indexed": true,
							"internalType": "address",
							"name": "owner",
							"type": "address"
						},
						{
							"indexed": true,
							"internalType": "address",
							"name": "operator",
							"type": "address"
						},
						{
							"indexed": false,
							"internalType": "bool",
							"name": "approved",
							"type": "bool"
						}
					],
					"name": "ApprovalForAll",
					"type": "event"
				},
				{
					"anonymous": false,
					"inputs": [
						{
							"indexed": true,
							"internalType": "address",
							"name": "from",
							"type": "address"
						},
						{
							"indexed": true,
							"internalType": "address",
							"name": "to",
							"type": "address"
						},
						{
							"indexed": true,
							"internalType": "uint256",
							"name": "tokenId",
							"type": "uint256"
						}
					],
					"name": "Transfer",
					"type": "event"
				},
				{
					"inputs": [
						{
							"internalType": "address",
							"name": "to",
							"type": "address"
						},
						{
							"internalType": "uint256",
							"name": "tokenId",
							"type": "uint256"
						}
					],
					"name": "approve",
					"outputs": [],
					"stateMutability": "nonpayable",
					"type": "function"
				},
				{
					"inputs": [
						{
							"internalType": "address",
							"name": "owner",
							"type": "address"
						}
					],
					"name": "balanceOf",
					"outputs": [
						{
							"internalType": "uint256",
							"name": "",
							"type": "uint256"
						}
					],
					"stateMutability": "view",
					"type": "function"
				},
				{
					"inputs": [],
					"name": "getAllTokenIds",
					"outputs": [
						{
							"internalType": "uint256[]",
							"name": "",
							"type": "uint256[]"
						}
					],
					"stateMutability": "view",
					"type": "function"
				},
				{
					"inputs": [
						{
							"internalType": "uint256",
							"name": "tokenId",
							"type": "uint256"
						}
					],
					"name": "getApproved",
					"outputs": [
						{
							"internalType": "address",
							"name": "",
							"type": "address"
						}
					],
					"stateMutability": "view",
					"type": "function"
				},
				{
					"inputs": [
						{
							"internalType": "uint256",
							"name": "tokenId",
							"type": "uint256"
						}
					],
					"name": "getPropertyDetails",
					"outputs": [
						{
							"components": [
								{
									"internalType": "string",
									"name": "cadastralNumber",
									"type": "string"
								},
								{
									"internalType": "string",
									"name": "location",
									"type": "string"
								},
								{
									"internalType": "uint256",
									"name": "valuation",
									"type": "uint256"
								}
							],
							"internalType": "struct RealEstateERC721.PropertyDetails",
							"name": "",
							"type": "tuple"
						}
					],
					"stateMutability": "view",
					"type": "function"
				},
				{
					"inputs": [
						{
							"internalType": "string",
							"name": "_cadastralNumber",
							"type": "string"
						}
					],
					"name": "getTokenIdByCadastralNumber",
					"outputs": [
						{
							"internalType": "uint256",
							"name": "",
							"type": "uint256"
						}
					],
					"stateMutability": "view",
					"type": "function"
				},
				{
					"inputs": [
						{
							"internalType": "address",
							"name": "owner",
							"type": "address"
						},
						{
							"internalType": "address",
							"name": "operator",
							"type": "address"
						}
					],
					"name": "isApprovedForAll",
					"outputs": [
						{
							"internalType": "bool",
							"name": "",
							"type": "bool"
						}
					],
					"stateMutability": "view",
					"type": "function"
				},
				{
					"inputs": [
						{
							"internalType": "address",
							"name": "to",
							"type": "address"
						},
						{
							"internalType": "string",
							"name": "_cadastralNumber",
							"type": "string"
						},
						{
							"internalType": "string",
							"name": "_location",
							"type": "string"
						},
						{
							"internalType": "uint256",
							"name": "_valuation",
							"type": "uint256"
						}
					],
					"name": "mintProperty",
					"outputs": [],
					"stateMutability": "nonpayable",
					"type": "function"
				},
				{
					"inputs": [],
					"name": "name",
					"outputs": [
						{
							"internalType": "string",
							"name": "",
							"type": "string"
						}
					],
					"stateMutability": "view",
					"type": "function"
				},
				{
					"inputs": [
						{
							"internalType": "uint256",
							"name": "tokenId",
							"type": "uint256"
						}
					],
					"name": "ownerOf",
					"outputs": [
						{
							"internalType": "address",
							"name": "",
							"type": "address"
						}
					],
					"stateMutability": "view",
					"type": "function"
				},
				{
					"inputs": [
						{
							"internalType": "uint256",
							"name": "",
							"type": "uint256"
						}
					],
					"name": "propertyDetails",
					"outputs": [
						{
							"internalType": "string",
							"name": "cadastralNumber",
							"type": "string"
						},
						{
							"internalType": "string",
							"name": "location",
							"type": "string"
						},
						{
							"internalType": "uint256",
							"name": "valuation",
							"type": "uint256"
						}
					],
					"stateMutability": "view",
					"type": "function"
				},
				{
					"inputs": [
						{
							"internalType": "address",
							"name": "from",
							"type": "address"
						},
						{
							"internalType": "address",
							"name": "to",
							"type": "address"
						},
						{
							"internalType": "uint256",
							"name": "tokenId",
							"type": "uint256"
						}
					],
					"name": "safeTransferFrom",
					"outputs": [],
					"stateMutability": "nonpayable",
					"type": "function"
				},
				{
					"inputs": [
						{
							"internalType": "address",
							"name": "operator",
							"type": "address"
						},
						{
							"internalType": "bool",
							"name": "approved",
							"type": "bool"
						}
					],
					"name": "setApprovalForAll",
					"outputs": [],
					"stateMutability": "nonpayable",
					"type": "function"
				},
				{
					"inputs": [],
					"name": "symbol",
					"outputs": [
						{
							"internalType": "string",
							"name": "",
							"type": "string"
						}
					],
					"stateMutability": "view",
					"type": "function"
				}
			],
			"devdoc": {
				"kind": "dev",
				"methods": {},
				"version": 1
			},
			"evm": {
				"assembly": "    /* \"RealEstateERC721.sol\":60:5996  contract RealEstateERC721 {... */\n  mstore(0x40, 0x80)\n    /* \"RealEstateERC721.sol\":1096:1212  constructor(string memory name_, string memory symbol_) {... */\n  callvalue\n  dup1\n  iszero\n  tag_1\n  jumpi\n  revert(0x00, 0x00)\ntag_1:\n  pop\n  mload(0x40)\n  sub(codesize, bytecodeSize)\n  dup1\n  bytecodeSize\n  dup4\n  codecopy\n  dup2\n  dup2\n  add\n  0x40\n  mstore\n  dup2\n  add\n  swap1\n  tag_2\n  swap2\n  swap1\n  tag_3\n  jump\t// in\ntag_2:\n    /* \"RealEstateERC721.sol\":1171:1176  name_ */\n  dup2\n    /* \"RealEstateERC721.sol\":1163:1168  _name */\n  0x05\n    /* \"RealEstateERC721.sol\":1163:1176  _name = name_ */\n  swap1\n  dup2\n  tag_6\n  swap2\n  swap1\n  tag_7\n  jump\t// in\ntag_6:\n  pop\n    /* \"RealEstateERC721.sol\":1197:1204  symbol_ */\n  dup1\n    /* \"RealEstateERC721.sol\":1187:1194  _symbol */\n  0x06\n    /* \"RealEstateERC721.sol\":1187:1204  _symbol = symbol_ */\n  swap1\n  dup2\n  tag_8\n  swap2\n  swap1\n  tag_7\n  jump\t// in\ntag_8:\n  pop\n    /* \"RealEstateERC721.sol\":1096:1212  constructor(string memory name_, string memory symbol_) {... */\n  pop\n  pop\n    /* \"RealEstateERC721.sol\":60:5996  contract RealEstateERC721 {... */\n  jump(tag_9)\n    /* \"#utility.yul\":7:82   */\ntag_10:\n    /* \"#utility.yul\":40:46   */\n  0x00\n    /* \"#utility.yul\":73:75   */\n  0x40\n    /* \"#utility.yul\":67:76   */\n  mload\n    /* \"#utility.yul\":57:76   */\n  swap1\n  pop\n    /* \"#utility.yul\":7:82   */\n  swap1\n  jump\t// out\n    /* \"#utility.yul\":88:205   */\ntag_11:\n    /* \"#utility.yul\":197:198   */\n  0x00\n    /* \"#utility.yul\":194:195   */\n  0x00\n    /* \"#utility.yul\":187:199   */\n  revert\n    /* \"#utility.yul\":211:328   */\ntag_12:\n    /* \"#utility.yul\":320:321   */\n  0x00\n    /* \"#utility.yul\":317:318   */\n  0x00\n    /* \"#utility.yul\":310:322   */\n  revert\n    /* \"#utility.yul\":334:451   */\ntag_13:\n    /* \"#utility.yul\":443:444   */\n  0x00\n    /* \"#utility.yul\":440:441   */\n  0x00\n    /* \"#utility.yul\":433:445   */\n  revert\n    /* \"#utility.yul\":457:574   */\ntag_14:\n    /* \"#utility.yul\":566:567   */\n  0x00\n    /* \"#utility.yul\":563:564   */\n  0x00\n    /* \"#utility.yul\":556:568   */\n  revert\n    /* \"#utility.yul\":580:682   */\ntag_15:\n    /* \"#utility.yul\":621:627   */\n  0x00\n    /* \"#utility.yul\":672:674   */\n  0x1f\n    /* \"#utility.yul\":668:675   */\n  not\n    /* \"#utility.yul\":663:665   */\n  0x1f\n    /* \"#utility.yul\":656:661   */\n  dup4\n    /* \"#utility.yul\":652:666   */\n  add\n    /* \"#utility.yul\":648:676   */\n  and\n    /* \"#utility.yul\":638:676   */\n  swap1\n  pop\n    /* \"#utility.yul\":580:682   */\n  swap2\n  swap1\n  pop\n  jump\t// out\n    /* \"#utility.yul\":688:868   */\ntag_16:\n    /* \"#utility.yul\":736:813   */\n  0x4e487b7100000000000000000000000000000000000000000000000000000000\n    /* \"#utility.yul\":733:734   */\n  0x00\n    /* \"#utility.yul\":726:814   */\n  mstore\n    /* \"#utility.yul\":833:837   */\n  0x41\n    /* \"#utility.yul\":830:831   */\n  0x04\n    /* \"#utility.yul\":823:838   */\n  mstore\n    /* \"#utility.yul\":857:861   */\n  0x24\n    /* \"#utility.yul\":854:855   */\n  0x00\n    /* \"#utility.yul\":847:862   */\n  revert\n    /* \"#utility.yul\":874:1155   */\ntag_17:\n    /* \"#utility.yul\":957:984   */\n  tag_51\n    /* \"#utility.yul\":979:983   */\n  dup3\n    /* \"#utility.yul\":957:984   */\n  tag_15\n  jump\t// in\ntag_51:\n    /* \"#utility.yul\":949:955   */\n  dup2\n    /* \"#utility.yul\":945:985   */\n  add\n    /* \"#utility.yul\":1087:1093   */\n  dup2\n    /* \"#utility.yul\":1075:1085   */\n  dup2\n    /* \"#utility.yul\":1072:1094   */\n  lt\n    /* \"#utility.yul\":1051:1069   */\n  0xffffffffffffffff\n    /* \"#utility.yul\":1039:1049   */\n  dup3\n    /* \"#utility.yul\":1036:1070   */\n  gt\n    /* \"#utility.yul\":1033:1095   */\n  or\n    /* \"#utility.yul\":1030:1118   */\n  iszero\n  tag_52\n  jumpi\n    /* \"#utility.yul\":1098:1116   */\n  tag_53\n  tag_16\n  jump\t// in\ntag_53:\n    /* \"#utility.yul\":1030:1118   */\ntag_52:\n    /* \"#utility.yul\":1138:1148   */\n  dup1\n    /* \"#utility.yul\":1134:1136   */\n  0x40\n    /* \"#utility.yul\":1127:1149   */\n  mstore\n    /* \"#utility.yul\":917:1155   */\n  pop\n    /* \"#utility.yul\":874:1155   */\n  pop\n  pop\n  jump\t// out\n    /* \"#utility.yul\":1161:1290   */\ntag_18:\n    /* \"#utility.yul\":1195:1201   */\n  0x00\n    /* \"#utility.yul\":1222:1242   */\n  tag_55\n  tag_10\n  jump\t// in\ntag_55:\n    /* \"#utility.yul\":1212:1242   */\n  swap1\n  pop\n    /* \"#utility.yul\":1251:1284   */\n  tag_56\n    /* \"#utility.yul\":1279:1283   */\n  dup3\n    /* \"#utility.yul\":1271:1277   */\n  dup3\n    /* \"#utility.yul\":1251:1284   */\n  tag_17\n  jump\t// in\ntag_56:\n    /* \"#utility.yul\":1161:1290   */\n  swap2\n  swap1\n  pop\n  jump\t// out\n    /* \"#utility.yul\":1296:1604   */\ntag_19:\n    /* \"#utility.yul\":1358:1362   */\n  0x00\n    /* \"#utility.yul\":1448:1466   */\n  0xffffffffffffffff\n    /* \"#utility.yul\":1440:1446   */\n  dup3\n    /* \"#utility.yul\":1437:1467   */\n  gt\n    /* \"#utility.yul\":1434:1490   */\n  iszero\n  tag_58\n  jumpi\n    /* \"#utility.yul\":1470:1488   */\n  tag_59\n  tag_16\n  jump\t// in\ntag_59:\n    /* \"#utility.yul\":1434:1490   */\ntag_58:\n    /* \"#utility.yul\":1508:1537   */\n  tag_60\n    /* \"#utility.yul\":1530:1536   */\n  dup3\n    /* \"#utility.yul\":1508:1537   */\n  tag_15\n  jump\t// in\ntag_60:\n    /* \"#utility.yul\":1500:1537   */\n  swap1\n  pop\n    /* \"#utility.yul\":1592:1596   */\n  0x20\n    /* \"#utility.yul\":1586:1590   */\n  dup2\n    /* \"#utility.yul\":1582:1597   */\n  add\n    /* \"#utility.yul\":1574:1597   */\n  swap1\n  pop\n    /* \"#utility.yul\":1296:1604   */\n  swap2\n  swap1\n  pop\n  jump\t// out\n    /* \"#utility.yul\":1610:1749   */\ntag_20:\n    /* \"#utility.yul\":1699:1705   */\n  dup3\n    /* \"#utility.yul\":1694:1697   */\n  dup2\n    /* \"#utility.yul\":1689:1692   */\n  dup4\n    /* \"#utility.yul\":1683:1706   */\n  mcopy\n    /* \"#utility.yul\":1740:1741   */\n  0x00\n    /* \"#utility.yul\":1731:1737   */\n  dup4\n    /* \"#utility.yul\":1726:1729   */\n  dup4\n    /* \"#utility.yul\":1722:1738   */\n  add\n    /* \"#utility.yul\":1715:1742   */\n  mstore\n    /* \"#utility.yul\":1610:1749   */\n  pop\n  pop\n  pop\n  jump\t// out\n    /* \"#utility.yul\":1755:2189   */\ntag_21:\n    /* \"#utility.yul\":1844:1849   */\n  0x00\n    /* \"#utility.yul\":1869:1935   */\n  tag_63\n    /* \"#utility.yul\":1885:1934   */\n  tag_64\n    /* \"#utility.yul\":1927:1933   */\n  dup5\n    /* \"#utility.yul\":1885:1934   */\n  tag_19\n  jump\t// in\ntag_64:\n    /* \"#utility.yul\":1869:1935   */\n  tag_18\n  jump\t// in\ntag_63:\n    /* \"#utility.yul\":1860:1935   */\n  swap1\n  pop\n    /* \"#utility.yul\":1958:1964   */\n  dup3\n    /* \"#utility.yul\":1951:1956   */\n  dup2\n    /* \"#utility.yul\":1944:1965   */\n  mstore\n    /* \"#utility.yul\":1996:2000   */\n  0x20\n    /* \"#utility.yul\":1989:1994   */\n  dup2\n    /* \"#utility.yul\":1985:2001   */\n  add\n    /* \"#utility.yul\":2034:2037   */\n  dup5\n    /* \"#utility.yul\":2025:2031   */\n  dup5\n    /* \"#utility.yul\":2020:2023   */\n  dup5\n    /* \"#utility.yul\":2016:2032   */\n  add\n    /* \"#utility.yul\":2013:2038   */\n  gt\n    /* \"#utility.yul\":2010:2122   */\n  iszero\n  tag_65\n  jumpi\n    /* \"#utility.yul\":2041:2120   */\n  tag_66\n  tag_14\n  jump\t// in\ntag_66:\n    /* \"#utility.yul\":2010:2122   */\ntag_65:\n    /* \"#utility.yul\":2131:2183   */\n  tag_67\n    /* \"#utility.yul\":2176:2182   */\n  dup5\n    /* \"#utility.yul\":2171:2174   */\n  dup3\n    /* \"#utility.yul\":2166:2169   */\n  dup6\n    /* \"#utility.yul\":2131:2183   */\n  tag_20\n  jump\t// in\ntag_67:\n    /* \"#utility.yul\":1850:2189   */\n  pop\n    /* \"#utility.yul\":1755:2189   */\n  swap4\n  swap3\n  pop\n  pop\n  pop\n  jump\t// out\n    /* \"#utility.yul\":2209:2564   */\ntag_22:\n    /* \"#utility.yul\":2276:2281   */\n  0x00\n    /* \"#utility.yul\":2325:2328   */\n  dup3\n    /* \"#utility.yul\":2318:2322   */\n  0x1f\n    /* \"#utility.yul\":2310:2316   */\n  dup4\n    /* \"#utility.yul\":2306:2323   */\n  add\n    /* \"#utility.yul\":2302:2329   */\n  slt\n    /* \"#utility.yul\":2292:2414   */\n  tag_69\n  jumpi\n    /* \"#utility.yul\":2333:2412   */\n  tag_70\n  tag_13\n  jump\t// in\ntag_70:\n    /* \"#utility.yul\":2292:2414   */\ntag_69:\n    /* \"#utility.yul\":2443:2449   */\n  dup2\n    /* \"#utility.yul\":2437:2450   */\n  mload\n    /* \"#utility.yul\":2468:2558   */\n  tag_71\n    /* \"#utility.yul\":2554:2557   */\n  dup5\n    /* \"#utility.yul\":2546:2552   */\n  dup3\n    /* \"#utility.yul\":2539:2543   */\n  0x20\n    /* \"#utility.yul\":2531:2537   */\n  dup7\n    /* \"#utility.yul\":2527:2544   */\n  add\n    /* \"#utility.yul\":2468:2558   */\n  tag_21\n  jump\t// in\ntag_71:\n    /* \"#utility.yul\":2459:2558   */\n  swap2\n  pop\n    /* \"#utility.yul\":2282:2564   */\n  pop\n    /* \"#utility.yul\":2209:2564   */\n  swap3\n  swap2\n  pop\n  pop\n  jump\t// out\n    /* \"#utility.yul\":2570:3423   */\ntag_3:\n    /* \"#utility.yul\":2669:2675   */\n  0x00\n    /* \"#utility.yul\":2677:2683   */\n  0x00\n    /* \"#utility.yul\":2726:2728   */\n  0x40\n    /* \"#utility.yul\":2714:2723   */\n  dup4\n    /* \"#utility.yul\":2705:2712   */\n  dup6\n    /* \"#utility.yul\":2701:2724   */\n  sub\n    /* \"#utility.yul\":2697:2729   */\n  slt\n    /* \"#utility.yul\":2694:2813   */\n  iszero\n  tag_73\n  jumpi\n    /* \"#utility.yul\":2732:2811   */\n  tag_74\n  tag_11\n  jump\t// in\ntag_74:\n    /* \"#utility.yul\":2694:2813   */\ntag_73:\n    /* \"#utility.yul\":2873:2874   */\n  0x00\n    /* \"#utility.yul\":2862:2871   */\n  dup4\n    /* \"#utility.yul\":2858:2875   */\n  add\n    /* \"#utility.yul\":2852:2876   */\n  mload\n    /* \"#utility.yul\":2903:2921   */\n  0xffffffffffffffff\n    /* \"#utility.yul\":2895:2901   */\n  dup2\n    /* \"#utility.yul\":2892:2922   */\n  gt\n    /* \"#utility.yul\":2889:3006   */\n  iszero\n  tag_75\n  jumpi\n    /* \"#utility.yul\":2925:3004   */\n  tag_76\n  tag_12\n  jump\t// in\ntag_76:\n    /* \"#utility.yul\":2889:3006   */\ntag_75:\n    /* \"#utility.yul\":3030:3104   */\n  tag_77\n    /* \"#utility.yul\":3096:3103   */\n  dup6\n    /* \"#utility.yul\":3087:3093   */\n  dup3\n    /* \"#utility.yul\":3076:3085   */\n  dup7\n    /* \"#utility.yul\":3072:3094   */\n  add\n    /* \"#utility.yul\":3030:3104   */\n  tag_22\n  jump\t// in\ntag_77:\n    /* \"#utility.yul\":3020:3104   */\n  swap3\n  pop\n    /* \"#utility.yul\":2823:3114   */\n  pop\n    /* \"#utility.yul\":3174:3176   */\n  0x20\n    /* \"#utility.yul\":3163:3172   */\n  dup4\n    /* \"#utility.yul\":3159:3177   */\n  add\n    /* \"#utility.yul\":3153:3178   */\n  mload\n    /* \"#utility.yul\":3205:3223   */\n  0xffffffffffffffff\n    /* \"#utility.yul\":3197:3203   */\n  dup2\n    /* \"#utility.yul\":3194:3224   */\n  gt\n    /* \"#utility.yul\":3191:3308   */\n  iszero\n  tag_78\n  jumpi\n    /* \"#utility.yul\":3227:3306   */\n  tag_79\n  tag_12\n  jump\t// in\ntag_79:\n    /* \"#utility.yul\":3191:3308   */\ntag_78:\n    /* \"#utility.yul\":3332:3406   */\n  tag_80\n    /* \"#utility.yul\":3398:3405   */\n  dup6\n    /* \"#utility.yul\":3389:3395   */\n  dup3\n    /* \"#utility.yul\":3378:3387   */\n  dup7\n    /* \"#utility.yul\":3374:3396   */\n  add\n    /* \"#utility.yul\":3332:3406   */\n  tag_22\n  jump\t// in\ntag_80:\n    /* \"#utility.yul\":3322:3406   */\n  swap2\n  pop\n    /* \"#utility.yul\":3124:3416   */\n  pop\n    /* \"#utility.yul\":2570:3423   */\n  swap3\n  pop\n  swap3\n  swap1\n  pop\n  jump\t// out\n    /* \"#utility.yul\":3429:3528   */\ntag_23:\n    /* \"#utility.yul\":3481:3487   */\n  0x00\n    /* \"#utility.yul\":3515:3520   */\n  dup2\n    /* \"#utility.yul\":3509:3521   */\n  mload\n    /* \"#utility.yul\":3499:3521   */\n  swap1\n  pop\n    /* \"#utility.yul\":3429:3528   */\n  swap2\n  swap1\n  pop\n  jump\t// out\n    /* \"#utility.yul\":3534:3714   */\ntag_24:\n    /* \"#utility.yul\":3582:3659   */\n  0x4e487b7100000000000000000000000000000000000000000000000000000000\n    /* \"#utility.yul\":3579:3580   */\n  0x00\n    /* \"#utility.yul\":3572:3660   */\n  mstore\n    /* \"#utility.yul\":3679:3683   */\n  0x22\n    /* \"#utility.yul\":3676:3677   */\n  0x04\n    /* \"#utility.yul\":3669:3684   */\n  mstore\n    /* \"#utility.yul\":3703:3707   */\n  0x24\n    /* \"#utility.yul\":3700:3701   */\n  0x00\n    /* \"#utility.yul\":3693:3708   */\n  revert\n    /* \"#utility.yul\":3720:4040   */\ntag_25:\n    /* \"#utility.yul\":3764:3770   */\n  0x00\n    /* \"#utility.yul\":3801:3802   */\n  0x02\n    /* \"#utility.yul\":3795:3799   */\n  dup3\n    /* \"#utility.yul\":3791:3803   */\n  div\n    /* \"#utility.yul\":3781:3803   */\n  swap1\n  pop\n    /* \"#utility.yul\":3848:3849   */\n  0x01\n    /* \"#utility.yul\":3842:3846   */\n  dup3\n    /* \"#utility.yul\":3838:3850   */\n  and\n    /* \"#utility.yul\":3869:3887   */\n  dup1\n    /* \"#utility.yul\":3859:3940   */\n  tag_84\n  jumpi\n    /* \"#utility.yul\":3925:3929   */\n  0x7f\n    /* \"#utility.yul\":3917:3923   */\n  dup3\n    /* \"#utility.yul\":3913:3930   */\n  and\n    /* \"#utility.yul\":3903:3930   */\n  swap2\n  pop\n    /* \"#utility.yul\":3859:3940   */\ntag_84:\n    /* \"#utility.yul\":3987:3989   */\n  0x20\n    /* \"#utility.yul\":3979:3985   */\n  dup3\n    /* \"#utility.yul\":3976:3990   */\n  lt\n    /* \"#utility.yul\":3956:3974   */\n  dup2\n    /* \"#utility.yul\":3953:3991   */\n  sub\n    /* \"#utility.yul\":3950:4034   */\n  tag_85\n  jumpi\n    /* \"#utility.yul\":4006:4024   */\n  tag_86\n  tag_24\n  jump\t// in\ntag_86:\n    /* \"#utility.yul\":3950:4034   */\ntag_85:\n    /* \"#utility.yul\":3771:4040   */\n  pop\n    /* \"#utility.yul\":3720:4040   */\n  swap2\n  swap1\n  pop\n  jump\t// out\n    /* \"#utility.yul\":4046:4187   */\ntag_26:\n    /* \"#utility.yul\":4095:4099   */\n  0x00\n    /* \"#utility.yul\":4118:4121   */\n  dup2\n    /* \"#utility.yul\":4110:4121   */\n  swap1\n  pop\n    /* \"#utility.yul\":4141:4144   */\n  dup2\n    /* \"#utility.yul\":4138:4139   */\n  0x00\n    /* \"#utility.yul\":4131:4145   */\n  mstore\n    /* \"#utility.yul\":4175:4179   */\n  0x20\n    /* \"#utility.yul\":4172:4173   */\n  0x00\n    /* \"#utility.yul\":4162:4180   */\n  keccak256\n    /* \"#utility.yul\":4154:4180   */\n  swap1\n  pop\n    /* \"#utility.yul\":4046:4187   */\n  swap2\n  swap1\n  pop\n  jump\t// out\n    /* \"#utility.yul\":4193:4286   */\ntag_27:\n    /* \"#utility.yul\":4230:4236   */\n  0x00\n    /* \"#utility.yul\":4277:4279   */\n  0x20\n    /* \"#utility.yul\":4272:4274   */\n  0x1f\n    /* \"#utility.yul\":4265:4270   */\n  dup4\n    /* \"#utility.yul\":4261:4275   */\n  add\n    /* \"#utility.yul\":4257:4280   */\n  div\n    /* \"#utility.yul\":4247:4280   */\n  swap1\n  pop\n    /* \"#utility.yul\":4193:4286   */\n  swap2\n  swap1\n  pop\n  jump\t// out\n    /* \"#utility.yul\":4292:4399   */\ntag_28:\n    /* \"#utility.yul\":4336:4344   */\n  0x00\n    /* \"#utility.yul\":4386:4391   */\n  dup3\n    /* \"#utility.yul\":4380:4384   */\n  dup3\n    /* \"#utility.yul\":4376:4392   */\n  shl\n    /* \"#utility.yul\":4355:4392   */\n  swap1\n  pop\n    /* \"#utility.yul\":4292:4399   */\n  swap3\n  swap2\n  pop\n  pop\n  jump\t// out\n    /* \"#utility.yul\":4405:4798   */\ntag_29:\n    /* \"#utility.yul\":4474:4480   */\n  0x00\n    /* \"#utility.yul\":4524:4525   */\n  0x08\n    /* \"#utility.yul\":4512:4522   */\n  dup4\n    /* \"#utility.yul\":4508:4526   */\n  mul\n    /* \"#utility.yul\":4547:4644   */\n  tag_91\n    /* \"#utility.yul\":4577:4643   */\n  0xffffffffffffffffffffffffffffffffffffffffffffffffffffffffffffffff\n    /* \"#utility.yul\":4566:4575   */\n  dup3\n    /* \"#utility.yul\":4547:4644   */\n  tag_28\n  jump\t// in\ntag_91:\n    /* \"#utility.yul\":4665:4704   */\n  tag_92\n    /* \"#utility.yul\":4695:4703   */\n  dup7\n    /* \"#utility.yul\":4684:4693   */\n  dup4\n    /* \"#utility.yul\":4665:4704   */\n  tag_28\n  jump\t// in\ntag_92:\n    /* \"#utility.yul\":4653:4704   */\n  swap6\n  pop\n    /* \"#utility.yul\":4737:4741   */\n  dup1\n    /* \"#utility.yul\":4733:4742   */\n  not\n    /* \"#utility.yul\":4726:4731   */\n  dup5\n    /* \"#utility.yul\":4722:4743   */\n  and\n    /* \"#utility.yul\":4713:4743   */\n  swap4\n  pop\n    /* \"#utility.yul\":4786:4790   */\n  dup1\n    /* \"#utility.yul\":4776:4784   */\n  dup7\n    /* \"#utility.yul\":4772:4791   */\n  and\n    /* \"#utility.yul\":4765:4770   */\n  dup5\n    /* \"#utility.yul\":4762:4792   */\n  or\n    /* \"#utility.yul\":4752:4792   */\n  swap3\n  pop\n    /* \"#utility.yul\":4481:4798   */\n  pop\n  pop\n    /* \"#utility.yul\":4405:4798   */\n  swap4\n  swap3\n  pop\n  pop\n  pop\n  jump\t// out\n    /* \"#utility.yul\":4804:4881   */\ntag_30:\n    /* \"#utility.yul\":4841:4848   */\n  0x00\n    /* \"#utility.yul\":4870:4875   */\n  dup2\n    /* \"#utility.yul\":4859:4875   */\n  swap1\n  pop\n    /* \"#utility.yul\":4804:4881   */\n  swap2\n  swap1\n  pop\n  jump\t// out\n    /* \"#utility.yul\":4887:4947   */\ntag_31:\n    /* \"#utility.yul\":4915:4918   */\n  0x00\n    /* \"#utility.yul\":4936:4941   */\n  dup2\n    /* \"#utility.yul\":4929:4941   */\n  swap1\n  pop\n    /* \"#utility.yul\":4887:4947   */\n  swap2\n  swap1\n  pop\n  jump\t// out\n    /* \"#utility.yul\":4953:5095   */\ntag_32:\n    /* \"#utility.yul\":5003:5012   */\n  0x00\n    /* \"#utility.yul\":5036:5089   */\n  tag_96\n    /* \"#utility.yul\":5054:5088   */\n  tag_97\n    /* \"#utility.yul\":5063:5087   */\n  tag_98\n    /* \"#utility.yul\":5081:5086   */\n  dup5\n    /* \"#utility.yul\":5063:5087   */\n  tag_30\n  jump\t// in\ntag_98:\n    /* \"#utility.yul\":5054:5088   */\n  tag_31\n  jump\t// in\ntag_97:\n    /* \"#utility.yul\":5036:5089   */\n  tag_30\n  jump\t// in\ntag_96:\n    /* \"#utility.yul\":5023:5089   */\n  swap1\n  pop\n    /* \"#utility.yul\":4953:5095   */\n  swap2\n  swap1\n  pop\n  jump\t// out\n    /* \"#utility.yul\":5101:5176   */\ntag_33:\n    /* \"#utility.yul\":5144:5147   */\n  0x00\n    /* \"#utility.yul\":5165:5170   */\n  dup2\n    /* \"#utility.yul\":5158:5170   */\n  swap1\n  pop\n    /* \"#utility.yul\":5101:5176   */\n  swap2\n  swap1\n  pop\n  jump\t// out\n    /* \"#utility.yul\":5182:5451   */\ntag_34:\n    /* \"#utility.yul\":5292:5331   */\n  tag_101\n    /* \"#utility.yul\":5323:5330   */\n  dup4\n    /* \"#utility.yul\":5292:5331   */\n  tag_32\n  jump\t// in\ntag_101:\n    /* \"#utility.yul\":5353:5444   */\n  tag_102\n    /* \"#utility.yul\":5402:5443   */\n  tag_103\n    /* \"#utility.yul\":5426:5442   */\n  dup3\n    /* \"#utility.yul\":5402:5443   */\n  tag_33\n  jump\t// in\ntag_103:\n    /* \"#utility.yul\":5394:5400   */\n  dup5\n    /* \"#utility.yul\":5387:5391   */\n  dup5\n    /* \"#utility.yul\":5381:5392   */\n  sload\n    /* \"#utility.yul\":5353:5444   */\n  tag_29\n  jump\t// in\ntag_102:\n    /* \"#utility.yul\":5347:5351   */\n  dup3\n    /* \"#utility.yul\":5340:5445   */\n  sstore\n    /* \"#utility.yul\":5258:5451   */\n  pop\n    /* \"#utility.yul\":5182:5451   */\n  pop\n  pop\n  pop\n  jump\t// out\n    /* \"#utility.yul\":5457:5530   */\ntag_35:\n    /* \"#utility.yul\":5502:5505   */\n  0x00\n    /* \"#utility.yul\":5523:5524   */\n  0x00\n    /* \"#utility.yul\":5516:5524   */\n  swap1\n  pop\n    /* \"#utility.yul\":5457:5530   */\n  swap1\n  jump\t// out\n    /* \"#utility.yul\":5536:5725   */\ntag_36:\n    /* \"#utility.yul\":5613:5645   */\n  tag_106\n  tag_35\n  jump\t// in\ntag_106:\n    /* \"#utility.yul\":5654:5719   */\n  tag_107\n    /* \"#utility.yul\":5712:5718   */\n  dup2\n    /* \"#utility.yul\":5704:5710   */\n  dup5\n    /* \"#utility.yul\":5698:5702   */\n  dup5\n    /* \"#utility.yul\":5654:5719   */\n  tag_34\n  jump\t// in\ntag_107:\n    /* \"#utility.yul\":5589:5725   */\n  pop\n    /* \"#utility.yul\":5536:5725   */\n  pop\n  pop\n  jump\t// out\n    /* \"#utility.yul\":5731:5917   */\ntag_37:\n    /* \"#utility.yul\":5791:5911   */\ntag_109:\n    /* \"#utility.yul\":5808:5811   */\n  dup2\n    /* \"#utility.yul\":5801:5806   */\n  dup2\n    /* \"#utility.yul\":5798:5812   */\n  lt\n    /* \"#utility.yul\":5791:5911   */\n  iszero\n  tag_111\n  jumpi\n    /* \"#utility.yul\":5862:5901   */\n  tag_112\n    /* \"#utility.yul\":5899:5900   */\n  0x00\n    /* \"#utility.yul\":5892:5897   */\n  dup3\n    /* \"#utility.yul\":5862:5901   */\n  tag_36\n  jump\t// in\ntag_112:\n    /* \"#utility.yul\":5835:5836   */\n  0x01\n    /* \"#utility.yul\":5828:5833   */\n  dup2\n    /* \"#utility.yul\":5824:5837   */\n  add\n    /* \"#utility.yul\":5815:5837   */\n  swap1\n  pop\n    /* \"#utility.yul\":5791:5911   */\n  jump(tag_109)\ntag_111:\n    /* \"#utility.yul\":5731:5917   */\n  pop\n  pop\n  jump\t// out\n    /* \"#utility.yul\":5923:6466   */\ntag_38:\n    /* \"#utility.yul\":6024:6026   */\n  0x1f\n    /* \"#utility.yul\":6019:6022   */\n  dup3\n    /* \"#utility.yul\":6016:6027   */\n  gt\n    /* \"#utility.yul\":6013:6459   */\n  iszero\n  tag_114\n  jumpi\n    /* \"#utility.yul\":6058:6096   */\n  tag_115\n    /* \"#utility.yul\":6090:6095   */\n  dup2\n    /* \"#utility.yul\":6058:6096   */\n  tag_26\n  jump\t// in\ntag_115:\n    /* \"#utility.yul\":6142:6171   */\n  tag_116\n    /* \"#utility.yul\":6160:6170   */\n  dup5\n    /* \"#utility.yul\":6142:6171   */\n  tag_27\n  jump\t// in\ntag_116:\n    /* \"#utility.yul\":6132:6140   */\n  dup2\n    /* \"#utility.yul\":6128:6172   */\n  add\n    /* \"#utility.yul\":6325:6327   */\n  0x20\n    /* \"#utility.yul\":6313:6323   */\n  dup6\n    /* \"#utility.yul\":6310:6328   */\n  lt\n    /* \"#utility.yul\":6307:6356   */\n  iszero\n  tag_117\n  jumpi\n    /* \"#utility.yul\":6346:6354   */\n  dup2\n    /* \"#utility.yul\":6331:6354   */\n  swap1\n  pop\n    /* \"#utility.yul\":6307:6356   */\ntag_117:\n    /* \"#utility.yul\":6369:6449   */\n  tag_118\n    /* \"#utility.yul\":6425:6447   */\n  tag_119\n    /* \"#utility.yul\":6443:6446   */\n  dup6\n    /* \"#utility.yul\":6425:6447   */\n  tag_27\n  jump\t// in\ntag_119:\n    /* \"#utility.yul\":6415:6423   */\n  dup4\n    /* \"#utility.yul\":6411:6448   */\n  add\n    /* \"#utility.yul\":6398:6409   */\n  dup3\n    /* \"#utility.yul\":6369:6449   */\n  tag_37\n  jump\t// in\ntag_118:\n    /* \"#utility.yul\":6028:6459   */\n  pop\n  pop\n    /* \"#utility.yul\":6013:6459   */\ntag_114:\n    /* \"#utility.yul\":5923:6466   */\n  pop\n  pop\n  pop\n  jump\t// out\n    /* \"#utility.yul\":6472:6589   */\ntag_39:\n    /* \"#utility.yul\":6526:6534   */\n  0x00\n    /* \"#utility.yul\":6576:6581   */\n  dup3\n    /* \"#utility.yul\":6570:6574   */\n  dup3\n    /* \"#utility.yul\":6566:6582   */\n  shr\n    /* \"#utility.yul\":6545:6582   */\n  swap1\n  pop\n    /* \"#utility.yul\":6472:6589   */\n  swap3\n  swap2\n  pop\n  pop\n  jump\t// out\n    /* \"#utility.yul\":6595:6764   */\ntag_40:\n    /* \"#utility.yul\":6639:6645   */\n  0x00\n    /* \"#utility.yul\":6672:6723   */\n  tag_122\n    /* \"#utility.yul\":6720:6721   */\n  0x00\n    /* \"#utility.yul\":6716:6722   */\n  not\n    /* \"#utility.yul\":6708:6713   */\n  dup5\n    /* \"#utility.yul\":6705:6706   */\n  0x08\n    /* \"#utility.yul\":6701:6714   */\n  mul\n    /* \"#utility.yul\":6672:6723   */\n  tag_39\n  jump\t// in\ntag_122:\n    /* \"#utility.yul\":6668:6724   */\n  not\n    /* \"#utility.yul\":6753:6757   */\n  dup1\n    /* \"#utility.yul\":6747:6751   */\n  dup4\n    /* \"#utility.yul\":6743:6758   */\n  and\n    /* \"#utility.yul\":6733:6758   */\n  swap2\n  pop\n    /* \"#utility.yul\":6646:6764   */\n  pop\n    /* \"#utility.yul\":6595:6764   */\n  swap3\n  swap2\n  pop\n  pop\n  jump\t// out\n    /* \"#utility.yul\":6769:7064   */\ntag_41:\n    /* \"#utility.yul\":6845:6849   */\n  0x00\n    /* \"#utility.yul\":6991:7020   */\n  tag_124\n    /* \"#utility.yul\":7016:7019   */\n  dup4\n    /* \"#utility.yul\":7010:7014   */\n  dup4\n    /* \"#utility.yul\":6991:7020   */\n  tag_40\n  jump\t// in\ntag_124:\n    /* \"#utility.yul\":6983:7020   */\n  swap2\n  pop\n    /* \"#utility.yul\":7053:7056   */\n  dup3\n    /* \"#utility.yul\":7050:7051   */\n  0x02\n    /* \"#utility.yul\":7046:7057   */\n  mul\n    /* \"#utility.yul\":7040:7044   */\n  dup3\n    /* \"#utility.yul\":7037:7058   */\n  or\n    /* \"#utility.yul\":7029:7058   */\n  swap1\n  pop\n    /* \"#utility.yul\":6769:7064   */\n  swap3\n  swap2\n  pop\n  pop\n  jump\t// out\n    /* \"#utility.yul\":7069:8464   */\ntag_7:\n    /* \"#utility.yul\":7186:7223   */\n  tag_126\n    /* \"#utility.yul\":7219:7222   */\n  dup3\n    /* \"#utility.yul\":7186:7223   */\n  tag_23\n  jump\t// in\ntag_126:\n    /* \"#utility.yul\":7288:7306   */\n  0xffffffffffffffff\n    /* \"#utility.yul\":7280:7286   */\n  dup2\n    /* \"#utility.yul\":7277:7307   */\n  gt\n    /* \"#utility.yul\":7274:7330   */\n  iszero\n  tag_127\n  jumpi\n    /* \"#utility.yul\":7310:7328   */\n  tag_128\n  tag_16\n  jump\t// in\ntag_128:\n    /* \"#utility.yul\":7274:7330   */\ntag_127:\n    /* \"#utility.yul\":7354:7392   */\n  tag_129\n    /* \"#utility.yul\":7386:7390   */\n  dup3\n    /* \"#utility.yul\":7380:7391   */\n  sload\n    /* \"#utility.yul\":7354:7392   */\n  tag_25\n  jump\t// in\ntag_129:\n    /* \"#utility.yul\":7439:7506   */\n  tag_130\n    /* \"#utility.yul\":7499:7505   */\n  dup3\n    /* \"#utility.yul\":7491:7497   */\n  dup3\n    /* \"#utility.yul\":7485:7489   */\n  dup6\n    /* \"#utility.yul\":7439:7506   */\n  tag_38\n  jump\t// in\ntag_130:\n    /* \"#utility.yul\":7533:7534   */\n  0x00\n    /* \"#utility.yul\":7557:7561   */\n  0x20\n    /* \"#utility.yul\":7544:7561   */\n  swap1\n  pop\n    /* \"#utility.yul\":7589:7591   */\n  0x1f\n    /* \"#utility.yul\":7581:7587   */\n  dup4\n    /* \"#utility.yul\":7578:7592   */\n  gt\n    /* \"#utility.yul\":7606:7607   */\n  0x01\n    /* \"#utility.yul\":7601:8219   */\n  dup2\n  eq\n  tag_132\n  jumpi\n    /* \"#utility.yul\":8263:8264   */\n  0x00\n    /* \"#utility.yul\":8280:8286   */\n  dup5\n    /* \"#utility.yul\":8277:8354   */\n  iszero\n  tag_133\n  jumpi\n    /* \"#utility.yul\":8329:8338   */\n  dup3\n    /* \"#utility.yul\":8324:8327   */\n  dup8\n    /* \"#utility.yul\":8320:8339   */\n  add\n    /* \"#utility.yul\":8314:8340   */\n  mload\n    /* \"#utility.yul\":8305:8340   */\n  swap1\n  pop\n    /* \"#utility.yul\":8277:8354   */\ntag_133:\n    /* \"#utility.yul\":8380:8447   */\n  tag_134\n    /* \"#utility.yul\":8440:8446   */\n  dup6\n    /* \"#utility.yul\":8433:8438   */\n  dup3\n    /* \"#utility.yul\":8380:8447   */\n  tag_41\n  jump\t// in\ntag_134:\n    /* \"#utility.yul\":8374:8378   */\n  dup7\n    /* \"#utility.yul\":8367:8448   */\n  sstore\n    /* \"#utility.yul\":8236:8458   */\n  pop\n    /* \"#utility.yul\":7571:8458   */\n  jump(tag_131)\n    /* \"#utility.yul\":7601:8219   */\ntag_132:\n    /* \"#utility.yul\":7653:7657   */\n  0x1f\n    /* \"#utility.yul\":7649:7658   */\n  not\n    /* \"#utility.yul\":7641:7647   */\n  dup5\n    /* \"#utility.yul\":7637:7659   */\n  and\n    /* \"#utility.yul\":7687:7724   */\n  tag_135\n    /* \"#utility.yul\":7719:7723   */\n  dup7\n    /* \"#utility.yul\":7687:7724   */\n  tag_26\n  jump\t// in\ntag_135:\n    /* \"#utility.yul\":7746:7747   */\n  0x00\n    /* \"#utility.yul\":7760:7968   */\ntag_136:\n    /* \"#utility.yul\":7774:7781   */\n  dup3\n    /* \"#utility.yul\":7771:7772   */\n  dup2\n    /* \"#utility.yul\":7768:7782   */\n  lt\n    /* \"#utility.yul\":7760:7968   */\n  iszero\n  tag_138\n  jumpi\n    /* \"#utility.yul\":7853:7862   */\n  dup5\n    /* \"#utility.yul\":7848:7851   */\n  dup10\n    /* \"#utility.yul\":7844:7863   */\n  add\n    /* \"#utility.yul\":7838:7864   */\n  mload\n    /* \"#utility.yul\":7830:7836   */\n  dup3\n    /* \"#utility.yul\":7823:7865   */\n  sstore\n    /* \"#utility.yul\":7904:7905   */\n  0x01\n    /* \"#utility.yul\":7896:7902   */\n  dup3\n    /* \"#utility.yul\":7892:7906   */\n  add\n    /* \"#utility.yul\":7882:7906   */\n  swap2\n  pop\n    /* \"#utility.yul\":7951:7953   */\n  0x20\n    /* \"#utility.yul\":7940:7949   */\n  dup6\n    /* \"#utility.yul\":7936:7954   */\n  add\n    /* \"#utility.yul\":7923:7954   */\n  swap5\n  pop\n    /* \"#utility.yul\":7797:7801   */\n  0x20\n    /* \"#utility.yul\":7794:7795   */\n  dup2\n    /* \"#utility.yul\":7790:7802   */\n  add\n    /* \"#utility.yul\":7785:7802   */\n  swap1\n  pop\n    /* \"#utility.yul\":7760:7968   */\n  jump(tag_136)\ntag_138:\n    /* \"#utility.yul\":7996:8002   */\n  dup7\n    /* \"#utility.yul\":7987:7994   */\n  dup4\n    /* \"#utility.yul\":7984:8003   */\n  lt\n    /* \"#utility.yul\":7981:8160   */\n  iszero\n  tag_139\n  jumpi\n    /* \"#utility.yul\":8054:8063   */\n  dup5\n    /* \"#utility.yul\":8049:8052   */\n  dup10\n    /* \"#utility.yul\":8045:8064   */\n  add\n    /* \"#utility.yul\":8039:8065   */\n  mload\n    /* \"#utility.yul\":8097:8145   */\n  tag_140\n    /* \"#utility.yul\":8139:8143   */\n  0x1f\n    /* \"#utility.yul\":8131:8137   */\n  dup10\n    /* \"#utility.yul\":8127:8144   */\n  and\n    /* \"#utility.yul\":8116:8125   */\n  dup3\n    /* \"#utility.yul\":8097:8145   */\n  tag_40\n  jump\t// in\ntag_140:\n    /* \"#utility.yul\":8089:8095   */\n  dup4\n    /* \"#utility.yul\":8082:8146   */\n  sstore\n    /* \"#utility.yul\":8004:8160   */\n  pop\n    /* \"#utility.yul\":7981:8160   */\ntag_139:\n    /* \"#utility.yul\":8206:8207   */\n  0x01\n    /* \"#utility.yul\":8202:8203   */\n  0x02\n    /* \"#utility.yul\":8194:8200   */\n  dup9\n    /* \"#utility.yul\":8190:8204   */\n  mul\n    /* \"#utility.yul\":8186:8208   */\n  add\n    /* \"#utility.yul\":8180:8184   */\n  dup9\n    /* \"#utility.yul\":8173:8209   */\n  sstore\n    /* \"#utility.yul\":7608:8219   */\n  pop\n  pop\n  pop\n    /* \"#utility.yul\":7571:8458   */\ntag_131:\n  pop\n    /* \"#utility.yul\":7161:8464   */\n  pop\n  pop\n  pop\n    /* \"#utility.yul\":7069:8464   */\n  pop\n  pop\n  jump\t// out\n    /* \"RealEstateERC721.sol\":60:5996  contract RealEstateERC721 {... */\ntag_9:\n  dataSize(sub_0)\n  dup1\n  dataOffset(sub_0)\n  0x00\n  codecopy\n  0x00\n  return\nstop\n\nsub_0: assembly {\n        /* \"RealEstateERC721.sol\":60:5996  contract RealEstateERC721 {... */\n      mstore(0x40, 0x80)\n      callvalue\n      dup1\n      iszero\n      tag_1\n      jumpi\n      revert(0x00, 0x00)\n    tag_1:\n      pop\n      jumpi(tag_2, lt(calldatasize, 0x04))\n      shr(0xe0, calldataload(0x00))\n      dup1\n      0x76e56794\n      gt\n      tag_17\n      jumpi\n      dup1\n      0x95d89b41\n      gt\n      tag_18\n      jumpi\n      dup1\n      0x95d89b41\n      eq\n      tag_13\n      jumpi\n      dup1\n      0xa22cb465\n      eq\n      tag_14\n      jumpi\n      dup1\n      0xbdbed722\n      eq\n      tag_15\n      jumpi\n      dup1\n      0xe985e9c5\n      eq\n      tag_16\n      jumpi\n      jump(tag_2)\n    tag_18:\n      dup1\n      0x76e56794\n      eq\n      tag_10\n      jumpi\n      dup1\n      0x81db4147\n      eq\n      tag_11\n      jumpi\n      dup1\n      0x85a59b21\n      eq\n      tag_12\n      jumpi\n      jump(tag_2)\n    tag_17:\n      dup1\n      0x126dbe43\n      gt\n      tag_19\n      jumpi\n      dup1\n      0x126dbe43\n      eq\n      tag_6\n      jumpi\n      dup1\n      0x42842e0e\n      eq\n      tag_7\n      jumpi\n      dup1\n      0x6352211e\n      eq\n      tag_8\n      jumpi\n      dup1\n      0x70a08231\n      eq\n      tag_9\n      jumpi\n      jump(tag_2)\n    tag_19:\n      dup1\n      0x06fdde03\n      eq\n      tag_3\n      jumpi\n      dup1\n      0x081812fc\n      eq\n      tag_4\n      jumpi\n      dup1\n      0x095ea7b3\n      eq\n      tag_5\n      jumpi\n    tag_2:\n      revert(0x00, 0x00)\n        /* \"RealEstateERC721.sol\":1270:1353  function name() public view returns (string memory) {... */\n    tag_3:\n      tag_20\n      tag_21\n      jump\t// in\n    tag_20:\n      mload(0x40)\n      tag_22\n      swap2\n      swap1\n      tag_23\n      jump\t// in\n    tag_22:\n      mload(0x40)\n      dup1\n      swap2\n      sub\n      swap1\n      return\n        /* \"RealEstateERC721.sol\":5388:5566  function getApproved(uint256 tokenId) public view returns (address) {... */\n    tag_4:\n      tag_24\n      0x04\n      dup1\n      calldatasize\n      sub\n      dup2\n      add\n      swap1\n      tag_25\n      swap2\n      swap1\n      tag_26\n      jump\t// in\n    tag_25:\n      tag_27\n      jump\t// in\n    tag_24:\n      mload(0x40)\n      tag_28\n      swap2\n      swap1\n      tag_29\n      jump\t// in\n    tag_28:\n      mload(0x40)\n      dup1\n      swap2\n      sub\n      swap1\n      return\n        /* \"RealEstateERC721.sol\":4914:5213  function approve(address to, uint256 tokenId) public {... */\n    tag_5:\n      tag_30\n      0x04\n      dup1\n      calldatasize\n      sub\n      dup2\n      add\n      swap1\n      tag_31\n      swap2\n      swap1\n      tag_32\n      jump\t// in\n    tag_31:\n      tag_33\n      jump\t// in\n    tag_30:\n      stop\n        /* \"RealEstateERC721.sol\":2960:3160  function getPropertyDetails(uint256 tokenId) public view returns (PropertyDetails memory) {... */\n    tag_6:\n      tag_34\n      0x04\n      dup1\n      calldatasize\n      sub\n      dup2\n      add\n      swap1\n      tag_35\n      swap2\n      swap1\n      tag_26\n      jump\t// in\n    tag_35:\n      tag_36\n      jump\t// in\n    tag_34:\n      mload(0x40)\n      tag_37\n      swap2\n      swap1\n      tag_38\n      jump\t// in\n    tag_37:\n      mload(0x40)\n      dup1\n      swap2\n      sub\n      swap1\n      return\n        /* \"RealEstateERC721.sol\":4102:4402  function safeTransferFrom(... */\n    tag_7:\n      tag_39\n      0x04\n      dup1\n      calldatasize\n      sub\n      dup2\n      add\n      swap1\n      tag_40\n      swap2\n      swap1\n      tag_41\n      jump\t// in\n    tag_40:\n      tag_42\n      jump\t// in\n    tag_39:\n      stop\n        /* \"RealEstateERC721.sol\":3663:3864  function ownerOf(uint256 tokenId) public view returns (address) {... */\n    tag_8:\n      tag_43\n      0x04\n      dup1\n      calldatasize\n      sub\n      dup2\n      add\n      swap1\n      tag_44\n      swap2\n      swap1\n      tag_26\n      jump\t// in\n    tag_44:\n      tag_45\n      jump\t// in\n    tag_43:\n      mload(0x40)\n      tag_46\n      swap2\n      swap1\n      tag_29\n      jump\t// in\n    tag_46:\n      mload(0x40)\n      dup1\n      swap2\n      sub\n      swap1\n      return\n        /* \"RealEstateERC721.sol\":3872:4043  function balanceOf(address owner) public view returns (uint256) {... */\n    tag_9:\n      tag_47\n      0x04\n      dup1\n      calldatasize\n      sub\n      dup2\n      add\n      swap1\n      tag_48\n      swap2\n      swap1\n      tag_49\n      jump\t// in\n    tag_48:\n      tag_50\n      jump\t// in\n    tag_47:\n      mload(0x40)\n      tag_51\n      swap2\n      swap1\n      tag_52\n      jump\t// in\n    tag_51:\n      mload(0x40)\n      dup1\n      swap2\n      sub\n      swap1\n      return\n        /* \"RealEstateERC721.sol\":3363:3655  function getTokenIdByCadastralNumber(string memory _cadastralNumber) public view returns (uint256) {... */\n    tag_10:\n      tag_53\n      0x04\n      dup1\n      calldatasize\n      sub\n      dup2\n      add\n      swap1\n      tag_54\n      swap2\n      swap1\n      tag_55\n      jump\t// in\n    tag_54:\n      tag_56\n      jump\t// in\n    tag_53:\n      mload(0x40)\n      tag_57\n      swap2\n      swap1\n      tag_52\n      jump\t// in\n    tag_57:\n      mload(0x40)\n      dup1\n      swap2\n      sub\n      swap1\n      return\n        /* \"RealEstateERC721.sol\":369:427  mapping(uint256 => PropertyDetails) public propertyDetails */\n    tag_11:\n      tag_58\n      0x04\n      dup1\n      calldatasize\n      sub\n      dup2\n      add\n      swap1\n      tag_59\n      swap2\n      swap1\n      tag_26\n      jump\t// in\n    tag_59:\n      tag_60\n      jump\t// in\n    tag_58:\n      mload(0x40)\n      tag_61\n      swap4\n      swap3\n      swap2\n      swap1\n      tag_62\n      jump\t// in\n    tag_61:\n      mload(0x40)\n      dup1\n      swap2\n      sub\n      swap1\n      return\n        /* \"RealEstateERC721.sol\":2297:2904  function mintProperty(... */\n    tag_12:\n      tag_63\n      0x04\n      dup1\n      calldatasize\n      sub\n      dup2\n      add\n      swap1\n      tag_64\n      swap2\n      swap1\n      tag_65\n      jump\t// in\n    tag_64:\n      tag_66\n      jump\t// in\n    tag_63:\n      stop\n        /* \"RealEstateERC721.sol\":1413:1500  function symbol() public view returns (string memory) {... */\n    tag_13:\n      tag_67\n      tag_68\n      jump\t// in\n    tag_67:\n      mload(0x40)\n      tag_69\n      swap2\n      swap1\n      tag_23\n      jump\t// in\n    tag_69:\n      mload(0x40)\n      dup1\n      swap2\n      sub\n      swap1\n      return\n        /* \"RealEstateERC721.sol\":5574:5838  function setApprovalForAll(address operator, bool approved) public {... */\n    tag_14:\n      tag_70\n      0x04\n      dup1\n      calldatasize\n      sub\n      dup2\n      add\n      swap1\n      tag_71\n      swap2\n      swap1\n      tag_72\n      jump\t// in\n    tag_71:\n      tag_73\n      jump\t// in\n    tag_70:\n      stop\n        /* \"RealEstateERC721.sol\":3206:3309  function getAllTokenIds() public view returns (uint256[] memory) {... */\n    tag_15:\n      tag_74\n      tag_75\n      jump\t// in\n    tag_74:\n      mload(0x40)\n      tag_76\n      swap2\n      swap1\n      tag_77\n      jump\t// in\n    tag_76:\n      mload(0x40)\n      dup1\n      swap2\n      sub\n      swap1\n      return\n        /* \"RealEstateERC721.sol\":5846:5993  function isApprovedForAll(address owner, address operator) public view returns (bool) {... */\n    tag_16:\n      tag_78\n      0x04\n      dup1\n      calldatasize\n      sub\n      dup2\n      add\n      swap1\n      tag_79\n      swap2\n      swap1\n      tag_80\n      jump\t// in\n    tag_79:\n      tag_81\n      jump\t// in\n    tag_78:\n      mload(0x40)\n      tag_82\n      swap2\n      swap1\n      tag_83\n      jump\t// in\n    tag_82:\n      mload(0x40)\n      dup1\n      swap2\n      sub\n      swap1\n      return\n        /* \"RealEstateERC721.sol\":1270:1353  function name() public view returns (string memory) {... */\n    tag_21:\n        /* \"RealEstateERC721.sol\":1307:1320  string memory */\n      0x60\n        /* \"RealEstateERC721.sol\":1340:1345  _name */\n      0x05\n        /* \"RealEstateERC721.sol\":1333:1345  return _name */\n      dup1\n      sload\n      tag_85\n      swap1\n      tag_86\n      jump\t// in\n    tag_85:\n      dup1\n      0x1f\n      add\n      0x20\n      dup1\n      swap2\n      div\n      mul\n      0x20\n      add\n      mload(0x40)\n      swap1\n      dup2\n      add\n      0x40\n      mstore\n      dup1\n      swap3\n      swap2\n      swap1\n      dup2\n      dup2\n      mstore\n      0x20\n      add\n      dup3\n      dup1\n      sload\n      tag_87\n      swap1\n      tag_86\n      jump\t// in\n    tag_87:\n      dup1\n      iszero\n      tag_88\n      jumpi\n      dup1\n      0x1f\n      lt\n      tag_89\n      jumpi\n      0x0100\n      dup1\n      dup4\n      sload\n      div\n      mul\n      dup4\n      mstore\n      swap2\n      0x20\n      add\n      swap2\n      jump(tag_88)\n    tag_89:\n      dup3\n      add\n      swap2\n      swap1\n      0x00\n      mstore\n      keccak256(0x00, 0x20)\n      swap1\n    tag_90:\n      dup2\n      sload\n      dup2\n      mstore\n      swap1\n      0x01\n      add\n      swap1\n      0x20\n      add\n      dup1\n      dup4\n      gt\n      tag_90\n      jumpi\n      dup3\n      swap1\n      sub\n      0x1f\n      and\n      dup3\n      add\n      swap2\n    tag_88:\n      pop\n      pop\n      pop\n      pop\n      pop\n      swap1\n      pop\n        /* \"RealEstateERC721.sol\":1270:1353  function name() public view returns (string memory) {... */\n      swap1\n      jump\t// out\n        /* \"RealEstateERC721.sol\":5388:5566  function getApproved(uint256 tokenId) public view returns (address) {... */\n    tag_27:\n        /* \"RealEstateERC721.sol\":5447:5454  address */\n      0x00\n        /* \"RealEstateERC721.sol\":5475:5491  _exists(tokenId) */\n      tag_92\n        /* \"RealEstateERC721.sol\":5483:5490  tokenId */\n      dup3\n        /* \"RealEstateERC721.sol\":5475:5482  _exists */\n      tag_93\n        /* \"RealEstateERC721.sol\":5475:5491  _exists(tokenId) */\n      jump\t// in\n    tag_92:\n        /* \"RealEstateERC721.sol\":5467:5516  require(_exists(tokenId), \"Token does not exist\") */\n      tag_94\n      jumpi\n      mload(0x40)\n      0x08c379a000000000000000000000000000000000000000000000000000000000\n      dup2\n      mstore\n      0x04\n      add\n      tag_95\n      swap1\n      tag_96\n      jump\t// in\n    tag_95:\n      mload(0x40)\n      dup1\n      swap2\n      sub\n      swap1\n      revert\n    tag_94:\n        /* \"RealEstateERC721.sol\":5534:5549  _tokenApprovals */\n      0x03\n        /* \"RealEstateERC721.sol\":5534:5558  _tokenApprovals[tokenId] */\n      0x00\n        /* \"RealEstateERC721.sol\":5550:5557  tokenId */\n      dup4\n        /* \"RealEstateERC721.sol\":5534:5558  _tokenApprovals[tokenId] */\n      dup2\n      mstore\n      0x20\n      add\n      swap1\n      dup2\n      mstore\n      0x20\n      add\n      0x00\n      keccak256\n      0x00\n      swap1\n      sload\n      swap1\n      0x0100\n      exp\n      swap1\n      div\n      0xffffffffffffffffffffffffffffffffffffffff\n      and\n        /* \"RealEstateERC721.sol\":5527:5558  return _tokenApprovals[tokenId] */\n      swap1\n      pop\n        /* \"RealEstateERC721.sol\":5388:5566  function getApproved(uint256 tokenId) public view returns (address) {... */\n      swap2\n      swap1\n      pop\n      jump\t// out\n        /* \"RealEstateERC721.sol\":4914:5213  function approve(address to, uint256 tokenId) public {... */\n    tag_33:\n        /* \"RealEstateERC721.sol\":4978:4991  address owner */\n      0x00\n        /* \"RealEstateERC721.sol\":4994:5010  ownerOf(tokenId) */\n      tag_98\n        /* \"RealEstateERC721.sol\":5002:5009  tokenId */\n      dup3\n        /* \"RealEstateERC721.sol\":4994:5001  ownerOf */\n      tag_45\n        /* \"RealEstateERC721.sol\":4994:5010  ownerOf(tokenId) */\n      jump\t// in\n    tag_98:\n        /* \"RealEstateERC721.sol\":4978:5010  address owner = ownerOf(tokenId) */\n      swap1\n      pop\n        /* \"RealEstateERC721.sol\":5035:5040  owner */\n      dup1\n        /* \"RealEstateERC721.sol\":5029:5040  to != owner */\n      0xffffffffffffffffffffffffffffffffffffffff\n      and\n        /* \"RealEstateERC721.sol\":5029:5031  to */\n      dup4\n        /* \"RealEstateERC721.sol\":5029:5040  to != owner */\n      0xffffffffffffffffffffffffffffffffffffffff\n      and\n      sub\n        /* \"RealEstateERC721.sol\":5021:5068  require(to != owner, \"Cannot approve to owner\") */\n      tag_99\n      jumpi\n      mload(0x40)\n      0x08c379a000000000000000000000000000000000000000000000000000000000\n      dup2\n      mstore\n      0x04\n      add\n      tag_100\n      swap1\n      tag_101\n      jump\t// in\n    tag_100:\n      mload(0x40)\n      dup1\n      swap2\n      sub\n      swap1\n      revert\n    tag_99:\n        /* \"RealEstateERC721.sol\":5101:5106  owner */\n      dup1\n        /* \"RealEstateERC721.sol\":5087:5106  msg.sender == owner */\n      0xffffffffffffffffffffffffffffffffffffffff\n      and\n        /* \"RealEstateERC721.sol\":5087:5097  msg.sender */\n      caller\n        /* \"RealEstateERC721.sol\":5087:5106  msg.sender == owner */\n      0xffffffffffffffffffffffffffffffffffffffff\n      and\n      eq\n        /* \"RealEstateERC721.sol\":5087:5145  msg.sender == owner || isApprovedForAll(owner, msg.sender) */\n      dup1\n      tag_102\n      jumpi\n      pop\n        /* \"RealEstateERC721.sol\":5110:5145  isApprovedForAll(owner, msg.sender) */\n      tag_103\n        /* \"RealEstateERC721.sol\":5127:5132  owner */\n      dup2\n        /* \"RealEstateERC721.sol\":5134:5144  msg.sender */\n      caller\n        /* \"RealEstateERC721.sol\":5110:5126  isApprovedForAll */\n      tag_81\n        /* \"RealEstateERC721.sol\":5110:5145  isApprovedForAll(owner, msg.sender) */\n      jump\t// in\n    tag_103:\n        /* \"RealEstateERC721.sol\":5087:5145  msg.sender == owner || isApprovedForAll(owner, msg.sender) */\n    tag_102:\n        /* \"RealEstateERC721.sol\":5079:5171  require(msg.sender == owner || isApprovedForAll(owner, msg.sender), \"Not approved or owner\") */\n      tag_104\n      jumpi\n      mload(0x40)\n      0x08c379a000000000000000000000000000000000000000000000000000000000\n      dup2\n      mstore\n      0x04\n      add\n      tag_105\n      swap1\n      tag_106\n      jump\t// in\n    tag_105:\n      mload(0x40)\n      dup1\n      swap2\n      sub\n      swap1\n      revert\n    tag_104:\n        /* \"RealEstateERC721.sol\":5184:5205  _approve(to, tokenId) */\n      tag_107\n        /* \"RealEstateERC721.sol\":5193:5195  to */\n      dup4\n        /* \"RealEstateERC721.sol\":5197:5204  tokenId */\n      dup4\n        /* \"RealEstateERC721.sol\":5184:5192  _approve */\n      tag_108\n        /* \"RealEstateERC721.sol\":5184:5205  _approve(to, tokenId) */\n      jump\t// in\n    tag_107:\n        /* \"RealEstateERC721.sol\":4967:5213  {... */\n      pop\n        /* \"RealEstateERC721.sol\":4914:5213  function approve(address to, uint256 tokenId) public {... */\n      pop\n      pop\n      jump\t// out\n        /* \"RealEstateERC721.sol\":2960:3160  function getPropertyDetails(uint256 tokenId) public view returns (PropertyDetails memory) {... */\n    tag_36:\n        /* \"RealEstateERC721.sol\":3026:3048  PropertyDetails memory */\n      tag_109\n      tag_110\n      jump\t// in\n    tag_109:\n        /* \"RealEstateERC721.sol\":3069:3085  _exists(tokenId) */\n      tag_112\n        /* \"RealEstateERC721.sol\":3077:3084  tokenId */\n      dup3\n        /* \"RealEstateERC721.sol\":3069:3076  _exists */\n      tag_93\n        /* \"RealEstateERC721.sol\":3069:3085  _exists(tokenId) */\n      jump\t// in\n    tag_112:\n        /* \"RealEstateERC721.sol\":3061:3110  require(_exists(tokenId), \"Token does not exist\") */\n      tag_113\n      jumpi\n      mload(0x40)\n      0x08c379a000000000000000000000000000000000000000000000000000000000\n      dup2\n      mstore\n      0x04\n      add\n      tag_114\n      swap1\n      tag_96\n      jump\t// in\n    tag_114:\n      mload(0x40)\n      dup1\n      swap2\n      sub\n      swap1\n      revert\n    tag_113:\n        /* \"RealEstateERC721.sol\":3128:3143  propertyDetails */\n      0x00\n        /* \"RealEstateERC721.sol\":3128:3152  propertyDetails[tokenId] */\n      0x00\n        /* \"RealEstateERC721.sol\":3144:3151  tokenId */\n      dup4\n        /* \"RealEstateERC721.sol\":3128:3152  propertyDetails[tokenId] */\n      dup2\n      mstore\n      0x20\n      add\n      swap1\n      dup2\n      mstore\n      0x20\n      add\n      0x00\n      keccak256\n        /* \"RealEstateERC721.sol\":3121:3152  return propertyDetails[tokenId] */\n      mload(0x40)\n      dup1\n      0x60\n      add\n      0x40\n      mstore\n      swap1\n      dup2\n      0x00\n      dup3\n      add\n      dup1\n      sload\n      tag_115\n      swap1\n      tag_86\n      jump\t// in\n    tag_115:\n      dup1\n      0x1f\n      add\n      0x20\n      dup1\n      swap2\n      div\n      mul\n      0x20\n      add\n      mload(0x40)\n      swap1\n      dup2\n      add\n      0x40\n      mstore\n      dup1\n      swap3\n      swap2\n      swap1\n      dup2\n      dup2\n      mstore\n      0x20\n      add\n      dup3\n      dup1\n      sload\n      tag_116\n      swap1\n      tag_86\n      jump\t// in\n    tag_116:\n      dup1\n      iszero\n      tag_117\n      jumpi\n      dup1\n      0x1f\n      lt\n      tag_118\n      jumpi\n      0x0100\n      dup1\n      dup4\n      sload\n      div\n      mul\n      dup4\n      mstore\n      swap2\n      0x20\n      add\n      swap2\n      jump(tag_117)\n    tag_118:\n      dup3\n      add\n      swap2\n      swap1\n      0x00\n      mstore\n      keccak256(0x00, 0x20)\n      swap1\n    tag_119:\n      dup2\n      sload\n      dup2\n      mstore\n      swap1\n      0x01\n      add\n      swap1\n      0x20\n      add\n      dup1\n      dup4\n      gt\n      tag_119\n      jumpi\n      dup3\n      swap1\n      sub\n      0x1f\n      and\n      dup3\n      add\n      swap2\n    tag_117:\n      pop\n      pop\n      pop\n      pop\n      pop\n      dup2\n      mstore\n      0x20\n      add\n      0x01\n      dup3\n      add\n      dup1\n      sload\n      tag_120\n      swap1\n      tag_86\n      jump\t// in\n    tag_120:\n      dup1\n      0x1f\n      add\n      0x20\n      dup1\n      swap2\n      div\n      mul\n      0x20\n      add\n      mload(0x40)\n      swap1\n      dup2\n      add\n      0x40\n      mstore\n      dup1\n      swap3\n      swap2\n      swap1\n      dup2\n      dup2\n      mstore\n      0x20\n      add\n      dup3\n      dup1\n      sload\n      tag_121\n      swap1\n      tag_86\n      jump\t// in\n    tag_121:\n      dup1\n      iszero\n      tag_122\n      jumpi\n      dup1\n      0x1f\n      lt\n      tag_123\n      jumpi\n      0x0100\n      dup1\n      dup4\n      sload\n      div\n      mul\n      dup4\n      mstore\n      swap2\n      0x20\n      add\n      swap2\n      jump(tag_122)\n    tag_123:\n      dup3\n      add\n      swap2\n      swap1\n      0x00\n      mstore\n      keccak256(0x00, 0x20)\n      swap1\n    tag_124:\n      dup2\n      sload\n      dup2\n      mstore\n      swap1\n      0x01\n      add\n      swap1\n      0x20\n      add\n      dup1\n      dup4\n      gt\n      tag_124\n      jumpi\n      dup3\n      swap1\n      sub\n      0x1f\n      and\n      dup3\n      add\n      swap2\n    tag_122:\n      pop\n      pop\n      pop\n      pop\n      pop\n      dup2\n      mstore\n      0x20\n      add\n      0x02\n      dup3\n      add\n      sload\n      dup2\n      mstore\n      pop\n      pop\n      swap1\n      pop\n        /* \"RealEstateERC721.sol\":2960:3160  function getPropertyDetails(uint256 tokenId) public view returns (PropertyDetails memory) {... */\n      swap2\n      swap1\n      pop\n      jump\t// out\n        /* \"RealEstateERC721.sol\":4102:4402  function safeTransferFrom(... */\n    tag_42:\n        /* \"RealEstateERC721.sol\":4231:4270  _isApprovedOrOwner(msg.sender, tokenId) */\n      tag_126\n        /* \"RealEstateERC721.sol\":4250:4260  msg.sender */\n      caller\n        /* \"RealEstateERC721.sol\":4262:4269  tokenId */\n      dup3\n        /* \"RealEstateERC721.sol\":4231:4249  _isApprovedOrOwner */\n      tag_127\n        /* \"RealEstateERC721.sol\":4231:4270  _isApprovedOrOwner(msg.sender, tokenId) */\n      jump\t// in\n    tag_126:\n        /* \"RealEstateERC721.sol\":4223:4296  require(_isApprovedOrOwner(msg.sender, tokenId), \"Not approved or owner\") */\n      tag_128\n      jumpi\n      mload(0x40)\n      0x08c379a000000000000000000000000000000000000000000000000000000000\n      dup2\n      mstore\n      0x04\n      add\n      tag_129\n      swap1\n      tag_106\n      jump\t// in\n    tag_129:\n      mload(0x40)\n      dup1\n      swap2\n      sub\n      swap1\n      revert\n    tag_128:\n        /* \"RealEstateERC721.sol\":4329:4330  0 */\n      0x00\n        /* \"RealEstateERC721.sol\":4315:4331  to != address(0) */\n      0xffffffffffffffffffffffffffffffffffffffff\n      and\n        /* \"RealEstateERC721.sol\":4315:4317  to */\n      dup3\n        /* \"RealEstateERC721.sol\":4315:4331  to != address(0) */\n      0xffffffffffffffffffffffffffffffffffffffff\n      and\n      sub\n        /* \"RealEstateERC721.sol\":4307:4353  require(to != address(0), \"Invalid recipient\") */\n      tag_130\n      jumpi\n      mload(0x40)\n      0x08c379a000000000000000000000000000000000000000000000000000000000\n      dup2\n      mstore\n      0x04\n      add\n      tag_131\n      swap1\n      tag_132\n      jump\t// in\n    tag_131:\n      mload(0x40)\n      dup1\n      swap2\n      sub\n      swap1\n      revert\n    tag_130:\n        /* \"RealEstateERC721.sol\":4366:4394  _transfer(from, to, tokenId) */\n      tag_133\n        /* \"RealEstateERC721.sol\":4376:4380  from */\n      dup4\n        /* \"RealEstateERC721.sol\":4382:4384  to */\n      dup4\n        /* \"RealEstateERC721.sol\":4386:4393  tokenId */\n      dup4\n        /* \"RealEstateERC721.sol\":4366:4375  _transfer */\n      tag_134\n        /* \"RealEstateERC721.sol\":4366:4394  _transfer(from, to, tokenId) */\n      jump\t// in\n    tag_133:\n        /* \"RealEstateERC721.sol\":4102:4402  function safeTransferFrom(... */\n      pop\n      pop\n      pop\n      jump\t// out\n        /* \"RealEstateERC721.sol\":3663:3864  function ownerOf(uint256 tokenId) public view returns (address) {... */\n    tag_45:\n        /* \"RealEstateERC721.sol\":3718:3725  address */\n      0x00\n        /* \"RealEstateERC721.sol\":3738:3751  address owner */\n      0x00\n        /* \"RealEstateERC721.sol\":3754:3761  _owners */\n      0x01\n        /* \"RealEstateERC721.sol\":3754:3770  _owners[tokenId] */\n      0x00\n        /* \"RealEstateERC721.sol\":3762:3769  tokenId */\n      dup5\n        /* \"RealEstateERC721.sol\":3754:3770  _owners[tokenId] */\n      dup2\n      mstore\n      0x20\n      add\n      swap1\n      dup2\n      mstore\n      0x20\n      add\n      0x00\n      keccak256\n      0x00\n      swap1\n      sload\n      swap1\n      0x0100\n      exp\n      swap1\n      div\n      0xffffffffffffffffffffffffffffffffffffffff\n      and\n        /* \"RealEstateERC721.sol\":3738:3770  address owner = _owners[tokenId] */\n      swap1\n      pop\n        /* \"RealEstateERC721.sol\":3806:3807  0 */\n      0x00\n        /* \"RealEstateERC721.sol\":3789:3808  owner != address(0) */\n      0xffffffffffffffffffffffffffffffffffffffff\n      and\n        /* \"RealEstateERC721.sol\":3789:3794  owner */\n      dup2\n        /* \"RealEstateERC721.sol\":3789:3808  owner != address(0) */\n      0xffffffffffffffffffffffffffffffffffffffff\n      and\n      sub\n        /* \"RealEstateERC721.sol\":3781:3833  require(owner != address(0), \"Token does not exist\") */\n      tag_136\n      jumpi\n      mload(0x40)\n      0x08c379a000000000000000000000000000000000000000000000000000000000\n      dup2\n      mstore\n      0x04\n      add\n      tag_137\n      swap1\n      tag_96\n      jump\t// in\n    tag_137:\n      mload(0x40)\n      dup1\n      swap2\n      sub\n      swap1\n      revert\n    tag_136:\n        /* \"RealEstateERC721.sol\":3851:3856  owner */\n      dup1\n        /* \"RealEstateERC721.sol\":3844:3856  return owner */\n      swap2\n      pop\n      pop\n        /* \"RealEstateERC721.sol\":3663:3864  function ownerOf(uint256 tokenId) public view returns (address) {... */\n      swap2\n      swap1\n      pop\n      jump\t// out\n        /* \"RealEstateERC721.sol\":3872:4043  function balanceOf(address owner) public view returns (uint256) {... */\n    tag_50:\n        /* \"RealEstateERC721.sol\":3927:3934  uint256 */\n      0x00\n        /* \"RealEstateERC721.sol\":3972:3973  0 */\n      0x00\n        /* \"RealEstateERC721.sol\":3955:3974  owner != address(0) */\n      0xffffffffffffffffffffffffffffffffffffffff\n      and\n        /* \"RealEstateERC721.sol\":3955:3960  owner */\n      dup3\n        /* \"RealEstateERC721.sol\":3955:3974  owner != address(0) */\n      0xffffffffffffffffffffffffffffffffffffffff\n      and\n      sub\n        /* \"RealEstateERC721.sol\":3947:4001  require(owner != address(0), \"Address cannot be zero\") */\n      tag_139\n      jumpi\n      mload(0x40)\n      0x08c379a000000000000000000000000000000000000000000000000000000000\n      dup2\n      mstore\n      0x04\n      add\n      tag_140\n      swap1\n      tag_141\n      jump\t// in\n    tag_140:\n      mload(0x40)\n      dup1\n      swap2\n      sub\n      swap1\n      revert\n    tag_139:\n        /* \"RealEstateERC721.sol\":4019:4028  _balances */\n      0x02\n        /* \"RealEstateERC721.sol\":4019:4035  _balances[owner] */\n      0x00\n        /* \"RealEstateERC721.sol\":4029:4034  owner */\n      dup4\n        /* \"RealEstateERC721.sol\":4019:4035  _balances[owner] */\n      0xffffffffffffffffffffffffffffffffffffffff\n      and\n      0xffffffffffffffffffffffffffffffffffffffff\n      and\n      dup2\n      mstore\n      0x20\n      add\n      swap1\n      dup2\n      mstore\n      0x20\n      add\n      0x00\n      keccak256\n      sload\n        /* \"RealEstateERC721.sol\":4012:4035  return _balances[owner] */\n      swap1\n      pop\n        /* \"RealEstateERC721.sol\":3872:4043  function balanceOf(address owner) public view returns (uint256) {... */\n      swap2\n      swap1\n      pop\n      jump\t// out\n        /* \"RealEstateERC721.sol\":3363:3655  function getTokenIdByCadastralNumber(string memory _cadastralNumber) public view returns (uint256) {... */\n    tag_56:\n        /* \"RealEstateERC721.sol\":3453:3460  uint256 */\n      0x00\n        /* \"RealEstateERC721.sol\":3473:3488  uint256 tokenId */\n      0x00\n        /* \"RealEstateERC721.sol\":3526:3542  _cadastralNumber */\n      dup3\n        /* \"RealEstateERC721.sol\":3544:3559  block.timestamp */\n      timestamp\n        /* \"RealEstateERC721.sol\":3509:3560  abi.encodePacked(_cadastralNumber, block.timestamp) */\n      add(0x20, mload(0x40))\n      tag_143\n      swap3\n      swap2\n      swap1\n      tag_144\n      jump\t// in\n    tag_143:\n      mload(0x40)\n      0x20\n      dup2\n      dup4\n      sub\n      sub\n      dup2\n      mstore\n      swap1\n      0x40\n      mstore\n        /* \"RealEstateERC721.sol\":3499:3561  keccak256(abi.encodePacked(_cadastralNumber, block.timestamp)) */\n      dup1\n      mload\n      swap1\n      0x20\n      add\n      keccak256\n        /* \"RealEstateERC721.sol\":3491:3562  uint256(keccak256(abi.encodePacked(_cadastralNumber, block.timestamp))) */\n      0x00\n      shr\n        /* \"RealEstateERC721.sol\":3473:3562  uint256 tokenId = uint256(keccak256(abi.encodePacked(_cadastralNumber, block.timestamp))) */\n      swap1\n      pop\n        /* \"RealEstateERC721.sol\":3581:3597  _exists(tokenId) */\n      tag_145\n        /* \"RealEstateERC721.sol\":3589:3596  tokenId */\n      dup2\n        /* \"RealEstateERC721.sol\":3581:3588  _exists */\n      tag_93\n        /* \"RealEstateERC721.sol\":3581:3597  _exists(tokenId) */\n      jump\t// in\n    tag_145:\n        /* \"RealEstateERC721.sol\":3573:3622  require(_exists(tokenId), \"Token does not exist\") */\n      tag_146\n      jumpi\n      mload(0x40)\n      0x08c379a000000000000000000000000000000000000000000000000000000000\n      dup2\n      mstore\n      0x04\n      add\n      tag_147\n      swap1\n      tag_96\n      jump\t// in\n    tag_147:\n      mload(0x40)\n      dup1\n      swap2\n      sub\n      swap1\n      revert\n    tag_146:\n        /* \"RealEstateERC721.sol\":3640:3647  tokenId */\n      dup1\n        /* \"RealEstateERC721.sol\":3633:3647  return tokenId */\n      swap2\n      pop\n      pop\n        /* \"RealEstateERC721.sol\":3363:3655  function getTokenIdByCadastralNumber(string memory _cadastralNumber) public view returns (uint256) {... */\n      swap2\n      swap1\n      pop\n      jump\t// out\n        /* \"RealEstateERC721.sol\":369:427  mapping(uint256 => PropertyDetails) public propertyDetails */\n    tag_60:\n      mstore(0x20, 0x00)\n      dup1\n      0x00\n      mstore\n      keccak256(0x00, 0x40)\n      0x00\n      swap2\n      pop\n      swap1\n      pop\n      dup1\n      0x00\n      add\n      dup1\n      sload\n      tag_148\n      swap1\n      tag_86\n      jump\t// in\n    tag_148:\n      dup1\n      0x1f\n      add\n      0x20\n      dup1\n      swap2\n      div\n      mul\n      0x20\n      add\n      mload(0x40)\n      swap1\n      dup2\n      add\n      0x40\n      mstore\n      dup1\n      swap3\n      swap2\n      swap1\n      dup2\n      dup2\n      mstore\n      0x20\n      add\n      dup3\n      dup1\n      sload\n      tag_149\n      swap1\n      tag_86\n      jump\t// in\n    tag_149:\n      dup1\n      iszero\n      tag_150\n      jumpi\n      dup1\n      0x1f\n      lt\n      tag_151\n      jumpi\n      0x0100\n      dup1\n      dup4\n      sload\n      div\n      mul\n      dup4\n      mstore\n      swap2\n      0x20\n      add\n      swap2\n      jump(tag_150)\n    tag_151:\n      dup3\n      add\n      swap2\n      swap1\n      0x00\n      mstore\n      keccak256(0x00, 0x20)\n      swap1\n    tag_152:\n      dup2\n      sload\n      dup2\n      mstore\n      swap1\n      0x01\n      add\n      swap1\n      0x20\n      add\n      dup1\n      dup4\n      gt\n      tag_152\n      jumpi\n      dup3\n      swap1\n      sub\n      0x1f\n      and\n      dup3\n      add\n      swap2\n    tag_150:\n      pop\n      pop\n      pop\n      pop\n      pop\n      swap1\n      dup1\n      0x01\n      add\n      dup1\n      sload\n      tag_153\n      swap1\n      tag_86\n      jump\t// in\n    tag_153:\n      dup1\n      0x1f\n      add\n      0x20\n      dup1\n      swap2\n      div\n      mul\n      0x20\n      add\n      mload(0x40)\n      swap1\n      dup2\n      add\n      0x40\n      mstore\n      dup1\n      swap3\n      swap2\n      swap1\n      dup2\n      dup2\n      mstore\n      0x20\n      add\n      dup3\n      dup1\n      sload\n      tag_154\n      swap1\n      tag_86\n      jump\t// in\n    tag_154:\n      dup1\n      iszero\n      tag_155\n      jumpi\n      dup1\n      0x1f\n      lt\n      tag_156\n      jumpi\n      0x0100\n      dup1\n      dup4\n      sload\n      div\n      mul\n      dup4\n      mstore\n      swap2\n      0x20\n      add\n      swap2\n      jump(tag_155)\n    tag_156:\n      dup3\n      add\n      swap2\n      swap1\n      0x00\n      mstore\n      keccak256(0x00, 0x20)\n      swap1\n    tag_157:\n      dup2\n      sload\n      dup2\n      mstore\n      swap1\n      0x01\n      add\n      swap1\n      0x20\n      add\n      dup1\n      dup4\n      gt\n      tag_157\n      jumpi\n      dup3\n      swap1\n      sub\n      0x1f\n      and\n      dup3\n      add\n      swap2\n    tag_155:\n      pop\n      pop\n      pop\n      pop\n      pop\n      swap1\n      dup1\n      0x02\n      add\n      sload\n      swap1\n      pop\n      dup4\n      jump\t// out\n        /* \"RealEstateERC721.sol\":2297:2904  function mintProperty(... */\n    tag_66:\n        /* \"RealEstateERC721.sol\":2469:2484  uint256 tokenId */\n      0x00\n        /* \"RealEstateERC721.sol\":2522:2538  _cadastralNumber */\n      dup4\n        /* \"RealEstateERC721.sol\":2540:2555  block.timestamp */\n      timestamp\n        /* \"RealEstateERC721.sol\":2505:2556  abi.encodePacked(_cadastralNumber, block.timestamp) */\n      add(0x20, mload(0x40))\n      tag_159\n      swap3\n      swap2\n      swap1\n      tag_144\n      jump\t// in\n    tag_159:\n      mload(0x40)\n      0x20\n      dup2\n      dup4\n      sub\n      sub\n      dup2\n      mstore\n      swap1\n      0x40\n      mstore\n        /* \"RealEstateERC721.sol\":2495:2557  keccak256(abi.encodePacked(_cadastralNumber, block.timestamp)) */\n      dup1\n      mload\n      swap1\n      0x20\n      add\n      keccak256\n        /* \"RealEstateERC721.sol\":2487:2558  uint256(keccak256(abi.encodePacked(_cadastralNumber, block.timestamp))) */\n      0x00\n      shr\n        /* \"RealEstateERC721.sol\":2469:2558  uint256 tokenId = uint256(keccak256(abi.encodePacked(_cadastralNumber, block.timestamp))) */\n      swap1\n      pop\n        /* \"RealEstateERC721.sol\":2578:2594  _exists(tokenId) */\n      tag_160\n        /* \"RealEstateERC721.sol\":2586:2593  tokenId */\n      dup2\n        /* \"RealEstateERC721.sol\":2578:2585  _exists */\n      tag_93\n        /* \"RealEstateERC721.sol\":2578:2594  _exists(tokenId) */\n      jump\t// in\n    tag_160:\n        /* \"RealEstateERC721.sol\":2577:2594  !_exists(tokenId) */\n      iszero\n        /* \"RealEstateERC721.sol\":2569:2619  require(!_exists(tokenId), \"Token already exists\") */\n      tag_161\n      jumpi\n      mload(0x40)\n      0x08c379a000000000000000000000000000000000000000000000000000000000\n      dup2\n      mstore\n      0x04\n      add\n      tag_162\n      swap1\n      tag_163\n      jump\t// in\n    tag_162:\n      mload(0x40)\n      dup1\n      swap2\n      sub\n      swap1\n      revert\n    tag_161:\n        /* \"RealEstateERC721.sol\":2632:2650  _mint(to, tokenId) */\n      tag_164\n        /* \"RealEstateERC721.sol\":2638:2640  to */\n      dup6\n        /* \"RealEstateERC721.sol\":2642:2649  tokenId */\n      dup3\n        /* \"RealEstateERC721.sol\":2632:2637  _mint */\n      tag_165\n        /* \"RealEstateERC721.sol\":2632:2650  _mint(to, tokenId) */\n      jump\t// in\n    tag_164:\n        /* \"RealEstateERC721.sol\":2688:2834  PropertyDetails({... */\n      mload(0x40)\n      dup1\n      0x60\n      add\n      0x40\n      mstore\n      dup1\n        /* \"RealEstateERC721.sol\":2736:2752  _cadastralNumber */\n      dup6\n        /* \"RealEstateERC721.sol\":2688:2834  PropertyDetails({... */\n      dup2\n      mstore\n      0x20\n      add\n        /* \"RealEstateERC721.sol\":2777:2786  _location */\n      dup5\n        /* \"RealEstateERC721.sol\":2688:2834  PropertyDetails({... */\n      dup2\n      mstore\n      0x20\n      add\n        /* \"RealEstateERC721.sol\":2812:2822  _valuation */\n      dup4\n        /* \"RealEstateERC721.sol\":2688:2834  PropertyDetails({... */\n      dup2\n      mstore\n      pop\n        /* \"RealEstateERC721.sol\":2661:2676  propertyDetails */\n      0x00\n        /* \"RealEstateERC721.sol\":2661:2685  propertyDetails[tokenId] */\n      0x00\n        /* \"RealEstateERC721.sol\":2677:2684  tokenId */\n      dup4\n        /* \"RealEstateERC721.sol\":2661:2685  propertyDetails[tokenId] */\n      dup2\n      mstore\n      0x20\n      add\n      swap1\n      dup2\n      mstore\n      0x20\n      add\n      0x00\n      keccak256\n        /* \"RealEstateERC721.sol\":2661:2834  propertyDetails[tokenId] = PropertyDetails({... */\n      0x00\n      dup3\n      add\n      mload\n      dup2\n      0x00\n      add\n      swap1\n      dup2\n      tag_166\n      swap2\n      swap1\n      tag_167\n      jump\t// in\n    tag_166:\n      pop\n      0x20\n      dup3\n      add\n      mload\n      dup2\n      0x01\n      add\n      swap1\n      dup2\n      tag_168\n      swap2\n      swap1\n      tag_167\n      jump\t// in\n    tag_168:\n      pop\n      0x40\n      dup3\n      add\n      mload\n      dup2\n      0x02\n      add\n      sstore\n      swap1\n      pop\n      pop\n        /* \"RealEstateERC721.sol\":2847:2859  _allTokenIds */\n      0x07\n        /* \"RealEstateERC721.sol\":2865:2872  tokenId */\n      dup2\n        /* \"RealEstateERC721.sol\":2847:2873  _allTokenIds.push(tokenId) */\n      swap1\n      dup1\n      0x01\n      dup2\n      sload\n      add\n      dup1\n      dup3\n      sstore\n      dup1\n      swap2\n      pop\n      pop\n      0x01\n      swap1\n      sub\n      swap1\n      0x00\n      mstore\n      keccak256(0x00, 0x20)\n      add\n      0x00\n      swap1\n      swap2\n      swap1\n      swap2\n      swap1\n      swap2\n      pop\n      sstore\n        /* \"RealEstateERC721.sol\":2458:2904  {... */\n      pop\n        /* \"RealEstateERC721.sol\":2297:2904  function mintProperty(... */\n      pop\n      pop\n      pop\n      pop\n      jump\t// out\n        /* \"RealEstateERC721.sol\":1413:1500  function symbol() public view returns (string memory) {... */\n    tag_68:\n        /* \"RealEstateERC721.sol\":1452:1465  string memory */\n      0x60\n        /* \"RealEstateERC721.sol\":1485:1492  _symbol */\n      0x06\n        /* \"RealEstateERC721.sol\":1478:1492  return _symbol */\n      dup1\n      sload\n      tag_171\n      swap1\n      tag_86\n      jump\t// in\n    tag_171:\n      dup1\n      0x1f\n      add\n      0x20\n      dup1\n      swap2\n      div\n      mul\n      0x20\n      add\n      mload(0x40)\n      swap1\n      dup2\n      add\n      0x40\n      mstore\n      dup1\n      swap3\n      swap2\n      swap1\n      dup2\n      dup2\n      mstore\n      0x20\n      add\n      dup3\n      dup1\n      sload\n      tag_172\n      swap1\n      tag_86\n      jump\t// in\n    tag_172:\n      dup1\n      iszero\n      tag_173\n      jumpi\n      dup1\n      0x1f\n      lt\n      tag_174\n      jumpi\n      0x0100\n      dup1\n      dup4\n      sload\n      div\n      mul\n      dup4\n      mstore\n      swap2\n      0x20\n      add\n      swap2\n      jump(tag_173)\n    tag_174:\n      dup3\n      add\n      swap2\n      swap1\n      0x00\n      mstore\n      keccak256(0x00, 0x20)\n      swap1\n    tag_175:\n      dup2\n      sload\n      dup2\n      mstore\n      swap1\n      0x01\n      add\n      swap1\n      0x20\n      add\n      dup1\n      dup4\n      gt\n      tag_175\n      jumpi\n      dup3\n      swap1\n      sub\n      0x1f\n      and\n      dup3\n      add\n      swap2\n    tag_173:\n      pop\n      pop\n      pop\n      pop\n      pop\n      swap1\n      pop\n        /* \"RealEstateERC721.sol\":1413:1500  function symbol() public view returns (string memory) {... */\n      swap1\n      jump\t// out\n        /* \"RealEstateERC721.sol\":5574:5838  function setApprovalForAll(address operator, bool approved) public {... */\n    tag_73:\n        /* \"RealEstateERC721.sol\":5672:5682  msg.sender */\n      caller\n        /* \"RealEstateERC721.sol\":5660:5682  operator != msg.sender */\n      0xffffffffffffffffffffffffffffffffffffffff\n      and\n        /* \"RealEstateERC721.sol\":5660:5668  operator */\n      dup3\n        /* \"RealEstateERC721.sol\":5660:5682  operator != msg.sender */\n      0xffffffffffffffffffffffffffffffffffffffff\n      and\n      sub\n        /* \"RealEstateERC721.sol\":5652:5706  require(operator != msg.sender, \"Cannot approve self\") */\n      tag_177\n      jumpi\n      mload(0x40)\n      0x08c379a000000000000000000000000000000000000000000000000000000000\n      dup2\n      mstore\n      0x04\n      add\n      tag_178\n      swap1\n      tag_179\n      jump\t// in\n    tag_178:\n      mload(0x40)\n      dup1\n      swap2\n      sub\n      swap1\n      revert\n    tag_177:\n        /* \"RealEstateERC721.sol\":5760:5768  approved */\n      dup1\n        /* \"RealEstateERC721.sol\":5717:5735  _operatorApprovals */\n      0x04\n        /* \"RealEstateERC721.sol\":5717:5747  _operatorApprovals[msg.sender] */\n      0x00\n        /* \"RealEstateERC721.sol\":5736:5746  msg.sender */\n      caller\n        /* \"RealEstateERC721.sol\":5717:5747  _operatorApprovals[msg.sender] */\n      0xffffffffffffffffffffffffffffffffffffffff\n      and\n      0xffffffffffffffffffffffffffffffffffffffff\n      and\n      dup2\n      mstore\n      0x20\n      add\n      swap1\n      dup2\n      mstore\n      0x20\n      add\n      0x00\n      keccak256\n        /* \"RealEstateERC721.sol\":5717:5757  _operatorApprovals[msg.sender][operator] */\n      0x00\n        /* \"RealEstateERC721.sol\":5748:5756  operator */\n      dup5\n        /* \"RealEstateERC721.sol\":5717:5757  _operatorApprovals[msg.sender][operator] */\n      0xffffffffffffffffffffffffffffffffffffffff\n      and\n      0xffffffffffffffffffffffffffffffffffffffff\n      and\n      dup2\n      mstore\n      0x20\n      add\n      swap1\n      dup2\n      mstore\n      0x20\n      add\n      0x00\n      keccak256\n      0x00\n        /* \"RealEstateERC721.sol\":5717:5768  _operatorApprovals[msg.sender][operator] = approved */\n      0x0100\n      exp\n      dup2\n      sload\n      dup2\n      0xff\n      mul\n      not\n      and\n      swap1\n      dup4\n      iszero\n      iszero\n      mul\n      or\n      swap1\n      sstore\n      pop\n        /* \"RealEstateERC721.sol\":5811:5819  operator */\n      dup2\n        /* \"RealEstateERC721.sol\":5784:5830  ApprovalForAll(msg.sender, operator, approved) */\n      0xffffffffffffffffffffffffffffffffffffffff\n      and\n        /* \"RealEstateERC721.sol\":5799:5809  msg.sender */\n      caller\n        /* \"RealEstateERC721.sol\":5784:5830  ApprovalForAll(msg.sender, operator, approved) */\n      0xffffffffffffffffffffffffffffffffffffffff\n      and\n      0x17307eab39ab6107e8899845ad3d59bd9653f200f220920489ca2b5937696c31\n        /* \"RealEstateERC721.sol\":5821:5829  approved */\n      dup4\n        /* \"RealEstateERC721.sol\":5784:5830  ApprovalForAll(msg.sender, operator, approved) */\n      mload(0x40)\n      tag_180\n      swap2\n      swap1\n      tag_83\n      jump\t// in\n    tag_180:\n      mload(0x40)\n      dup1\n      swap2\n      sub\n      swap1\n      log3\n        /* \"RealEstateERC721.sol\":5574:5838  function setApprovalForAll(address operator, bool approved) public {... */\n      pop\n      pop\n      jump\t// out\n        /* \"RealEstateERC721.sol\":3206:3309  function getAllTokenIds() public view returns (uint256[] memory) {... */\n    tag_75:\n        /* \"RealEstateERC721.sol\":3253:3269  uint256[] memory */\n      0x60\n        /* \"RealEstateERC721.sol\":3289:3301  _allTokenIds */\n      0x07\n        /* \"RealEstateERC721.sol\":3282:3301  return _allTokenIds */\n      dup1\n      sload\n      dup1\n      0x20\n      mul\n      0x20\n      add\n      mload(0x40)\n      swap1\n      dup2\n      add\n      0x40\n      mstore\n      dup1\n      swap3\n      swap2\n      swap1\n      dup2\n      dup2\n      mstore\n      0x20\n      add\n      dup3\n      dup1\n      sload\n      dup1\n      iszero\n      tag_182\n      jumpi\n      0x20\n      mul\n      dup3\n      add\n      swap2\n      swap1\n      0x00\n      mstore\n      keccak256(0x00, 0x20)\n      swap1\n    tag_183:\n      dup2\n      sload\n      dup2\n      mstore\n      0x20\n      add\n      swap1\n      0x01\n      add\n      swap1\n      dup1\n      dup4\n      gt\n      tag_183\n      jumpi\n    tag_182:\n      pop\n      pop\n      pop\n      pop\n      pop\n      swap1\n      pop\n        /* \"RealEstateERC721.sol\":3206:3309  function getAllTokenIds() public view returns (uint256[] memory) {... */\n      swap1\n      jump\t// out\n        /* \"RealEstateERC721.sol\":5846:5993  function isApprovedForAll(address owner, address operator) public view returns (bool) {... */\n    tag_81:\n        /* \"RealEstateERC721.sol\":5926:5930  bool */\n      0x00\n        /* \"RealEstateERC721.sol\":5950:5968  _operatorApprovals */\n      0x04\n        /* \"RealEstateERC721.sol\":5950:5975  _operatorApprovals[owner] */\n      0x00\n        /* \"RealEstateERC721.sol\":5969:5974  owner */\n      dup5\n        /* \"RealEstateERC721.sol\":5950:5975  _operatorApprovals[owner] */\n      0xffffffffffffffffffffffffffffffffffffffff\n      and\n      0xffffffffffffffffffffffffffffffffffffffff\n      and\n      dup2\n      mstore\n      0x20\n      add\n      swap1\n      dup2\n      mstore\n      0x20\n      add\n      0x00\n      keccak256\n        /* \"RealEstateERC721.sol\":5950:5985  _operatorApprovals[owner][operator] */\n      0x00\n        /* \"RealEstateERC721.sol\":5976:5984  operator */\n      dup4\n        /* \"RealEstateERC721.sol\":5950:5985  _operatorApprovals[owner][operator] */\n      0xffffffffffffffffffffffffffffffffffffffff\n      and\n      0xffffffffffffffffffffffffffffffffffffffff\n      and\n      dup2\n      mstore\n      0x20\n      add\n      swap1\n      dup2\n      mstore\n      0x20\n      add\n      0x00\n      keccak256\n      0x00\n      swap1\n      sload\n      swap1\n      0x0100\n      exp\n      swap1\n      div\n      0xff\n      and\n        /* \"RealEstateERC721.sol\":5943:5985  return _operatorApprovals[owner][operator] */\n      swap1\n      pop\n        /* \"RealEstateERC721.sol\":5846:5993  function isApprovedForAll(address owner, address operator) public view returns (bool) {... */\n      swap3\n      swap2\n      pop\n      pop\n      jump\t// out\n        /* \"RealEstateERC721.sol\":1508:1627  function _exists(uint256 tokenId) internal view returns (bool) {... */\n    tag_93:\n        /* \"RealEstateERC721.sol\":1565:1569  bool */\n      0x00\n        /* \"RealEstateERC721.sol\":1617:1618  0 */\n      0x00\n        /* \"RealEstateERC721.sol\":1589:1619  _owners[tokenId] != address(0) */\n      0xffffffffffffffffffffffffffffffffffffffff\n      and\n        /* \"RealEstateERC721.sol\":1589:1596  _owners */\n      0x01\n        /* \"RealEstateERC721.sol\":1589:1605  _owners[tokenId] */\n      0x00\n        /* \"RealEstateERC721.sol\":1597:1604  tokenId */\n      dup5\n        /* \"RealEstateERC721.sol\":1589:1605  _owners[tokenId] */\n      dup2\n      mstore\n      0x20\n      add\n      swap1\n      dup2\n      mstore\n      0x20\n      add\n      0x00\n      keccak256\n      0x00\n      swap1\n      sload\n      swap1\n      0x0100\n      exp\n      swap1\n      div\n      0xffffffffffffffffffffffffffffffffffffffff\n      and\n        /* \"RealEstateERC721.sol\":1589:1619  _owners[tokenId] != address(0) */\n      0xffffffffffffffffffffffffffffffffffffffff\n      and\n      eq\n      iszero\n        /* \"RealEstateERC721.sol\":1582:1619  return _owners[tokenId] != address(0) */\n      swap1\n      pop\n        /* \"RealEstateERC721.sol\":1508:1627  function _exists(uint256 tokenId) internal view returns (bool) {... */\n      swap2\n      swap1\n      pop\n      jump\t// out\n        /* \"RealEstateERC721.sol\":5221:5380  function _approve(address to, uint256 tokenId) internal {... */\n    tag_108:\n        /* \"RealEstateERC721.sol\":5315:5317  to */\n      dup2\n        /* \"RealEstateERC721.sol\":5288:5303  _tokenApprovals */\n      0x03\n        /* \"RealEstateERC721.sol\":5288:5312  _tokenApprovals[tokenId] */\n      0x00\n        /* \"RealEstateERC721.sol\":5304:5311  tokenId */\n      dup4\n        /* \"RealEstateERC721.sol\":5288:5312  _tokenApprovals[tokenId] */\n      dup2\n      mstore\n      0x20\n      add\n      swap1\n      dup2\n      mstore\n      0x20\n      add\n      0x00\n      keccak256\n      0x00\n        /* \"RealEstateERC721.sol\":5288:5317  _tokenApprovals[tokenId] = to */\n      0x0100\n      exp\n      dup2\n      sload\n      dup2\n      0xffffffffffffffffffffffffffffffffffffffff\n      mul\n      not\n      and\n      swap1\n      dup4\n      0xffffffffffffffffffffffffffffffffffffffff\n      and\n      mul\n      or\n      swap1\n      sstore\n      pop\n        /* \"RealEstateERC721.sol\":5364:5371  tokenId */\n      dup1\n        /* \"RealEstateERC721.sol\":5360:5362  to */\n      dup3\n        /* \"RealEstateERC721.sol\":5333:5372  Approval(ownerOf(tokenId), to, tokenId) */\n      0xffffffffffffffffffffffffffffffffffffffff\n      and\n        /* \"RealEstateERC721.sol\":5342:5358  ownerOf(tokenId) */\n      tag_187\n        /* \"RealEstateERC721.sol\":5350:5357  tokenId */\n      dup4\n        /* \"RealEstateERC721.sol\":5342:5349  ownerOf */\n      tag_45\n        /* \"RealEstateERC721.sol\":5342:5358  ownerOf(tokenId) */\n      jump\t// in\n    tag_187:\n        /* \"RealEstateERC721.sol\":5333:5372  Approval(ownerOf(tokenId), to, tokenId) */\n      0xffffffffffffffffffffffffffffffffffffffff\n      and\n      0x8c5be1e5ebec7d5bd14f71427d1e84f3dd0314c0f7b2291e5b200ac8c7c3b925\n      mload(0x40)\n      mload(0x40)\n      dup1\n      swap2\n      sub\n      swap1\n      log4\n        /* \"RealEstateERC721.sol\":5221:5380  function _approve(address to, uint256 tokenId) internal {... */\n      pop\n      pop\n      jump\t// out\n        /* \"RealEstateERC721.sol\":1635:1944  function _isApprovedOrOwner(address spender, uint256 tokenId) internal view returns (bool) {... */\n    tag_127:\n        /* \"RealEstateERC721.sol\":1720:1724  bool */\n      0x00\n        /* \"RealEstateERC721.sol\":1745:1761  _exists(tokenId) */\n      tag_189\n        /* \"RealEstateERC721.sol\":1753:1760  tokenId */\n      dup3\n        /* \"RealEstateERC721.sol\":1745:1752  _exists */\n      tag_93\n        /* \"RealEstateERC721.sol\":1745:1761  _exists(tokenId) */\n      jump\t// in\n    tag_189:\n        /* \"RealEstateERC721.sol\":1737:1786  require(_exists(tokenId), \"Token does not exist\") */\n      tag_190\n      jumpi\n      mload(0x40)\n      0x08c379a000000000000000000000000000000000000000000000000000000000\n      dup2\n      mstore\n      0x04\n      add\n      tag_191\n      swap1\n      tag_96\n      jump\t// in\n    tag_191:\n      mload(0x40)\n      dup1\n      swap2\n      sub\n      swap1\n      revert\n    tag_190:\n        /* \"RealEstateERC721.sol\":1797:1810  address owner */\n      0x00\n        /* \"RealEstateERC721.sol\":1813:1829  ownerOf(tokenId) */\n      tag_192\n        /* \"RealEstateERC721.sol\":1821:1828  tokenId */\n      dup4\n        /* \"RealEstateERC721.sol\":1813:1820  ownerOf */\n      tag_45\n        /* \"RealEstateERC721.sol\":1813:1829  ownerOf(tokenId) */\n      jump\t// in\n    tag_192:\n        /* \"RealEstateERC721.sol\":1797:1829  address owner = ownerOf(tokenId) */\n      swap1\n      pop\n        /* \"RealEstateERC721.sol\":1859:1864  owner */\n      dup1\n        /* \"RealEstateERC721.sol\":1848:1864  spender == owner */\n      0xffffffffffffffffffffffffffffffffffffffff\n      and\n        /* \"RealEstateERC721.sol\":1848:1855  spender */\n      dup5\n        /* \"RealEstateERC721.sol\":1848:1864  spender == owner */\n      0xffffffffffffffffffffffffffffffffffffffff\n      and\n      eq\n        /* \"RealEstateERC721.sol\":1848:1899  spender == owner || getApproved(tokenId) == spender */\n      dup1\n      tag_193\n      jumpi\n      pop\n        /* \"RealEstateERC721.sol\":1892:1899  spender */\n      dup4\n        /* \"RealEstateERC721.sol\":1868:1899  getApproved(tokenId) == spender */\n      0xffffffffffffffffffffffffffffffffffffffff\n      and\n        /* \"RealEstateERC721.sol\":1868:1888  getApproved(tokenId) */\n      tag_194\n        /* \"RealEstateERC721.sol\":1880:1887  tokenId */\n      dup5\n        /* \"RealEstateERC721.sol\":1868:1879  getApproved */\n      tag_27\n        /* \"RealEstateERC721.sol\":1868:1888  getApproved(tokenId) */\n      jump\t// in\n    tag_194:\n        /* \"RealEstateERC721.sol\":1868:1899  getApproved(tokenId) == spender */\n      0xffffffffffffffffffffffffffffffffffffffff\n      and\n      eq\n        /* \"RealEstateERC721.sol\":1848:1899  spender == owner || getApproved(tokenId) == spender */\n    tag_193:\n        /* \"RealEstateERC721.sol\":1848:1935  spender == owner || getApproved(tokenId) == spender || isApprovedForAll(owner, spender) */\n      dup1\n      tag_195\n      jumpi\n      pop\n        /* \"RealEstateERC721.sol\":1903:1935  isApprovedForAll(owner, spender) */\n      tag_196\n        /* \"RealEstateERC721.sol\":1920:1925  owner */\n      dup2\n        /* \"RealEstateERC721.sol\":1927:1934  spender */\n      dup6\n        /* \"RealEstateERC721.sol\":1903:1919  isApprovedForAll */\n      tag_81\n        /* \"RealEstateERC721.sol\":1903:1935  isApprovedForAll(owner, spender) */\n      jump\t// in\n    tag_196:\n        /* \"RealEstateERC721.sol\":1848:1935  spender == owner || getApproved(tokenId) == spender || isApprovedForAll(owner, spender) */\n    tag_195:\n        /* \"RealEstateERC721.sol\":1840:1936  return (spender == owner || getApproved(tokenId) == spender || isApprovedForAll(owner, spender)) */\n      swap2\n      pop\n      pop\n        /* \"RealEstateERC721.sol\":1635:1944  function _isApprovedOrOwner(address spender, uint256 tokenId) internal view returns (bool) {... */\n      swap3\n      swap2\n      pop\n      pop\n      jump\t// out\n        /* \"RealEstateERC721.sol\":4410:4857  function _transfer(... */\n    tag_134:\n        /* \"RealEstateERC721.sol\":4554:4558  from */\n      dup3\n        /* \"RealEstateERC721.sol\":4534:4558  ownerOf(tokenId) == from */\n      0xffffffffffffffffffffffffffffffffffffffff\n      and\n        /* \"RealEstateERC721.sol\":4534:4550  ownerOf(tokenId) */\n      tag_198\n        /* \"RealEstateERC721.sol\":4542:4549  tokenId */\n      dup3\n        /* \"RealEstateERC721.sol\":4534:4541  ownerOf */\n      tag_45\n        /* \"RealEstateERC721.sol\":4534:4550  ownerOf(tokenId) */\n      jump\t// in\n    tag_198:\n        /* \"RealEstateERC721.sol\":4534:4558  ownerOf(tokenId) == from */\n      0xffffffffffffffffffffffffffffffffffffffff\n      and\n      eq\n        /* \"RealEstateERC721.sol\":4526:4578  require(ownerOf(tokenId) == from, \"Incorrect owner\") */\n      tag_199\n      jumpi\n      mload(0x40)\n      0x08c379a000000000000000000000000000000000000000000000000000000000\n      dup2\n      mstore\n      0x04\n      add\n      tag_200\n      swap1\n      tag_201\n      jump\t// in\n    tag_200:\n      mload(0x40)\n      dup1\n      swap2\n      sub\n      swap1\n      revert\n    tag_199:\n        /* \"RealEstateERC721.sol\":4611:4612  0 */\n      0x00\n        /* \"RealEstateERC721.sol\":4597:4613  to != address(0) */\n      0xffffffffffffffffffffffffffffffffffffffff\n      and\n        /* \"RealEstateERC721.sol\":4597:4599  to */\n      dup3\n        /* \"RealEstateERC721.sol\":4597:4613  to != address(0) */\n      0xffffffffffffffffffffffffffffffffffffffff\n      and\n      sub\n        /* \"RealEstateERC721.sol\":4589:4635  require(to != address(0), \"Invalid recipient\") */\n      tag_202\n      jumpi\n      mload(0x40)\n      0x08c379a000000000000000000000000000000000000000000000000000000000\n      dup2\n      mstore\n      0x04\n      add\n      tag_203\n      swap1\n      tag_132\n      jump\t// in\n    tag_203:\n      mload(0x40)\n      dup1\n      swap2\n      sub\n      swap1\n      revert\n    tag_202:\n        /* \"RealEstateERC721.sol\":4681:4710  _approve(address(0), tokenId) */\n      tag_204\n        /* \"RealEstateERC721.sol\":4698:4699  0 */\n      0x00\n        /* \"RealEstateERC721.sol\":4702:4709  tokenId */\n      dup3\n        /* \"RealEstateERC721.sol\":4681:4689  _approve */\n      tag_108\n        /* \"RealEstateERC721.sol\":4681:4710  _approve(address(0), tokenId) */\n      jump\t// in\n    tag_204:\n        /* \"RealEstateERC721.sol\":4742:4743  1 */\n      0x01\n        /* \"RealEstateERC721.sol\":4723:4732  _balances */\n      0x02\n        /* \"RealEstateERC721.sol\":4723:4738  _balances[from] */\n      0x00\n        /* \"RealEstateERC721.sol\":4733:4737  from */\n      dup6\n        /* \"RealEstateERC721.sol\":4723:4738  _balances[from] */\n      0xffffffffffffffffffffffffffffffffffffffff\n      and\n      0xffffffffffffffffffffffffffffffffffffffff\n      and\n      dup2\n      mstore\n      0x20\n      add\n      swap1\n      dup2\n      mstore\n      0x20\n      add\n      0x00\n      keccak256\n      0x00\n        /* \"RealEstateERC721.sol\":4723:4743  _balances[from] -= 1 */\n      dup3\n      dup3\n      sload\n      tag_205\n      swap2\n      swap1\n      tag_206\n      jump\t// in\n    tag_205:\n      swap3\n      pop\n      pop\n      dup2\n      swap1\n      sstore\n      pop\n        /* \"RealEstateERC721.sol\":4771:4772  1 */\n      0x01\n        /* \"RealEstateERC721.sol\":4754:4763  _balances */\n      0x02\n        /* \"RealEstateERC721.sol\":4754:4767  _balances[to] */\n      0x00\n        /* \"RealEstateERC721.sol\":4764:4766  to */\n      dup5\n        /* \"RealEstateERC721.sol\":4754:4767  _balances[to] */\n      0xffffffffffffffffffffffffffffffffffffffff\n      and\n      0xffffffffffffffffffffffffffffffffffffffff\n      and\n      dup2\n      mstore\n      0x20\n      add\n      swap1\n      dup2\n      mstore\n      0x20\n      add\n      0x00\n      keccak256\n      0x00\n        /* \"RealEstateERC721.sol\":4754:4772  _balances[to] += 1 */\n      dup3\n      dup3\n      sload\n      tag_207\n      swap2\n      swap1\n      tag_208\n      jump\t// in\n    tag_207:\n      swap3\n      pop\n      pop\n      dup2\n      swap1\n      sstore\n      pop\n        /* \"RealEstateERC721.sol\":4802:4804  to */\n      dup2\n        /* \"RealEstateERC721.sol\":4783:4790  _owners */\n      0x01\n        /* \"RealEstateERC721.sol\":4783:4799  _owners[tokenId] */\n      0x00\n        /* \"RealEstateERC721.sol\":4791:4798  tokenId */\n      dup4\n        /* \"RealEstateERC721.sol\":4783:4799  _owners[tokenId] */\n      dup2\n      mstore\n      0x20\n      add\n      swap1\n      dup2\n      mstore\n      0x20\n      add\n      0x00\n      keccak256\n      0x00\n        /* \"RealEstateERC721.sol\":4783:4804  _owners[tokenId] = to */\n      0x0100\n      exp\n      dup2\n      sload\n      dup2\n      0xffffffffffffffffffffffffffffffffffffffff\n      mul\n      not\n      and\n      swap1\n      dup4\n      0xffffffffffffffffffffffffffffffffffffffff\n      and\n      mul\n      or\n      swap1\n      sstore\n      pop\n        /* \"RealEstateERC721.sol\":4841:4848  tokenId */\n      dup1\n        /* \"RealEstateERC721.sol\":4837:4839  to */\n      dup3\n        /* \"RealEstateERC721.sol\":4822:4849  Transfer(from, to, tokenId) */\n      0xffffffffffffffffffffffffffffffffffffffff\n      and\n        /* \"RealEstateERC721.sol\":4831:4835  from */\n      dup5\n        /* \"RealEstateERC721.sol\":4822:4849  Transfer(from, to, tokenId) */\n      0xffffffffffffffffffffffffffffffffffffffff\n      and\n      0xddf252ad1be2c89b69c2b068fc378daa952ba7f163c4a11628f55a4df523b3ef\n      mload(0x40)\n      mload(0x40)\n      dup1\n      swap2\n      sub\n      swap1\n      log4\n        /* \"RealEstateERC721.sol\":4410:4857  function _transfer(... */\n      pop\n      pop\n      pop\n      jump\t// out\n        /* \"RealEstateERC721.sol\":1952:2250  function _mint(address to, uint256 tokenId) internal {... */\n    tag_165:\n        /* \"RealEstateERC721.sol\":2038:2039  0 */\n      0x00\n        /* \"RealEstateERC721.sol\":2024:2040  to != address(0) */\n      0xffffffffffffffffffffffffffffffffffffffff\n      and\n        /* \"RealEstateERC721.sol\":2024:2026  to */\n      dup3\n        /* \"RealEstateERC721.sol\":2024:2040  to != address(0) */\n      0xffffffffffffffffffffffffffffffffffffffff\n      and\n      sub\n        /* \"RealEstateERC721.sol\":2016:2067  require(to != address(0), \"Address cannot be zero\") */\n      tag_210\n      jumpi\n      mload(0x40)\n      0x08c379a000000000000000000000000000000000000000000000000000000000\n      dup2\n      mstore\n      0x04\n      add\n      tag_211\n      swap1\n      tag_141\n      jump\t// in\n    tag_211:\n      mload(0x40)\n      dup1\n      swap2\n      sub\n      swap1\n      revert\n    tag_210:\n        /* \"RealEstateERC721.sol\":2087:2103  _exists(tokenId) */\n      tag_212\n        /* \"RealEstateERC721.sol\":2095:2102  tokenId */\n      dup2\n        /* \"RealEstateERC721.sol\":2087:2094  _exists */\n      tag_93\n        /* \"RealEstateERC721.sol\":2087:2103  _exists(tokenId) */\n      jump\t// in\n    tag_212:\n        /* \"RealEstateERC721.sol\":2086:2103  !_exists(tokenId) */\n      iszero\n        /* \"RealEstateERC721.sol\":2078:2128  require(!_exists(tokenId), \"Token already exists\") */\n      tag_213\n      jumpi\n      mload(0x40)\n      0x08c379a000000000000000000000000000000000000000000000000000000000\n      dup2\n      mstore\n      0x04\n      add\n      tag_214\n      swap1\n      tag_163\n      jump\t// in\n    tag_214:\n      mload(0x40)\n      dup1\n      swap2\n      sub\n      swap1\n      revert\n    tag_213:\n        /* \"RealEstateERC721.sol\":2158:2159  1 */\n      0x01\n        /* \"RealEstateERC721.sol\":2141:2150  _balances */\n      0x02\n        /* \"RealEstateERC721.sol\":2141:2154  _balances[to] */\n      0x00\n        /* \"RealEstateERC721.sol\":2151:2153  to */\n      dup5\n        /* \"RealEstateERC721.sol\":2141:2154  _balances[to] */\n      0xffffffffffffffffffffffffffffffffffffffff\n      and\n      0xffffffffffffffffffffffffffffffffffffffff\n      and\n      dup2\n      mstore\n      0x20\n      add\n      swap1\n      dup2\n      mstore\n      0x20\n      add\n      0x00\n      keccak256\n      0x00\n        /* \"RealEstateERC721.sol\":2141:2159  _balances[to] += 1 */\n      dup3\n      dup3\n      sload\n      tag_215\n      swap2\n      swap1\n      tag_208\n      jump\t// in\n    tag_215:\n      swap3\n      pop\n      pop\n      dup2\n      swap1\n      sstore\n      pop\n        /* \"RealEstateERC721.sol\":2189:2191  to */\n      dup2\n        /* \"RealEstateERC721.sol\":2170:2177  _owners */\n      0x01\n        /* \"RealEstateERC721.sol\":2170:2186  _owners[tokenId] */\n      0x00\n        /* \"RealEstateERC721.sol\":2178:2185  tokenId */\n      dup4\n        /* \"RealEstateERC721.sol\":2170:2186  _owners[tokenId] */\n      dup2\n      mstore\n      0x20\n      add\n      swap1\n      dup2\n      mstore\n      0x20\n      add\n      0x00\n      keccak256\n      0x00\n        /* \"RealEstateERC721.sol\":2170:2191  _owners[tokenId] = to */\n      0x0100\n      exp\n      dup2\n      sload\n      dup2\n      0xffffffffffffffffffffffffffffffffffffffff\n      mul\n      not\n      and\n      swap1\n      dup4\n      0xffffffffffffffffffffffffffffffffffffffff\n      and\n      mul\n      or\n      swap1\n      sstore\n      pop\n        /* \"RealEstateERC721.sol\":2234:2241  tokenId */\n      dup1\n        /* \"RealEstateERC721.sol\":2230:2232  to */\n      dup3\n        /* \"RealEstateERC721.sol\":2209:2242  Transfer(address(0), to, tokenId) */\n      0xffffffffffffffffffffffffffffffffffffffff\n      and\n        /* \"RealEstateERC721.sol\":2226:2227  0 */\n      0x00\n        /* \"RealEstateERC721.sol\":2209:2242  Transfer(address(0), to, tokenId) */\n      0xffffffffffffffffffffffffffffffffffffffff\n      and\n      0xddf252ad1be2c89b69c2b068fc378daa952ba7f163c4a11628f55a4df523b3ef\n      mload(0x40)\n      mload(0x40)\n      dup1\n      swap2\n      sub\n      swap1\n      log4\n        /* \"RealEstateERC721.sol\":1952:2250  function _mint(address to, uint256 tokenId) internal {... */\n      pop\n      pop\n      jump\t// out\n    tag_110:\n      mload(0x40)\n      dup1\n      0x60\n      add\n      0x40\n      mstore\n      dup1\n      0x60\n      dup2\n      mstore\n      0x20\n      add\n      0x60\n      dup2\n      mstore\n      0x20\n      add\n      0x00\n      dup2\n      mstore\n      pop\n      swap1\n      jump\t// out\n        /* \"#utility.yul\":7:106   */\n    tag_216:\n        /* \"#utility.yul\":59:65   */\n      0x00\n        /* \"#utility.yul\":93:98   */\n      dup2\n        /* \"#utility.yul\":87:99   */\n      mload\n        /* \"#utility.yul\":77:99   */\n      swap1\n      pop\n        /* \"#utility.yul\":7:106   */\n      swap2\n      swap1\n      pop\n      jump\t// out\n        /* \"#utility.yul\":112:281   */\n    tag_217:\n        /* \"#utility.yul\":196:207   */\n      0x00\n        /* \"#utility.yul\":230:236   */\n      dup3\n        /* \"#utility.yul\":225:228   */\n      dup3\n        /* \"#utility.yul\":218:237   */\n      mstore\n        /* \"#utility.yul\":270:274   */\n      0x20\n        /* \"#utility.yul\":265:268   */\n      dup3\n        /* \"#utility.yul\":261:275   */\n      add\n        /* \"#utility.yul\":246:275   */\n      swap1\n      pop\n        /* \"#utility.yul\":112:281   */\n      swap3\n      swap2\n      pop\n      pop\n      jump\t// out\n        /* \"#utility.yul\":287:426   */\n    tag_218:\n        /* \"#utility.yul\":376:382   */\n      dup3\n        /* \"#utility.yul\":371:374   */\n      dup2\n        /* \"#utility.yul\":366:369   */\n      dup4\n        /* \"#utility.yul\":360:383   */\n      mcopy\n        /* \"#utility.yul\":417:418   */\n      0x00\n        /* \"#utility.yul\":408:414   */\n      dup4\n        /* \"#utility.yul\":403:406   */\n      dup4\n        /* \"#utility.yul\":399:415   */\n      add\n        /* \"#utility.yul\":392:419   */\n      mstore\n        /* \"#utility.yul\":287:426   */\n      pop\n      pop\n      pop\n      jump\t// out\n        /* \"#utility.yul\":432:534   */\n    tag_219:\n        /* \"#utility.yul\":473:479   */\n      0x00\n        /* \"#utility.yul\":524:526   */\n      0x1f\n        /* \"#utility.yul\":520:527   */\n      not\n        /* \"#utility.yul\":515:517   */\n      0x1f\n        /* \"#utility.yul\":508:513   */\n      dup4\n        /* \"#utility.yul\":504:518   */\n      add\n        /* \"#utility.yul\":500:528   */\n      and\n        /* \"#utility.yul\":490:528   */\n      swap1\n      pop\n        /* \"#utility.yul\":432:534   */\n      swap2\n      swap1\n      pop\n      jump\t// out\n        /* \"#utility.yul\":540:917   */\n    tag_220:\n        /* \"#utility.yul\":628:631   */\n      0x00\n        /* \"#utility.yul\":656:695   */\n      tag_299\n        /* \"#utility.yul\":689:694   */\n      dup3\n        /* \"#utility.yul\":656:695   */\n      tag_216\n      jump\t// in\n    tag_299:\n        /* \"#utility.yul\":711:782   */\n      tag_300\n        /* \"#utility.yul\":775:781   */\n      dup2\n        /* \"#utility.yul\":770:773   */\n      dup6\n        /* \"#utility.yul\":711:782   */\n      tag_217\n      jump\t// in\n    tag_300:\n        /* \"#utility.yul\":704:782   */\n      swap4\n      pop\n        /* \"#utility.yul\":791:856   */\n      tag_301\n        /* \"#utility.yul\":849:855   */\n      dup2\n        /* \"#utility.yul\":844:847   */\n      dup6\n        /* \"#utility.yul\":837:841   */\n      0x20\n        /* \"#utility.yul\":830:835   */\n      dup7\n        /* \"#utility.yul\":826:842   */\n      add\n        /* \"#utility.yul\":791:856   */\n      tag_218\n      jump\t// in\n    tag_301:\n        /* \"#utility.yul\":881:910   */\n      tag_302\n        /* \"#utility.yul\":903:909   */\n      dup2\n        /* \"#utility.yul\":881:910   */\n      tag_219\n      jump\t// in\n    tag_302:\n        /* \"#utility.yul\":876:879   */\n      dup5\n        /* \"#utility.yul\":872:911   */\n      add\n        /* \"#utility.yul\":865:911   */\n      swap2\n      pop\n        /* \"#utility.yul\":632:917   */\n      pop\n        /* \"#utility.yul\":540:917   */\n      swap3\n      swap2\n      pop\n      pop\n      jump\t// out\n        /* \"#utility.yul\":923:1236   */\n    tag_23:\n        /* \"#utility.yul\":1036:1040   */\n      0x00\n        /* \"#utility.yul\":1074:1076   */\n      0x20\n        /* \"#utility.yul\":1063:1072   */\n      dup3\n        /* \"#utility.yul\":1059:1077   */\n      add\n        /* \"#utility.yul\":1051:1077   */\n      swap1\n      pop\n        /* \"#utility.yul\":1123:1132   */\n      dup2\n        /* \"#utility.yul\":1117:1121   */\n      dup2\n        /* \"#utility.yul\":1113:1133   */\n      sub\n        /* \"#utility.yul\":1109:1110   */\n      0x00\n        /* \"#utility.yul\":1098:1107   */\n      dup4\n        /* \"#utility.yul\":1094:1111   */\n      add\n        /* \"#utility.yul\":1087:1134   */\n      mstore\n        /* \"#utility.yul\":1151:1229   */\n      tag_304\n        /* \"#utility.yul\":1224:1228   */\n      dup2\n        /* \"#utility.yul\":1215:1221   */\n      dup5\n        /* \"#utility.yul\":1151:1229   */\n      tag_220\n      jump\t// in\n    tag_304:\n        /* \"#utility.yul\":1143:1229   */\n      swap1\n      pop\n        /* \"#utility.yul\":923:1236   */\n      swap3\n      swap2\n      pop\n      pop\n      jump\t// out\n        /* \"#utility.yul\":1242:1317   */\n    tag_221:\n        /* \"#utility.yul\":1275:1281   */\n      0x00\n        /* \"#utility.yul\":1308:1310   */\n      0x40\n        /* \"#utility.yul\":1302:1311   */\n      mload\n        /* \"#utility.yul\":1292:1311   */\n      swap1\n      pop\n        /* \"#utility.yul\":1242:1317   */\n      swap1\n      jump\t// out\n        /* \"#utility.yul\":1323:1440   */\n    tag_222:\n        /* \"#utility.yul\":1432:1433   */\n      0x00\n        /* \"#utility.yul\":1429:1430   */\n      0x00\n        /* \"#utility.yul\":1422:1434   */\n      revert\n        /* \"#utility.yul\":1446:1563   */\n    tag_223:\n        /* \"#utility.yul\":1555:1556   */\n      0x00\n        /* \"#utility.yul\":1552:1553   */\n      0x00\n        /* \"#utility.yul\":1545:1557   */\n      revert\n        /* \"#utility.yul\":1569:1646   */\n    tag_224:\n        /* \"#utility.yul\":1606:1613   */\n      0x00\n        /* \"#utility.yul\":1635:1640   */\n      dup2\n        /* \"#utility.yul\":1624:1640   */\n      swap1\n      pop\n        /* \"#utility.yul\":1569:1646   */\n      swap2\n      swap1\n      pop\n      jump\t// out\n        /* \"#utility.yul\":1652:1774   */\n    tag_225:\n        /* \"#utility.yul\":1725:1749   */\n      tag_310\n        /* \"#utility.yul\":1743:1748   */\n      dup2\n        /* \"#utility.yul\":1725:1749   */\n      tag_224\n      jump\t// in\n    tag_310:\n        /* \"#utility.yul\":1718:1723   */\n      dup2\n        /* \"#utility.yul\":1715:1750   */\n      eq\n        /* \"#utility.yul\":1705:1768   */\n      tag_311\n      jumpi\n        /* \"#utility.yul\":1764:1765   */\n      0x00\n        /* \"#utility.yul\":1761:1762   */\n      0x00\n        /* \"#utility.yul\":1754:1766   */\n      revert\n        /* \"#utility.yul\":1705:1768   */\n    tag_311:\n        /* \"#utility.yul\":1652:1774   */\n      pop\n      jump\t// out\n        /* \"#utility.yul\":1780:1919   */\n    tag_226:\n        /* \"#utility.yul\":1826:1831   */\n      0x00\n        /* \"#utility.yul\":1864:1870   */\n      dup2\n        /* \"#utility.yul\":1851:1871   */\n      calldataload\n        /* \"#utility.yul\":1842:1871   */\n      swap1\n      pop\n        /* \"#utility.yul\":1880:1913   */\n      tag_313\n        /* \"#utility.yul\":1907:1912   */\n      dup2\n        /* \"#utility.yul\":1880:1913   */\n      tag_225\n      jump\t// in\n    tag_313:\n        /* \"#utility.yul\":1780:1919   */\n      swap3\n      swap2\n      pop\n      pop\n      jump\t// out\n        /* \"#utility.yul\":1925:2254   */\n    tag_26:\n        /* \"#utility.yul\":1984:1990   */\n      0x00\n        /* \"#utility.yul\":2033:2035   */\n      0x20\n        /* \"#utility.yul\":2021:2030   */\n      dup3\n        /* \"#utility.yul\":2012:2019   */\n      dup5\n        /* \"#utility.yul\":2008:2031   */\n      sub\n        /* \"#utility.yul\":2004:2036   */\n      slt\n        /* \"#utility.yul\":2001:2120   */\n      iszero\n      tag_315\n      jumpi\n        /* \"#utility.yul\":2039:2118   */\n      tag_316\n      tag_222\n      jump\t// in\n    tag_316:\n        /* \"#utility.yul\":2001:2120   */\n    tag_315:\n        /* \"#utility.yul\":2159:2160   */\n      0x00\n        /* \"#utility.yul\":2184:2237   */\n      tag_317\n        /* \"#utility.yul\":2229:2236   */\n      dup5\n        /* \"#utility.yul\":2220:2226   */\n      dup3\n        /* \"#utility.yul\":2209:2218   */\n      dup6\n        /* \"#utility.yul\":2205:2227   */\n      add\n        /* \"#utility.yul\":2184:2237   */\n      tag_226\n      jump\t// in\n    tag_317:\n        /* \"#utility.yul\":2174:2237   */\n      swap2\n      pop\n        /* \"#utility.yul\":2130:2247   */\n      pop\n        /* \"#utility.yul\":1925:2254   */\n      swap3\n      swap2\n      pop\n      pop\n      jump\t// out\n        /* \"#utility.yul\":2260:2386   */\n    tag_227:\n        /* \"#utility.yul\":2297:2304   */\n      0x00\n        /* \"#utility.yul\":2337:2379   */\n      0xffffffffffffffffffffffffffffffffffffffff\n        /* \"#utility.yul\":2330:2335   */\n      dup3\n        /* \"#utility.yul\":2326:2380   */\n      and\n        /* \"#utility.yul\":2315:2380   */\n      swap1\n      pop\n        /* \"#utility.yul\":2260:2386   */\n      swap2\n      swap1\n      pop\n      jump\t// out\n        /* \"#utility.yul\":2392:2488   */\n    tag_228:\n        /* \"#utility.yul\":2429:2436   */\n      0x00\n        /* \"#utility.yul\":2458:2482   */\n      tag_320\n        /* \"#utility.yul\":2476:2481   */\n      dup3\n        /* \"#utility.yul\":2458:2482   */\n      tag_227\n      jump\t// in\n    tag_320:\n        /* \"#utility.yul\":2447:2482   */\n      swap1\n      pop\n        /* \"#utility.yul\":2392:2488   */\n      swap2\n      swap1\n      pop\n      jump\t// out\n        /* \"#utility.yul\":2494:2612   */\n    tag_229:\n        /* \"#utility.yul\":2581:2605   */\n      tag_322\n        /* \"#utility.yul\":2599:2604   */\n      dup2\n        /* \"#utility.yul\":2581:2605   */\n      tag_228\n      jump\t// in\n    tag_322:\n        /* \"#utility.yul\":2576:2579   */\n      dup3\n        /* \"#utility.yul\":2569:2606   */\n      mstore\n        /* \"#utility.yul\":2494:2612   */\n      pop\n      pop\n      jump\t// out\n        /* \"#utility.yul\":2618:2840   */\n    tag_29:\n        /* \"#utility.yul\":2711:2715   */\n      0x00\n        /* \"#utility.yul\":2749:2751   */\n      0x20\n        /* \"#utility.yul\":2738:2747   */\n      dup3\n        /* \"#utility.yul\":2734:2752   */\n      add\n        /* \"#utility.yul\":2726:2752   */\n      swap1\n      pop\n        /* \"#utility.yul\":2762:2833   */\n      tag_324\n        /* \"#utility.yul\":2830:2831   */\n      0x00\n        /* \"#utility.yul\":2819:2828   */\n      dup4\n        /* \"#utility.yul\":2815:2832   */\n      add\n        /* \"#utility.yul\":2806:2812   */\n      dup5\n        /* \"#utility.yul\":2762:2833   */\n      tag_229\n      jump\t// in\n    tag_324:\n        /* \"#utility.yul\":2618:2840   */\n      swap3\n      swap2\n      pop\n      pop\n      jump\t// out\n        /* \"#utility.yul\":2846:2968   */\n    tag_230:\n        /* \"#utility.yul\":2919:2943   */\n      tag_326\n        /* \"#utility.yul\":2937:2942   */\n      dup2\n        /* \"#utility.yul\":2919:2943   */\n      tag_228\n      jump\t// in\n    tag_326:\n        /* \"#utility.yul\":2912:2917   */\n      dup2\n        /* \"#utility.yul\":2909:2944   */\n      eq\n        /* \"#utility.yul\":2899:2962   */\n      tag_327\n      jumpi\n        /* \"#utility.yul\":2958:2959   */\n      0x00\n        /* \"#utility.yul\":2955:2956   */\n      0x00\n        /* \"#utility.yul\":2948:2960   */\n      revert\n        /* \"#utility.yul\":2899:2962   */\n    tag_327:\n        /* \"#utility.yul\":2846:2968   */\n      pop\n      jump\t// out\n        /* \"#utility.yul\":2974:3113   */\n    tag_231:\n        /* \"#utility.yul\":3020:3025   */\n      0x00\n        /* \"#utility.yul\":3058:3064   */\n      dup2\n        /* \"#utility.yul\":3045:3065   */\n      calldataload\n        /* \"#utility.yul\":3036:3065   */\n      swap1\n      pop\n        /* \"#utility.yul\":3074:3107   */\n      tag_329\n        /* \"#utility.yul\":3101:3106   */\n      dup2\n        /* \"#utility.yul\":3074:3107   */\n      tag_230\n      jump\t// in\n    tag_329:\n        /* \"#utility.yul\":2974:3113   */\n      swap3\n      swap2\n      pop\n      pop\n      jump\t// out\n        /* \"#utility.yul\":3119:3593   */\n    tag_32:\n        /* \"#utility.yul\":3187:3193   */\n      0x00\n        /* \"#utility.yul\":3195:3201   */\n      0x00\n        /* \"#utility.yul\":3244:3246   */\n      0x40\n        /* \"#utility.yul\":3232:3241   */\n      dup4\n        /* \"#utility.yul\":3223:3230   */\n      dup6\n        /* \"#utility.yul\":3219:3242   */\n      sub\n        /* \"#utility.yul\":3215:3247   */\n      slt\n        /* \"#utility.yul\":3212:3331   */\n      iszero\n      tag_331\n      jumpi\n        /* \"#utility.yul\":3250:3329   */\n      tag_332\n      tag_222\n      jump\t// in\n    tag_332:\n        /* \"#utility.yul\":3212:3331   */\n    tag_331:\n        /* \"#utility.yul\":3370:3371   */\n      0x00\n        /* \"#utility.yul\":3395:3448   */\n      tag_333\n        /* \"#utility.yul\":3440:3447   */\n      dup6\n        /* \"#utility.yul\":3431:3437   */\n      dup3\n        /* \"#utility.yul\":3420:3429   */\n      dup7\n        /* \"#utility.yul\":3416:3438   */\n      add\n        /* \"#utility.yul\":3395:3448   */\n      tag_231\n      jump\t// in\n    tag_333:\n        /* \"#utility.yul\":3385:3448   */\n      swap3\n      pop\n        /* \"#utility.yul\":3341:3458   */\n      pop\n        /* \"#utility.yul\":3497:3499   */\n      0x20\n        /* \"#utility.yul\":3523:3576   */\n      tag_334\n        /* \"#utility.yul\":3568:3575   */\n      dup6\n        /* \"#utility.yul\":3559:3565   */\n      dup3\n        /* \"#utility.yul\":3548:3557   */\n      dup7\n        /* \"#utility.yul\":3544:3566   */\n      add\n        /* \"#utility.yul\":3523:3576   */\n      tag_226\n      jump\t// in\n    tag_334:\n        /* \"#utility.yul\":3513:3576   */\n      swap2\n      pop\n        /* \"#utility.yul\":3468:3586   */\n      pop\n        /* \"#utility.yul\":3119:3593   */\n      swap3\n      pop\n      swap3\n      swap1\n      pop\n      jump\t// out\n        /* \"#utility.yul\":3599:3758   */\n    tag_232:\n        /* \"#utility.yul\":3673:3684   */\n      0x00\n        /* \"#utility.yul\":3707:3713   */\n      dup3\n        /* \"#utility.yul\":3702:3705   */\n      dup3\n        /* \"#utility.yul\":3695:3714   */\n      mstore\n        /* \"#utility.yul\":3747:3751   */\n      0x20\n        /* \"#utility.yul\":3742:3745   */\n      dup3\n        /* \"#utility.yul\":3738:3752   */\n      add\n        /* \"#utility.yul\":3723:3752   */\n      swap1\n      pop\n        /* \"#utility.yul\":3599:3758   */\n      swap3\n      swap2\n      pop\n      pop\n      jump\t// out\n        /* \"#utility.yul\":3764:4121   */\n    tag_233:\n        /* \"#utility.yul\":3842:3845   */\n      0x00\n        /* \"#utility.yul\":3870:3909   */\n      tag_337\n        /* \"#utility.yul\":3903:3908   */\n      dup3\n        /* \"#utility.yul\":3870:3909   */\n      tag_216\n      jump\t// in\n    tag_337:\n        /* \"#utility.yul\":3925:3986   */\n      tag_338\n        /* \"#utility.yul\":3979:3985   */\n      dup2\n        /* \"#utility.yul\":3974:3977   */\n      dup6\n        /* \"#utility.yul\":3925:3986   */\n      tag_232\n      jump\t// in\n    tag_338:\n        /* \"#utility.yul\":3918:3986   */\n      swap4\n      pop\n        /* \"#utility.yul\":3995:4060   */\n      tag_339\n        /* \"#utility.yul\":4053:4059   */\n      dup2\n        /* \"#utility.yul\":4048:4051   */\n      dup6\n        /* \"#utility.yul\":4041:4045   */\n      0x20\n        /* \"#utility.yul\":4034:4039   */\n      dup7\n        /* \"#utility.yul\":4030:4046   */\n      add\n        /* \"#utility.yul\":3995:4060   */\n      tag_218\n      jump\t// in\n    tag_339:\n        /* \"#utility.yul\":4085:4114   */\n      tag_340\n        /* \"#utility.yul\":4107:4113   */\n      dup2\n        /* \"#utility.yul\":4085:4114   */\n      tag_219\n      jump\t// in\n    tag_340:\n        /* \"#utility.yul\":4080:4083   */\n      dup5\n        /* \"#utility.yul\":4076:4115   */\n      add\n        /* \"#utility.yul\":4069:4115   */\n      swap2\n      pop\n        /* \"#utility.yul\":3846:4121   */\n      pop\n        /* \"#utility.yul\":3764:4121   */\n      swap3\n      swap2\n      pop\n      pop\n      jump\t// out\n        /* \"#utility.yul\":4127:4235   */\n    tag_234:\n        /* \"#utility.yul\":4204:4228   */\n      tag_342\n        /* \"#utility.yul\":4222:4227   */\n      dup2\n        /* \"#utility.yul\":4204:4228   */\n      tag_224\n      jump\t// in\n    tag_342:\n        /* \"#utility.yul\":4199:4202   */\n      dup3\n        /* \"#utility.yul\":4192:4229   */\n      mstore\n        /* \"#utility.yul\":4127:4235   */\n      pop\n      pop\n      jump\t// out\n        /* \"#utility.yul\":4331:5212   */\n    tag_235:\n        /* \"#utility.yul\":4460:4463   */\n      0x00\n        /* \"#utility.yul\":4496:4500   */\n      0x60\n        /* \"#utility.yul\":4491:4494   */\n      dup4\n        /* \"#utility.yul\":4487:4501   */\n      add\n        /* \"#utility.yul\":4594:4598   */\n      0x00\n        /* \"#utility.yul\":4587:4592   */\n      dup4\n        /* \"#utility.yul\":4583:4599   */\n      add\n        /* \"#utility.yul\":4577:4600   */\n      mload\n        /* \"#utility.yul\":4647:4650   */\n      dup5\n        /* \"#utility.yul\":4641:4645   */\n      dup3\n        /* \"#utility.yul\":4637:4651   */\n      sub\n        /* \"#utility.yul\":4630:4634   */\n      0x00\n        /* \"#utility.yul\":4625:4628   */\n      dup7\n        /* \"#utility.yul\":4621:4635   */\n      add\n        /* \"#utility.yul\":4614:4652   */\n      mstore\n        /* \"#utility.yul\":4673:4746   */\n      tag_344\n        /* \"#utility.yul\":4741:4745   */\n      dup3\n        /* \"#utility.yul\":4727:4739   */\n      dup3\n        /* \"#utility.yul\":4673:4746   */\n      tag_233\n      jump\t// in\n    tag_344:\n        /* \"#utility.yul\":4665:4746   */\n      swap2\n      pop\n        /* \"#utility.yul\":4511:4757   */\n      pop\n        /* \"#utility.yul\":4843:4847   */\n      0x20\n        /* \"#utility.yul\":4836:4841   */\n      dup4\n        /* \"#utility.yul\":4832:4848   */\n      add\n        /* \"#utility.yul\":4826:4849   */\n      mload\n        /* \"#utility.yul\":4896:4899   */\n      dup5\n        /* \"#utility.yul\":4890:4894   */\n      dup3\n        /* \"#utility.yul\":4886:4900   */\n      sub\n        /* \"#utility.yul\":4879:4883   */\n      0x20\n        /* \"#utility.yul\":4874:4877   */\n      dup7\n        /* \"#utility.yul\":4870:4884   */\n      add\n        /* \"#utility.yul\":4863:4901   */\n      mstore\n        /* \"#utility.yul\":4922:4995   */\n      tag_345\n        /* \"#utility.yul\":4990:4994   */\n      dup3\n        /* \"#utility.yul\":4976:4988   */\n      dup3\n        /* \"#utility.yul\":4922:4995   */\n      tag_233\n      jump\t// in\n    tag_345:\n        /* \"#utility.yul\":4914:4995   */\n      swap2\n      pop\n        /* \"#utility.yul\":4767:5006   */\n      pop\n        /* \"#utility.yul\":5093:5097   */\n      0x40\n        /* \"#utility.yul\":5086:5091   */\n      dup4\n        /* \"#utility.yul\":5082:5098   */\n      add\n        /* \"#utility.yul\":5076:5099   */\n      mload\n        /* \"#utility.yul\":5112:5175   */\n      tag_346\n        /* \"#utility.yul\":5169:5173   */\n      0x40\n        /* \"#utility.yul\":5164:5167   */\n      dup7\n        /* \"#utility.yul\":5160:5174   */\n      add\n        /* \"#utility.yul\":5146:5158   */\n      dup3\n        /* \"#utility.yul\":5112:5175   */\n      tag_234\n      jump\t// in\n    tag_346:\n        /* \"#utility.yul\":5016:5185   */\n      pop\n        /* \"#utility.yul\":5202:5206   */\n      dup1\n        /* \"#utility.yul\":5195:5206   */\n      swap2\n      pop\n        /* \"#utility.yul\":4465:5212   */\n      pop\n        /* \"#utility.yul\":4331:5212   */\n      swap3\n      swap2\n      pop\n      pop\n      jump\t// out\n        /* \"#utility.yul\":5218:5611   */\n    tag_38:\n        /* \"#utility.yul\":5371:5375   */\n      0x00\n        /* \"#utility.yul\":5409:5411   */\n      0x20\n        /* \"#utility.yul\":5398:5407   */\n      dup3\n        /* \"#utility.yul\":5394:5412   */\n      add\n        /* \"#utility.yul\":5386:5412   */\n      swap1\n      pop\n        /* \"#utility.yul\":5458:5467   */\n      dup2\n        /* \"#utility.yul\":5452:5456   */\n      dup2\n        /* \"#utility.yul\":5448:5468   */\n      sub\n        /* \"#utility.yul\":5444:5445   */\n      0x00\n        /* \"#utility.yul\":5433:5442   */\n      dup4\n        /* \"#utility.yul\":5429:5446   */\n      add\n        /* \"#utility.yul\":5422:5469   */\n      mstore\n        /* \"#utility.yul\":5486:5604   */\n      tag_348\n        /* \"#utility.yul\":5599:5603   */\n      dup2\n        /* \"#utility.yul\":5590:5596   */\n      dup5\n        /* \"#utility.yul\":5486:5604   */\n      tag_235\n      jump\t// in\n    tag_348:\n        /* \"#utility.yul\":5478:5604   */\n      swap1\n      pop\n        /* \"#utility.yul\":5218:5611   */\n      swap3\n      swap2\n      pop\n      pop\n      jump\t// out\n        /* \"#utility.yul\":5617:6236   */\n    tag_41:\n        /* \"#utility.yul\":5694:5700   */\n      0x00\n        /* \"#utility.yul\":5702:5708   */\n      0x00\n        /* \"#utility.yul\":5710:5716   */\n      0x00\n        /* \"#utility.yul\":5759:5761   */\n      0x60\n        /* \"#utility.yul\":5747:5756   */\n      dup5\n        /* \"#utility.yul\":5738:5745   */\n      dup7\n        /* \"#utility.yul\":5734:5757   */\n      sub\n        /* \"#utility.yul\":5730:5762   */\n      slt\n        /* \"#utility.yul\":5727:5846   */\n      iszero\n      tag_350\n      jumpi\n        /* \"#utility.yul\":5765:5844   */\n      tag_351\n      tag_222\n      jump\t// in\n    tag_351:\n        /* \"#utility.yul\":5727:5846   */\n    tag_350:\n        /* \"#utility.yul\":5885:5886   */\n      0x00\n        /* \"#utility.yul\":5910:5963   */\n      tag_352\n        /* \"#utility.yul\":5955:5962   */\n      dup7\n        /* \"#utility.yul\":5946:5952   */\n      dup3\n        /* \"#utility.yul\":5935:5944   */\n      dup8\n        /* \"#utility.yul\":5931:5953   */\n      add\n        /* \"#utility.yul\":5910:5963   */\n      tag_231\n      jump\t// in\n    tag_352:\n        /* \"#utility.yul\":5900:5963   */\n      swap4\n      pop\n        /* \"#utility.yul\":5856:5973   */\n      pop\n        /* \"#utility.yul\":6012:6014   */\n      0x20\n        /* \"#utility.yul\":6038:6091   */\n      tag_353\n        /* \"#utility.yul\":6083:6090   */\n      dup7\n        /* \"#utility.yul\":6074:6080   */\n      dup3\n        /* \"#utility.yul\":6063:6072   */\n      dup8\n        /* \"#utility.yul\":6059:6081   */\n      add\n        /* \"#utility.yul\":6038:6091   */\n      tag_231\n      jump\t// in\n    tag_353:\n        /* \"#utility.yul\":6028:6091   */\n      swap3\n      pop\n        /* \"#utility.yul\":5983:6101   */\n      pop\n        /* \"#utility.yul\":6140:6142   */\n      0x40\n        /* \"#utility.yul\":6166:6219   */\n      tag_354\n        /* \"#utility.yul\":6211:6218   */\n      dup7\n        /* \"#utility.yul\":6202:6208   */\n      dup3\n        /* \"#utility.yul\":6191:6200   */\n      dup8\n        /* \"#utility.yul\":6187:6209   */\n      add\n        /* \"#utility.yul\":6166:6219   */\n      tag_226\n      jump\t// in\n    tag_354:\n        /* \"#utility.yul\":6156:6219   */\n      swap2\n      pop\n        /* \"#utility.yul\":6111:6229   */\n      pop\n        /* \"#utility.yul\":5617:6236   */\n      swap3\n      pop\n      swap3\n      pop\n      swap3\n      jump\t// out\n        /* \"#utility.yul\":6242:6571   */\n    tag_49:\n        /* \"#utility.yul\":6301:6307   */\n      0x00\n        /* \"#utility.yul\":6350:6352   */\n      0x20\n        /* \"#utility.yul\":6338:6347   */\n      dup3\n        /* \"#utility.yul\":6329:6336   */\n      dup5\n        /* \"#utility.yul\":6325:6348   */\n      sub\n        /* \"#utility.yul\":6321:6353   */\n      slt\n        /* \"#utility.yul\":6318:6437   */\n      iszero\n      tag_356\n      jumpi\n        /* \"#utility.yul\":6356:6435   */\n      tag_357\n      tag_222\n      jump\t// in\n    tag_357:\n        /* \"#utility.yul\":6318:6437   */\n    tag_356:\n        /* \"#utility.yul\":6476:6477   */\n      0x00\n        /* \"#utility.yul\":6501:6554   */\n      tag_358\n        /* \"#utility.yul\":6546:6553   */\n      dup5\n        /* \"#utility.yul\":6537:6543   */\n      dup3\n        /* \"#utility.yul\":6526:6535   */\n      dup6\n        /* \"#utility.yul\":6522:6544   */\n      add\n        /* \"#utility.yul\":6501:6554   */\n      tag_231\n      jump\t// in\n    tag_358:\n        /* \"#utility.yul\":6491:6554   */\n      swap2\n      pop\n        /* \"#utility.yul\":6447:6564   */\n      pop\n        /* \"#utility.yul\":6242:6571   */\n      swap3\n      swap2\n      pop\n      pop\n      jump\t// out\n        /* \"#utility.yul\":6577:6695   */\n    tag_236:\n        /* \"#utility.yul\":6664:6688   */\n      tag_360\n        /* \"#utility.yul\":6682:6687   */\n      dup2\n        /* \"#utility.yul\":6664:6688   */\n      tag_224\n      jump\t// in\n    tag_360:\n        /* \"#utility.yul\":6659:6662   */\n      dup3\n        /* \"#utility.yul\":6652:6689   */\n      mstore\n        /* \"#utility.yul\":6577:6695   */\n      pop\n      pop\n      jump\t// out\n        /* \"#utility.yul\":6701:6923   */\n    tag_52:\n        /* \"#utility.yul\":6794:6798   */\n      0x00\n        /* \"#utility.yul\":6832:6834   */\n      0x20\n        /* \"#utility.yul\":6821:6830   */\n      dup3\n        /* \"#utility.yul\":6817:6835   */\n      add\n        /* \"#utility.yul\":6809:6835   */\n      swap1\n      pop\n        /* \"#utility.yul\":6845:6916   */\n      tag_362\n        /* \"#utility.yul\":6913:6914   */\n      0x00\n        /* \"#utility.yul\":6902:6911   */\n      dup4\n        /* \"#utility.yul\":6898:6915   */\n      add\n        /* \"#utility.yul\":6889:6895   */\n      dup5\n        /* \"#utility.yul\":6845:6916   */\n      tag_236\n      jump\t// in\n    tag_362:\n        /* \"#utility.yul\":6701:6923   */\n      swap3\n      swap2\n      pop\n      pop\n      jump\t// out\n        /* \"#utility.yul\":6929:7046   */\n    tag_237:\n        /* \"#utility.yul\":7038:7039   */\n      0x00\n        /* \"#utility.yul\":7035:7036   */\n      0x00\n        /* \"#utility.yul\":7028:7040   */\n      revert\n        /* \"#utility.yul\":7052:7169   */\n    tag_238:\n        /* \"#utility.yul\":7161:7162   */\n      0x00\n        /* \"#utility.yul\":7158:7159   */\n      0x00\n        /* \"#utility.yul\":7151:7163   */\n      revert\n        /* \"#utility.yul\":7175:7355   */\n    tag_239:\n        /* \"#utility.yul\":7223:7300   */\n      0x4e487b7100000000000000000000000000000000000000000000000000000000\n        /* \"#utility.yul\":7220:7221   */\n      0x00\n        /* \"#utility.yul\":7213:7301   */\n      mstore\n        /* \"#utility.yul\":7320:7324   */\n      0x41\n        /* \"#utility.yul\":7317:7318   */\n      0x04\n        /* \"#utility.yul\":7310:7325   */\n      mstore\n        /* \"#utility.yul\":7344:7348   */\n      0x24\n        /* \"#utility.yul\":7341:7342   */\n      0x00\n        /* \"#utility.yul\":7334:7349   */\n      revert\n        /* \"#utility.yul\":7361:7642   */\n    tag_240:\n        /* \"#utility.yul\":7444:7471   */\n      tag_367\n        /* \"#utility.yul\":7466:7470   */\n      dup3\n        /* \"#utility.yul\":7444:7471   */\n      tag_219\n      jump\t// in\n    tag_367:\n        /* \"#utility.yul\":7436:7442   */\n      dup2\n        /* \"#utility.yul\":7432:7472   */\n      add\n        /* \"#utility.yul\":7574:7580   */\n      dup2\n        /* \"#utility.yul\":7562:7572   */\n      dup2\n        /* \"#utility.yul\":7559:7581   */\n      lt\n        /* \"#utility.yul\":7538:7556   */\n      0xffffffffffffffff\n        /* \"#utility.yul\":7526:7536   */\n      dup3\n        /* \"#utility.yul\":7523:7557   */\n      gt\n        /* \"#utility.yul\":7520:7582   */\n      or\n        /* \"#utility.yul\":7517:7605   */\n      iszero\n      tag_368\n      jumpi\n        /* \"#utility.yul\":7585:7603   */\n      tag_369\n      tag_239\n      jump\t// in\n    tag_369:\n        /* \"#utility.yul\":7517:7605   */\n    tag_368:\n        /* \"#utility.yul\":7625:7635   */\n      dup1\n        /* \"#utility.yul\":7621:7623   */\n      0x40\n        /* \"#utility.yul\":7614:7636   */\n      mstore\n        /* \"#utility.yul\":7404:7642   */\n      pop\n        /* \"#utility.yul\":7361:7642   */\n      pop\n      pop\n      jump\t// out\n        /* \"#utility.yul\":7648:7777   */\n    tag_241:\n        /* \"#utility.yul\":7682:7688   */\n      0x00\n        /* \"#utility.yul\":7709:7729   */\n      tag_371\n      tag_221\n      jump\t// in\n    tag_371:\n        /* \"#utility.yul\":7699:7729   */\n      swap1\n      pop\n        /* \"#utility.yul\":7738:7771   */\n      tag_372\n        /* \"#utility.yul\":7766:7770   */\n      dup3\n        /* \"#utility.yul\":7758:7764   */\n      dup3\n        /* \"#utility.yul\":7738:7771   */\n      tag_240\n      jump\t// in\n    tag_372:\n        /* \"#utility.yul\":7648:7777   */\n      swap2\n      swap1\n      pop\n      jump\t// out\n        /* \"#utility.yul\":7783:8091   */\n    tag_242:\n        /* \"#utility.yul\":7845:7849   */\n      0x00\n        /* \"#utility.yul\":7935:7953   */\n      0xffffffffffffffff\n        /* \"#utility.yul\":7927:7933   */\n      dup3\n        /* \"#utility.yul\":7924:7954   */\n      gt\n        /* \"#utility.yul\":7921:7977   */\n      iszero\n      tag_374\n      jumpi\n        /* \"#utility.yul\":7957:7975   */\n      tag_375\n      tag_239\n      jump\t// in\n    tag_375:\n        /* \"#utility.yul\":7921:7977   */\n    tag_374:\n        /* \"#utility.yul\":7995:8024   */\n      tag_376\n        /* \"#utility.yul\":8017:8023   */\n      dup3\n        /* \"#utility.yul\":7995:8024   */\n      tag_219\n      jump\t// in\n    tag_376:\n        /* \"#utility.yul\":7987:8024   */\n      swap1\n      pop\n        /* \"#utility.yul\":8079:8083   */\n      0x20\n        /* \"#utility.yul\":8073:8077   */\n      dup2\n        /* \"#utility.yul\":8069:8084   */\n      add\n        /* \"#utility.yul\":8061:8084   */\n      swap1\n      pop\n        /* \"#utility.yul\":7783:8091   */\n      swap2\n      swap1\n      pop\n      jump\t// out\n        /* \"#utility.yul\":8097:8245   */\n    tag_243:\n        /* \"#utility.yul\":8195:8201   */\n      dup3\n        /* \"#utility.yul\":8190:8193   */\n      dup2\n        /* \"#utility.yul\":8185:8188   */\n      dup4\n        /* \"#utility.yul\":8172:8202   */\n      calldatacopy\n        /* \"#utility.yul\":8236:8237   */\n      0x00\n        /* \"#utility.yul\":8227:8233   */\n      dup4\n        /* \"#utility.yul\":8222:8225   */\n      dup4\n        /* \"#utility.yul\":8218:8234   */\n      add\n        /* \"#utility.yul\":8211:8238   */\n      mstore\n        /* \"#utility.yul\":8097:8245   */\n      pop\n      pop\n      pop\n      jump\t// out\n        /* \"#utility.yul\":8251:8676   */\n    tag_244:\n        /* \"#utility.yul\":8329:8334   */\n      0x00\n        /* \"#utility.yul\":8354:8420   */\n      tag_379\n        /* \"#utility.yul\":8370:8419   */\n      tag_380\n        /* \"#utility.yul\":8412:8418   */\n      dup5\n        /* \"#utility.yul\":8370:8419   */\n      tag_242\n      jump\t// in\n    tag_380:\n        /* \"#utility.yul\":8354:8420   */\n      tag_241\n      jump\t// in\n    tag_379:\n        /* \"#utility.yul\":8345:8420   */\n      swap1\n      pop\n        /* \"#utility.yul\":8443:8449   */\n      dup3\n        /* \"#utility.yul\":8436:8441   */\n      dup2\n        /* \"#utility.yul\":8429:8450   */\n      mstore\n        /* \"#utility.yul\":8481:8485   */\n      0x20\n        /* \"#utility.yul\":8474:8479   */\n      dup2\n        /* \"#utility.yul\":8470:8486   */\n      add\n        /* \"#utility.yul\":8519:8522   */\n      dup5\n        /* \"#utility.yul\":8510:8516   */\n      dup5\n        /* \"#utility.yul\":8505:8508   */\n      dup5\n        /* \"#utility.yul\":8501:8517   */\n      add\n        /* \"#utility.yul\":8498:8523   */\n      gt\n        /* \"#utility.yul\":8495:8607   */\n      iszero\n      tag_381\n      jumpi\n        /* \"#utility.yul\":8526:8605   */\n      tag_382\n      tag_238\n      jump\t// in\n    tag_382:\n        /* \"#utility.yul\":8495:8607   */\n    tag_381:\n        /* \"#utility.yul\":8616:8670   */\n      tag_383\n        /* \"#utility.yul\":8663:8669   */\n      dup5\n        /* \"#utility.yul\":8658:8661   */\n      dup3\n        /* \"#utility.yul\":8653:8656   */\n      dup6\n        /* \"#utility.yul\":8616:8670   */\n      tag_243\n      jump\t// in\n    tag_383:\n        /* \"#utility.yul\":8335:8676   */\n      pop\n        /* \"#utility.yul\":8251:8676   */\n      swap4\n      swap3\n      pop\n      pop\n      pop\n      jump\t// out\n        /* \"#utility.yul\":8696:9036   */\n    tag_245:\n        /* \"#utility.yul\":8752:8757   */\n      0x00\n        /* \"#utility.yul\":8801:8804   */\n      dup3\n        /* \"#utility.yul\":8794:8798   */\n      0x1f\n        /* \"#utility.yul\":8786:8792   */\n      dup4\n        /* \"#utility.yul\":8782:8799   */\n      add\n        /* \"#utility.yul\":8778:8805   */\n      slt\n        /* \"#utility.yul\":8768:8890   */\n      tag_385\n      jumpi\n        /* \"#utility.yul\":8809:8888   */\n      tag_386\n      tag_237\n      jump\t// in\n    tag_386:\n        /* \"#utility.yul\":8768:8890   */\n    tag_385:\n        /* \"#utility.yul\":8926:8932   */\n      dup2\n        /* \"#utility.yul\":8913:8933   */\n      calldataload\n        /* \"#utility.yul\":8951:9030   */\n      tag_387\n        /* \"#utility.yul\":9026:9029   */\n      dup5\n        /* \"#utility.yul\":9018:9024   */\n      dup3\n        /* \"#utility.yul\":9011:9015   */\n      0x20\n        /* \"#utility.yul\":9003:9009   */\n      dup7\n        /* \"#utility.yul\":8999:9016   */\n      add\n        /* \"#utility.yul\":8951:9030   */\n      tag_244\n      jump\t// in\n    tag_387:\n        /* \"#utility.yul\":8942:9030   */\n      swap2\n      pop\n        /* \"#utility.yul\":8758:9036   */\n      pop\n        /* \"#utility.yul\":8696:9036   */\n      swap3\n      swap2\n      pop\n      pop\n      jump\t// out\n        /* \"#utility.yul\":9042:9551   */\n    tag_55:\n        /* \"#utility.yul\":9111:9117   */\n      0x00\n        /* \"#utility.yul\":9160:9162   */\n      0x20\n        /* \"#utility.yul\":9148:9157   */\n      dup3\n        /* \"#utility.yul\":9139:9146   */\n      dup5\n        /* \"#utility.yul\":9135:9158   */\n      sub\n        /* \"#utility.yul\":9131:9163   */\n      slt\n        /* \"#utility.yul\":9128:9247   */\n      iszero\n      tag_389\n      jumpi\n        /* \"#utility.yul\":9166:9245   */\n      tag_390\n      tag_222\n      jump\t// in\n    tag_390:\n        /* \"#utility.yul\":9128:9247   */\n    tag_389:\n        /* \"#utility.yul\":9314:9315   */\n      0x00\n        /* \"#utility.yul\":9303:9312   */\n      dup3\n        /* \"#utility.yul\":9299:9316   */\n      add\n        /* \"#utility.yul\":9286:9317   */\n      calldataload\n        /* \"#utility.yul\":9344:9362   */\n      0xffffffffffffffff\n        /* \"#utility.yul\":9336:9342   */\n      dup2\n        /* \"#utility.yul\":9333:9363   */\n      gt\n        /* \"#utility.yul\":9330:9447   */\n      iszero\n      tag_391\n      jumpi\n        /* \"#utility.yul\":9366:9445   */\n      tag_392\n      tag_223\n      jump\t// in\n    tag_392:\n        /* \"#utility.yul\":9330:9447   */\n    tag_391:\n        /* \"#utility.yul\":9471:9534   */\n      tag_393\n        /* \"#utility.yul\":9526:9533   */\n      dup5\n        /* \"#utility.yul\":9517:9523   */\n      dup3\n        /* \"#utility.yul\":9506:9515   */\n      dup6\n        /* \"#utility.yul\":9502:9524   */\n      add\n        /* \"#utility.yul\":9471:9534   */\n      tag_245\n      jump\t// in\n    tag_393:\n        /* \"#utility.yul\":9461:9534   */\n      swap2\n      pop\n        /* \"#utility.yul\":9257:9544   */\n      pop\n        /* \"#utility.yul\":9042:9551   */\n      swap3\n      swap2\n      pop\n      pop\n      jump\t// out\n        /* \"#utility.yul\":9557:10181   */\n    tag_62:\n        /* \"#utility.yul\":9746:9750   */\n      0x00\n        /* \"#utility.yul\":9784:9786   */\n      0x60\n        /* \"#utility.yul\":9773:9782   */\n      dup3\n        /* \"#utility.yul\":9769:9787   */\n      add\n        /* \"#utility.yul\":9761:9787   */\n      swap1\n      pop\n        /* \"#utility.yul\":9833:9842   */\n      dup2\n        /* \"#utility.yul\":9827:9831   */\n      dup2\n        /* \"#utility.yul\":9823:9843   */\n      sub\n        /* \"#utility.yul\":9819:9820   */\n      0x00\n        /* \"#utility.yul\":9808:9817   */\n      dup4\n        /* \"#utility.yul\":9804:9821   */\n      add\n        /* \"#utility.yul\":9797:9844   */\n      mstore\n        /* \"#utility.yul\":9861:9939   */\n      tag_395\n        /* \"#utility.yul\":9934:9938   */\n      dup2\n        /* \"#utility.yul\":9925:9931   */\n      dup7\n        /* \"#utility.yul\":9861:9939   */\n      tag_220\n      jump\t// in\n    tag_395:\n        /* \"#utility.yul\":9853:9939   */\n      swap1\n      pop\n        /* \"#utility.yul\":9986:9995   */\n      dup2\n        /* \"#utility.yul\":9980:9984   */\n      dup2\n        /* \"#utility.yul\":9976:9996   */\n      sub\n        /* \"#utility.yul\":9971:9973   */\n      0x20\n        /* \"#utility.yul\":9960:9969   */\n      dup4\n        /* \"#utility.yul\":9956:9974   */\n      add\n        /* \"#utility.yul\":9949:9997   */\n      mstore\n        /* \"#utility.yul\":10014:10092   */\n      tag_396\n        /* \"#utility.yul\":10087:10091   */\n      dup2\n        /* \"#utility.yul\":10078:10084   */\n      dup6\n        /* \"#utility.yul\":10014:10092   */\n      tag_220\n      jump\t// in\n    tag_396:\n        /* \"#utility.yul\":10006:10092   */\n      swap1\n      pop\n        /* \"#utility.yul\":10102:10174   */\n      tag_397\n        /* \"#utility.yul\":10170:10172   */\n      0x40\n        /* \"#utility.yul\":10159:10168   */\n      dup4\n        /* \"#utility.yul\":10155:10173   */\n      add\n        /* \"#utility.yul\":10146:10152   */\n      dup5\n        /* \"#utility.yul\":10102:10174   */\n      tag_236\n      jump\t// in\n    tag_397:\n        /* \"#utility.yul\":9557:10181   */\n      swap5\n      swap4\n      pop\n      pop\n      pop\n      pop\n      jump\t// out\n        /* \"#utility.yul\":10187:11312   */\n    tag_65:\n        /* \"#utility.yul\":10293:10299   */\n      0x00\n        /* \"#utility.yul\":10301:10307   */\n      0x00\n        /* \"#utility.yul\":10309:10315   */\n      0x00\n        /* \"#utility.yul\":10317:10323   */\n      0x00\n        /* \"#utility.yul\":10366:10369   */\n      0x80\n        /* \"#utility.yul\":10354:10363   */\n      dup6\n        /* \"#utility.yul\":10345:10352   */\n      dup8\n        /* \"#utility.yul\":10341:10364   */\n      sub\n        /* \"#utility.yul\":10337:10370   */\n      slt\n        /* \"#utility.yul\":10334:10454   */\n      iszero\n      tag_399\n      jumpi\n        /* \"#utility.yul\":10373:10452   */\n      tag_400\n      tag_222\n      jump\t// in\n    tag_400:\n        /* \"#utility.yul\":10334:10454   */\n    tag_399:\n        /* \"#utility.yul\":10493:10494   */\n      0x00\n        /* \"#utility.yul\":10518:10571   */\n      tag_401\n        /* \"#utility.yul\":10563:10570   */\n      dup8\n        /* \"#utility.yul\":10554:10560   */\n      dup3\n        /* \"#utility.yul\":10543:10552   */\n      dup9\n        /* \"#utility.yul\":10539:10561   */\n      add\n        /* \"#utility.yul\":10518:10571   */\n      tag_231\n      jump\t// in\n    tag_401:\n        /* \"#utility.yul\":10508:10571   */\n      swap5\n      pop\n        /* \"#utility.yul\":10464:10581   */\n      pop\n        /* \"#utility.yul\":10648:10650   */\n      0x20\n        /* \"#utility.yul\":10637:10646   */\n      dup6\n        /* \"#utility.yul\":10633:10651   */\n      add\n        /* \"#utility.yul\":10620:10652   */\n      calldataload\n        /* \"#utility.yul\":10679:10697   */\n      0xffffffffffffffff\n        /* \"#utility.yul\":10671:10677   */\n      dup2\n        /* \"#utility.yul\":10668:10698   */\n      gt\n        /* \"#utility.yul\":10665:10782   */\n      iszero\n      tag_402\n      jumpi\n        /* \"#utility.yul\":10701:10780   */\n      tag_403\n      tag_223\n      jump\t// in\n    tag_403:\n        /* \"#utility.yul\":10665:10782   */\n    tag_402:\n        /* \"#utility.yul\":10806:10869   */\n      tag_404\n        /* \"#utility.yul\":10861:10868   */\n      dup8\n        /* \"#utility.yul\":10852:10858   */\n      dup3\n        /* \"#utility.yul\":10841:10850   */\n      dup9\n        /* \"#utility.yul\":10837:10859   */\n      add\n        /* \"#utility.yul\":10806:10869   */\n      tag_245\n      jump\t// in\n    tag_404:\n        /* \"#utility.yul\":10796:10869   */\n      swap4\n      pop\n        /* \"#utility.yul\":10591:10879   */\n      pop\n        /* \"#utility.yul\":10946:10948   */\n      0x40\n        /* \"#utility.yul\":10935:10944   */\n      dup6\n        /* \"#utility.yul\":10931:10949   */\n      add\n        /* \"#utility.yul\":10918:10950   */\n      calldataload\n        /* \"#utility.yul\":10977:10995   */\n      0xffffffffffffffff\n        /* \"#utility.yul\":10969:10975   */\n      dup2\n        /* \"#utility.yul\":10966:10996   */\n      gt\n        /* \"#utility.yul\":10963:11080   */\n      iszero\n      tag_405\n      jumpi\n        /* \"#utility.yul\":10999:11078   */\n      tag_406\n      tag_223\n      jump\t// in\n    tag_406:\n        /* \"#utility.yul\":10963:11080   */\n    tag_405:\n        /* \"#utility.yul\":11104:11167   */\n      tag_407\n        /* \"#utility.yul\":11159:11166   */\n      dup8\n        /* \"#utility.yul\":11150:11156   */\n      dup3\n        /* \"#utility.yul\":11139:11148   */\n      dup9\n        /* \"#utility.yul\":11135:11157   */\n      add\n        /* \"#utility.yul\":11104:11167   */\n      tag_245\n      jump\t// in\n    tag_407:\n        /* \"#utility.yul\":11094:11167   */\n      swap3\n      pop\n        /* \"#utility.yul\":10889:11177   */\n      pop\n        /* \"#utility.yul\":11216:11218   */\n      0x60\n        /* \"#utility.yul\":11242:11295   */\n      tag_408\n        /* \"#utility.yul\":11287:11294   */\n      dup8\n        /* \"#utility.yul\":11278:11284   */\n      dup3\n        /* \"#utility.yul\":11267:11276   */\n      dup9\n        /* \"#utility.yul\":11263:11285   */\n      add\n        /* \"#utility.yul\":11242:11295   */\n      tag_226\n      jump\t// in\n    tag_408:\n        /* \"#utility.yul\":11232:11295   */\n      swap2\n      pop\n        /* \"#utility.yul\":11187:11305   */\n      pop\n        /* \"#utility.yul\":10187:11312   */\n      swap3\n      swap6\n      swap2\n      swap5\n      pop\n      swap3\n      pop\n      jump\t// out\n        /* \"#utility.yul\":11318:11408   */\n    tag_246:\n        /* \"#utility.yul\":11352:11359   */\n      0x00\n        /* \"#utility.yul\":11395:11400   */\n      dup2\n        /* \"#utility.yul\":11388:11401   */\n      iszero\n        /* \"#utility.yul\":11381:11402   */\n      iszero\n        /* \"#utility.yul\":11370:11402   */\n      swap1\n      pop\n        /* \"#utility.yul\":11318:11408   */\n      swap2\n      swap1\n      pop\n      jump\t// out\n        /* \"#utility.yul\":11414:11530   */\n    tag_247:\n        /* \"#utility.yul\":11484:11505   */\n      tag_411\n        /* \"#utility.yul\":11499:11504   */\n      dup2\n        /* \"#utility.yul\":11484:11505   */\n      tag_246\n      jump\t// in\n    tag_411:\n        /* \"#utility.yul\":11477:11482   */\n      dup2\n        /* \"#utility.yul\":11474:11506   */\n      eq\n        /* \"#utility.yul\":11464:11524   */\n      tag_412\n      jumpi\n        /* \"#utility.yul\":11520:11521   */\n      0x00\n        /* \"#utility.yul\":11517:11518   */\n      0x00\n        /* \"#utility.yul\":11510:11522   */\n      revert\n        /* \"#utility.yul\":11464:11524   */\n    tag_412:\n        /* \"#utility.yul\":11414:11530   */\n      pop\n      jump\t// out\n        /* \"#utility.yul\":11536:11669   */\n    tag_248:\n        /* \"#utility.yul\":11579:11584   */\n      0x00\n        /* \"#utility.yul\":11617:11623   */\n      dup2\n        /* \"#utility.yul\":11604:11624   */\n      calldataload\n        /* \"#utility.yul\":11595:11624   */\n      swap1\n      pop\n        /* \"#utility.yul\":11633:11663   */\n      tag_414\n        /* \"#utility.yul\":11657:11662   */\n      dup2\n        /* \"#utility.yul\":11633:11663   */\n      tag_247\n      jump\t// in\n    tag_414:\n        /* \"#utility.yul\":11536:11669   */\n      swap3\n      swap2\n      pop\n      pop\n      jump\t// out\n        /* \"#utility.yul\":11675:12143   */\n    tag_72:\n        /* \"#utility.yul\":11740:11746   */\n      0x00\n        /* \"#utility.yul\":11748:11754   */\n      0x00\n        /* \"#utility.yul\":11797:11799   */\n      0x40\n        /* \"#utility.yul\":11785:11794   */\n      dup4\n        /* \"#utility.yul\":11776:11783   */\n      dup6\n        /* \"#utility.yul\":11772:11795   */\n      sub\n        /* \"#utility.yul\":11768:11800   */\n      slt\n        /* \"#utility.yul\":11765:11884   */\n      iszero\n      tag_416\n      jumpi\n        /* \"#utility.yul\":11803:11882   */\n      tag_417\n      tag_222\n      jump\t// in\n    tag_417:\n        /* \"#utility.yul\":11765:11884   */\n    tag_416:\n        /* \"#utility.yul\":11923:11924   */\n      0x00\n        /* \"#utility.yul\":11948:12001   */\n      tag_418\n        /* \"#utility.yul\":11993:12000   */\n      dup6\n        /* \"#utility.yul\":11984:11990   */\n      dup3\n        /* \"#utility.yul\":11973:11982   */\n      dup7\n        /* \"#utility.yul\":11969:11991   */\n      add\n        /* \"#utility.yul\":11948:12001   */\n      tag_231\n      jump\t// in\n    tag_418:\n        /* \"#utility.yul\":11938:12001   */\n      swap3\n      pop\n        /* \"#utility.yul\":11894:12011   */\n      pop\n        /* \"#utility.yul\":12050:12052   */\n      0x20\n        /* \"#utility.yul\":12076:12126   */\n      tag_419\n        /* \"#utility.yul\":12118:12125   */\n      dup6\n        /* \"#utility.yul\":12109:12115   */\n      dup3\n        /* \"#utility.yul\":12098:12107   */\n      dup7\n        /* \"#utility.yul\":12094:12116   */\n      add\n        /* \"#utility.yul\":12076:12126   */\n      tag_248\n      jump\t// in\n    tag_419:\n        /* \"#utility.yul\":12066:12126   */\n      swap2\n      pop\n        /* \"#utility.yul\":12021:12136   */\n      pop\n        /* \"#utility.yul\":11675:12143   */\n      swap3\n      pop\n      swap3\n      swap1\n      pop\n      jump\t// out\n        /* \"#utility.yul\":12149:12263   */\n    tag_249:\n        /* \"#utility.yul\":12216:12222   */\n      0x00\n        /* \"#utility.yul\":12250:12255   */\n      dup2\n        /* \"#utility.yul\":12244:12256   */\n      mload\n        /* \"#utility.yul\":12234:12256   */\n      swap1\n      pop\n        /* \"#utility.yul\":12149:12263   */\n      swap2\n      swap1\n      pop\n      jump\t// out\n        /* \"#utility.yul\":12269:12453   */\n    tag_250:\n        /* \"#utility.yul\":12368:12379   */\n      0x00\n        /* \"#utility.yul\":12402:12408   */\n      dup3\n        /* \"#utility.yul\":12397:12400   */\n      dup3\n        /* \"#utility.yul\":12390:12409   */\n      mstore\n        /* \"#utility.yul\":12442:12446   */\n      0x20\n        /* \"#utility.yul\":12437:12440   */\n      dup3\n        /* \"#utility.yul\":12433:12447   */\n      add\n        /* \"#utility.yul\":12418:12447   */\n      swap1\n      pop\n        /* \"#utility.yul\":12269:12453   */\n      swap3\n      swap2\n      pop\n      pop\n      jump\t// out\n        /* \"#utility.yul\":12459:12591   */\n    tag_251:\n        /* \"#utility.yul\":12526:12530   */\n      0x00\n        /* \"#utility.yul\":12549:12552   */\n      dup2\n        /* \"#utility.yul\":12541:12552   */\n      swap1\n      pop\n        /* \"#utility.yul\":12579:12583   */\n      0x20\n        /* \"#utility.yul\":12574:12577   */\n      dup3\n        /* \"#utility.yul\":12570:12584   */\n      add\n        /* \"#utility.yul\":12562:12584   */\n      swap1\n      pop\n        /* \"#utility.yul\":12459:12591   */\n      swap2\n      swap1\n      pop\n      jump\t// out\n        /* \"#utility.yul\":12597:12776   */\n    tag_252:\n        /* \"#utility.yul\":12666:12676   */\n      0x00\n        /* \"#utility.yul\":12687:12733   */\n      tag_424\n        /* \"#utility.yul\":12729:12732   */\n      dup4\n        /* \"#utility.yul\":12721:12727   */\n      dup4\n        /* \"#utility.yul\":12687:12733   */\n      tag_234\n      jump\t// in\n    tag_424:\n        /* \"#utility.yul\":12765:12769   */\n      0x20\n        /* \"#utility.yul\":12760:12763   */\n      dup4\n        /* \"#utility.yul\":12756:12770   */\n      add\n        /* \"#utility.yul\":12742:12770   */\n      swap1\n      pop\n        /* \"#utility.yul\":12597:12776   */\n      swap3\n      swap2\n      pop\n      pop\n      jump\t// out\n        /* \"#utility.yul\":12782:12895   */\n    tag_253:\n        /* \"#utility.yul\":12852:12856   */\n      0x00\n        /* \"#utility.yul\":12884:12888   */\n      0x20\n        /* \"#utility.yul\":12879:12882   */\n      dup3\n        /* \"#utility.yul\":12875:12889   */\n      add\n        /* \"#utility.yul\":12867:12889   */\n      swap1\n      pop\n        /* \"#utility.yul\":12782:12895   */\n      swap2\n      swap1\n      pop\n      jump\t// out\n        /* \"#utility.yul\":12931:13663   */\n    tag_254:\n        /* \"#utility.yul\":13050:13053   */\n      0x00\n        /* \"#utility.yul\":13079:13133   */\n      tag_427\n        /* \"#utility.yul\":13127:13132   */\n      dup3\n        /* \"#utility.yul\":13079:13133   */\n      tag_249\n      jump\t// in\n    tag_427:\n        /* \"#utility.yul\":13149:13235   */\n      tag_428\n        /* \"#utility.yul\":13228:13234   */\n      dup2\n        /* \"#utility.yul\":13223:13226   */\n      dup6\n        /* \"#utility.yul\":13149:13235   */\n      tag_250\n      jump\t// in\n    tag_428:\n        /* \"#utility.yul\":13142:13235   */\n      swap4\n      pop\n        /* \"#utility.yul\":13259:13315   */\n      tag_429\n        /* \"#utility.yul\":13309:13314   */\n      dup4\n        /* \"#utility.yul\":13259:13315   */\n      tag_251\n      jump\t// in\n    tag_429:\n        /* \"#utility.yul\":13338:13345   */\n      dup1\n        /* \"#utility.yul\":13369:13370   */\n      0x00\n        /* \"#utility.yul\":13354:13638   */\n    tag_430:\n        /* \"#utility.yul\":13379:13385   */\n      dup4\n        /* \"#utility.yul\":13376:13377   */\n      dup2\n        /* \"#utility.yul\":13373:13386   */\n      lt\n        /* \"#utility.yul\":13354:13638   */\n      iszero\n      tag_432\n      jumpi\n        /* \"#utility.yul\":13455:13461   */\n      dup2\n        /* \"#utility.yul\":13449:13462   */\n      mload\n        /* \"#utility.yul\":13482:13545   */\n      tag_433\n        /* \"#utility.yul\":13541:13544   */\n      dup9\n        /* \"#utility.yul\":13526:13539   */\n      dup3\n        /* \"#utility.yul\":13482:13545   */\n      tag_252\n      jump\t// in\n    tag_433:\n        /* \"#utility.yul\":13475:13545   */\n      swap8\n      pop\n        /* \"#utility.yul\":13568:13628   */\n      tag_434\n        /* \"#utility.yul\":13621:13627   */\n      dup4\n        /* \"#utility.yul\":13568:13628   */\n      tag_253\n      jump\t// in\n    tag_434:\n        /* \"#utility.yul\":13558:13628   */\n      swap3\n      pop\n        /* \"#utility.yul\":13414:13638   */\n      pop\n        /* \"#utility.yul\":13401:13402   */\n      0x01\n        /* \"#utility.yul\":13398:13399   */\n      dup2\n        /* \"#utility.yul\":13394:13403   */\n      add\n        /* \"#utility.yul\":13389:13403   */\n      swap1\n      pop\n        /* \"#utility.yul\":13354:13638   */\n      jump(tag_430)\n    tag_432:\n        /* \"#utility.yul\":13358:13372   */\n      pop\n        /* \"#utility.yul\":13654:13657   */\n      dup6\n        /* \"#utility.yul\":13647:13657   */\n      swap4\n      pop\n        /* \"#utility.yul\":13055:13663   */\n      pop\n      pop\n      pop\n        /* \"#utility.yul\":12931:13663   */\n      swap3\n      swap2\n      pop\n      pop\n      jump\t// out\n        /* \"#utility.yul\":13669:14042   */\n    tag_77:\n        /* \"#utility.yul\":13812:13816   */\n      0x00\n        /* \"#utility.yul\":13850:13852   */\n      0x20\n        /* \"#utility.yul\":13839:13848   */\n      dup3\n        /* \"#utility.yul\":13835:13853   */\n      add\n        /* \"#utility.yul\":13827:13853   */\n      swap1\n      pop\n        /* \"#utility.yul\":13899:13908   */\n      dup2\n        /* \"#utility.yul\":13893:13897   */\n      dup2\n        /* \"#utility.yul\":13889:13909   */\n      sub\n        /* \"#utility.yul\":13885:13886   */\n      0x00\n        /* \"#utility.yul\":13874:13883   */\n      dup4\n        /* \"#utility.yul\":13870:13887   */\n      add\n        /* \"#utility.yul\":13863:13910   */\n      mstore\n        /* \"#utility.yul\":13927:14035   */\n      tag_436\n        /* \"#utility.yul\":14030:14034   */\n      dup2\n        /* \"#utility.yul\":14021:14027   */\n      dup5\n        /* \"#utility.yul\":13927:14035   */\n      tag_254\n      jump\t// in\n    tag_436:\n        /* \"#utility.yul\":13919:14035   */\n      swap1\n      pop\n        /* \"#utility.yul\":13669:14042   */\n      swap3\n      swap2\n      pop\n      pop\n      jump\t// out\n        /* \"#utility.yul\":14048:14522   */\n    tag_80:\n        /* \"#utility.yul\":14116:14122   */\n      0x00\n        /* \"#utility.yul\":14124:14130   */\n      0x00\n        /* \"#utility.yul\":14173:14175   */\n      0x40\n        /* \"#utility.yul\":14161:14170   */\n      dup4\n        /* \"#utility.yul\":14152:14159   */\n      dup6\n        /* \"#utility.yul\":14148:14171   */\n      sub\n        /* \"#utility.yul\":14144:14176   */\n      slt\n        /* \"#utility.yul\":14141:14260   */\n      iszero\n      tag_438\n      jumpi\n        /* \"#utility.yul\":14179:14258   */\n      tag_439\n      tag_222\n      jump\t// in\n    tag_439:\n        /* \"#utility.yul\":14141:14260   */\n    tag_438:\n        /* \"#utility.yul\":14299:14300   */\n      0x00\n        /* \"#utility.yul\":14324:14377   */\n      tag_440\n        /* \"#utility.yul\":14369:14376   */\n      dup6\n        /* \"#utility.yul\":14360:14366   */\n      dup3\n        /* \"#utility.yul\":14349:14358   */\n      dup7\n        /* \"#utility.yul\":14345:14367   */\n      add\n        /* \"#utility.yul\":14324:14377   */\n      tag_231\n      jump\t// in\n    tag_440:\n        /* \"#utility.yul\":14314:14377   */\n      swap3\n      pop\n        /* \"#utility.yul\":14270:14387   */\n      pop\n        /* \"#utility.yul\":14426:14428   */\n      0x20\n        /* \"#utility.yul\":14452:14505   */\n      tag_441\n        /* \"#utility.yul\":14497:14504   */\n      dup6\n        /* \"#utility.yul\":14488:14494   */\n      dup3\n        /* \"#utility.yul\":14477:14486   */\n      dup7\n        /* \"#utility.yul\":14473:14495   */\n      add\n        /* \"#utility.yul\":14452:14505   */\n      tag_231\n      jump\t// in\n    tag_441:\n        /* \"#utility.yul\":14442:14505   */\n      swap2\n      pop\n        /* \"#utility.yul\":14397:14515   */\n      pop\n        /* \"#utility.yul\":14048:14522   */\n      swap3\n      pop\n      swap3\n      swap1\n      pop\n      jump\t// out\n        /* \"#utility.yul\":14528:14637   */\n    tag_255:\n        /* \"#utility.yul\":14609:14630   */\n      tag_443\n        /* \"#utility.yul\":14624:14629   */\n      dup2\n        /* \"#utility.yul\":14609:14630   */\n      tag_246\n      jump\t// in\n    tag_443:\n        /* \"#utility.yul\":14604:14607   */\n      dup3\n        /* \"#utility.yul\":14597:14631   */\n      mstore\n        /* \"#utility.yul\":14528:14637   */\n      pop\n      pop\n      jump\t// out\n        /* \"#utility.yul\":14643:14853   */\n    tag_83:\n        /* \"#utility.yul\":14730:14734   */\n      0x00\n        /* \"#utility.yul\":14768:14770   */\n      0x20\n        /* \"#utility.yul\":14757:14766   */\n      dup3\n        /* \"#utility.yul\":14753:14771   */\n      add\n        /* \"#utility.yul\":14745:14771   */\n      swap1\n      pop\n        /* \"#utility.yul\":14781:14846   */\n      tag_445\n        /* \"#utility.yul\":14843:14844   */\n      0x00\n        /* \"#utility.yul\":14832:14841   */\n      dup4\n        /* \"#utility.yul\":14828:14845   */\n      add\n        /* \"#utility.yul\":14819:14825   */\n      dup5\n        /* \"#utility.yul\":14781:14846   */\n      tag_255\n      jump\t// in\n    tag_445:\n        /* \"#utility.yul\":14643:14853   */\n      swap3\n      swap2\n      pop\n      pop\n      jump\t// out\n        /* \"#utility.yul\":14859:15039   */\n    tag_256:\n        /* \"#utility.yul\":14907:14984   */\n      0x4e487b7100000000000000000000000000000000000000000000000000000000\n        /* \"#utility.yul\":14904:14905   */\n      0x00\n        /* \"#utility.yul\":14897:14985   */\n      mstore\n        /* \"#utility.yul\":15004:15008   */\n      0x22\n        /* \"#utility.yul\":15001:15002   */\n      0x04\n        /* \"#utility.yul\":14994:15009   */\n      mstore\n        /* \"#utility.yul\":15028:15032   */\n      0x24\n        /* \"#utility.yul\":15025:15026   */\n      0x00\n        /* \"#utility.yul\":15018:15033   */\n      revert\n        /* \"#utility.yul\":15045:15365   */\n    tag_86:\n        /* \"#utility.yul\":15089:15095   */\n      0x00\n        /* \"#utility.yul\":15126:15127   */\n      0x02\n        /* \"#utility.yul\":15120:15124   */\n      dup3\n        /* \"#utility.yul\":15116:15128   */\n      div\n        /* \"#utility.yul\":15106:15128   */\n      swap1\n      pop\n        /* \"#utility.yul\":15173:15174   */\n      0x01\n        /* \"#utility.yul\":15167:15171   */\n      dup3\n        /* \"#utility.yul\":15163:15175   */\n      and\n        /* \"#utility.yul\":15194:15212   */\n      dup1\n        /* \"#utility.yul\":15184:15265   */\n      tag_448\n      jumpi\n        /* \"#utility.yul\":15250:15254   */\n      0x7f\n        /* \"#utility.yul\":15242:15248   */\n      dup3\n        /* \"#utility.yul\":15238:15255   */\n      and\n        /* \"#utility.yul\":15228:15255   */\n      swap2\n      pop\n        /* \"#utility.yul\":15184:15265   */\n    tag_448:\n        /* \"#utility.yul\":15312:15314   */\n      0x20\n        /* \"#utility.yul\":15304:15310   */\n      dup3\n        /* \"#utility.yul\":15301:15315   */\n      lt\n        /* \"#utility.yul\":15281:15299   */\n      dup2\n        /* \"#utility.yul\":15278:15316   */\n      sub\n        /* \"#utility.yul\":15275:15359   */\n      tag_449\n      jumpi\n        /* \"#utility.yul\":15331:15349   */\n      tag_450\n      tag_256\n      jump\t// in\n    tag_450:\n        /* \"#utility.yul\":15275:15359   */\n    tag_449:\n        /* \"#utility.yul\":15096:15365   */\n      pop\n        /* \"#utility.yul\":15045:15365   */\n      swap2\n      swap1\n      pop\n      jump\t// out\n        /* \"#utility.yul\":15371:15541   */\n    tag_257:\n        /* \"#utility.yul\":15511:15533   */\n      0x546f6b656e20646f6573206e6f74206578697374000000000000000000000000\n        /* \"#utility.yul\":15507:15508   */\n      0x00\n        /* \"#utility.yul\":15499:15505   */\n      dup3\n        /* \"#utility.yul\":15495:15509   */\n      add\n        /* \"#utility.yul\":15488:15534   */\n      mstore\n        /* \"#utility.yul\":15371:15541   */\n      pop\n      jump\t// out\n        /* \"#utility.yul\":15547:15913   */\n    tag_258:\n        /* \"#utility.yul\":15689:15692   */\n      0x00\n        /* \"#utility.yul\":15710:15777   */\n      tag_453\n        /* \"#utility.yul\":15774:15776   */\n      0x14\n        /* \"#utility.yul\":15769:15772   */\n      dup4\n        /* \"#utility.yul\":15710:15777   */\n      tag_217\n      jump\t// in\n    tag_453:\n        /* \"#utility.yul\":15703:15777   */\n      swap2\n      pop\n        /* \"#utility.yul\":15786:15879   */\n      tag_454\n        /* \"#utility.yul\":15875:15878   */\n      dup3\n        /* \"#utility.yul\":15786:15879   */\n      tag_257\n      jump\t// in\n    tag_454:\n        /* \"#utility.yul\":15904:15906   */\n      0x20\n        /* \"#utility.yul\":15899:15902   */\n      dup3\n        /* \"#utility.yul\":15895:15907   */\n      add\n        /* \"#utility.yul\":15888:15907   */\n      swap1\n      pop\n        /* \"#utility.yul\":15547:15913   */\n      swap2\n      swap1\n      pop\n      jump\t// out\n        /* \"#utility.yul\":15919:16338   */\n    tag_96:\n        /* \"#utility.yul\":16085:16089   */\n      0x00\n        /* \"#utility.yul\":16123:16125   */\n      0x20\n        /* \"#utility.yul\":16112:16121   */\n      dup3\n        /* \"#utility.yul\":16108:16126   */\n      add\n        /* \"#utility.yul\":16100:16126   */\n      swap1\n      pop\n        /* \"#utility.yul\":16172:16181   */\n      dup2\n        /* \"#utility.yul\":16166:16170   */\n      dup2\n        /* \"#utility.yul\":16162:16182   */\n      sub\n        /* \"#utility.yul\":16158:16159   */\n      0x00\n        /* \"#utility.yul\":16147:16156   */\n      dup4\n        /* \"#utility.yul\":16143:16160   */\n      add\n        /* \"#utility.yul\":16136:16183   */\n      mstore\n        /* \"#utility.yul\":16200:16331   */\n      tag_456\n        /* \"#utility.yul\":16326:16330   */\n      dup2\n        /* \"#utility.yul\":16200:16331   */\n      tag_258\n      jump\t// in\n    tag_456:\n        /* \"#utility.yul\":16192:16331   */\n      swap1\n      pop\n        /* \"#utility.yul\":15919:16338   */\n      swap2\n      swap1\n      pop\n      jump\t// out\n        /* \"#utility.yul\":16344:16517   */\n    tag_259:\n        /* \"#utility.yul\":16484:16509   */\n      0x43616e6e6f7420617070726f766520746f206f776e6572000000000000000000\n        /* \"#utility.yul\":16480:16481   */\n      0x00\n        /* \"#utility.yul\":16472:16478   */\n      dup3\n        /* \"#utility.yul\":16468:16482   */\n      add\n        /* \"#utility.yul\":16461:16510   */\n      mstore\n        /* \"#utility.yul\":16344:16517   */\n      pop\n      jump\t// out\n        /* \"#utility.yul\":16523:16889   */\n    tag_260:\n        /* \"#utility.yul\":16665:16668   */\n      0x00\n        /* \"#utility.yul\":16686:16753   */\n      tag_459\n        /* \"#utility.yul\":16750:16752   */\n      0x17\n        /* \"#utility.yul\":16745:16748   */\n      dup4\n        /* \"#utility.yul\":16686:16753   */\n      tag_217\n      jump\t// in\n    tag_459:\n        /* \"#utility.yul\":16679:16753   */\n      swap2\n      pop\n        /* \"#utility.yul\":16762:16855   */\n      tag_460\n        /* \"#utility.yul\":16851:16854   */\n      dup3\n        /* \"#utility.yul\":16762:16855   */\n      tag_259\n      jump\t// in\n    tag_460:\n        /* \"#utility.yul\":16880:16882   */\n      0x20\n        /* \"#utility.yul\":16875:16878   */\n      dup3\n        /* \"#utility.yul\":16871:16883   */\n      add\n        /* \"#utility.yul\":16864:16883   */\n      swap1\n      pop\n        /* \"#utility.yul\":16523:16889   */\n      swap2\n      swap1\n      pop\n      jump\t// out\n        /* \"#utility.yul\":16895:17314   */\n    tag_101:\n        /* \"#utility.yul\":17061:17065   */\n      0x00\n        /* \"#utility.yul\":17099:17101   */\n      0x20\n        /* \"#utility.yul\":17088:17097   */\n      dup3\n        /* \"#utility.yul\":17084:17102   */\n      add\n        /* \"#utility.yul\":17076:17102   */\n      swap1\n      pop\n        /* \"#utility.yul\":17148:17157   */\n      dup2\n        /* \"#utility.yul\":17142:17146   */\n      dup2\n        /* \"#utility.yul\":17138:17158   */\n      sub\n        /* \"#utility.yul\":17134:17135   */\n      0x00\n        /* \"#utility.yul\":17123:17132   */\n      dup4\n        /* \"#utility.yul\":17119:17136   */\n      add\n        /* \"#utility.yul\":17112:17159   */\n      mstore\n        /* \"#utility.yul\":17176:17307   */\n      tag_462\n        /* \"#utility.yul\":17302:17306   */\n      dup2\n        /* \"#utility.yul\":17176:17307   */\n      tag_260\n      jump\t// in\n    tag_462:\n        /* \"#utility.yul\":17168:17307   */\n      swap1\n      pop\n        /* \"#utility.yul\":16895:17314   */\n      swap2\n      swap1\n      pop\n      jump\t// out\n        /* \"#utility.yul\":17320:17491   */\n    tag_261:\n        /* \"#utility.yul\":17460:17483   */\n      0x4e6f7420617070726f766564206f72206f776e65720000000000000000000000\n        /* \"#utility.yul\":17456:17457   */\n      0x00\n        /* \"#utility.yul\":17448:17454   */\n      dup3\n        /* \"#utility.yul\":17444:17458   */\n      add\n        /* \"#utility.yul\":17437:17484   */\n      mstore\n        /* \"#utility.yul\":17320:17491   */\n      pop\n      jump\t// out\n        /* \"#utility.yul\":17497:17863   */\n    tag_262:\n        /* \"#utility.yul\":17639:17642   */\n      0x00\n        /* \"#utility.yul\":17660:17727   */\n      tag_465\n        /* \"#utility.yul\":17724:17726   */\n      0x15\n        /* \"#utility.yul\":17719:17722   */\n      dup4\n        /* \"#utility.yul\":17660:17727   */\n      tag_217\n      jump\t// in\n    tag_465:\n        /* \"#utility.yul\":17653:17727   */\n      swap2\n      pop\n        /* \"#utility.yul\":17736:17829   */\n      tag_466\n        /* \"#utility.yul\":17825:17828   */\n      dup3\n        /* \"#utility.yul\":17736:17829   */\n      tag_261\n      jump\t// in\n    tag_466:\n        /* \"#utility.yul\":17854:17856   */\n      0x20\n        /* \"#utility.yul\":17849:17852   */\n      dup3\n        /* \"#utility.yul\":17845:17857   */\n      add\n        /* \"#utility.yul\":17838:17857   */\n      swap1\n      pop\n        /* \"#utility.yul\":17497:17863   */\n      swap2\n      swap1\n      pop\n      jump\t// out\n        /* \"#utility.yul\":17869:18288   */\n    tag_106:\n        /* \"#utility.yul\":18035:18039   */\n      0x00\n        /* \"#utility.yul\":18073:18075   */\n      0x20\n        /* \"#utility.yul\":18062:18071   */\n      dup3\n        /* \"#utility.yul\":18058:18076   */\n      add\n        /* \"#utility.yul\":18050:18076   */\n      swap1\n      pop\n        /* \"#utility.yul\":18122:18131   */\n      dup2\n        /* \"#utility.yul\":18116:18120   */\n      dup2\n        /* \"#utility.yul\":18112:18132   */\n      sub\n        /* \"#utility.yul\":18108:18109   */\n      0x00\n        /* \"#utility.yul\":18097:18106   */\n      dup4\n        /* \"#utility.yul\":18093:18110   */\n      add\n        /* \"#utility.yul\":18086:18133   */\n      mstore\n        /* \"#utility.yul\":18150:18281   */\n      tag_468\n        /* \"#utility.yul\":18276:18280   */\n      dup2\n        /* \"#utility.yul\":18150:18281   */\n      tag_262\n      jump\t// in\n    tag_468:\n        /* \"#utility.yul\":18142:18281   */\n      swap1\n      pop\n        /* \"#utility.yul\":17869:18288   */\n      swap2\n      swap1\n      pop\n      jump\t// out\n        /* \"#utility.yul\":18294:18461   */\n    tag_263:\n        /* \"#utility.yul\":18434:18453   */\n      0x496e76616c696420726563697069656e74000000000000000000000000000000\n        /* \"#utility.yul\":18430:18431   */\n      0x00\n        /* \"#utility.yul\":18422:18428   */\n      dup3\n        /* \"#utility.yul\":18418:18432   */\n      add\n        /* \"#utility.yul\":18411:18454   */\n      mstore\n        /* \"#utility.yul\":18294:18461   */\n      pop\n      jump\t// out\n        /* \"#utility.yul\":18467:18833   */\n    tag_264:\n        /* \"#utility.yul\":18609:18612   */\n      0x00\n        /* \"#utility.yul\":18630:18697   */\n      tag_471\n        /* \"#utility.yul\":18694:18696   */\n      0x11\n        /* \"#utility.yul\":18689:18692   */\n      dup4\n        /* \"#utility.yul\":18630:18697   */\n      tag_217\n      jump\t// in\n    tag_471:\n        /* \"#utility.yul\":18623:18697   */\n      swap2\n      pop\n        /* \"#utility.yul\":18706:18799   */\n      tag_472\n        /* \"#utility.yul\":18795:18798   */\n      dup3\n        /* \"#utility.yul\":18706:18799   */\n      tag_263\n      jump\t// in\n    tag_472:\n        /* \"#utility.yul\":18824:18826   */\n      0x20\n        /* \"#utility.yul\":18819:18822   */\n      dup3\n        /* \"#utility.yul\":18815:18827   */\n      add\n        /* \"#utility.yul\":18808:18827   */\n      swap1\n      pop\n        /* \"#utility.yul\":18467:18833   */\n      swap2\n      swap1\n      pop\n      jump\t// out\n        /* \"#utility.yul\":18839:19258   */\n    tag_132:\n        /* \"#utility.yul\":19005:19009   */\n      0x00\n        /* \"#utility.yul\":19043:19045   */\n      0x20\n        /* \"#utility.yul\":19032:19041   */\n      dup3\n        /* \"#utility.yul\":19028:19046   */\n      add\n        /* \"#utility.yul\":19020:19046   */\n      swap1\n      pop\n        /* \"#utility.yul\":19092:19101   */\n      dup2\n        /* \"#utility.yul\":19086:19090   */\n      dup2\n        /* \"#utility.yul\":19082:19102   */\n      sub\n        /* \"#utility.yul\":19078:19079   */\n      0x00\n        /* \"#utility.yul\":19067:19076   */\n      dup4\n        /* \"#utility.yul\":19063:19080   */\n      add\n        /* \"#utility.yul\":19056:19103   */\n      mstore\n        /* \"#utility.yul\":19120:19251   */\n      tag_474\n        /* \"#utility.yul\":19246:19250   */\n      dup2\n        /* \"#utility.yul\":19120:19251   */\n      tag_264\n      jump\t// in\n    tag_474:\n        /* \"#utility.yul\":19112:19251   */\n      swap1\n      pop\n        /* \"#utility.yul\":18839:19258   */\n      swap2\n      swap1\n      pop\n      jump\t// out\n        /* \"#utility.yul\":19264:19436   */\n    tag_265:\n        /* \"#utility.yul\":19404:19428   */\n      0x416464726573732063616e6e6f74206265207a65726f00000000000000000000\n        /* \"#utility.yul\":19400:19401   */\n      0x00\n        /* \"#utility.yul\":19392:19398   */\n      dup3\n        /* \"#utility.yul\":19388:19402   */\n      add\n        /* \"#utility.yul\":19381:19429   */\n      mstore\n        /* \"#utility.yul\":19264:19436   */\n      pop\n      jump\t// out\n        /* \"#utility.yul\":19442:19808   */\n    tag_266:\n        /* \"#utility.yul\":19584:19587   */\n      0x00\n        /* \"#utility.yul\":19605:19672   */\n      tag_477\n        /* \"#utility.yul\":19669:19671   */\n      0x16\n        /* \"#utility.yul\":19664:19667   */\n      dup4\n        /* \"#utility.yul\":19605:19672   */\n      tag_217\n      jump\t// in\n    tag_477:\n        /* \"#utility.yul\":19598:19672   */\n      swap2\n      pop\n        /* \"#utility.yul\":19681:19774   */\n      tag_478\n        /* \"#utility.yul\":19770:19773   */\n      dup3\n        /* \"#utility.yul\":19681:19774   */\n      tag_265\n      jump\t// in\n    tag_478:\n        /* \"#utility.yul\":19799:19801   */\n      0x20\n        /* \"#utility.yul\":19794:19797   */\n      dup3\n        /* \"#utility.yul\":19790:19802   */\n      add\n        /* \"#utility.yul\":19783:19802   */\n      swap1\n      pop\n        /* \"#utility.yul\":19442:19808   */\n      swap2\n      swap1\n      pop\n      jump\t// out\n        /* \"#utility.yul\":19814:20233   */\n    tag_141:\n        /* \"#utility.yul\":19980:19984   */\n      0x00\n        /* \"#utility.yul\":20018:20020   */\n      0x20\n        /* \"#utility.yul\":20007:20016   */\n      dup3\n        /* \"#utility.yul\":20003:20021   */\n      add\n        /* \"#utility.yul\":19995:20021   */\n      swap1\n      pop\n        /* \"#utility.yul\":20067:20076   */\n      dup2\n        /* \"#utility.yul\":20061:20065   */\n      dup2\n        /* \"#utility.yul\":20057:20077   */\n      sub\n        /* \"#utility.yul\":20053:20054   */\n      0x00\n        /* \"#utility.yul\":20042:20051   */\n      dup4\n        /* \"#utility.yul\":20038:20055   */\n      add\n        /* \"#utility.yul\":20031:20078   */\n      mstore\n        /* \"#utility.yul\":20095:20226   */\n      tag_480\n        /* \"#utility.yul\":20221:20225   */\n      dup2\n        /* \"#utility.yul\":20095:20226   */\n      tag_266\n      jump\t// in\n    tag_480:\n        /* \"#utility.yul\":20087:20226   */\n      swap1\n      pop\n        /* \"#utility.yul\":19814:20233   */\n      swap2\n      swap1\n      pop\n      jump\t// out\n        /* \"#utility.yul\":20239:20387   */\n    tag_267:\n        /* \"#utility.yul\":20341:20352   */\n      0x00\n        /* \"#utility.yul\":20378:20381   */\n      dup2\n        /* \"#utility.yul\":20363:20381   */\n      swap1\n      pop\n        /* \"#utility.yul\":20239:20387   */\n      swap3\n      swap2\n      pop\n      pop\n      jump\t// out\n        /* \"#utility.yul\":20393:20783   */\n    tag_268:\n        /* \"#utility.yul\":20499:20502   */\n      0x00\n        /* \"#utility.yul\":20527:20566   */\n      tag_483\n        /* \"#utility.yul\":20560:20565   */\n      dup3\n        /* \"#utility.yul\":20527:20566   */\n      tag_216\n      jump\t// in\n    tag_483:\n        /* \"#utility.yul\":20582:20671   */\n      tag_484\n        /* \"#utility.yul\":20664:20670   */\n      dup2\n        /* \"#utility.yul\":20659:20662   */\n      dup6\n        /* \"#utility.yul\":20582:20671   */\n      tag_267\n      jump\t// in\n    tag_484:\n        /* \"#utility.yul\":20575:20671   */\n      swap4\n      pop\n        /* \"#utility.yul\":20680:20745   */\n      tag_485\n        /* \"#utility.yul\":20738:20744   */\n      dup2\n        /* \"#utility.yul\":20733:20736   */\n      dup6\n        /* \"#utility.yul\":20726:20730   */\n      0x20\n        /* \"#utility.yul\":20719:20724   */\n      dup7\n        /* \"#utility.yul\":20715:20731   */\n      add\n        /* \"#utility.yul\":20680:20745   */\n      tag_218\n      jump\t// in\n    tag_485:\n        /* \"#utility.yul\":20770:20776   */\n      dup1\n        /* \"#utility.yul\":20765:20768   */\n      dup5\n        /* \"#utility.yul\":20761:20777   */\n      add\n        /* \"#utility.yul\":20754:20777   */\n      swap2\n      pop\n        /* \"#utility.yul\":20503:20783   */\n      pop\n        /* \"#utility.yul\":20393:20783   */\n      swap3\n      swap2\n      pop\n      pop\n      jump\t// out\n        /* \"#utility.yul\":20789:20868   */\n    tag_269:\n        /* \"#utility.yul\":20828:20835   */\n      0x00\n        /* \"#utility.yul\":20857:20862   */\n      dup2\n        /* \"#utility.yul\":20846:20862   */\n      swap1\n      pop\n        /* \"#utility.yul\":20789:20868   */\n      swap2\n      swap1\n      pop\n      jump\t// out\n        /* \"#utility.yul\":20874:21031   */\n    tag_270:\n        /* \"#utility.yul\":20979:21024   */\n      tag_488\n        /* \"#utility.yul\":20999:21023   */\n      tag_489\n        /* \"#utility.yul\":21017:21022   */\n      dup3\n        /* \"#utility.yul\":20999:21023   */\n      tag_224\n      jump\t// in\n    tag_489:\n        /* \"#utility.yul\":20979:21024   */\n      tag_269\n      jump\t// in\n    tag_488:\n        /* \"#utility.yul\":20974:20977   */\n      dup3\n        /* \"#utility.yul\":20967:21025   */\n      mstore\n        /* \"#utility.yul\":20874:21031   */\n      pop\n      pop\n      jump\t// out\n        /* \"#utility.yul\":21037:21453   */\n    tag_144:\n        /* \"#utility.yul\":21197:21200   */\n      0x00\n        /* \"#utility.yul\":21219:21314   */\n      tag_491\n        /* \"#utility.yul\":21310:21313   */\n      dup3\n        /* \"#utility.yul\":21301:21307   */\n      dup6\n        /* \"#utility.yul\":21219:21314   */\n      tag_268\n      jump\t// in\n    tag_491:\n        /* \"#utility.yul\":21212:21314   */\n      swap2\n      pop\n        /* \"#utility.yul\":21324:21399   */\n      tag_492\n        /* \"#utility.yul\":21395:21398   */\n      dup3\n        /* \"#utility.yul\":21386:21392   */\n      dup5\n        /* \"#utility.yul\":21324:21399   */\n      tag_270\n      jump\t// in\n    tag_492:\n        /* \"#utility.yul\":21424:21426   */\n      0x20\n        /* \"#utility.yul\":21419:21422   */\n      dup3\n        /* \"#utility.yul\":21415:21427   */\n      add\n        /* \"#utility.yul\":21408:21427   */\n      swap2\n      pop\n        /* \"#utility.yul\":21444:21447   */\n      dup2\n        /* \"#utility.yul\":21437:21447   */\n      swap1\n      pop\n        /* \"#utility.yul\":21037:21453   */\n      swap4\n      swap3\n      pop\n      pop\n      pop\n      jump\t// out\n        /* \"#utility.yul\":21459:21629   */\n    tag_271:\n        /* \"#utility.yul\":21599:21621   */\n      0x546f6b656e20616c726561647920657869737473000000000000000000000000\n        /* \"#utility.yul\":21595:21596   */\n      0x00\n        /* \"#utility.yul\":21587:21593   */\n      dup3\n        /* \"#utility.yul\":21583:21597   */\n      add\n        /* \"#utility.yul\":21576:21622   */\n      mstore\n        /* \"#utility.yul\":21459:21629   */\n      pop\n      jump\t// out\n        /* \"#utility.yul\":21635:22001   */\n    tag_272:\n        /* \"#utility.yul\":21777:21780   */\n      0x00\n        /* \"#utility.yul\":21798:21865   */\n      tag_495\n        /* \"#utility.yul\":21862:21864   */\n      0x14\n        /* \"#utility.yul\":21857:21860   */\n      dup4\n        /* \"#utility.yul\":21798:21865   */\n      tag_217\n      jump\t// in\n    tag_495:\n        /* \"#utility.yul\":21791:21865   */\n      swap2\n      pop\n        /* \"#utility.yul\":21874:21967   */\n      tag_496\n        /* \"#utility.yul\":21963:21966   */\n      dup3\n        /* \"#utility.yul\":21874:21967   */\n      tag_271\n      jump\t// in\n    tag_496:\n        /* \"#utility.yul\":21992:21994   */\n      0x20\n        /* \"#utility.yul\":21987:21990   */\n      dup3\n        /* \"#utility.yul\":21983:21995   */\n      add\n        /* \"#utility.yul\":21976:21995   */\n      swap1\n      pop\n        /* \"#utility.yul\":21635:22001   */\n      swap2\n      swap1\n      pop\n      jump\t// out\n        /* \"#utility.yul\":22007:22426   */\n    tag_163:\n        /* \"#utility.yul\":22173:22177   */\n      0x00\n        /* \"#utility.yul\":22211:22213   */\n      0x20\n        /* \"#utility.yul\":22200:22209   */\n      dup3\n        /* \"#utility.yul\":22196:22214   */\n      add\n        /* \"#utility.yul\":22188:22214   */\n      swap1\n      pop\n        /* \"#utility.yul\":22260:22269   */\n      dup2\n        /* \"#utility.yul\":22254:22258   */\n      dup2\n        /* \"#utility.yul\":22250:22270   */\n      sub\n        /* \"#utility.yul\":22246:22247   */\n      0x00\n        /* \"#utility.yul\":22235:22244   */\n      dup4\n        /* \"#utility.yul\":22231:22248   */\n      add\n        /* \"#utility.yul\":22224:22271   */\n      mstore\n        /* \"#utility.yul\":22288:22419   */\n      tag_498\n        /* \"#utility.yul\":22414:22418   */\n      dup2\n        /* \"#utility.yul\":22288:22419   */\n      tag_272\n      jump\t// in\n    tag_498:\n        /* \"#utility.yul\":22280:22419   */\n      swap1\n      pop\n        /* \"#utility.yul\":22007:22426   */\n      swap2\n      swap1\n      pop\n      jump\t// out\n        /* \"#utility.yul\":22432:22573   */\n    tag_273:\n        /* \"#utility.yul\":22481:22485   */\n      0x00\n        /* \"#utility.yul\":22504:22507   */\n      dup2\n        /* \"#utility.yul\":22496:22507   */\n      swap1\n      pop\n        /* \"#utility.yul\":22527:22530   */\n      dup2\n        /* \"#utility.yul\":22524:22525   */\n      0x00\n        /* \"#utility.yul\":22517:22531   */\n      mstore\n        /* \"#utility.yul\":22561:22565   */\n      0x20\n        /* \"#utility.yul\":22558:22559   */\n      0x00\n        /* \"#utility.yul\":22548:22566   */\n      keccak256\n        /* \"#utility.yul\":22540:22566   */\n      swap1\n      pop\n        /* \"#utility.yul\":22432:22573   */\n      swap2\n      swap1\n      pop\n      jump\t// out\n        /* \"#utility.yul\":22579:22672   */\n    tag_274:\n        /* \"#utility.yul\":22616:22622   */\n      0x00\n        /* \"#utility.yul\":22663:22665   */\n      0x20\n        /* \"#utility.yul\":22658:22660   */\n      0x1f\n        /* \"#utility.yul\":22651:22656   */\n      dup4\n        /* \"#utility.yul\":22647:22661   */\n      add\n        /* \"#utility.yul\":22643:22666   */\n      div\n        /* \"#utility.yul\":22633:22666   */\n      swap1\n      pop\n        /* \"#utility.yul\":22579:22672   */\n      swap2\n      swap1\n      pop\n      jump\t// out\n        /* \"#utility.yul\":22678:22785   */\n    tag_275:\n        /* \"#utility.yul\":22722:22730   */\n      0x00\n        /* \"#utility.yul\":22772:22777   */\n      dup3\n        /* \"#utility.yul\":22766:22770   */\n      dup3\n        /* \"#utility.yul\":22762:22778   */\n      shl\n        /* \"#utility.yul\":22741:22778   */\n      swap1\n      pop\n        /* \"#utility.yul\":22678:22785   */\n      swap3\n      swap2\n      pop\n      pop\n      jump\t// out\n        /* \"#utility.yul\":22791:23184   */\n    tag_276:\n        /* \"#utility.yul\":22860:22866   */\n      0x00\n        /* \"#utility.yul\":22910:22911   */\n      0x08\n        /* \"#utility.yul\":22898:22908   */\n      dup4\n        /* \"#utility.yul\":22894:22912   */\n      mul\n        /* \"#utility.yul\":22933:23030   */\n      tag_503\n        /* \"#utility.yul\":22963:23029   */\n      0xffffffffffffffffffffffffffffffffffffffffffffffffffffffffffffffff\n        /* \"#utility.yul\":22952:22961   */\n      dup3\n        /* \"#utility.yul\":22933:23030   */\n      tag_275\n      jump\t// in\n    tag_503:\n        /* \"#utility.yul\":23051:23090   */\n      tag_504\n        /* \"#utility.yul\":23081:23089   */\n      dup7\n        /* \"#utility.yul\":23070:23079   */\n      dup4\n        /* \"#utility.yul\":23051:23090   */\n      tag_275\n      jump\t// in\n    tag_504:\n        /* \"#utility.yul\":23039:23090   */\n      swap6\n      pop\n        /* \"#utility.yul\":23123:23127   */\n      dup1\n        /* \"#utility.yul\":23119:23128   */\n      not\n        /* \"#utility.yul\":23112:23117   */\n      dup5\n        /* \"#utility.yul\":23108:23129   */\n      and\n        /* \"#utility.yul\":23099:23129   */\n      swap4\n      pop\n        /* \"#utility.yul\":23172:23176   */\n      dup1\n        /* \"#utility.yul\":23162:23170   */\n      dup7\n        /* \"#utility.yul\":23158:23177   */\n      and\n        /* \"#utility.yul\":23151:23156   */\n      dup5\n        /* \"#utility.yul\":23148:23178   */\n      or\n        /* \"#utility.yul\":23138:23178   */\n      swap3\n      pop\n        /* \"#utility.yul\":22867:23184   */\n      pop\n      pop\n        /* \"#utility.yul\":22791:23184   */\n      swap4\n      swap3\n      pop\n      pop\n      pop\n      jump\t// out\n        /* \"#utility.yul\":23190:23250   */\n    tag_277:\n        /* \"#utility.yul\":23218:23221   */\n      0x00\n        /* \"#utility.yul\":23239:23244   */\n      dup2\n        /* \"#utility.yul\":23232:23244   */\n      swap1\n      pop\n        /* \"#utility.yul\":23190:23250   */\n      swap2\n      swap1\n      pop\n      jump\t// out\n        /* \"#utility.yul\":23256:23398   */\n    tag_278:\n        /* \"#utility.yul\":23306:23315   */\n      0x00\n        /* \"#utility.yul\":23339:23392   */\n      tag_507\n        /* \"#utility.yul\":23357:23391   */\n      tag_508\n        /* \"#utility.yul\":23366:23390   */\n      tag_509\n        /* \"#utility.yul\":23384:23389   */\n      dup5\n        /* \"#utility.yul\":23366:23390   */\n      tag_224\n      jump\t// in\n    tag_509:\n        /* \"#utility.yul\":23357:23391   */\n      tag_277\n      jump\t// in\n    tag_508:\n        /* \"#utility.yul\":23339:23392   */\n      tag_224\n      jump\t// in\n    tag_507:\n        /* \"#utility.yul\":23326:23392   */\n      swap1\n      pop\n        /* \"#utility.yul\":23256:23398   */\n      swap2\n      swap1\n      pop\n      jump\t// out\n        /* \"#utility.yul\":23404:23479   */\n    tag_279:\n        /* \"#utility.yul\":23447:23450   */\n      0x00\n        /* \"#utility.yul\":23468:23473   */\n      dup2\n        /* \"#utility.yul\":23461:23473   */\n      swap1\n      pop\n        /* \"#utility.yul\":23404:23479   */\n      swap2\n      swap1\n      pop\n      jump\t// out\n        /* \"#utility.yul\":23485:23754   */\n    tag_280:\n        /* \"#utility.yul\":23595:23634   */\n      tag_512\n        /* \"#utility.yul\":23626:23633   */\n      dup4\n        /* \"#utility.yul\":23595:23634   */\n      tag_278\n      jump\t// in\n    tag_512:\n        /* \"#utility.yul\":23656:23747   */\n      tag_513\n        /* \"#utility.yul\":23705:23746   */\n      tag_514\n        /* \"#utility.yul\":23729:23745   */\n      dup3\n        /* \"#utility.yul\":23705:23746   */\n      tag_279\n      jump\t// in\n    tag_514:\n        /* \"#utility.yul\":23697:23703   */\n      dup5\n        /* \"#utility.yul\":23690:23694   */\n      dup5\n        /* \"#utility.yul\":23684:23695   */\n      sload\n        /* \"#utility.yul\":23656:23747   */\n      tag_276\n      jump\t// in\n    tag_513:\n        /* \"#utility.yul\":23650:23654   */\n      dup3\n        /* \"#utility.yul\":23643:23748   */\n      sstore\n        /* \"#utility.yul\":23561:23754   */\n      pop\n        /* \"#utility.yul\":23485:23754   */\n      pop\n      pop\n      pop\n      jump\t// out\n        /* \"#utility.yul\":23760:23833   */\n    tag_281:\n        /* \"#utility.yul\":23805:23808   */\n      0x00\n        /* \"#utility.yul\":23826:23827   */\n      0x00\n        /* \"#utility.yul\":23819:23827   */\n      swap1\n      pop\n        /* \"#utility.yul\":23760:23833   */\n      swap1\n      jump\t// out\n        /* \"#utility.yul\":23839:24028   */\n    tag_282:\n        /* \"#utility.yul\":23916:23948   */\n      tag_517\n      tag_281\n      jump\t// in\n    tag_517:\n        /* \"#utility.yul\":23957:24022   */\n      tag_518\n        /* \"#utility.yul\":24015:24021   */\n      dup2\n        /* \"#utility.yul\":24007:24013   */\n      dup5\n        /* \"#utility.yul\":24001:24005   */\n      dup5\n        /* \"#utility.yul\":23957:24022   */\n      tag_280\n      jump\t// in\n    tag_518:\n        /* \"#utility.yul\":23892:24028   */\n      pop\n        /* \"#utility.yul\":23839:24028   */\n      pop\n      pop\n      jump\t// out\n        /* \"#utility.yul\":24034:24220   */\n    tag_283:\n        /* \"#utility.yul\":24094:24214   */\n    tag_520:\n        /* \"#utility.yul\":24111:24114   */\n      dup2\n        /* \"#utility.yul\":24104:24109   */\n      dup2\n        /* \"#utility.yul\":24101:24115   */\n      lt\n        /* \"#utility.yul\":24094:24214   */\n      iszero\n      tag_522\n      jumpi\n        /* \"#utility.yul\":24165:24204   */\n      tag_523\n        /* \"#utility.yul\":24202:24203   */\n      0x00\n        /* \"#utility.yul\":24195:24200   */\n      dup3\n        /* \"#utility.yul\":24165:24204   */\n      tag_282\n      jump\t// in\n    tag_523:\n        /* \"#utility.yul\":24138:24139   */\n      0x01\n        /* \"#utility.yul\":24131:24136   */\n      dup2\n        /* \"#utility.yul\":24127:24140   */\n      add\n        /* \"#utility.yul\":24118:24140   */\n      swap1\n      pop\n        /* \"#utility.yul\":24094:24214   */\n      jump(tag_520)\n    tag_522:\n        /* \"#utility.yul\":24034:24220   */\n      pop\n      pop\n      jump\t// out\n        /* \"#utility.yul\":24226:24769   */\n    tag_284:\n        /* \"#utility.yul\":24327:24329   */\n      0x1f\n        /* \"#utility.yul\":24322:24325   */\n      dup3\n        /* \"#utility.yul\":24319:24330   */\n      gt\n        /* \"#utility.yul\":24316:24762   */\n      iszero\n      tag_525\n      jumpi\n        /* \"#utility.yul\":24361:24399   */\n      tag_526\n        /* \"#utility.yul\":24393:24398   */\n      dup2\n        /* \"#utility.yul\":24361:24399   */\n      tag_273\n      jump\t// in\n    tag_526:\n        /* \"#utility.yul\":24445:24474   */\n      tag_527\n        /* \"#utility.yul\":24463:24473   */\n      dup5\n        /* \"#utility.yul\":24445:24474   */\n      tag_274\n      jump\t// in\n    tag_527:\n        /* \"#utility.yul\":24435:24443   */\n      dup2\n        /* \"#utility.yul\":24431:24475   */\n      add\n        /* \"#utility.yul\":24628:24630   */\n      0x20\n        /* \"#utility.yul\":24616:24626   */\n      dup6\n        /* \"#utility.yul\":24613:24631   */\n      lt\n        /* \"#utility.yul\":24610:24659   */\n      iszero\n      tag_528\n      jumpi\n        /* \"#utility.yul\":24649:24657   */\n      dup2\n        /* \"#utility.yul\":24634:24657   */\n      swap1\n      pop\n        /* \"#utility.yul\":24610:24659   */\n    tag_528:\n        /* \"#utility.yul\":24672:24752   */\n      tag_529\n        /* \"#utility.yul\":24728:24750   */\n      tag_530\n        /* \"#utility.yul\":24746:24749   */\n      dup6\n        /* \"#utility.yul\":24728:24750   */\n      tag_274\n      jump\t// in\n    tag_530:\n        /* \"#utility.yul\":24718:24726   */\n      dup4\n        /* \"#utility.yul\":24714:24751   */\n      add\n        /* \"#utility.yul\":24701:24712   */\n      dup3\n        /* \"#utility.yul\":24672:24752   */\n      tag_283\n      jump\t// in\n    tag_529:\n        /* \"#utility.yul\":24331:24762   */\n      pop\n      pop\n        /* \"#utility.yul\":24316:24762   */\n    tag_525:\n        /* \"#utility.yul\":24226:24769   */\n      pop\n      pop\n      pop\n      jump\t// out\n        /* \"#utility.yul\":24775:24892   */\n    tag_285:\n        /* \"#utility.yul\":24829:24837   */\n      0x00\n        /* \"#utility.yul\":24879:24884   */\n      dup3\n        /* \"#utility.yul\":24873:24877   */\n      dup3\n        /* \"#utility.yul\":24869:24885   */\n      shr\n        /* \"#utility.yul\":24848:24885   */\n      swap1\n      pop\n        /* \"#utility.yul\":24775:24892   */\n      swap3\n      swap2\n      pop\n      pop\n      jump\t// out\n        /* \"#utility.yul\":24898:25067   */\n    tag_286:\n        /* \"#utility.yul\":24942:24948   */\n      0x00\n        /* \"#utility.yul\":24975:25026   */\n      tag_533\n        /* \"#utility.yul\":25023:25024   */\n      0x00\n        /* \"#utility.yul\":25019:25025   */\n      not\n        /* \"#utility.yul\":25011:25016   */\n      dup5\n        /* \"#utility.yul\":25008:25009   */\n      0x08\n        /* \"#utility.yul\":25004:25017   */\n      mul\n        /* \"#utility.yul\":24975:25026   */\n      tag_285\n      jump\t// in\n    tag_533:\n        /* \"#utility.yul\":24971:25027   */\n      not\n        /* \"#utility.yul\":25056:25060   */\n      dup1\n        /* \"#utility.yul\":25050:25054   */\n      dup4\n        /* \"#utility.yul\":25046:25061   */\n      and\n        /* \"#utility.yul\":25036:25061   */\n      swap2\n      pop\n        /* \"#utility.yul\":24949:25067   */\n      pop\n        /* \"#utility.yul\":24898:25067   */\n      swap3\n      swap2\n      pop\n      pop\n      jump\t// out\n        /* \"#utility.yul\":25072:25367   */\n    tag_287:\n        /* \"#utility.yul\":25148:25152   */\n      0x00\n        /* \"#utility.yul\":25294:25323   */\n      tag_535\n        /* \"#utility.yul\":25319:25322   */\n      dup4\n        /* \"#utility.yul\":25313:25317   */\n      dup4\n        /* \"#utility.yul\":25294:25323   */\n      tag_286\n      jump\t// in\n    tag_535:\n        /* \"#utility.yul\":25286:25323   */\n      swap2\n      pop\n        /* \"#utility.yul\":25356:25359   */\n      dup3\n        /* \"#utility.yul\":25353:25354   */\n      0x02\n        /* \"#utility.yul\":25349:25360   */\n      mul\n        /* \"#utility.yul\":25343:25347   */\n      dup3\n        /* \"#utility.yul\":25340:25361   */\n      or\n        /* \"#utility.yul\":25332:25361   */\n      swap1\n      pop\n        /* \"#utility.yul\":25072:25367   */\n      swap3\n      swap2\n      pop\n      pop\n      jump\t// out\n        /* \"#utility.yul\":25372:26767   */\n    tag_167:\n        /* \"#utility.yul\":25489:25526   */\n      tag_537\n        /* \"#utility.yul\":25522:25525   */\n      dup3\n        /* \"#utility.yul\":25489:25526   */\n      tag_216\n      jump\t// in\n    tag_537:\n        /* \"#utility.yul\":25591:25609   */\n      0xffffffffffffffff\n        /* \"#utility.yul\":25583:25589   */\n      dup2\n        /* \"#utility.yul\":25580:25610   */\n      gt\n        /* \"#utility.yul\":25577:25633   */\n      iszero\n      tag_538\n      jumpi\n        /* \"#utility.yul\":25613:25631   */\n      tag_539\n      tag_239\n      jump\t// in\n    tag_539:\n        /* \"#utility.yul\":25577:25633   */\n    tag_538:\n        /* \"#utility.yul\":25657:25695   */\n      tag_540\n        /* \"#utility.yul\":25689:25693   */\n      dup3\n        /* \"#utility.yul\":25683:25694   */\n      sload\n        /* \"#utility.yul\":25657:25695   */\n      tag_86\n      jump\t// in\n    tag_540:\n        /* \"#utility.yul\":25742:25809   */\n      tag_541\n        /* \"#utility.yul\":25802:25808   */\n      dup3\n        /* \"#utility.yul\":25794:25800   */\n      dup3\n        /* \"#utility.yul\":25788:25792   */\n      dup6\n        /* \"#utility.yul\":25742:25809   */\n      tag_284\n      jump\t// in\n    tag_541:\n        /* \"#utility.yul\":25836:25837   */\n      0x00\n        /* \"#utility.yul\":25860:25864   */\n      0x20\n        /* \"#utility.yul\":25847:25864   */\n      swap1\n      pop\n        /* \"#utility.yul\":25892:25894   */\n      0x1f\n        /* \"#utility.yul\":25884:25890   */\n      dup4\n        /* \"#utility.yul\":25881:25895   */\n      gt\n        /* \"#utility.yul\":25909:25910   */\n      0x01\n        /* \"#utility.yul\":25904:26522   */\n      dup2\n      eq\n      tag_543\n      jumpi\n        /* \"#utility.yul\":26566:26567   */\n      0x00\n        /* \"#utility.yul\":26583:26589   */\n      dup5\n        /* \"#utility.yul\":26580:26657   */\n      iszero\n      tag_544\n      jumpi\n        /* \"#utility.yul\":26632:26641   */\n      dup3\n        /* \"#utility.yul\":26627:26630   */\n      dup8\n        /* \"#utility.yul\":26623:26642   */\n      add\n        /* \"#utility.yul\":26617:26643   */\n      mload\n        /* \"#utility.yul\":26608:26643   */\n      swap1\n      pop\n        /* \"#utility.yul\":26580:26657   */\n    tag_544:\n        /* \"#utility.yul\":26683:26750   */\n      tag_545\n        /* \"#utility.yul\":26743:26749   */\n      dup6\n        /* \"#utility.yul\":26736:26741   */\n      dup3\n        /* \"#utility.yul\":26683:26750   */\n      tag_287\n      jump\t// in\n    tag_545:\n        /* \"#utility.yul\":26677:26681   */\n      dup7\n        /* \"#utility.yul\":26670:26751   */\n      sstore\n        /* \"#utility.yul\":26539:26761   */\n      pop\n        /* \"#utility.yul\":25874:26761   */\n      jump(tag_542)\n        /* \"#utility.yul\":25904:26522   */\n    tag_543:\n        /* \"#utility.yul\":25956:25960   */\n      0x1f\n        /* \"#utility.yul\":25952:25961   */\n      not\n        /* \"#utility.yul\":25944:25950   */\n      dup5\n        /* \"#utility.yul\":25940:25962   */\n      and\n        /* \"#utility.yul\":25990:26027   */\n      tag_546\n        /* \"#utility.yul\":26022:26026   */\n      dup7\n        /* \"#utility.yul\":25990:26027   */\n      tag_273\n      jump\t// in\n    tag_546:\n        /* \"#utility.yul\":26049:26050   */\n      0x00\n        /* \"#utility.yul\":26063:26271   */\n    tag_547:\n        /* \"#utility.yul\":26077:26084   */\n      dup3\n        /* \"#utility.yul\":26074:26075   */\n      dup2\n        /* \"#utility.yul\":26071:26085   */\n      lt\n        /* \"#utility.yul\":26063:26271   */\n      iszero\n      tag_549\n      jumpi\n        /* \"#utility.yul\":26156:26165   */\n      dup5\n        /* \"#utility.yul\":26151:26154   */\n      dup10\n        /* \"#utility.yul\":26147:26166   */\n      add\n        /* \"#utility.yul\":26141:26167   */\n      mload\n        /* \"#utility.yul\":26133:26139   */\n      dup3\n        /* \"#utility.yul\":26126:26168   */\n      sstore\n        /* \"#utility.yul\":26207:26208   */\n      0x01\n        /* \"#utility.yul\":26199:26205   */\n      dup3\n        /* \"#utility.yul\":26195:26209   */\n      add\n        /* \"#utility.yul\":26185:26209   */\n      swap2\n      pop\n        /* \"#utility.yul\":26254:26256   */\n      0x20\n        /* \"#utility.yul\":26243:26252   */\n      dup6\n        /* \"#utility.yul\":26239:26257   */\n      add\n        /* \"#utility.yul\":26226:26257   */\n      swap5\n      pop\n        /* \"#utility.yul\":26100:26104   */\n      0x20\n        /* \"#utility.yul\":26097:26098   */\n      dup2\n        /* \"#utility.yul\":26093:26105   */\n      add\n        /* \"#utility.yul\":26088:26105   */\n      swap1\n      pop\n        /* \"#utility.yul\":26063:26271   */\n      jump(tag_547)\n    tag_549:\n        /* \"#utility.yul\":26299:26305   */\n      dup7\n        /* \"#utility.yul\":26290:26297   */\n      dup4\n        /* \"#utility.yul\":26287:26306   */\n      lt\n        /* \"#utility.yul\":26284:26463   */\n      iszero\n      tag_550\n      jumpi\n        /* \"#utility.yul\":26357:26366   */\n      dup5\n        /* \"#utility.yul\":26352:26355   */\n      dup10\n        /* \"#utility.yul\":26348:26367   */\n      add\n        /* \"#utility.yul\":26342:26368   */\n      mload\n        /* \"#utility.yul\":26400:26448   */\n      tag_551\n        /* \"#utility.yul\":26442:26446   */\n      0x1f\n        /* \"#utility.yul\":26434:26440   */\n      dup10\n        /* \"#utility.yul\":26430:26447   */\n      and\n        /* \"#utility.yul\":26419:26428   */\n      dup3\n        /* \"#utility.yul\":26400:26448   */\n      tag_286\n      jump\t// in\n    tag_551:\n        /* \"#utility.yul\":26392:26398   */\n      dup4\n        /* \"#utility.yul\":26385:26449   */\n      sstore\n        /* \"#utility.yul\":26307:26463   */\n      pop\n        /* \"#utility.yul\":26284:26463   */\n    tag_550:\n        /* \"#utility.yul\":26509:26510   */\n      0x01\n        /* \"#utility.yul\":26505:26506   */\n      0x02\n        /* \"#utility.yul\":26497:26503   */\n      dup9\n        /* \"#utility.yul\":26493:26507   */\n      mul\n        /* \"#utility.yul\":26489:26511   */\n      add\n        /* \"#utility.yul\":26483:26487   */\n      dup9\n        /* \"#utility.yul\":26476:26512   */\n      sstore\n        /* \"#utility.yul\":25911:26522   */\n      pop\n      pop\n      pop\n        /* \"#utility.yul\":25874:26761   */\n    tag_542:\n      pop\n        /* \"#utility.yul\":25464:26767   */\n      pop\n      pop\n      pop\n        /* \"#utility.yul\":25372:26767   */\n      pop\n      pop\n      jump\t// out\n        /* \"#utility.yul\":26773:26942   */\n    tag_288:\n        /* \"#utility.yul\":26913:26934   */\n      0x43616e6e6f7420617070726f76652073656c6600000000000000000000000000\n        /* \"#utility.yul\":26909:26910   */\n      0x00\n        /* \"#utility.yul\":26901:26907   */\n      dup3\n        /* \"#utility.yul\":26897:26911   */\n      add\n        /* \"#utility.yul\":26890:26935   */\n      mstore\n        /* \"#utility.yul\":26773:26942   */\n      pop\n      jump\t// out\n        /* \"#utility.yul\":26948:27314   */\n    tag_289:\n        /* \"#utility.yul\":27090:27093   */\n      0x00\n        /* \"#utility.yul\":27111:27178   */\n      tag_554\n        /* \"#utility.yul\":27175:27177   */\n      0x13\n        /* \"#utility.yul\":27170:27173   */\n      dup4\n        /* \"#utility.yul\":27111:27178   */\n      tag_217\n      jump\t// in\n    tag_554:\n        /* \"#utility.yul\":27104:27178   */\n      swap2\n      pop\n        /* \"#utility.yul\":27187:27280   */\n      tag_555\n        /* \"#utility.yul\":27276:27279   */\n      dup3\n        /* \"#utility.yul\":27187:27280   */\n      tag_288\n      jump\t// in\n    tag_555:\n        /* \"#utility.yul\":27305:27307   */\n      0x20\n        /* \"#utility.yul\":27300:27303   */\n      dup3\n        /* \"#utility.yul\":27296:27308   */\n      add\n        /* \"#utility.yul\":27289:27308   */\n      swap1\n      pop\n        /* \"#utility.yul\":26948:27314   */\n      swap2\n      swap1\n      pop\n      jump\t// out\n        /* \"#utility.yul\":27320:27739   */\n    tag_179:\n        /* \"#utility.yul\":27486:27490   */\n      0x00\n        /* \"#utility.yul\":27524:27526   */\n      0x20\n        /* \"#utility.yul\":27513:27522   */\n      dup3\n        /* \"#utility.yul\":27509:27527   */\n      add\n        /* \"#utility.yul\":27501:27527   */\n      swap1\n      pop\n        /* \"#utility.yul\":27573:27582   */\n      dup2\n        /* \"#utility.yul\":27567:27571   */\n      dup2\n        /* \"#utility.yul\":27563:27583   */\n      sub\n        /* \"#utility.yul\":27559:27560   */\n      0x00\n        /* \"#utility.yul\":27548:27557   */\n      dup4\n        /* \"#utility.yul\":27544:27561   */\n      add\n        /* \"#utility.yul\":27537:27584   */\n      mstore\n        /* \"#utility.yul\":27601:27732   */\n      tag_557\n        /* \"#utility.yul\":27727:27731   */\n      dup2\n        /* \"#utility.yul\":27601:27732   */\n      tag_289\n      jump\t// in\n    tag_557:\n        /* \"#utility.yul\":27593:27732   */\n      swap1\n      pop\n        /* \"#utility.yul\":27320:27739   */\n      swap2\n      swap1\n      pop\n      jump\t// out\n        /* \"#utility.yul\":27745:27910   */\n    tag_290:\n        /* \"#utility.yul\":27885:27902   */\n      0x496e636f7272656374206f776e65720000000000000000000000000000000000\n        /* \"#utility.yul\":27881:27882   */\n      0x00\n        /* \"#utility.yul\":27873:27879   */\n      dup3\n        /* \"#utility.yul\":27869:27883   */\n      add\n        /* \"#utility.yul\":27862:27903   */\n      mstore\n        /* \"#utility.yul\":27745:27910   */\n      pop\n      jump\t// out\n        /* \"#utility.yul\":27916:28282   */\n    tag_291:\n        /* \"#utility.yul\":28058:28061   */\n      0x00\n        /* \"#utility.yul\":28079:28146   */\n      tag_560\n        /* \"#utility.yul\":28143:28145   */\n      0x0f\n        /* \"#utility.yul\":28138:28141   */\n      dup4\n        /* \"#utility.yul\":28079:28146   */\n      tag_217\n      jump\t// in\n    tag_560:\n        /* \"#utility.yul\":28072:28146   */\n      swap2\n      pop\n        /* \"#utility.yul\":28155:28248   */\n      tag_561\n        /* \"#utility.yul\":28244:28247   */\n      dup3\n        /* \"#utility.yul\":28155:28248   */\n      tag_290\n      jump\t// in\n    tag_561:\n        /* \"#utility.yul\":28273:28275   */\n      0x20\n        /* \"#utility.yul\":28268:28271   */\n      dup3\n        /* \"#utility.yul\":28264:28276   */\n      add\n        /* \"#utility.yul\":28257:28276   */\n      swap1\n      pop\n        /* \"#utility.yul\":27916:28282   */\n      swap2\n      swap1\n      pop\n      jump\t// out\n        /* \"#utility.yul\":28288:28707   */\n    tag_201:\n        /* \"#utility.yul\":28454:28458   */\n      0x00\n        /* \"#utility.yul\":28492:28494   */\n      0x20\n        /* \"#utility.yul\":28481:28490   */\n      dup3\n        /* \"#utility.yul\":28477:28495   */\n      add\n        /* \"#utility.yul\":28469:28495   */\n      swap1\n      pop\n        /* \"#utility.yul\":28541:28550   */\n      dup2\n        /* \"#utility.yul\":28535:28539   */\n      dup2\n        /* \"#utility.yul\":28531:28551   */\n      sub\n        /* \"#utility.yul\":28527:28528   */\n      0x00\n        /* \"#utility.yul\":28516:28525   */\n      dup4\n        /* \"#utility.yul\":28512:28529   */\n      add\n        /* \"#utility.yul\":28505:28552   */\n      mstore\n        /* \"#utility.yul\":28569:28700   */\n      tag_563\n        /* \"#utility.yul\":28695:28699   */\n      dup2\n        /* \"#utility.yul\":28569:28700   */\n      tag_291\n      jump\t// in\n    tag_563:\n        /* \"#utility.yul\":28561:28700   */\n      swap1\n      pop\n        /* \"#utility.yul\":28288:28707   */\n      swap2\n      swap1\n      pop\n      jump\t// out\n        /* \"#utility.yul\":28713:28893   */\n    tag_292:\n        /* \"#utility.yul\":28761:28838   */\n      0x4e487b7100000000000000000000000000000000000000000000000000000000\n        /* \"#utility.yul\":28758:28759   */\n      0x00\n        /* \"#utility.yul\":28751:28839   */\n      mstore\n        /* \"#utility.yul\":28858:28862   */\n      0x11\n        /* \"#utility.yul\":28855:28856   */\n      0x04\n        /* \"#utility.yul\":28848:28863   */\n      mstore\n        /* \"#utility.yul\":28882:28886   */\n      0x24\n        /* \"#utility.yul\":28879:28880   */\n      0x00\n        /* \"#utility.yul\":28872:28887   */\n      revert\n        /* \"#utility.yul\":28899:29093   */\n    tag_206:\n        /* \"#utility.yul\":28939:28943   */\n      0x00\n        /* \"#utility.yul\":28959:28979   */\n      tag_566\n        /* \"#utility.yul\":28977:28978   */\n      dup3\n        /* \"#utility.yul\":28959:28979   */\n      tag_224\n      jump\t// in\n    tag_566:\n        /* \"#utility.yul\":28954:28979   */\n      swap2\n      pop\n        /* \"#utility.yul\":28993:29013   */\n      tag_567\n        /* \"#utility.yul\":29011:29012   */\n      dup4\n        /* \"#utility.yul\":28993:29013   */\n      tag_224\n      jump\t// in\n    tag_567:\n        /* \"#utility.yul\":28988:29013   */\n      swap3\n      pop\n        /* \"#utility.yul\":29037:29038   */\n      dup3\n        /* \"#utility.yul\":29034:29035   */\n      dup3\n        /* \"#utility.yul\":29030:29039   */\n      sub\n        /* \"#utility.yul\":29022:29039   */\n      swap1\n      pop\n        /* \"#utility.yul\":29061:29062   */\n      dup2\n        /* \"#utility.yul\":29055:29059   */\n      dup2\n        /* \"#utility.yul\":29052:29063   */\n      gt\n        /* \"#utility.yul\":29049:29086   */\n      iszero\n      tag_568\n      jumpi\n        /* \"#utility.yul\":29066:29084   */\n      tag_569\n      tag_292\n      jump\t// in\n    tag_569:\n        /* \"#utility.yul\":29049:29086   */\n    tag_568:\n        /* \"#utility.yul\":28899:29093   */\n      swap3\n      swap2\n      pop\n      pop\n      jump\t// out\n        /* \"#utility.yul\":29099:29290   */\n    tag_208:\n        /* \"#utility.yul\":29139:29142   */\n      0x00\n        /* \"#utility.yul\":29158:29178   */\n      tag_571\n        /* \"#utility.yul\":29176:29177   */\n      dup3\n        /* \"#utility.yul\":29158:29178   */\n      tag_224\n      jump\t// in\n    tag_571:\n        /* \"#utility.yul\":29153:29178   */\n      swap2\n      pop\n        /* \"#utility.yul\":29192:29212   */\n      tag_572\n        /* \"#utility.yul\":29210:29211   */\n      dup4\n        /* \"#utility.yul\":29192:29212   */\n      tag_224\n      jump\t// in\n    tag_572:\n        /* \"#utility.yul\":29187:29212   */\n      swap3\n      pop\n        /* \"#utility.yul\":29235:29236   */\n      dup3\n        /* \"#utility.yul\":29232:29233   */\n      dup3\n        /* \"#utility.yul\":29228:29237   */\n      add\n        /* \"#utility.yul\":29221:29237   */\n      swap1\n      pop\n        /* \"#utility.yul\":29256:29259   */\n      dup1\n        /* \"#utility.yul\":29253:29254   */\n      dup3\n        /* \"#utility.yul\":29250:29260   */\n      gt\n        /* \"#utility.yul\":29247:29283   */\n      iszero\n      tag_573\n      jumpi\n        /* \"#utility.yul\":29263:29281   */\n      tag_574\n      tag_292\n      jump\t// in\n    tag_574:\n        /* \"#utility.yul\":29247:29283   */\n    tag_573:\n        /* \"#utility.yul\":29099:29290   */\n      swap3\n      swap2\n      pop\n      pop\n      jump\t// out\n\n    auxdata: 0xa2646970667358221220ff0af9caaad47297e03efb929cc310ff7edc9495ccd1332cbb798cc7c4f5e09964736f6c634300081b0033\n}\n",
				"bytecode": {
					"linkReferences": {},
					"object": "608060405234801561000f575f5ffd5b50604051612813380380612813833981810160405281019061003191906101a5565b8160059081610040919061042b565b508060069081610050919061042b565b5050506104fa565b5f604051905090565b5f5ffd5b5f5ffd5b5f5ffd5b5f5ffd5b5f601f19601f8301169050919050565b7f4e487b71000000000000000000000000000000000000000000000000000000005f52604160045260245ffd5b6100b782610071565b810181811067ffffffffffffffff821117156100d6576100d5610081565b5b80604052505050565b5f6100e8610058565b90506100f482826100ae565b919050565b5f67ffffffffffffffff82111561011357610112610081565b5b61011c82610071565b9050602081019050919050565b8281835e5f83830152505050565b5f610149610144846100f9565b6100df565b9050828152602081018484840111156101655761016461006d565b5b610170848285610129565b509392505050565b5f82601f83011261018c5761018b610069565b5b815161019c848260208601610137565b91505092915050565b5f5f604083850312156101bb576101ba610061565b5b5f83015167ffffffffffffffff8111156101d8576101d7610065565b5b6101e485828601610178565b925050602083015167ffffffffffffffff81111561020557610204610065565b5b61021185828601610178565b9150509250929050565b5f81519050919050565b7f4e487b71000000000000000000000000000000000000000000000000000000005f52602260045260245ffd5b5f600282049050600182168061026957607f821691505b60208210810361027c5761027b610225565b5b50919050565b5f819050815f5260205f209050919050565b5f6020601f8301049050919050565b5f82821b905092915050565b5f600883026102de7fffffffffffffffffffffffffffffffffffffffffffffffffffffffffffffffff826102a3565b6102e886836102a3565b95508019841693508086168417925050509392505050565b5f819050919050565b5f819050919050565b5f61032c61032761032284610300565b610309565b610300565b9050919050565b5f819050919050565b61034583610312565b61035961035182610333565b8484546102af565b825550505050565b5f5f905090565b610370610361565b61037b81848461033c565b505050565b5b8181101561039e576103935f82610368565b600181019050610381565b5050565b601f8211156103e3576103b481610282565b6103bd84610294565b810160208510156103cc578190505b6103e06103d885610294565b830182610380565b50505b505050565b5f82821c905092915050565b5f6104035f19846008026103e8565b1980831691505092915050565b5f61041b83836103f4565b9150826002028217905092915050565b6104348261021b565b67ffffffffffffffff81111561044d5761044c610081565b5b6104578254610252565b6104628282856103a2565b5f60209050601f831160018114610493575f8415610481578287015190505b61048b8582610410565b8655506104f2565b601f1984166104a186610282565b5f5b828110156104c8578489015182556001820191506020850194506020810190506104a3565b868310156104e557848901516104e1601f8916826103f4565b8355505b6001600288020188555050505b505050505050565b61230c806105075f395ff3fe608060405234801561000f575f5ffd5b50600436106100e8575f3560e01c806376e567941161008a57806395d89b411161006457806395d89b4114610280578063a22cb4651461029e578063bdbed722146102ba578063e985e9c5146102d8576100e8565b806376e567941461020257806381db41471461023257806385a59b2114610264576100e8565b8063126dbe43116100c6578063126dbe431461015657806342842e0e146101865780636352211e146101a257806370a08231146101d2576100e8565b806306fdde03146100ec578063081812fc1461010a578063095ea7b31461013a575b5f5ffd5b6100f4610308565b6040516101019190611506565b60405180910390f35b610124600480360381019061011f919061156a565b610398565b60405161013191906115d4565b60405180910390f35b610154600480360381019061014f9190611617565b610419565b005b610170600480360381019061016b919061156a565b610521565b60405161017d9190611700565b60405180910390f35b6101a0600480360381019061019b9190611720565b6106bc565b005b6101bc60048036038101906101b7919061156a565b610783565b6040516101c991906115d4565b60405180910390f35b6101ec60048036038101906101e79190611770565b61082f565b6040516101f991906117aa565b60405180910390f35b61021c600480360381019061021791906118ef565b6108e3565b60405161022991906117aa565b60405180910390f35b61024c6004803603810190610247919061156a565b610963565b60405161025b93929190611936565b60405180910390f35b61027e60048036038101906102799190611979565b610a94565b005b610288610ba4565b6040516102959190611506565b60405180910390f35b6102b860048036038101906102b39190611a4a565b610c34565b005b6102c2610d9a565b6040516102cf9190611b30565b60405180910390f35b6102f260048036038101906102ed9190611b50565b610df0565b6040516102ff9190611b9d565b60405180910390f35b60606005805461031790611be3565b80601f016020809104026020016040519081016040528092919081815260200182805461034390611be3565b801561038e5780601f106103655761010080835404028352916020019161038e565b820191905f5260205f20905b81548152906001019060200180831161037157829003601f168201915b5050505050905090565b5f6103a282610e7e565b6103e1576040517f08c379a00000000000000000000000000000000000000000000000000000000081526004016103d890611c5d565b60405180910390fd5b60035f8381526020019081526020015f205f9054906101000a900473ffffffffffffffffffffffffffffffffffffffff169050919050565b5f61042382610783565b90508073ffffffffffffffffffffffffffffffffffffffff168373ffffffffffffffffffffffffffffffffffffffff1603610493576040517f08c379a000000000000000000000000000000000000000000000000000000000815260040161048a90611cc5565b60405180910390fd5b8073ffffffffffffffffffffffffffffffffffffffff163373ffffffffffffffffffffffffffffffffffffffff1614806104d357506104d28133610df0565b5b610512576040517f08c379a000000000000000000000000000000000000000000000000000000000815260040161050990611d2d565b60405180910390fd5b61051c8383610ee6565b505050565b610529611476565b61053282610e7e565b610571576040517f08c379a000000000000000000000000000000000000000000000000000000000815260040161056890611c5d565b60405180910390fd5b5f5f8381526020019081526020015f206040518060600160405290815f8201805461059b90611be3565b80601f01602080910402602001604051908101604052809291908181526020018280546105c790611be3565b80156106125780601f106105e957610100808354040283529160200191610612565b820191905f5260205f20905b8154815290600101906020018083116105f557829003601f168201915b5050505050815260200160018201805461062b90611be3565b80601f016020809104026020016040519081016040528092919081815260200182805461065790611be3565b80156106a25780601f10610679576101008083540402835291602001916106a2565b820191905f5260205f20905b81548152906001019060200180831161068557829003601f168201915b505050505081526020016002820154815250509050919050565b6106c63382610f9c565b610705576040517f08c379a00000000000000000000000000000000000000000000000000000000081526004016106fc90611d2d565b60405180910390fd5b5f73ffffffffffffffffffffffffffffffffffffffff168273ffffffffffffffffffffffffffffffffffffffff1603610773576040517f08c379a000000000000000000000000000000000000000000000000000000000815260040161076a90611d95565b60405180910390fd5b61077e838383611078565b505050565b5f5f60015f8481526020019081526020015f205f9054906101000a900473ffffffffffffffffffffffffffffffffffffffff1690505f73ffffffffffffffffffffffffffffffffffffffff168173ffffffffffffffffffffffffffffffffffffffff1603610826576040517f08c379a000000000000000000000000000000000000000000000000000000000815260040161081d90611c5d565b60405180910390fd5b80915050919050565b5f5f73ffffffffffffffffffffffffffffffffffffffff168273ffffffffffffffffffffffffffffffffffffffff160361089e576040517f08c379a000000000000000000000000000000000000000000000000000000000815260040161089590611dfd565b60405180910390fd5b60025f8373ffffffffffffffffffffffffffffffffffffffff1673ffffffffffffffffffffffffffffffffffffffff1681526020019081526020015f20549050919050565b5f5f82426040516020016108f8929190611e75565b604051602081830303815290604052805190602001205f1c905061091b81610e7e565b61095a576040517f08c379a000000000000000000000000000000000000000000000000000000000815260040161095190611c5d565b60405180910390fd5b80915050919050565b5f602052805f5260405f205f91509050805f01805461098190611be3565b80601f01602080910402602001604051908101604052809291908181526020018280546109ad90611be3565b80156109f85780601f106109cf576101008083540402835291602001916109f8565b820191905f5260205f20905b8154815290600101906020018083116109db57829003601f168201915b505050505090806001018054610a0d90611be3565b80601f0160208091040260200160405190810160405280929190818152602001828054610a3990611be3565b8015610a845780601f10610a5b57610100808354040283529160200191610a84565b820191905f5260205f20905b815481529060010190602001808311610a6757829003601f168201915b5050505050908060020154905083565b5f8342604051602001610aa8929190611e75565b604051602081830303815290604052805190602001205f1c9050610acb81610e7e565b15610b0b576040517f08c379a0000000000000000000000000000000000000000000000000000000008152600401610b0290611ee6565b60405180910390fd5b610b1585826112bd565b6040518060600160405280858152602001848152602001838152505f5f8381526020019081526020015f205f820151815f019081610b5391906120a4565b506020820151816001019081610b6991906120a4565b5060408201518160020155905050600781908060018154018082558091505060019003905f5260205f20015f90919091909150555050505050565b606060068054610bb390611be3565b80601f0160208091040260200160405190810160405280929190818152602001828054610bdf90611be3565b8015610c2a5780601f10610c0157610100808354040283529160200191610c2a565b820191905f5260205f20905b815481529060010190602001808311610c0d57829003601f168201915b5050505050905090565b3373ffffffffffffffffffffffffffffffffffffffff168273ffffffffffffffffffffffffffffffffffffffff1603610ca2576040517f08c379a0000000000000000000000000000000000000000000000000000000008152600401610c99906121bd565b60405180910390fd5b8060045f3373ffffffffffffffffffffffffffffffffffffffff1673ffffffffffffffffffffffffffffffffffffffff1681526020019081526020015f205f8473ffffffffffffffffffffffffffffffffffffffff1673ffffffffffffffffffffffffffffffffffffffff1681526020019081526020015f205f6101000a81548160ff0219169083151502179055508173ffffffffffffffffffffffffffffffffffffffff163373ffffffffffffffffffffffffffffffffffffffff167f17307eab39ab6107e8899845ad3d59bd9653f200f220920489ca2b5937696c3183604051610d8e9190611b9d565b60405180910390a35050565b60606007805480602002602001604051908101604052809291908181526020018280548015610de657602002820191905f5260205f20905b815481526020019060010190808311610dd2575b5050505050905090565b5f60045f8473ffffffffffffffffffffffffffffffffffffffff1673ffffffffffffffffffffffffffffffffffffffff1681526020019081526020015f205f8373ffffffffffffffffffffffffffffffffffffffff1673ffffffffffffffffffffffffffffffffffffffff1681526020019081526020015f205f9054906101000a900460ff16905092915050565b5f5f73ffffffffffffffffffffffffffffffffffffffff1660015f8481526020019081526020015f205f9054906101000a900473ffffffffffffffffffffffffffffffffffffffff1673ffffffffffffffffffffffffffffffffffffffff1614159050919050565b8160035f8381526020019081526020015f205f6101000a81548173ffffffffffffffffffffffffffffffffffffffff021916908373ffffffffffffffffffffffffffffffffffffffff160217905550808273ffffffffffffffffffffffffffffffffffffffff16610f5683610783565b73ffffffffffffffffffffffffffffffffffffffff167f8c5be1e5ebec7d5bd14f71427d1e84f3dd0314c0f7b2291e5b200ac8c7c3b92560405160405180910390a45050565b5f610fa682610e7e565b610fe5576040517f08c379a0000000000000000000000000000000000000000000000000000000008152600401610fdc90611c5d565b60405180910390fd5b5f610fef83610783565b90508073ffffffffffffffffffffffffffffffffffffffff168473ffffffffffffffffffffffffffffffffffffffff16148061105e57508373ffffffffffffffffffffffffffffffffffffffff1661104684610398565b73ffffffffffffffffffffffffffffffffffffffff16145b8061106f575061106e8185610df0565b5b91505092915050565b8273ffffffffffffffffffffffffffffffffffffffff1661109882610783565b73ffffffffffffffffffffffffffffffffffffffff16146110ee576040517f08c379a00000000000000000000000000000000000000000000000000000000081526004016110e590612225565b60405180910390fd5b5f73ffffffffffffffffffffffffffffffffffffffff168273ffffffffffffffffffffffffffffffffffffffff160361115c576040517f08c379a000000000000000000000000000000000000000000000000000000000815260040161115390611d95565b60405180910390fd5b6111665f82610ee6565b600160025f8573ffffffffffffffffffffffffffffffffffffffff1673ffffffffffffffffffffffffffffffffffffffff1681526020019081526020015f205f8282546111b39190612270565b92505081905550600160025f8473ffffffffffffffffffffffffffffffffffffffff1673ffffffffffffffffffffffffffffffffffffffff1681526020019081526020015f205f82825461120791906122a3565b925050819055508160015f8381526020019081526020015f205f6101000a81548173ffffffffffffffffffffffffffffffffffffffff021916908373ffffffffffffffffffffffffffffffffffffffff160217905550808273ffffffffffffffffffffffffffffffffffffffff168473ffffffffffffffffffffffffffffffffffffffff167fddf252ad1be2c89b69c2b068fc378daa952ba7f163c4a11628f55a4df523b3ef60405160405180910390a4505050565b5f73ffffffffffffffffffffffffffffffffffffffff168273ffffffffffffffffffffffffffffffffffffffff160361132b576040517f08c379a000000000000000000000000000000000000000000000000000000000815260040161132290611dfd565b60405180910390fd5b61133481610e7e565b15611374576040517f08c379a000000000000000000000000000000000000000000000000000000000815260040161136b90611ee6565b60405180910390fd5b600160025f8473ffffffffffffffffffffffffffffffffffffffff1673ffffffffffffffffffffffffffffffffffffffff1681526020019081526020015f205f8282546113c191906122a3565b925050819055508160015f8381526020019081526020015f205f6101000a81548173ffffffffffffffffffffffffffffffffffffffff021916908373ffffffffffffffffffffffffffffffffffffffff160217905550808273ffffffffffffffffffffffffffffffffffffffff165f73ffffffffffffffffffffffffffffffffffffffff167fddf252ad1be2c89b69c2b068fc378daa952ba7f163c4a11628f55a4df523b3ef60405160405180910390a45050565b604051806060016040528060608152602001606081526020015f81525090565b5f81519050919050565b5f82825260208201905092915050565b8281835e5f83830152505050565b5f601f19601f8301169050919050565b5f6114d882611496565b6114e281856114a0565b93506114f28185602086016114b0565b6114fb816114be565b840191505092915050565b5f6020820190508181035f83015261151e81846114ce565b905092915050565b5f604051905090565b5f5ffd5b5f5ffd5b5f819050919050565b61154981611537565b8114611553575f5ffd5b50565b5f8135905061156481611540565b92915050565b5f6020828403121561157f5761157e61152f565b5b5f61158c84828501611556565b91505092915050565b5f73ffffffffffffffffffffffffffffffffffffffff82169050919050565b5f6115be82611595565b9050919050565b6115ce816115b4565b82525050565b5f6020820190506115e75f8301846115c5565b92915050565b6115f6816115b4565b8114611600575f5ffd5b50565b5f81359050611611816115ed565b92915050565b5f5f6040838503121561162d5761162c61152f565b5b5f61163a85828601611603565b925050602061164b85828601611556565b9150509250929050565b5f82825260208201905092915050565b5f61166f82611496565b6116798185611655565b93506116898185602086016114b0565b611692816114be565b840191505092915050565b6116a681611537565b82525050565b5f606083015f8301518482035f8601526116c68282611665565b915050602083015184820360208601526116e08282611665565b91505060408301516116f5604086018261169d565b508091505092915050565b5f6020820190508181035f83015261171881846116ac565b905092915050565b5f5f5f606084860312156117375761173661152f565b5b5f61174486828701611603565b935050602061175586828701611603565b925050604061176686828701611556565b9150509250925092565b5f602082840312156117855761178461152f565b5b5f61179284828501611603565b91505092915050565b6117a481611537565b82525050565b5f6020820190506117bd5f83018461179b565b92915050565b5f5ffd5b5f5ffd5b7f4e487b71000000000000000000000000000000000000000000000000000000005f52604160045260245ffd5b611801826114be565b810181811067ffffffffffffffff821117156118205761181f6117cb565b5b80604052505050565b5f611832611526565b905061183e82826117f8565b919050565b5f67ffffffffffffffff82111561185d5761185c6117cb565b5b611866826114be565b9050602081019050919050565b828183375f83830152505050565b5f61189361188e84611843565b611829565b9050828152602081018484840111156118af576118ae6117c7565b5b6118ba848285611873565b509392505050565b5f82601f8301126118d6576118d56117c3565b5b81356118e6848260208601611881565b91505092915050565b5f602082840312156119045761190361152f565b5b5f82013567ffffffffffffffff81111561192157611920611533565b5b61192d848285016118c2565b91505092915050565b5f6060820190508181035f83015261194e81866114ce565b9050818103602083015261196281856114ce565b9050611971604083018461179b565b949350505050565b5f5f5f5f608085870312156119915761199061152f565b5b5f61199e87828801611603565b945050602085013567ffffffffffffffff8111156119bf576119be611533565b5b6119cb878288016118c2565b935050604085013567ffffffffffffffff8111156119ec576119eb611533565b5b6119f8878288016118c2565b9250506060611a0987828801611556565b91505092959194509250565b5f8115159050919050565b611a2981611a15565b8114611a33575f5ffd5b50565b5f81359050611a4481611a20565b92915050565b5f5f60408385031215611a6057611a5f61152f565b5b5f611a6d85828601611603565b9250506020611a7e85828601611a36565b9150509250929050565b5f81519050919050565b5f82825260208201905092915050565b5f819050602082019050919050565b5f611abc838361169d565b60208301905092915050565b5f602082019050919050565b5f611ade82611a88565b611ae88185611a92565b9350611af383611aa2565b805f5b83811015611b23578151611b0a8882611ab1565b9750611b1583611ac8565b925050600181019050611af6565b5085935050505092915050565b5f6020820190508181035f830152611b488184611ad4565b905092915050565b5f5f60408385031215611b6657611b6561152f565b5b5f611b7385828601611603565b9250506020611b8485828601611603565b9150509250929050565b611b9781611a15565b82525050565b5f602082019050611bb05f830184611b8e565b92915050565b7f4e487b71000000000000000000000000000000000000000000000000000000005f52602260045260245ffd5b5f6002820490506001821680611bfa57607f821691505b602082108103611c0d57611c0c611bb6565b5b50919050565b7f546f6b656e20646f6573206e6f742065786973740000000000000000000000005f82015250565b5f611c476014836114a0565b9150611c5282611c13565b602082019050919050565b5f6020820190508181035f830152611c7481611c3b565b9050919050565b7f43616e6e6f7420617070726f766520746f206f776e65720000000000000000005f82015250565b5f611caf6017836114a0565b9150611cba82611c7b565b602082019050919050565b5f6020820190508181035f830152611cdc81611ca3565b9050919050565b7f4e6f7420617070726f766564206f72206f776e657200000000000000000000005f82015250565b5f611d176015836114a0565b9150611d2282611ce3565b602082019050919050565b5f6020820190508181035f830152611d4481611d0b565b9050919050565b7f496e76616c696420726563697069656e740000000000000000000000000000005f82015250565b5f611d7f6011836114a0565b9150611d8a82611d4b565b602082019050919050565b5f6020820190508181035f830152611dac81611d73565b9050919050565b7f416464726573732063616e6e6f74206265207a65726f000000000000000000005f82015250565b5f611de76016836114a0565b9150611df282611db3565b602082019050919050565b5f6020820190508181035f830152611e1481611ddb565b9050919050565b5f81905092915050565b5f611e2f82611496565b611e398185611e1b565b9350611e498185602086016114b0565b80840191505092915050565b5f819050919050565b611e6f611e6a82611537565b611e55565b82525050565b5f611e808285611e25565b9150611e8c8284611e5e565b6020820191508190509392505050565b7f546f6b656e20616c7265616479206578697374730000000000000000000000005f82015250565b5f611ed06014836114a0565b9150611edb82611e9c565b602082019050919050565b5f6020820190508181035f830152611efd81611ec4565b9050919050565b5f819050815f5260205f209050919050565b5f6020601f8301049050919050565b5f82821b905092915050565b5f60088302611f607fffffffffffffffffffffffffffffffffffffffffffffffffffffffffffffffff82611f25565b611f6a8683611f25565b95508019841693508086168417925050509392505050565b5f819050919050565b5f611fa5611fa0611f9b84611537565b611f82565b611537565b9050919050565b5f819050919050565b611fbe83611f8b565b611fd2611fca82611fac565b848454611f31565b825550505050565b5f5f905090565b611fe9611fda565b611ff4818484611fb5565b505050565b5b818110156120175761200c5f82611fe1565b600181019050611ffa565b5050565b601f82111561205c5761202d81611f04565b61203684611f16565b81016020851015612045578190505b61205961205185611f16565b830182611ff9565b50505b505050565b5f82821c905092915050565b5f61207c5f1984600802612061565b1980831691505092915050565b5f612094838361206d565b9150826002028217905092915050565b6120ad82611496565b67ffffffffffffffff8111156120c6576120c56117cb565b5b6120d08254611be3565b6120db82828561201b565b5f60209050601f83116001811461210c575f84156120fa578287015190505b6121048582612089565b86555061216b565b601f19841661211a86611f04565b5f5b828110156121415784890151825560018201915060208501945060208101905061211c565b8683101561215e578489015161215a601f89168261206d565b8355505b6001600288020188555050505b505050505050565b7f43616e6e6f7420617070726f76652073656c66000000000000000000000000005f82015250565b5f6121a76013836114a0565b91506121b282612173565b602082019050919050565b5f6020820190508181035f8301526121d48161219b565b9050919050565b7f496e636f7272656374206f776e657200000000000000000000000000000000005f82015250565b5f61220f600f836114a0565b915061221a826121db565b602082019050919050565b5f6020820190508181035f83015261223c81612203565b9050919050565b7f4e487b71000000000000000000000000000000000000000000000000000000005f52601160045260245ffd5b5f61227a82611537565b915061228583611537565b925082820390508181111561229d5761229c612243565b5b92915050565b5f6122ad82611537565b91506122b883611537565b92508282019050808211156122d0576122cf612243565b5b9291505056fea2646970667358221220ff0af9caaad47297e03efb929cc310ff7edc9495ccd1332cbb798cc7c4f5e09964736f6c634300081b0033",
					"opcodes": "PUSH1 0x80 PUSH1 0x40 MSTORE CALLVALUE DUP1 ISZERO PUSH2 0xF JUMPI PUSH0 PUSH0 REVERT JUMPDEST POP PUSH1 0x40 MLOAD PUSH2 0x2813 CODESIZE SUB DUP1 PUSH2 0x2813 DUP4 CODECOPY DUP2 DUP2 ADD PUSH1 0x40 MSTORE DUP2 ADD SWAP1 PUSH2 0x31 SWAP2 SWAP1 PUSH2 0x1A5 JUMP JUMPDEST DUP2 PUSH1 0x5 SWAP1 DUP2 PUSH2 0x40 SWAP2 SWAP1 PUSH2 0x42B JUMP JUMPDEST POP DUP1 PUSH1 0x6 SWAP1 DUP2 PUSH2 0x50 SWAP2 SWAP1 PUSH2 0x42B JUMP JUMPDEST POP POP POP PUSH2 0x4FA JUMP JUMPDEST PUSH0 PUSH1 0x40 MLOAD SWAP1 POP SWAP1 JUMP JUMPDEST PUSH0 PUSH0 REVERT JUMPDEST PUSH0 PUSH0 REVERT JUMPDEST PUSH0 PUSH0 REVERT JUMPDEST PUSH0 PUSH0 REVERT JUMPDEST PUSH0 PUSH1 0x1F NOT PUSH1 0x1F DUP4 ADD AND SWAP1 POP SWAP2 SWAP1 POP JUMP JUMPDEST PUSH32 0x4E487B7100000000000000000000000000000000000000000000000000000000 PUSH0 MSTORE PUSH1 0x41 PUSH1 0x4 MSTORE PUSH1 0x24 PUSH0 REVERT JUMPDEST PUSH2 0xB7 DUP3 PUSH2 0x71 JUMP JUMPDEST DUP2 ADD DUP2 DUP2 LT PUSH8 0xFFFFFFFFFFFFFFFF DUP3 GT OR ISZERO PUSH2 0xD6 JUMPI PUSH2 0xD5 PUSH2 0x81 JUMP JUMPDEST JUMPDEST DUP1 PUSH1 0x40 MSTORE POP POP POP JUMP JUMPDEST PUSH0 PUSH2 0xE8 PUSH2 0x58 JUMP JUMPDEST SWAP1 POP PUSH2 0xF4 DUP3 DUP3 PUSH2 0xAE JUMP JUMPDEST SWAP2 SWAP1 POP JUMP JUMPDEST PUSH0 PUSH8 0xFFFFFFFFFFFFFFFF DUP3 GT ISZERO PUSH2 0x113 JUMPI PUSH2 0x112 PUSH2 0x81 JUMP JUMPDEST JUMPDEST PUSH2 0x11C DUP3 PUSH2 0x71 JUMP JUMPDEST SWAP1 POP PUSH1 0x20 DUP2 ADD SWAP1 POP SWAP2 SWAP1 POP JUMP JUMPDEST DUP3 DUP2 DUP4 MCOPY PUSH0 DUP4 DUP4 ADD MSTORE POP POP POP JUMP JUMPDEST PUSH0 PUSH2 0x149 PUSH2 0x144 DUP5 PUSH2 0xF9 JUMP JUMPDEST PUSH2 0xDF JUMP JUMPDEST SWAP1 POP DUP3 DUP2 MSTORE PUSH1 0x20 DUP2 ADD DUP5 DUP5 DUP5 ADD GT ISZERO PUSH2 0x165 JUMPI PUSH2 0x164 PUSH2 0x6D JUMP JUMPDEST JUMPDEST PUSH2 0x170 DUP5 DUP3 DUP6 PUSH2 0x129 JUMP JUMPDEST POP SWAP4 SWAP3 POP POP POP JUMP JUMPDEST PUSH0 DUP3 PUSH1 0x1F DUP4 ADD SLT PUSH2 0x18C JUMPI PUSH2 0x18B PUSH2 0x69 JUMP JUMPDEST JUMPDEST DUP2 MLOAD PUSH2 0x19C DUP5 DUP3 PUSH1 0x20 DUP7 ADD PUSH2 0x137 JUMP JUMPDEST SWAP2 POP POP SWAP3 SWAP2 POP POP JUMP JUMPDEST PUSH0 PUSH0 PUSH1 0x40 DUP4 DUP6 SUB SLT ISZERO PUSH2 0x1BB JUMPI PUSH2 0x1BA PUSH2 0x61 JUMP JUMPDEST JUMPDEST PUSH0 DUP4 ADD MLOAD PUSH8 0xFFFFFFFFFFFFFFFF DUP2 GT ISZERO PUSH2 0x1D8 JUMPI PUSH2 0x1D7 PUSH2 0x65 JUMP JUMPDEST JUMPDEST PUSH2 0x1E4 DUP6 DUP3 DUP7 ADD PUSH2 0x178 JUMP JUMPDEST SWAP3 POP POP PUSH1 0x20 DUP4 ADD MLOAD PUSH8 0xFFFFFFFFFFFFFFFF DUP2 GT ISZERO PUSH2 0x205 JUMPI PUSH2 0x204 PUSH2 0x65 JUMP JUMPDEST JUMPDEST PUSH2 0x211 DUP6 DUP3 DUP7 ADD PUSH2 0x178 JUMP JUMPDEST SWAP2 POP POP SWAP3 POP SWAP3 SWAP1 POP JUMP JUMPDEST PUSH0 DUP2 MLOAD SWAP1 POP SWAP2 SWAP1 POP JUMP JUMPDEST PUSH32 0x4E487B7100000000000000000000000000000000000000000000000000000000 PUSH0 MSTORE PUSH1 0x22 PUSH1 0x4 MSTORE PUSH1 0x24 PUSH0 REVERT JUMPDEST PUSH0 PUSH1 0x2 DUP3 DIV SWAP1 POP PUSH1 0x1 DUP3 AND DUP1 PUSH2 0x269 JUMPI PUSH1 0x7F DUP3 AND SWAP2 POP JUMPDEST PUSH1 0x20 DUP3 LT DUP2 SUB PUSH2 0x27C JUMPI PUSH2 0x27B PUSH2 0x225 JUMP JUMPDEST JUMPDEST POP SWAP2 SWAP1 POP JUMP JUMPDEST PUSH0 DUP2 SWAP1 POP DUP2 PUSH0 MSTORE PUSH1 0x20 PUSH0 KECCAK256 SWAP1 POP SWAP2 SWAP1 POP JUMP JUMPDEST PUSH0 PUSH1 0x20 PUSH1 0x1F DUP4 ADD DIV SWAP1 POP SWAP2 SWAP1 POP JUMP JUMPDEST PUSH0 DUP3 DUP3 SHL SWAP1 POP SWAP3 SWAP2 POP POP JUMP JUMPDEST PUSH0 PUSH1 0x8 DUP4 MUL PUSH2 0x2DE PUSH32 0xFFFFFFFFFFFFFFFFFFFFFFFFFFFFFFFFFFFFFFFFFFFFFFFFFFFFFFFFFFFFFFFF DUP3 PUSH2 0x2A3 JUMP JUMPDEST PUSH2 0x2E8 DUP7 DUP4 PUSH2 0x2A3 JUMP JUMPDEST SWAP6 POP DUP1 NOT DUP5 AND SWAP4 POP DUP1 DUP7 AND DUP5 OR SWAP3 POP POP POP SWAP4 SWAP3 POP POP POP JUMP JUMPDEST PUSH0 DUP2 SWAP1 POP SWAP2 SWAP1 POP JUMP JUMPDEST PUSH0 DUP2 SWAP1 POP SWAP2 SWAP1 POP JUMP JUMPDEST PUSH0 PUSH2 0x32C PUSH2 0x327 PUSH2 0x322 DUP5 PUSH2 0x300 JUMP JUMPDEST PUSH2 0x309 JUMP JUMPDEST PUSH2 0x300 JUMP JUMPDEST SWAP1 POP SWAP2 SWAP1 POP JUMP JUMPDEST PUSH0 DUP2 SWAP1 POP SWAP2 SWAP1 POP JUMP JUMPDEST PUSH2 0x345 DUP4 PUSH2 0x312 JUMP JUMPDEST PUSH2 0x359 PUSH2 0x351 DUP3 PUSH2 0x333 JUMP JUMPDEST DUP5 DUP5 SLOAD PUSH2 0x2AF JUMP JUMPDEST DUP3 SSTORE POP POP POP POP JUMP JUMPDEST PUSH0 PUSH0 SWAP1 POP SWAP1 JUMP JUMPDEST PUSH2 0x370 PUSH2 0x361 JUMP JUMPDEST PUSH2 0x37B DUP2 DUP5 DUP5 PUSH2 0x33C JUMP JUMPDEST POP POP POP JUMP JUMPDEST JUMPDEST DUP2 DUP2 LT ISZERO PUSH2 0x39E JUMPI PUSH2 0x393 PUSH0 DUP3 PUSH2 0x368 JUMP JUMPDEST PUSH1 0x1 DUP2 ADD SWAP1 POP PUSH2 0x381 JUMP JUMPDEST POP POP JUMP JUMPDEST PUSH1 0x1F DUP3 GT ISZERO PUSH2 0x3E3 JUMPI PUSH2 0x3B4 DUP2 PUSH2 0x282 JUMP JUMPDEST PUSH2 0x3BD DUP5 PUSH2 0x294 JUMP JUMPDEST DUP2 ADD PUSH1 0x20 DUP6 LT ISZERO PUSH2 0x3CC JUMPI DUP2 SWAP1 POP JUMPDEST PUSH2 0x3E0 PUSH2 0x3D8 DUP6 PUSH2 0x294 JUMP JUMPDEST DUP4 ADD DUP3 PUSH2 0x380 JUMP JUMPDEST POP POP JUMPDEST POP POP POP JUMP JUMPDEST PUSH0 DUP3 DUP3 SHR SWAP1 POP SWAP3 SWAP2 POP POP JUMP JUMPDEST PUSH0 PUSH2 0x403 PUSH0 NOT DUP5 PUSH1 0x8 MUL PUSH2 0x3E8 JUMP JUMPDEST NOT DUP1 DUP4 AND SWAP2 POP POP SWAP3 SWAP2 POP POP JUMP JUMPDEST PUSH0 PUSH2 0x41B DUP4 DUP4 PUSH2 0x3F4 JUMP JUMPDEST SWAP2 POP DUP3 PUSH1 0x2 MUL DUP3 OR SWAP1 POP SWAP3 SWAP2 POP POP JUMP JUMPDEST PUSH2 0x434 DUP3 PUSH2 0x21B JUMP JUMPDEST PUSH8 0xFFFFFFFFFFFFFFFF DUP2 GT ISZERO PUSH2 0x44D JUMPI PUSH2 0x44C PUSH2 0x81 JUMP JUMPDEST JUMPDEST PUSH2 0x457 DUP3 SLOAD PUSH2 0x252 JUMP JUMPDEST PUSH2 0x462 DUP3 DUP3 DUP6 PUSH2 0x3A2 JUMP JUMPDEST PUSH0 PUSH1 0x20 SWAP1 POP PUSH1 0x1F DUP4 GT PUSH1 0x1 DUP2 EQ PUSH2 0x493 JUMPI PUSH0 DUP5 ISZERO PUSH2 0x481 JUMPI DUP3 DUP8 ADD MLOAD SWAP1 POP JUMPDEST PUSH2 0x48B DUP6 DUP3 PUSH2 0x410 JUMP JUMPDEST DUP7 SSTORE POP PUSH2 0x4F2 JUMP JUMPDEST PUSH1 0x1F NOT DUP5 AND PUSH2 0x4A1 DUP7 PUSH2 0x282 JUMP JUMPDEST PUSH0 JUMPDEST DUP3 DUP2 LT ISZERO PUSH2 0x4C8 JUMPI DUP5 DUP10 ADD MLOAD DUP3 SSTORE PUSH1 0x1 DUP3 ADD SWAP2 POP PUSH1 0x20 DUP6 ADD SWAP5 POP PUSH1 0x20 DUP2 ADD SWAP1 POP PUSH2 0x4A3 JUMP JUMPDEST DUP7 DUP4 LT ISZERO PUSH2 0x4E5 JUMPI DUP5 DUP10 ADD MLOAD PUSH2 0x4E1 PUSH1 0x1F DUP10 AND DUP3 PUSH2 0x3F4 JUMP JUMPDEST DUP4 SSTORE POP JUMPDEST PUSH1 0x1 PUSH1 0x2 DUP9 MUL ADD DUP9 SSTORE POP POP POP JUMPDEST POP POP POP POP POP POP JUMP JUMPDEST PUSH2 0x230C DUP1 PUSH2 0x507 PUSH0 CODECOPY PUSH0 RETURN INVALID PUSH1 0x80 PUSH1 0x40 MSTORE CALLVALUE DUP1 ISZERO PUSH2 0xF JUMPI PUSH0 PUSH0 REVERT JUMPDEST POP PUSH1 0x4 CALLDATASIZE LT PUSH2 0xE8 JUMPI PUSH0 CALLDATALOAD PUSH1 0xE0 SHR DUP1 PUSH4 0x76E56794 GT PUSH2 0x8A JUMPI DUP1 PUSH4 0x95D89B41 GT PUSH2 0x64 JUMPI DUP1 PUSH4 0x95D89B41 EQ PUSH2 0x280 JUMPI DUP1 PUSH4 0xA22CB465 EQ PUSH2 0x29E JUMPI DUP1 PUSH4 0xBDBED722 EQ PUSH2 0x2BA JUMPI DUP1 PUSH4 0xE985E9C5 EQ PUSH2 0x2D8 JUMPI PUSH2 0xE8 JUMP JUMPDEST DUP1 PUSH4 0x76E56794 EQ PUSH2 0x202 JUMPI DUP1 PUSH4 0x81DB4147 EQ PUSH2 0x232 JUMPI DUP1 PUSH4 0x85A59B21 EQ PUSH2 0x264 JUMPI PUSH2 0xE8 JUMP JUMPDEST DUP1 PUSH4 0x126DBE43 GT PUSH2 0xC6 JUMPI DUP1 PUSH4 0x126DBE43 EQ PUSH2 0x156 JUMPI DUP1 PUSH4 0x42842E0E EQ PUSH2 0x186 JUMPI DUP1 PUSH4 0x6352211E EQ PUSH2 0x1A2 JUMPI DUP1 PUSH4 0x70A08231 EQ PUSH2 0x1D2 JUMPI PUSH2 0xE8 JUMP JUMPDEST DUP1 PUSH4 0x6FDDE03 EQ PUSH2 0xEC JUMPI DUP1 PUSH4 0x81812FC EQ PUSH2 0x10A JUMPI DUP1 PUSH4 0x95EA7B3 EQ PUSH2 0x13A JUMPI JUMPDEST PUSH0 PUSH0 REVERT JUMPDEST PUSH2 0xF4 PUSH2 0x308 JUMP JUMPDEST PUSH1 0x40 MLOAD PUSH2 0x101 SWAP2 SWAP1 PUSH2 0x1506 JUMP JUMPDEST PUSH1 0x40 MLOAD DUP1 SWAP2 SUB SWAP1 RETURN JUMPDEST PUSH2 0x124 PUSH1 0x4 DUP1 CALLDATASIZE SUB DUP2 ADD SWAP1 PUSH2 0x11F SWAP2 SWAP1 PUSH2 0x156A JUMP JUMPDEST PUSH2 0x398 JUMP JUMPDEST PUSH1 0x40 MLOAD PUSH2 0x131 SWAP2 SWAP1 PUSH2 0x15D4 JUMP JUMPDEST PUSH1 0x40 MLOAD DUP1 SWAP2 SUB SWAP1 RETURN JUMPDEST PUSH2 0x154 PUSH1 0x4 DUP1 CALLDATASIZE SUB DUP2 ADD SWAP1 PUSH2 0x14F SWAP2 SWAP1 PUSH2 0x1617 JUMP JUMPDEST PUSH2 0x419 JUMP JUMPDEST STOP JUMPDEST PUSH2 0x170 PUSH1 0x4 DUP1 CALLDATASIZE SUB DUP2 ADD SWAP1 PUSH2 0x16B SWAP2 SWAP1 PUSH2 0x156A JUMP JUMPDEST PUSH2 0x521 JUMP JUMPDEST PUSH1 0x40 MLOAD PUSH2 0x17D SWAP2 SWAP1 PUSH2 0x1700 JUMP JUMPDEST PUSH1 0x40 MLOAD DUP1 SWAP2 SUB SWAP1 RETURN JUMPDEST PUSH2 0x1A0 PUSH1 0x4 DUP1 CALLDATASIZE SUB DUP2 ADD SWAP1 PUSH2 0x19B SWAP2 SWAP1 PUSH2 0x1720 JUMP JUMPDEST PUSH2 0x6BC JUMP JUMPDEST STOP JUMPDEST PUSH2 0x1BC PUSH1 0x4 DUP1 CALLDATASIZE SUB DUP2 ADD SWAP1 PUSH2 0x1B7 SWAP2 SWAP1 PUSH2 0x156A JUMP JUMPDEST PUSH2 0x783 JUMP JUMPDEST PUSH1 0x40 MLOAD PUSH2 0x1C9 SWAP2 SWAP1 PUSH2 0x15D4 JUMP JUMPDEST PUSH1 0x40 MLOAD DUP1 SWAP2 SUB SWAP1 RETURN JUMPDEST PUSH2 0x1EC PUSH1 0x4 DUP1 CALLDATASIZE SUB DUP2 ADD SWAP1 PUSH2 0x1E7 SWAP2 SWAP1 PUSH2 0x1770 JUMP JUMPDEST PUSH2 0x82F JUMP JUMPDEST PUSH1 0x40 MLOAD PUSH2 0x1F9 SWAP2 SWAP1 PUSH2 0x17AA JUMP JUMPDEST PUSH1 0x40 MLOAD DUP1 SWAP2 SUB SWAP1 RETURN JUMPDEST PUSH2 0x21C PUSH1 0x4 DUP1 CALLDATASIZE SUB DUP2 ADD SWAP1 PUSH2 0x217 SWAP2 SWAP1 PUSH2 0x18EF JUMP JUMPDEST PUSH2 0x8E3 JUMP JUMPDEST PUSH1 0x40 MLOAD PUSH2 0x229 SWAP2 SWAP1 PUSH2 0x17AA JUMP JUMPDEST PUSH1 0x40 MLOAD DUP1 SWAP2 SUB SWAP1 RETURN JUMPDEST PUSH2 0x24C PUSH1 0x4 DUP1 CALLDATASIZE SUB DUP2 ADD SWAP1 PUSH2 0x247 SWAP2 SWAP1 PUSH2 0x156A JUMP JUMPDEST PUSH2 0x963 JUMP JUMPDEST PUSH1 0x40 MLOAD PUSH2 0x25B SWAP4 SWAP3 SWAP2 SWAP1 PUSH2 0x1936 JUMP JUMPDEST PUSH1 0x40 MLOAD DUP1 SWAP2 SUB SWAP1 RETURN JUMPDEST PUSH2 0x27E PUSH1 0x4 DUP1 CALLDATASIZE SUB DUP2 ADD SWAP1 PUSH2 0x279 SWAP2 SWAP1 PUSH2 0x1979 JUMP JUMPDEST PUSH2 0xA94 JUMP JUMPDEST STOP JUMPDEST PUSH2 0x288 PUSH2 0xBA4 JUMP JUMPDEST PUSH1 0x40 MLOAD PUSH2 0x295 SWAP2 SWAP1 PUSH2 0x1506 JUMP JUMPDEST PUSH1 0x40 MLOAD DUP1 SWAP2 SUB SWAP1 RETURN JUMPDEST PUSH2 0x2B8 PUSH1 0x4 DUP1 CALLDATASIZE SUB DUP2 ADD SWAP1 PUSH2 0x2B3 SWAP2 SWAP1 PUSH2 0x1A4A JUMP JUMPDEST PUSH2 0xC34 JUMP JUMPDEST STOP JUMPDEST PUSH2 0x2C2 PUSH2 0xD9A JUMP JUMPDEST PUSH1 0x40 MLOAD PUSH2 0x2CF SWAP2 SWAP1 PUSH2 0x1B30 JUMP JUMPDEST PUSH1 0x40 MLOAD DUP1 SWAP2 SUB SWAP1 RETURN JUMPDEST PUSH2 0x2F2 PUSH1 0x4 DUP1 CALLDATASIZE SUB DUP2 ADD SWAP1 PUSH2 0x2ED SWAP2 SWAP1 PUSH2 0x1B50 JUMP JUMPDEST PUSH2 0xDF0 JUMP JUMPDEST PUSH1 0x40 MLOAD PUSH2 0x2FF SWAP2 SWAP1 PUSH2 0x1B9D JUMP JUMPDEST PUSH1 0x40 MLOAD DUP1 SWAP2 SUB SWAP1 RETURN JUMPDEST PUSH1 0x60 PUSH1 0x5 DUP1 SLOAD PUSH2 0x317 SWAP1 PUSH2 0x1BE3 JUMP JUMPDEST DUP1 PUSH1 0x1F ADD PUSH1 0x20 DUP1 SWAP2 DIV MUL PUSH1 0x20 ADD PUSH1 0x40 MLOAD SWAP1 DUP2 ADD PUSH1 0x40 MSTORE DUP1 SWAP3 SWAP2 SWAP1 DUP2 DUP2 MSTORE PUSH1 0x20 ADD DUP3 DUP1 SLOAD PUSH2 0x343 SWAP1 PUSH2 0x1BE3 JUMP JUMPDEST DUP1 ISZERO PUSH2 0x38E JUMPI DUP1 PUSH1 0x1F LT PUSH2 0x365 JUMPI PUSH2 0x100 DUP1 DUP4 SLOAD DIV MUL DUP4 MSTORE SWAP2 PUSH1 0x20 ADD SWAP2 PUSH2 0x38E JUMP JUMPDEST DUP3 ADD SWAP2 SWAP1 PUSH0 MSTORE PUSH1 0x20 PUSH0 KECCAK256 SWAP1 JUMPDEST DUP2 SLOAD DUP2 MSTORE SWAP1 PUSH1 0x1 ADD SWAP1 PUSH1 0x20 ADD DUP1 DUP4 GT PUSH2 0x371 JUMPI DUP3 SWAP1 SUB PUSH1 0x1F AND DUP3 ADD SWAP2 JUMPDEST POP POP POP POP POP SWAP1 POP SWAP1 JUMP JUMPDEST PUSH0 PUSH2 0x3A2 DUP3 PUSH2 0xE7E JUMP JUMPDEST PUSH2 0x3E1 JUMPI PUSH1 0x40 MLOAD PUSH32 0x8C379A000000000000000000000000000000000000000000000000000000000 DUP2 MSTORE PUSH1 0x4 ADD PUSH2 0x3D8 SWAP1 PUSH2 0x1C5D JUMP JUMPDEST PUSH1 0x40 MLOAD DUP1 SWAP2 SUB SWAP1 REVERT JUMPDEST PUSH1 0x3 PUSH0 DUP4 DUP2 MSTORE PUSH1 0x20 ADD SWAP1 DUP2 MSTORE PUSH1 0x20 ADD PUSH0 KECCAK256 PUSH0 SWAP1 SLOAD SWAP1 PUSH2 0x100 EXP SWAP1 DIV PUSH20 0xFFFFFFFFFFFFFFFFFFFFFFFFFFFFFFFFFFFFFFFF AND SWAP1 POP SWAP2 SWAP1 POP JUMP JUMPDEST PUSH0 PUSH2 0x423 DUP3 PUSH2 0x783 JUMP JUMPDEST SWAP1 POP DUP1 PUSH20 0xFFFFFFFFFFFFFFFFFFFFFFFFFFFFFFFFFFFFFFFF AND DUP4 PUSH20 0xFFFFFFFFFFFFFFFFFFFFFFFFFFFFFFFFFFFFFFFF AND SUB PUSH2 0x493 JUMPI PUSH1 0x40 MLOAD PUSH32 0x8C379A000000000000000000000000000000000000000000000000000000000 DUP2 MSTORE PUSH1 0x4 ADD PUSH2 0x48A SWAP1 PUSH2 0x1CC5 JUMP JUMPDEST PUSH1 0x40 MLOAD DUP1 SWAP2 SUB SWAP1 REVERT JUMPDEST DUP1 PUSH20 0xFFFFFFFFFFFFFFFFFFFFFFFFFFFFFFFFFFFFFFFF AND CALLER PUSH20 0xFFFFFFFFFFFFFFFFFFFFFFFFFFFFFFFFFFFFFFFF AND EQ DUP1 PUSH2 0x4D3 JUMPI POP PUSH2 0x4D2 DUP2 CALLER PUSH2 0xDF0 JUMP JUMPDEST JUMPDEST PUSH2 0x512 JUMPI PUSH1 0x40 MLOAD PUSH32 0x8C379A000000000000000000000000000000000000000000000000000000000 DUP2 MSTORE PUSH1 0x4 ADD PUSH2 0x509 SWAP1 PUSH2 0x1D2D JUMP JUMPDEST PUSH1 0x40 MLOAD DUP1 SWAP2 SUB SWAP1 REVERT JUMPDEST PUSH2 0x51C DUP4 DUP4 PUSH2 0xEE6 JUMP JUMPDEST POP POP POP JUMP JUMPDEST PUSH2 0x529 PUSH2 0x1476 JUMP JUMPDEST PUSH2 0x532 DUP3 PUSH2 0xE7E JUMP JUMPDEST PUSH2 0x571 JUMPI PUSH1 0x40 MLOAD PUSH32 0x8C379A000000000000000000000000000000000000000000000000000000000 DUP2 MSTORE PUSH1 0x4 ADD PUSH2 0x568 SWAP1 PUSH2 0x1C5D JUMP JUMPDEST PUSH1 0x40 MLOAD DUP1 SWAP2 SUB SWAP1 REVERT JUMPDEST PUSH0 PUSH0 DUP4 DUP2 MSTORE PUSH1 0x20 ADD SWAP1 DUP2 MSTORE PUSH1 0x20 ADD PUSH0 KECCAK256 PUSH1 0x40 MLOAD DUP1 PUSH1 0x60 ADD PUSH1 0x40 MSTORE SWAP1 DUP2 PUSH0 DUP3 ADD DUP1 SLOAD PUSH2 0x59B SWAP1 PUSH2 0x1BE3 JUMP JUMPDEST DUP1 PUSH1 0x1F ADD PUSH1 0x20 DUP1 SWAP2 DIV MUL PUSH1 0x20 ADD PUSH1 0x40 MLOAD SWAP1 DUP2 ADD PUSH1 0x40 MSTORE DUP1 SWAP3 SWAP2 SWAP1 DUP2 DUP2 MSTORE PUSH1 0x20 ADD DUP3 DUP1 SLOAD PUSH2 0x5C7 SWAP1 PUSH2 0x1BE3 JUMP JUMPDEST DUP1 ISZERO PUSH2 0x612 JUMPI DUP1 PUSH1 0x1F LT PUSH2 0x5E9 JUMPI PUSH2 0x100 DUP1 DUP4 SLOAD DIV MUL DUP4 MSTORE SWAP2 PUSH1 0x20 ADD SWAP2 PUSH2 0x612 JUMP JUMPDEST DUP3 ADD SWAP2 SWAP1 PUSH0 MSTORE PUSH1 0x20 PUSH0 KECCAK256 SWAP1 JUMPDEST DUP2 SLOAD DUP2 MSTORE SWAP1 PUSH1 0x1 ADD SWAP1 PUSH1 0x20 ADD DUP1 DUP4 GT PUSH2 0x5F5 JUMPI DUP3 SWAP1 SUB PUSH1 0x1F AND DUP3 ADD SWAP2 JUMPDEST POP POP POP POP POP DUP2 MSTORE PUSH1 0x20 ADD PUSH1 0x1 DUP3 ADD DUP1 SLOAD PUSH2 0x62B SWAP1 PUSH2 0x1BE3 JUMP JUMPDEST DUP1 PUSH1 0x1F ADD PUSH1 0x20 DUP1 SWAP2 DIV MUL PUSH1 0x20 ADD PUSH1 0x40 MLOAD SWAP1 DUP2 ADD PUSH1 0x40 MSTORE DUP1 SWAP3 SWAP2 SWAP1 DUP2 DUP2 MSTORE PUSH1 0x20 ADD DUP3 DUP1 SLOAD PUSH2 0x657 SWAP1 PUSH2 0x1BE3 JUMP JUMPDEST DUP1 ISZERO PUSH2 0x6A2 JUMPI DUP1 PUSH1 0x1F LT PUSH2 0x679 JUMPI PUSH2 0x100 DUP1 DUP4 SLOAD DIV MUL DUP4 MSTORE SWAP2 PUSH1 0x20 ADD SWAP2 PUSH2 0x6A2 JUMP JUMPDEST DUP3 ADD SWAP2 SWAP1 PUSH0 MSTORE PUSH1 0x20 PUSH0 KECCAK256 SWAP1 JUMPDEST DUP2 SLOAD DUP2 MSTORE SWAP1 PUSH1 0x1 ADD SWAP1 PUSH1 0x20 ADD DUP1 DUP4 GT PUSH2 0x685 JUMPI DUP3 SWAP1 SUB PUSH1 0x1F AND DUP3 ADD SWAP2 JUMPDEST POP POP POP POP POP DUP2 MSTORE PUSH1 0x20 ADD PUSH1 0x2 DUP3 ADD SLOAD DUP2 MSTORE POP POP SWAP1 POP SWAP2 SWAP1 POP JUMP JUMPDEST PUSH2 0x6C6 CALLER DUP3 PUSH2 0xF9C JUMP JUMPDEST PUSH2 0x705 JUMPI PUSH1 0x40 MLOAD PUSH32 0x8C379A000000000000000000000000000000000000000000000000000000000 DUP2 MSTORE PUSH1 0x4 ADD PUSH2 0x6FC SWAP1 PUSH2 0x1D2D JUMP JUMPDEST PUSH1 0x40 MLOAD DUP1 SWAP2 SUB SWAP1 REVERT JUMPDEST PUSH0 PUSH20 0xFFFFFFFFFFFFFFFFFFFFFFFFFFFFFFFFFFFFFFFF AND DUP3 PUSH20 0xFFFFFFFFFFFFFFFFFFFFFFFFFFFFFFFFFFFFFFFF AND SUB PUSH2 0x773 JUMPI PUSH1 0x40 MLOAD PUSH32 0x8C379A000000000000000000000000000000000000000000000000000000000 DUP2 MSTORE PUSH1 0x4 ADD PUSH2 0x76A SWAP1 PUSH2 0x1D95 JUMP JUMPDEST PUSH1 0x40 MLOAD DUP1 SWAP2 SUB SWAP1 REVERT JUMPDEST PUSH2 0x77E DUP4 DUP4 DUP4 PUSH2 0x1078 JUMP JUMPDEST POP POP POP JUMP JUMPDEST PUSH0 PUSH0 PUSH1 0x1 PUSH0 DUP5 DUP2 MSTORE PUSH1 0x20 ADD SWAP1 DUP2 MSTORE PUSH1 0x20 ADD PUSH0 KECCAK256 PUSH0 SWAP1 SLOAD SWAP1 PUSH2 0x100 EXP SWAP1 DIV PUSH20 0xFFFFFFFFFFFFFFFFFFFFFFFFFFFFFFFFFFFFFFFF AND SWAP1 POP PUSH0 PUSH20 0xFFFFFFFFFFFFFFFFFFFFFFFFFFFFFFFFFFFFFFFF AND DUP2 PUSH20 0xFFFFFFFFFFFFFFFFFFFFFFFFFFFFFFFFFFFFFFFF AND SUB PUSH2 0x826 JUMPI PUSH1 0x40 MLOAD PUSH32 0x8C379A000000000000000000000000000000000000000000000000000000000 DUP2 MSTORE PUSH1 0x4 ADD PUSH2 0x81D SWAP1 PUSH2 0x1C5D JUMP JUMPDEST PUSH1 0x40 MLOAD DUP1 SWAP2 SUB SWAP1 REVERT JUMPDEST DUP1 SWAP2 POP POP SWAP2 SWAP1 POP JUMP JUMPDEST PUSH0 PUSH0 PUSH20 0xFFFFFFFFFFFFFFFFFFFFFFFFFFFFFFFFFFFFFFFF AND DUP3 PUSH20 0xFFFFFFFFFFFFFFFFFFFFFFFFFFFFFFFFFFFFFFFF AND SUB PUSH2 0x89E JUMPI PUSH1 0x40 MLOAD PUSH32 0x8C379A000000000000000000000000000000000000000000000000000000000 DUP2 MSTORE PUSH1 0x4 ADD PUSH2 0x895 SWAP1 PUSH2 0x1DFD JUMP JUMPDEST PUSH1 0x40 MLOAD DUP1 SWAP2 SUB SWAP1 REVERT JUMPDEST PUSH1 0x2 PUSH0 DUP4 PUSH20 0xFFFFFFFFFFFFFFFFFFFFFFFFFFFFFFFFFFFFFFFF AND PUSH20 0xFFFFFFFFFFFFFFFFFFFFFFFFFFFFFFFFFFFFFFFF AND DUP2 MSTORE PUSH1 0x20 ADD SWAP1 DUP2 MSTORE PUSH1 0x20 ADD PUSH0 KECCAK256 SLOAD SWAP1 POP SWAP2 SWAP1 POP JUMP JUMPDEST PUSH0 PUSH0 DUP3 TIMESTAMP PUSH1 0x40 MLOAD PUSH1 0x20 ADD PUSH2 0x8F8 SWAP3 SWAP2 SWAP1 PUSH2 0x1E75 JUMP JUMPDEST PUSH1 0x40 MLOAD PUSH1 0x20 DUP2 DUP4 SUB SUB DUP2 MSTORE SWAP1 PUSH1 0x40 MSTORE DUP1 MLOAD SWAP1 PUSH1 0x20 ADD KECCAK256 PUSH0 SHR SWAP1 POP PUSH2 0x91B DUP2 PUSH2 0xE7E JUMP JUMPDEST PUSH2 0x95A JUMPI PUSH1 0x40 MLOAD PUSH32 0x8C379A000000000000000000000000000000000000000000000000000000000 DUP2 MSTORE PUSH1 0x4 ADD PUSH2 0x951 SWAP1 PUSH2 0x1C5D JUMP JUMPDEST PUSH1 0x40 MLOAD DUP1 SWAP2 SUB SWAP1 REVERT JUMPDEST DUP1 SWAP2 POP POP SWAP2 SWAP1 POP JUMP JUMPDEST PUSH0 PUSH1 0x20 MSTORE DUP1 PUSH0 MSTORE PUSH1 0x40 PUSH0 KECCAK256 PUSH0 SWAP2 POP SWAP1 POP DUP1 PUSH0 ADD DUP1 SLOAD PUSH2 0x981 SWAP1 PUSH2 0x1BE3 JUMP JUMPDEST DUP1 PUSH1 0x1F ADD PUSH1 0x20 DUP1 SWAP2 DIV MUL PUSH1 0x20 ADD PUSH1 0x40 MLOAD SWAP1 DUP2 ADD PUSH1 0x40 MSTORE DUP1 SWAP3 SWAP2 SWAP1 DUP2 DUP2 MSTORE PUSH1 0x20 ADD DUP3 DUP1 SLOAD PUSH2 0x9AD SWAP1 PUSH2 0x1BE3 JUMP JUMPDEST DUP1 ISZERO PUSH2 0x9F8 JUMPI DUP1 PUSH1 0x1F LT PUSH2 0x9CF JUMPI PUSH2 0x100 DUP1 DUP4 SLOAD DIV MUL DUP4 MSTORE SWAP2 PUSH1 0x20 ADD SWAP2 PUSH2 0x9F8 JUMP JUMPDEST DUP3 ADD SWAP2 SWAP1 PUSH0 MSTORE PUSH1 0x20 PUSH0 KECCAK256 SWAP1 JUMPDEST DUP2 SLOAD DUP2 MSTORE SWAP1 PUSH1 0x1 ADD SWAP1 PUSH1 0x20 ADD DUP1 DUP4 GT PUSH2 0x9DB JUMPI DUP3 SWAP1 SUB PUSH1 0x1F AND DUP3 ADD SWAP2 JUMPDEST POP POP POP POP POP SWAP1 DUP1 PUSH1 0x1 ADD DUP1 SLOAD PUSH2 0xA0D SWAP1 PUSH2 0x1BE3 JUMP JUMPDEST DUP1 PUSH1 0x1F ADD PUSH1 0x20 DUP1 SWAP2 DIV MUL PUSH1 0x20 ADD PUSH1 0x40 MLOAD SWAP1 DUP2 ADD PUSH1 0x40 MSTORE DUP1 SWAP3 SWAP2 SWAP1 DUP2 DUP2 MSTORE PUSH1 0x20 ADD DUP3 DUP1 SLOAD PUSH2 0xA39 SWAP1 PUSH2 0x1BE3 JUMP JUMPDEST DUP1 ISZERO PUSH2 0xA84 JUMPI DUP1 PUSH1 0x1F LT PUSH2 0xA5B JUMPI PUSH2 0x100 DUP1 DUP4 SLOAD DIV MUL DUP4 MSTORE SWAP2 PUSH1 0x20 ADD SWAP2 PUSH2 0xA84 JUMP JUMPDEST DUP3 ADD SWAP2 SWAP1 PUSH0 MSTORE PUSH1 0x20 PUSH0 KECCAK256 SWAP1 JUMPDEST DUP2 SLOAD DUP2 MSTORE SWAP1 PUSH1 0x1 ADD SWAP1 PUSH1 0x20 ADD DUP1 DUP4 GT PUSH2 0xA67 JUMPI DUP3 SWAP1 SUB PUSH1 0x1F AND DUP3 ADD SWAP2 JUMPDEST POP POP POP POP POP SWAP1 DUP1 PUSH1 0x2 ADD SLOAD SWAP1 POP DUP4 JUMP JUMPDEST PUSH0 DUP4 TIMESTAMP PUSH1 0x40 MLOAD PUSH1 0x20 ADD PUSH2 0xAA8 SWAP3 SWAP2 SWAP1 PUSH2 0x1E75 JUMP JUMPDEST PUSH1 0x40 MLOAD PUSH1 0x20 DUP2 DUP4 SUB SUB DUP2 MSTORE SWAP1 PUSH1 0x40 MSTORE DUP1 MLOAD SWAP1 PUSH1 0x20 ADD KECCAK256 PUSH0 SHR SWAP1 POP PUSH2 0xACB DUP2 PUSH2 0xE7E JUMP JUMPDEST ISZERO PUSH2 0xB0B JUMPI PUSH1 0x40 MLOAD PUSH32 0x8C379A000000000000000000000000000000000000000000000000000000000 DUP2 MSTORE PUSH1 0x4 ADD PUSH2 0xB02 SWAP1 PUSH2 0x1EE6 JUMP JUMPDEST PUSH1 0x40 MLOAD DUP1 SWAP2 SUB SWAP1 REVERT JUMPDEST PUSH2 0xB15 DUP6 DUP3 PUSH2 0x12BD JUMP JUMPDEST PUSH1 0x40 MLOAD DUP1 PUSH1 0x60 ADD PUSH1 0x40 MSTORE DUP1 DUP6 DUP2 MSTORE PUSH1 0x20 ADD DUP5 DUP2 MSTORE PUSH1 0x20 ADD DUP4 DUP2 MSTORE POP PUSH0 PUSH0 DUP4 DUP2 MSTORE PUSH1 0x20 ADD SWAP1 DUP2 MSTORE PUSH1 0x20 ADD PUSH0 KECCAK256 PUSH0 DUP3 ADD MLOAD DUP2 PUSH0 ADD SWAP1 DUP2 PUSH2 0xB53 SWAP2 SWAP1 PUSH2 0x20A4 JUMP JUMPDEST POP PUSH1 0x20 DUP3 ADD MLOAD DUP2 PUSH1 0x1 ADD SWAP1 DUP2 PUSH2 0xB69 SWAP2 SWAP1 PUSH2 0x20A4 JUMP JUMPDEST POP PUSH1 0x40 DUP3 ADD MLOAD DUP2 PUSH1 0x2 ADD SSTORE SWAP1 POP POP PUSH1 0x7 DUP2 SWAP1 DUP1 PUSH1 0x1 DUP2 SLOAD ADD DUP1 DUP3 SSTORE DUP1 SWAP2 POP POP PUSH1 0x1 SWAP1 SUB SWAP1 PUSH0 MSTORE PUSH1 0x20 PUSH0 KECCAK256 ADD PUSH0 SWAP1 SWAP2 SWAP1 SWAP2 SWAP1 SWAP2 POP SSTORE POP POP POP POP POP JUMP JUMPDEST PUSH1 0x60 PUSH1 0x6 DUP1 SLOAD PUSH2 0xBB3 SWAP1 PUSH2 0x1BE3 JUMP JUMPDEST DUP1 PUSH1 0x1F ADD PUSH1 0x20 DUP1 SWAP2 DIV MUL PUSH1 0x20 ADD PUSH1 0x40 MLOAD SWAP1 DUP2 ADD PUSH1 0x40 MSTORE DUP1 SWAP3 SWAP2 SWAP1 DUP2 DUP2 MSTORE PUSH1 0x20 ADD DUP3 DUP1 SLOAD PUSH2 0xBDF SWAP1 PUSH2 0x1BE3 JUMP JUMPDEST DUP1 ISZERO PUSH2 0xC2A JUMPI DUP1 PUSH1 0x1F LT PUSH2 0xC01 JUMPI PUSH2 0x100 DUP1 DUP4 SLOAD DIV MUL DUP4 MSTORE SWAP2 PUSH1 0x20 ADD SWAP2 PUSH2 0xC2A JUMP JUMPDEST DUP3 ADD SWAP2 SWAP1 PUSH0 MSTORE PUSH1 0x20 PUSH0 KECCAK256 SWAP1 JUMPDEST DUP2 SLOAD DUP2 MSTORE SWAP1 PUSH1 0x1 ADD SWAP1 PUSH1 0x20 ADD DUP1 DUP4 GT PUSH2 0xC0D JUMPI DUP3 SWAP1 SUB PUSH1 0x1F AND DUP3 ADD SWAP2 JUMPDEST POP POP POP POP POP SWAP1 POP SWAP1 JUMP JUMPDEST CALLER PUSH20 0xFFFFFFFFFFFFFFFFFFFFFFFFFFFFFFFFFFFFFFFF AND DUP3 PUSH20 0xFFFFFFFFFFFFFFFFFFFFFFFFFFFFFFFFFFFFFFFF AND SUB PUSH2 0xCA2 JUMPI PUSH1 0x40 MLOAD PUSH32 0x8C379A000000000000000000000000000000000000000000000000000000000 DUP2 MSTORE PUSH1 0x4 ADD PUSH2 0xC99 SWAP1 PUSH2 0x21BD JUMP JUMPDEST PUSH1 0x40 MLOAD DUP1 SWAP2 SUB SWAP1 REVERT JUMPDEST DUP1 PUSH1 0x4 PUSH0 CALLER PUSH20 0xFFFFFFFFFFFFFFFFFFFFFFFFFFFFFFFFFFFFFFFF AND PUSH20 0xFFFFFFFFFFFFFFFFFFFFFFFFFFFFFFFFFFFFFFFF AND DUP2 MSTORE PUSH1 0x20 ADD SWAP1 DUP2 MSTORE PUSH1 0x20 ADD PUSH0 KECCAK256 PUSH0 DUP5 PUSH20 0xFFFFFFFFFFFFFFFFFFFFFFFFFFFFFFFFFFFFFFFF AND PUSH20 0xFFFFFFFFFFFFFFFFFFFFFFFFFFFFFFFFFFFFFFFF AND DUP2 MSTORE PUSH1 0x20 ADD SWAP1 DUP2 MSTORE PUSH1 0x20 ADD PUSH0 KECCAK256 PUSH0 PUSH2 0x100 EXP DUP2 SLOAD DUP2 PUSH1 0xFF MUL NOT AND SWAP1 DUP4 ISZERO ISZERO MUL OR SWAP1 SSTORE POP DUP2 PUSH20 0xFFFFFFFFFFFFFFFFFFFFFFFFFFFFFFFFFFFFFFFF AND CALLER PUSH20 0xFFFFFFFFFFFFFFFFFFFFFFFFFFFFFFFFFFFFFFFF AND PUSH32 0x17307EAB39AB6107E8899845AD3D59BD9653F200F220920489CA2B5937696C31 DUP4 PUSH1 0x40 MLOAD PUSH2 0xD8E SWAP2 SWAP1 PUSH2 0x1B9D JUMP JUMPDEST PUSH1 0x40 MLOAD DUP1 SWAP2 SUB SWAP1 LOG3 POP POP JUMP JUMPDEST PUSH1 0x60 PUSH1 0x7 DUP1 SLOAD DUP1 PUSH1 0x20 MUL PUSH1 0x20 ADD PUSH1 0x40 MLOAD SWAP1 DUP2 ADD PUSH1 0x40 MSTORE DUP1 SWAP3 SWAP2 SWAP1 DUP2 DUP2 MSTORE PUSH1 0x20 ADD DUP3 DUP1 SLOAD DUP1 ISZERO PUSH2 0xDE6 JUMPI PUSH1 0x20 MUL DUP3 ADD SWAP2 SWAP1 PUSH0 MSTORE PUSH1 0x20 PUSH0 KECCAK256 SWAP1 JUMPDEST DUP2 SLOAD DUP2 MSTORE PUSH1 0x20 ADD SWAP1 PUSH1 0x1 ADD SWAP1 DUP1 DUP4 GT PUSH2 0xDD2 JUMPI JUMPDEST POP POP POP POP POP SWAP1 POP SWAP1 JUMP JUMPDEST PUSH0 PUSH1 0x4 PUSH0 DUP5 PUSH20 0xFFFFFFFFFFFFFFFFFFFFFFFFFFFFFFFFFFFFFFFF AND PUSH20 0xFFFFFFFFFFFFFFFFFFFFFFFFFFFFFFFFFFFFFFFF AND DUP2 MSTORE PUSH1 0x20 ADD SWAP1 DUP2 MSTORE PUSH1 0x20 ADD PUSH0 KECCAK256 PUSH0 DUP4 PUSH20 0xFFFFFFFFFFFFFFFFFFFFFFFFFFFFFFFFFFFFFFFF AND PUSH20 0xFFFFFFFFFFFFFFFFFFFFFFFFFFFFFFFFFFFFFFFF AND DUP2 MSTORE PUSH1 0x20 ADD SWAP1 DUP2 MSTORE PUSH1 0x20 ADD PUSH0 KECCAK256 PUSH0 SWAP1 SLOAD SWAP1 PUSH2 0x100 EXP SWAP1 DIV PUSH1 0xFF AND SWAP1 POP SWAP3 SWAP2 POP POP JUMP JUMPDEST PUSH0 PUSH0 PUSH20 0xFFFFFFFFFFFFFFFFFFFFFFFFFFFFFFFFFFFFFFFF AND PUSH1 0x1 PUSH0 DUP5 DUP2 MSTORE PUSH1 0x20 ADD SWAP1 DUP2 MSTORE PUSH1 0x20 ADD PUSH0 KECCAK256 PUSH0 SWAP1 SLOAD SWAP1 PUSH2 0x100 EXP SWAP1 DIV PUSH20 0xFFFFFFFFFFFFFFFFFFFFFFFFFFFFFFFFFFFFFFFF AND PUSH20 0xFFFFFFFFFFFFFFFFFFFFFFFFFFFFFFFFFFFFFFFF AND EQ ISZERO SWAP1 POP SWAP2 SWAP1 POP JUMP JUMPDEST DUP2 PUSH1 0x3 PUSH0 DUP4 DUP2 MSTORE PUSH1 0x20 ADD SWAP1 DUP2 MSTORE PUSH1 0x20 ADD PUSH0 KECCAK256 PUSH0 PUSH2 0x100 EXP DUP2 SLOAD DUP2 PUSH20 0xFFFFFFFFFFFFFFFFFFFFFFFFFFFFFFFFFFFFFFFF MUL NOT AND SWAP1 DUP4 PUSH20 0xFFFFFFFFFFFFFFFFFFFFFFFFFFFFFFFFFFFFFFFF AND MUL OR SWAP1 SSTORE POP DUP1 DUP3 PUSH20 0xFFFFFFFFFFFFFFFFFFFFFFFFFFFFFFFFFFFFFFFF AND PUSH2 0xF56 DUP4 PUSH2 0x783 JUMP JUMPDEST PUSH20 0xFFFFFFFFFFFFFFFFFFFFFFFFFFFFFFFFFFFFFFFF AND PUSH32 0x8C5BE1E5EBEC7D5BD14F71427D1E84F3DD0314C0F7B2291E5B200AC8C7C3B925 PUSH1 0x40 MLOAD PUSH1 0x40 MLOAD DUP1 SWAP2 SUB SWAP1 LOG4 POP POP JUMP JUMPDEST PUSH0 PUSH2 0xFA6 DUP3 PUSH2 0xE7E JUMP JUMPDEST PUSH2 0xFE5 JUMPI PUSH1 0x40 MLOAD PUSH32 0x8C379A000000000000000000000000000000000000000000000000000000000 DUP2 MSTORE PUSH1 0x4 ADD PUSH2 0xFDC SWAP1 PUSH2 0x1C5D JUMP JUMPDEST PUSH1 0x40 MLOAD DUP1 SWAP2 SUB SWAP1 REVERT JUMPDEST PUSH0 PUSH2 0xFEF DUP4 PUSH2 0x783 JUMP JUMPDEST SWAP1 POP DUP1 PUSH20 0xFFFFFFFFFFFFFFFFFFFFFFFFFFFFFFFFFFFFFFFF AND DUP5 PUSH20 0xFFFFFFFFFFFFFFFFFFFFFFFFFFFFFFFFFFFFFFFF AND EQ DUP1 PUSH2 0x105E JUMPI POP DUP4 PUSH20 0xFFFFFFFFFFFFFFFFFFFFFFFFFFFFFFFFFFFFFFFF AND PUSH2 0x1046 DUP5 PUSH2 0x398 JUMP JUMPDEST PUSH20 0xFFFFFFFFFFFFFFFFFFFFFFFFFFFFFFFFFFFFFFFF AND EQ JUMPDEST DUP1 PUSH2 0x106F JUMPI POP PUSH2 0x106E DUP2 DUP6 PUSH2 0xDF0 JUMP JUMPDEST JUMPDEST SWAP2 POP POP SWAP3 SWAP2 POP POP JUMP JUMPDEST DUP3 PUSH20 0xFFFFFFFFFFFFFFFFFFFFFFFFFFFFFFFFFFFFFFFF AND PUSH2 0x1098 DUP3 PUSH2 0x783 JUMP JUMPDEST PUSH20 0xFFFFFFFFFFFFFFFFFFFFFFFFFFFFFFFFFFFFFFFF AND EQ PUSH2 0x10EE JUMPI PUSH1 0x40 MLOAD PUSH32 0x8C379A000000000000000000000000000000000000000000000000000000000 DUP2 MSTORE PUSH1 0x4 ADD PUSH2 0x10E5 SWAP1 PUSH2 0x2225 JUMP JUMPDEST PUSH1 0x40 MLOAD DUP1 SWAP2 SUB SWAP1 REVERT JUMPDEST PUSH0 PUSH20 0xFFFFFFFFFFFFFFFFFFFFFFFFFFFFFFFFFFFFFFFF AND DUP3 PUSH20 0xFFFFFFFFFFFFFFFFFFFFFFFFFFFFFFFFFFFFFFFF AND SUB PUSH2 0x115C JUMPI PUSH1 0x40 MLOAD PUSH32 0x8C379A000000000000000000000000000000000000000000000000000000000 DUP2 MSTORE PUSH1 0x4 ADD PUSH2 0x1153 SWAP1 PUSH2 0x1D95 JUMP JUMPDEST PUSH1 0x40 MLOAD DUP1 SWAP2 SUB SWAP1 REVERT JUMPDEST PUSH2 0x1166 PUSH0 DUP3 PUSH2 0xEE6 JUMP JUMPDEST PUSH1 0x1 PUSH1 0x2 PUSH0 DUP6 PUSH20 0xFFFFFFFFFFFFFFFFFFFFFFFFFFFFFFFFFFFFFFFF AND PUSH20 0xFFFFFFFFFFFFFFFFFFFFFFFFFFFFFFFFFFFFFFFF AND DUP2 MSTORE PUSH1 0x20 ADD SWAP1 DUP2 MSTORE PUSH1 0x20 ADD PUSH0 KECCAK256 PUSH0 DUP3 DUP3 SLOAD PUSH2 0x11B3 SWAP2 SWAP1 PUSH2 0x2270 JUMP JUMPDEST SWAP3 POP POP DUP2 SWAP1 SSTORE POP PUSH1 0x1 PUSH1 0x2 PUSH0 DUP5 PUSH20 0xFFFFFFFFFFFFFFFFFFFFFFFFFFFFFFFFFFFFFFFF AND PUSH20 0xFFFFFFFFFFFFFFFFFFFFFFFFFFFFFFFFFFFFFFFF AND DUP2 MSTORE PUSH1 0x20 ADD SWAP1 DUP2 MSTORE PUSH1 0x20 ADD PUSH0 KECCAK256 PUSH0 DUP3 DUP3 SLOAD PUSH2 0x1207 SWAP2 SWAP1 PUSH2 0x22A3 JUMP JUMPDEST SWAP3 POP POP DUP2 SWAP1 SSTORE POP DUP2 PUSH1 0x1 PUSH0 DUP4 DUP2 MSTORE PUSH1 0x20 ADD SWAP1 DUP2 MSTORE PUSH1 0x20 ADD PUSH0 KECCAK256 PUSH0 PUSH2 0x100 EXP DUP2 SLOAD DUP2 PUSH20 0xFFFFFFFFFFFFFFFFFFFFFFFFFFFFFFFFFFFFFFFF MUL NOT AND SWAP1 DUP4 PUSH20 0xFFFFFFFFFFFFFFFFFFFFFFFFFFFFFFFFFFFFFFFF AND MUL OR SWAP1 SSTORE POP DUP1 DUP3 PUSH20 0xFFFFFFFFFFFFFFFFFFFFFFFFFFFFFFFFFFFFFFFF AND DUP5 PUSH20 0xFFFFFFFFFFFFFFFFFFFFFFFFFFFFFFFFFFFFFFFF AND PUSH32 0xDDF252AD1BE2C89B69C2B068FC378DAA952BA7F163C4A11628F55A4DF523B3EF PUSH1 0x40 MLOAD PUSH1 0x40 MLOAD DUP1 SWAP2 SUB SWAP1 LOG4 POP POP POP JUMP JUMPDEST PUSH0 PUSH20 0xFFFFFFFFFFFFFFFFFFFFFFFFFFFFFFFFFFFFFFFF AND DUP3 PUSH20 0xFFFFFFFFFFFFFFFFFFFFFFFFFFFFFFFFFFFFFFFF AND SUB PUSH2 0x132B JUMPI PUSH1 0x40 MLOAD PUSH32 0x8C379A000000000000000000000000000000000000000000000000000000000 DUP2 MSTORE PUSH1 0x4 ADD PUSH2 0x1322 SWAP1 PUSH2 0x1DFD JUMP JUMPDEST PUSH1 0x40 MLOAD DUP1 SWAP2 SUB SWAP1 REVERT JUMPDEST PUSH2 0x1334 DUP2 PUSH2 0xE7E JUMP JUMPDEST ISZERO PUSH2 0x1374 JUMPI PUSH1 0x40 MLOAD PUSH32 0x8C379A000000000000000000000000000000000000000000000000000000000 DUP2 MSTORE PUSH1 0x4 ADD PUSH2 0x136B SWAP1 PUSH2 0x1EE6 JUMP JUMPDEST PUSH1 0x40 MLOAD DUP1 SWAP2 SUB SWAP1 REVERT JUMPDEST PUSH1 0x1 PUSH1 0x2 PUSH0 DUP5 PUSH20 0xFFFFFFFFFFFFFFFFFFFFFFFFFFFFFFFFFFFFFFFF AND PUSH20 0xFFFFFFFFFFFFFFFFFFFFFFFFFFFFFFFFFFFFFFFF AND DUP2 MSTORE PUSH1 0x20 ADD SWAP1 DUP2 MSTORE PUSH1 0x20 ADD PUSH0 KECCAK256 PUSH0 DUP3 DUP3 SLOAD PUSH2 0x13C1 SWAP2 SWAP1 PUSH2 0x22A3 JUMP JUMPDEST SWAP3 POP POP DUP2 SWAP1 SSTORE POP DUP2 PUSH1 0x1 PUSH0 DUP4 DUP2 MSTORE PUSH1 0x20 ADD SWAP1 DUP2 MSTORE PUSH1 0x20 ADD PUSH0 KECCAK256 PUSH0 PUSH2 0x100 EXP DUP2 SLOAD DUP2 PUSH20 0xFFFFFFFFFFFFFFFFFFFFFFFFFFFFFFFFFFFFFFFF MUL NOT AND SWAP1 DUP4 PUSH20 0xFFFFFFFFFFFFFFFFFFFFFFFFFFFFFFFFFFFFFFFF AND MUL OR SWAP1 SSTORE POP DUP1 DUP3 PUSH20 0xFFFFFFFFFFFFFFFFFFFFFFFFFFFFFFFFFFFFFFFF AND PUSH0 PUSH20 0xFFFFFFFFFFFFFFFFFFFFFFFFFFFFFFFFFFFFFFFF AND PUSH32 0xDDF252AD1BE2C89B69C2B068FC378DAA952BA7F163C4A11628F55A4DF523B3EF PUSH1 0x40 MLOAD PUSH1 0x40 MLOAD DUP1 SWAP2 SUB SWAP1 LOG4 POP POP JUMP JUMPDEST PUSH1 0x40 MLOAD DUP1 PUSH1 0x60 ADD PUSH1 0x40 MSTORE DUP1 PUSH1 0x60 DUP2 MSTORE PUSH1 0x20 ADD PUSH1 0x60 DUP2 MSTORE PUSH1 0x20 ADD PUSH0 DUP2 MSTORE POP SWAP1 JUMP JUMPDEST PUSH0 DUP2 MLOAD SWAP1 POP SWAP2 SWAP1 POP JUMP JUMPDEST PUSH0 DUP3 DUP3 MSTORE PUSH1 0x20 DUP3 ADD SWAP1 POP SWAP3 SWAP2 POP POP JUMP JUMPDEST DUP3 DUP2 DUP4 MCOPY PUSH0 DUP4 DUP4 ADD MSTORE POP POP POP JUMP JUMPDEST PUSH0 PUSH1 0x1F NOT PUSH1 0x1F DUP4 ADD AND SWAP1 POP SWAP2 SWAP1 POP JUMP JUMPDEST PUSH0 PUSH2 0x14D8 DUP3 PUSH2 0x1496 JUMP JUMPDEST PUSH2 0x14E2 DUP2 DUP6 PUSH2 0x14A0 JUMP JUMPDEST SWAP4 POP PUSH2 0x14F2 DUP2 DUP6 PUSH1 0x20 DUP7 ADD PUSH2 0x14B0 JUMP JUMPDEST PUSH2 0x14FB DUP2 PUSH2 0x14BE JUMP JUMPDEST DUP5 ADD SWAP2 POP POP SWAP3 SWAP2 POP POP JUMP JUMPDEST PUSH0 PUSH1 0x20 DUP3 ADD SWAP1 POP DUP2 DUP2 SUB PUSH0 DUP4 ADD MSTORE PUSH2 0x151E DUP2 DUP5 PUSH2 0x14CE JUMP JUMPDEST SWAP1 POP SWAP3 SWAP2 POP POP JUMP JUMPDEST PUSH0 PUSH1 0x40 MLOAD SWAP1 POP SWAP1 JUMP JUMPDEST PUSH0 PUSH0 REVERT JUMPDEST PUSH0 PUSH0 REVERT JUMPDEST PUSH0 DUP2 SWAP1 POP SWAP2 SWAP1 POP JUMP JUMPDEST PUSH2 0x1549 DUP2 PUSH2 0x1537 JUMP JUMPDEST DUP2 EQ PUSH2 0x1553 JUMPI PUSH0 PUSH0 REVERT JUMPDEST POP JUMP JUMPDEST PUSH0 DUP2 CALLDATALOAD SWAP1 POP PUSH2 0x1564 DUP2 PUSH2 0x1540 JUMP JUMPDEST SWAP3 SWAP2 POP POP JUMP JUMPDEST PUSH0 PUSH1 0x20 DUP3 DUP5 SUB SLT ISZERO PUSH2 0x157F JUMPI PUSH2 0x157E PUSH2 0x152F JUMP JUMPDEST JUMPDEST PUSH0 PUSH2 0x158C DUP5 DUP3 DUP6 ADD PUSH2 0x1556 JUMP JUMPDEST SWAP2 POP POP SWAP3 SWAP2 POP POP JUMP JUMPDEST PUSH0 PUSH20 0xFFFFFFFFFFFFFFFFFFFFFFFFFFFFFFFFFFFFFFFF DUP3 AND SWAP1 POP SWAP2 SWAP1 POP JUMP JUMPDEST PUSH0 PUSH2 0x15BE DUP3 PUSH2 0x1595 JUMP JUMPDEST SWAP1 POP SWAP2 SWAP1 POP JUMP JUMPDEST PUSH2 0x15CE DUP2 PUSH2 0x15B4 JUMP JUMPDEST DUP3 MSTORE POP POP JUMP JUMPDEST PUSH0 PUSH1 0x20 DUP3 ADD SWAP1 POP PUSH2 0x15E7 PUSH0 DUP4 ADD DUP5 PUSH2 0x15C5 JUMP JUMPDEST SWAP3 SWAP2 POP POP JUMP JUMPDEST PUSH2 0x15F6 DUP2 PUSH2 0x15B4 JUMP JUMPDEST DUP2 EQ PUSH2 0x1600 JUMPI PUSH0 PUSH0 REVERT JUMPDEST POP JUMP JUMPDEST PUSH0 DUP2 CALLDATALOAD SWAP1 POP PUSH2 0x1611 DUP2 PUSH2 0x15ED JUMP JUMPDEST SWAP3 SWAP2 POP POP JUMP JUMPDEST PUSH0 PUSH0 PUSH1 0x40 DUP4 DUP6 SUB SLT ISZERO PUSH2 0x162D JUMPI PUSH2 0x162C PUSH2 0x152F JUMP JUMPDEST JUMPDEST PUSH0 PUSH2 0x163A DUP6 DUP3 DUP7 ADD PUSH2 0x1603 JUMP JUMPDEST SWAP3 POP POP PUSH1 0x20 PUSH2 0x164B DUP6 DUP3 DUP7 ADD PUSH2 0x1556 JUMP JUMPDEST SWAP2 POP POP SWAP3 POP SWAP3 SWAP1 POP JUMP JUMPDEST PUSH0 DUP3 DUP3 MSTORE PUSH1 0x20 DUP3 ADD SWAP1 POP SWAP3 SWAP2 POP POP JUMP JUMPDEST PUSH0 PUSH2 0x166F DUP3 PUSH2 0x1496 JUMP JUMPDEST PUSH2 0x1679 DUP2 DUP6 PUSH2 0x1655 JUMP JUMPDEST SWAP4 POP PUSH2 0x1689 DUP2 DUP6 PUSH1 0x20 DUP7 ADD PUSH2 0x14B0 JUMP JUMPDEST PUSH2 0x1692 DUP2 PUSH2 0x14BE JUMP JUMPDEST DUP5 ADD SWAP2 POP POP SWAP3 SWAP2 POP POP JUMP JUMPDEST PUSH2 0x16A6 DUP2 PUSH2 0x1537 JUMP JUMPDEST DUP3 MSTORE POP POP JUMP JUMPDEST PUSH0 PUSH1 0x60 DUP4 ADD PUSH0 DUP4 ADD MLOAD DUP5 DUP3 SUB PUSH0 DUP7 ADD MSTORE PUSH2 0x16C6 DUP3 DUP3 PUSH2 0x1665 JUMP JUMPDEST SWAP2 POP POP PUSH1 0x20 DUP4 ADD MLOAD DUP5 DUP3 SUB PUSH1 0x20 DUP7 ADD MSTORE PUSH2 0x16E0 DUP3 DUP3 PUSH2 0x1665 JUMP JUMPDEST SWAP2 POP POP PUSH1 0x40 DUP4 ADD MLOAD PUSH2 0x16F5 PUSH1 0x40 DUP7 ADD DUP3 PUSH2 0x169D JUMP JUMPDEST POP DUP1 SWAP2 POP POP SWAP3 SWAP2 POP POP JUMP JUMPDEST PUSH0 PUSH1 0x20 DUP3 ADD SWAP1 POP DUP2 DUP2 SUB PUSH0 DUP4 ADD MSTORE PUSH2 0x1718 DUP2 DUP5 PUSH2 0x16AC JUMP JUMPDEST SWAP1 POP SWAP3 SWAP2 POP POP JUMP JUMPDEST PUSH0 PUSH0 PUSH0 PUSH1 0x60 DUP5 DUP7 SUB SLT ISZERO PUSH2 0x1737 JUMPI PUSH2 0x1736 PUSH2 0x152F JUMP JUMPDEST JUMPDEST PUSH0 PUSH2 0x1744 DUP7 DUP3 DUP8 ADD PUSH2 0x1603 JUMP JUMPDEST SWAP4 POP POP PUSH1 0x20 PUSH2 0x1755 DUP7 DUP3 DUP8 ADD PUSH2 0x1603 JUMP JUMPDEST SWAP3 POP POP PUSH1 0x40 PUSH2 0x1766 DUP7 DUP3 DUP8 ADD PUSH2 0x1556 JUMP JUMPDEST SWAP2 POP POP SWAP3 POP SWAP3 POP SWAP3 JUMP JUMPDEST PUSH0 PUSH1 0x20 DUP3 DUP5 SUB SLT ISZERO PUSH2 0x1785 JUMPI PUSH2 0x1784 PUSH2 0x152F JUMP JUMPDEST JUMPDEST PUSH0 PUSH2 0x1792 DUP5 DUP3 DUP6 ADD PUSH2 0x1603 JUMP JUMPDEST SWAP2 POP POP SWAP3 SWAP2 POP POP JUMP JUMPDEST PUSH2 0x17A4 DUP2 PUSH2 0x1537 JUMP JUMPDEST DUP3 MSTORE POP POP JUMP JUMPDEST PUSH0 PUSH1 0x20 DUP3 ADD SWAP1 POP PUSH2 0x17BD PUSH0 DUP4 ADD DUP5 PUSH2 0x179B JUMP JUMPDEST SWAP3 SWAP2 POP POP JUMP JUMPDEST PUSH0 PUSH0 REVERT JUMPDEST PUSH0 PUSH0 REVERT JUMPDEST PUSH32 0x4E487B7100000000000000000000000000000000000000000000000000000000 PUSH0 MSTORE PUSH1 0x41 PUSH1 0x4 MSTORE PUSH1 0x24 PUSH0 REVERT JUMPDEST PUSH2 0x1801 DUP3 PUSH2 0x14BE JUMP JUMPDEST DUP2 ADD DUP2 DUP2 LT PUSH8 0xFFFFFFFFFFFFFFFF DUP3 GT OR ISZERO PUSH2 0x1820 JUMPI PUSH2 0x181F PUSH2 0x17CB JUMP JUMPDEST JUMPDEST DUP1 PUSH1 0x40 MSTORE POP POP POP JUMP JUMPDEST PUSH0 PUSH2 0x1832 PUSH2 0x1526 JUMP JUMPDEST SWAP1 POP PUSH2 0x183E DUP3 DUP3 PUSH2 0x17F8 JUMP JUMPDEST SWAP2 SWAP1 POP JUMP JUMPDEST PUSH0 PUSH8 0xFFFFFFFFFFFFFFFF DUP3 GT ISZERO PUSH2 0x185D JUMPI PUSH2 0x185C PUSH2 0x17CB JUMP JUMPDEST JUMPDEST PUSH2 0x1866 DUP3 PUSH2 0x14BE JUMP JUMPDEST SWAP1 POP PUSH1 0x20 DUP2 ADD SWAP1 POP SWAP2 SWAP1 POP JUMP JUMPDEST DUP3 DUP2 DUP4 CALLDATACOPY PUSH0 DUP4 DUP4 ADD MSTORE POP POP POP JUMP JUMPDEST PUSH0 PUSH2 0x1893 PUSH2 0x188E DUP5 PUSH2 0x1843 JUMP JUMPDEST PUSH2 0x1829 JUMP JUMPDEST SWAP1 POP DUP3 DUP2 MSTORE PUSH1 0x20 DUP2 ADD DUP5 DUP5 DUP5 ADD GT ISZERO PUSH2 0x18AF JUMPI PUSH2 0x18AE PUSH2 0x17C7 JUMP JUMPDEST JUMPDEST PUSH2 0x18BA DUP5 DUP3 DUP6 PUSH2 0x1873 JUMP JUMPDEST POP SWAP4 SWAP3 POP POP POP JUMP JUMPDEST PUSH0 DUP3 PUSH1 0x1F DUP4 ADD SLT PUSH2 0x18D6 JUMPI PUSH2 0x18D5 PUSH2 0x17C3 JUMP JUMPDEST JUMPDEST DUP2 CALLDATALOAD PUSH2 0x18E6 DUP5 DUP3 PUSH1 0x20 DUP7 ADD PUSH2 0x1881 JUMP JUMPDEST SWAP2 POP POP SWAP3 SWAP2 POP POP JUMP JUMPDEST PUSH0 PUSH1 0x20 DUP3 DUP5 SUB SLT ISZERO PUSH2 0x1904 JUMPI PUSH2 0x1903 PUSH2 0x152F JUMP JUMPDEST JUMPDEST PUSH0 DUP3 ADD CALLDATALOAD PUSH8 0xFFFFFFFFFFFFFFFF DUP2 GT ISZERO PUSH2 0x1921 JUMPI PUSH2 0x1920 PUSH2 0x1533 JUMP JUMPDEST JUMPDEST PUSH2 0x192D DUP5 DUP3 DUP6 ADD PUSH2 0x18C2 JUMP JUMPDEST SWAP2 POP POP SWAP3 SWAP2 POP POP JUMP JUMPDEST PUSH0 PUSH1 0x60 DUP3 ADD SWAP1 POP DUP2 DUP2 SUB PUSH0 DUP4 ADD MSTORE PUSH2 0x194E DUP2 DUP7 PUSH2 0x14CE JUMP JUMPDEST SWAP1 POP DUP2 DUP2 SUB PUSH1 0x20 DUP4 ADD MSTORE PUSH2 0x1962 DUP2 DUP6 PUSH2 0x14CE JUMP JUMPDEST SWAP1 POP PUSH2 0x1971 PUSH1 0x40 DUP4 ADD DUP5 PUSH2 0x179B JUMP JUMPDEST SWAP5 SWAP4 POP POP POP POP JUMP JUMPDEST PUSH0 PUSH0 PUSH0 PUSH0 PUSH1 0x80 DUP6 DUP8 SUB SLT ISZERO PUSH2 0x1991 JUMPI PUSH2 0x1990 PUSH2 0x152F JUMP JUMPDEST JUMPDEST PUSH0 PUSH2 0x199E DUP8 DUP3 DUP9 ADD PUSH2 0x1603 JUMP JUMPDEST SWAP5 POP POP PUSH1 0x20 DUP6 ADD CALLDATALOAD PUSH8 0xFFFFFFFFFFFFFFFF DUP2 GT ISZERO PUSH2 0x19BF JUMPI PUSH2 0x19BE PUSH2 0x1533 JUMP JUMPDEST JUMPDEST PUSH2 0x19CB DUP8 DUP3 DUP9 ADD PUSH2 0x18C2 JUMP JUMPDEST SWAP4 POP POP PUSH1 0x40 DUP6 ADD CALLDATALOAD PUSH8 0xFFFFFFFFFFFFFFFF DUP2 GT ISZERO PUSH2 0x19EC JUMPI PUSH2 0x19EB PUSH2 0x1533 JUMP JUMPDEST JUMPDEST PUSH2 0x19F8 DUP8 DUP3 DUP9 ADD PUSH2 0x18C2 JUMP JUMPDEST SWAP3 POP POP PUSH1 0x60 PUSH2 0x1A09 DUP8 DUP3 DUP9 ADD PUSH2 0x1556 JUMP JUMPDEST SWAP2 POP POP SWAP3 SWAP6 SWAP2 SWAP5 POP SWAP3 POP JUMP JUMPDEST PUSH0 DUP2 ISZERO ISZERO SWAP1 POP SWAP2 SWAP1 POP JUMP JUMPDEST PUSH2 0x1A29 DUP2 PUSH2 0x1A15 JUMP JUMPDEST DUP2 EQ PUSH2 0x1A33 JUMPI PUSH0 PUSH0 REVERT JUMPDEST POP JUMP JUMPDEST PUSH0 DUP2 CALLDATALOAD SWAP1 POP PUSH2 0x1A44 DUP2 PUSH2 0x1A20 JUMP JUMPDEST SWAP3 SWAP2 POP POP JUMP JUMPDEST PUSH0 PUSH0 PUSH1 0x40 DUP4 DUP6 SUB SLT ISZERO PUSH2 0x1A60 JUMPI PUSH2 0x1A5F PUSH2 0x152F JUMP JUMPDEST JUMPDEST PUSH0 PUSH2 0x1A6D DUP6 DUP3 DUP7 ADD PUSH2 0x1603 JUMP JUMPDEST SWAP3 POP POP PUSH1 0x20 PUSH2 0x1A7E DUP6 DUP3 DUP7 ADD PUSH2 0x1A36 JUMP JUMPDEST SWAP2 POP POP SWAP3 POP SWAP3 SWAP1 POP JUMP JUMPDEST PUSH0 DUP2 MLOAD SWAP1 POP SWAP2 SWAP1 POP JUMP JUMPDEST PUSH0 DUP3 DUP3 MSTORE PUSH1 0x20 DUP3 ADD SWAP1 POP SWAP3 SWAP2 POP POP JUMP JUMPDEST PUSH0 DUP2 SWAP1 POP PUSH1 0x20 DUP3 ADD SWAP1 POP SWAP2 SWAP1 POP JUMP JUMPDEST PUSH0 PUSH2 0x1ABC DUP4 DUP4 PUSH2 0x169D JUMP JUMPDEST PUSH1 0x20 DUP4 ADD SWAP1 POP SWAP3 SWAP2 POP POP JUMP JUMPDEST PUSH0 PUSH1 0x20 DUP3 ADD SWAP1 POP SWAP2 SWAP1 POP JUMP JUMPDEST PUSH0 PUSH2 0x1ADE DUP3 PUSH2 0x1A88 JUMP JUMPDEST PUSH2 0x1AE8 DUP2 DUP6 PUSH2 0x1A92 JUMP JUMPDEST SWAP4 POP PUSH2 0x1AF3 DUP4 PUSH2 0x1AA2 JUMP JUMPDEST DUP1 PUSH0 JUMPDEST DUP4 DUP2 LT ISZERO PUSH2 0x1B23 JUMPI DUP2 MLOAD PUSH2 0x1B0A DUP9 DUP3 PUSH2 0x1AB1 JUMP JUMPDEST SWAP8 POP PUSH2 0x1B15 DUP4 PUSH2 0x1AC8 JUMP JUMPDEST SWAP3 POP POP PUSH1 0x1 DUP2 ADD SWAP1 POP PUSH2 0x1AF6 JUMP JUMPDEST POP DUP6 SWAP4 POP POP POP POP SWAP3 SWAP2 POP POP JUMP JUMPDEST PUSH0 PUSH1 0x20 DUP3 ADD SWAP1 POP DUP2 DUP2 SUB PUSH0 DUP4 ADD MSTORE PUSH2 0x1B48 DUP2 DUP5 PUSH2 0x1AD4 JUMP JUMPDEST SWAP1 POP SWAP3 SWAP2 POP POP JUMP JUMPDEST PUSH0 PUSH0 PUSH1 0x40 DUP4 DUP6 SUB SLT ISZERO PUSH2 0x1B66 JUMPI PUSH2 0x1B65 PUSH2 0x152F JUMP JUMPDEST JUMPDEST PUSH0 PUSH2 0x1B73 DUP6 DUP3 DUP7 ADD PUSH2 0x1603 JUMP JUMPDEST SWAP3 POP POP PUSH1 0x20 PUSH2 0x1B84 DUP6 DUP3 DUP7 ADD PUSH2 0x1603 JUMP JUMPDEST SWAP2 POP POP SWAP3 POP SWAP3 SWAP1 POP JUMP JUMPDEST PUSH2 0x1B97 DUP2 PUSH2 0x1A15 JUMP JUMPDEST DUP3 MSTORE POP POP JUMP JUMPDEST PUSH0 PUSH1 0x20 DUP3 ADD SWAP1 POP PUSH2 0x1BB0 PUSH0 DUP4 ADD DUP5 PUSH2 0x1B8E JUMP JUMPDEST SWAP3 SWAP2 POP POP JUMP JUMPDEST PUSH32 0x4E487B7100000000000000000000000000000000000000000000000000000000 PUSH0 MSTORE PUSH1 0x22 PUSH1 0x4 MSTORE PUSH1 0x24 PUSH0 REVERT JUMPDEST PUSH0 PUSH1 0x2 DUP3 DIV SWAP1 POP PUSH1 0x1 DUP3 AND DUP1 PUSH2 0x1BFA JUMPI PUSH1 0x7F DUP3 AND SWAP2 POP JUMPDEST PUSH1 0x20 DUP3 LT DUP2 SUB PUSH2 0x1C0D JUMPI PUSH2 0x1C0C PUSH2 0x1BB6 JUMP JUMPDEST JUMPDEST POP SWAP2 SWAP1 POP JUMP JUMPDEST PUSH32 0x546F6B656E20646F6573206E6F74206578697374000000000000000000000000 PUSH0 DUP3 ADD MSTORE POP JUMP JUMPDEST PUSH0 PUSH2 0x1C47 PUSH1 0x14 DUP4 PUSH2 0x14A0 JUMP JUMPDEST SWAP2 POP PUSH2 0x1C52 DUP3 PUSH2 0x1C13 JUMP JUMPDEST PUSH1 0x20 DUP3 ADD SWAP1 POP SWAP2 SWAP1 POP JUMP JUMPDEST PUSH0 PUSH1 0x20 DUP3 ADD SWAP1 POP DUP2 DUP2 SUB PUSH0 DUP4 ADD MSTORE PUSH2 0x1C74 DUP2 PUSH2 0x1C3B JUMP JUMPDEST SWAP1 POP SWAP2 SWAP1 POP JUMP JUMPDEST PUSH32 0x43616E6E6F7420617070726F766520746F206F776E6572000000000000000000 PUSH0 DUP3 ADD MSTORE POP JUMP JUMPDEST PUSH0 PUSH2 0x1CAF PUSH1 0x17 DUP4 PUSH2 0x14A0 JUMP JUMPDEST SWAP2 POP PUSH2 0x1CBA DUP3 PUSH2 0x1C7B JUMP JUMPDEST PUSH1 0x20 DUP3 ADD SWAP1 POP SWAP2 SWAP1 POP JUMP JUMPDEST PUSH0 PUSH1 0x20 DUP3 ADD SWAP1 POP DUP2 DUP2 SUB PUSH0 DUP4 ADD MSTORE PUSH2 0x1CDC DUP2 PUSH2 0x1CA3 JUMP JUMPDEST SWAP1 POP SWAP2 SWAP1 POP JUMP JUMPDEST PUSH32 0x4E6F7420617070726F766564206F72206F776E65720000000000000000000000 PUSH0 DUP3 ADD MSTORE POP JUMP JUMPDEST PUSH0 PUSH2 0x1D17 PUSH1 0x15 DUP4 PUSH2 0x14A0 JUMP JUMPDEST SWAP2 POP PUSH2 0x1D22 DUP3 PUSH2 0x1CE3 JUMP JUMPDEST PUSH1 0x20 DUP3 ADD SWAP1 POP SWAP2 SWAP1 POP JUMP JUMPDEST PUSH0 PUSH1 0x20 DUP3 ADD SWAP1 POP DUP2 DUP2 SUB PUSH0 DUP4 ADD MSTORE PUSH2 0x1D44 DUP2 PUSH2 0x1D0B JUMP JUMPDEST SWAP1 POP SWAP2 SWAP1 POP JUMP JUMPDEST PUSH32 0x496E76616C696420726563697069656E74000000000000000000000000000000 PUSH0 DUP3 ADD MSTORE POP JUMP JUMPDEST PUSH0 PUSH2 0x1D7F PUSH1 0x11 DUP4 PUSH2 0x14A0 JUMP JUMPDEST SWAP2 POP PUSH2 0x1D8A DUP3 PUSH2 0x1D4B JUMP JUMPDEST PUSH1 0x20 DUP3 ADD SWAP1 POP SWAP2 SWAP1 POP JUMP JUMPDEST PUSH0 PUSH1 0x20 DUP3 ADD SWAP1 POP DUP2 DUP2 SUB PUSH0 DUP4 ADD MSTORE PUSH2 0x1DAC DUP2 PUSH2 0x1D73 JUMP JUMPDEST SWAP1 POP SWAP2 SWAP1 POP JUMP JUMPDEST PUSH32 0x416464726573732063616E6E6F74206265207A65726F00000000000000000000 PUSH0 DUP3 ADD MSTORE POP JUMP JUMPDEST PUSH0 PUSH2 0x1DE7 PUSH1 0x16 DUP4 PUSH2 0x14A0 JUMP JUMPDEST SWAP2 POP PUSH2 0x1DF2 DUP3 PUSH2 0x1DB3 JUMP JUMPDEST PUSH1 0x20 DUP3 ADD SWAP1 POP SWAP2 SWAP1 POP JUMP JUMPDEST PUSH0 PUSH1 0x20 DUP3 ADD SWAP1 POP DUP2 DUP2 SUB PUSH0 DUP4 ADD MSTORE PUSH2 0x1E14 DUP2 PUSH2 0x1DDB JUMP JUMPDEST SWAP1 POP SWAP2 SWAP1 POP JUMP JUMPDEST PUSH0 DUP2 SWAP1 POP SWAP3 SWAP2 POP POP JUMP JUMPDEST PUSH0 PUSH2 0x1E2F DUP3 PUSH2 0x1496 JUMP JUMPDEST PUSH2 0x1E39 DUP2 DUP6 PUSH2 0x1E1B JUMP JUMPDEST SWAP4 POP PUSH2 0x1E49 DUP2 DUP6 PUSH1 0x20 DUP7 ADD PUSH2 0x14B0 JUMP JUMPDEST DUP1 DUP5 ADD SWAP2 POP POP SWAP3 SWAP2 POP POP JUMP JUMPDEST PUSH0 DUP2 SWAP1 POP SWAP2 SWAP1 POP JUMP JUMPDEST PUSH2 0x1E6F PUSH2 0x1E6A DUP3 PUSH2 0x1537 JUMP JUMPDEST PUSH2 0x1E55 JUMP JUMPDEST DUP3 MSTORE POP POP JUMP JUMPDEST PUSH0 PUSH2 0x1E80 DUP3 DUP6 PUSH2 0x1E25 JUMP JUMPDEST SWAP2 POP PUSH2 0x1E8C DUP3 DUP5 PUSH2 0x1E5E JUMP JUMPDEST PUSH1 0x20 DUP3 ADD SWAP2 POP DUP2 SWAP1 POP SWAP4 SWAP3 POP POP POP JUMP JUMPDEST PUSH32 0x546F6B656E20616C726561647920657869737473000000000000000000000000 PUSH0 DUP3 ADD MSTORE POP JUMP JUMPDEST PUSH0 PUSH2 0x1ED0 PUSH1 0x14 DUP4 PUSH2 0x14A0 JUMP JUMPDEST SWAP2 POP PUSH2 0x1EDB DUP3 PUSH2 0x1E9C JUMP JUMPDEST PUSH1 0x20 DUP3 ADD SWAP1 POP SWAP2 SWAP1 POP JUMP JUMPDEST PUSH0 PUSH1 0x20 DUP3 ADD SWAP1 POP DUP2 DUP2 SUB PUSH0 DUP4 ADD MSTORE PUSH2 0x1EFD DUP2 PUSH2 0x1EC4 JUMP JUMPDEST SWAP1 POP SWAP2 SWAP1 POP JUMP JUMPDEST PUSH0 DUP2 SWAP1 POP DUP2 PUSH0 MSTORE PUSH1 0x20 PUSH0 KECCAK256 SWAP1 POP SWAP2 SWAP1 POP JUMP JUMPDEST PUSH0 PUSH1 0x20 PUSH1 0x1F DUP4 ADD DIV SWAP1 POP SWAP2 SWAP1 POP JUMP JUMPDEST PUSH0 DUP3 DUP3 SHL SWAP1 POP SWAP3 SWAP2 POP POP JUMP JUMPDEST PUSH0 PUSH1 0x8 DUP4 MUL PUSH2 0x1F60 PUSH32 0xFFFFFFFFFFFFFFFFFFFFFFFFFFFFFFFFFFFFFFFFFFFFFFFFFFFFFFFFFFFFFFFF DUP3 PUSH2 0x1F25 JUMP JUMPDEST PUSH2 0x1F6A DUP7 DUP4 PUSH2 0x1F25 JUMP JUMPDEST SWAP6 POP DUP1 NOT DUP5 AND SWAP4 POP DUP1 DUP7 AND DUP5 OR SWAP3 POP POP POP SWAP4 SWAP3 POP POP POP JUMP JUMPDEST PUSH0 DUP2 SWAP1 POP SWAP2 SWAP1 POP JUMP JUMPDEST PUSH0 PUSH2 0x1FA5 PUSH2 0x1FA0 PUSH2 0x1F9B DUP5 PUSH2 0x1537 JUMP JUMPDEST PUSH2 0x1F82 JUMP JUMPDEST PUSH2 0x1537 JUMP JUMPDEST SWAP1 POP SWAP2 SWAP1 POP JUMP JUMPDEST PUSH0 DUP2 SWAP1 POP SWAP2 SWAP1 POP JUMP JUMPDEST PUSH2 0x1FBE DUP4 PUSH2 0x1F8B JUMP JUMPDEST PUSH2 0x1FD2 PUSH2 0x1FCA DUP3 PUSH2 0x1FAC JUMP JUMPDEST DUP5 DUP5 SLOAD PUSH2 0x1F31 JUMP JUMPDEST DUP3 SSTORE POP POP POP POP JUMP JUMPDEST PUSH0 PUSH0 SWAP1 POP SWAP1 JUMP JUMPDEST PUSH2 0x1FE9 PUSH2 0x1FDA JUMP JUMPDEST PUSH2 0x1FF4 DUP2 DUP5 DUP5 PUSH2 0x1FB5 JUMP JUMPDEST POP POP POP JUMP JUMPDEST JUMPDEST DUP2 DUP2 LT ISZERO PUSH2 0x2017 JUMPI PUSH2 0x200C PUSH0 DUP3 PUSH2 0x1FE1 JUMP JUMPDEST PUSH1 0x1 DUP2 ADD SWAP1 POP PUSH2 0x1FFA JUMP JUMPDEST POP POP JUMP JUMPDEST PUSH1 0x1F DUP3 GT ISZERO PUSH2 0x205C JUMPI PUSH2 0x202D DUP2 PUSH2 0x1F04 JUMP JUMPDEST PUSH2 0x2036 DUP5 PUSH2 0x1F16 JUMP JUMPDEST DUP2 ADD PUSH1 0x20 DUP6 LT ISZERO PUSH2 0x2045 JUMPI DUP2 SWAP1 POP JUMPDEST PUSH2 0x2059 PUSH2 0x2051 DUP6 PUSH2 0x1F16 JUMP JUMPDEST DUP4 ADD DUP3 PUSH2 0x1FF9 JUMP JUMPDEST POP POP JUMPDEST POP POP POP JUMP JUMPDEST PUSH0 DUP3 DUP3 SHR SWAP1 POP SWAP3 SWAP2 POP POP JUMP JUMPDEST PUSH0 PUSH2 0x207C PUSH0 NOT DUP5 PUSH1 0x8 MUL PUSH2 0x2061 JUMP JUMPDEST NOT DUP1 DUP4 AND SWAP2 POP POP SWAP3 SWAP2 POP POP JUMP JUMPDEST PUSH0 PUSH2 0x2094 DUP4 DUP4 PUSH2 0x206D JUMP JUMPDEST SWAP2 POP DUP3 PUSH1 0x2 MUL DUP3 OR SWAP1 POP SWAP3 SWAP2 POP POP JUMP JUMPDEST PUSH2 0x20AD DUP3 PUSH2 0x1496 JUMP JUMPDEST PUSH8 0xFFFFFFFFFFFFFFFF DUP2 GT ISZERO PUSH2 0x20C6 JUMPI PUSH2 0x20C5 PUSH2 0x17CB JUMP JUMPDEST JUMPDEST PUSH2 0x20D0 DUP3 SLOAD PUSH2 0x1BE3 JUMP JUMPDEST PUSH2 0x20DB DUP3 DUP3 DUP6 PUSH2 0x201B JUMP JUMPDEST PUSH0 PUSH1 0x20 SWAP1 POP PUSH1 0x1F DUP4 GT PUSH1 0x1 DUP2 EQ PUSH2 0x210C JUMPI PUSH0 DUP5 ISZERO PUSH2 0x20FA JUMPI DUP3 DUP8 ADD MLOAD SWAP1 POP JUMPDEST PUSH2 0x2104 DUP6 DUP3 PUSH2 0x2089 JUMP JUMPDEST DUP7 SSTORE POP PUSH2 0x216B JUMP JUMPDEST PUSH1 0x1F NOT DUP5 AND PUSH2 0x211A DUP7 PUSH2 0x1F04 JUMP JUMPDEST PUSH0 JUMPDEST DUP3 DUP2 LT ISZERO PUSH2 0x2141 JUMPI DUP5 DUP10 ADD MLOAD DUP3 SSTORE PUSH1 0x1 DUP3 ADD SWAP2 POP PUSH1 0x20 DUP6 ADD SWAP5 POP PUSH1 0x20 DUP2 ADD SWAP1 POP PUSH2 0x211C JUMP JUMPDEST DUP7 DUP4 LT ISZERO PUSH2 0x215E JUMPI DUP5 DUP10 ADD MLOAD PUSH2 0x215A PUSH1 0x1F DUP10 AND DUP3 PUSH2 0x206D JUMP JUMPDEST DUP4 SSTORE POP JUMPDEST PUSH1 0x1 PUSH1 0x2 DUP9 MUL ADD DUP9 SSTORE POP POP POP JUMPDEST POP POP POP POP POP POP JUMP JUMPDEST PUSH32 0x43616E6E6F7420617070726F76652073656C6600000000000000000000000000 PUSH0 DUP3 ADD MSTORE POP JUMP JUMPDEST PUSH0 PUSH2 0x21A7 PUSH1 0x13 DUP4 PUSH2 0x14A0 JUMP JUMPDEST SWAP2 POP PUSH2 0x21B2 DUP3 PUSH2 0x2173 JUMP JUMPDEST PUSH1 0x20 DUP3 ADD SWAP1 POP SWAP2 SWAP1 POP JUMP JUMPDEST PUSH0 PUSH1 0x20 DUP3 ADD SWAP1 POP DUP2 DUP2 SUB PUSH0 DUP4 ADD MSTORE PUSH2 0x21D4 DUP2 PUSH2 0x219B JUMP JUMPDEST SWAP1 POP SWAP2 SWAP1 POP JUMP JUMPDEST PUSH32 0x496E636F7272656374206F776E65720000000000000000000000000000000000 PUSH0 DUP3 ADD MSTORE POP JUMP JUMPDEST PUSH0 PUSH2 0x220F PUSH1 0xF DUP4 PUSH2 0x14A0 JUMP JUMPDEST SWAP2 POP PUSH2 0x221A DUP3 PUSH2 0x21DB JUMP JUMPDEST PUSH1 0x20 DUP3 ADD SWAP1 POP SWAP2 SWAP1 POP JUMP JUMPDEST PUSH0 PUSH1 0x20 DUP3 ADD SWAP1 POP DUP2 DUP2 SUB PUSH0 DUP4 ADD MSTORE PUSH2 0x223C DUP2 PUSH2 0x2203 JUMP JUMPDEST SWAP1 POP SWAP2 SWAP1 POP JUMP JUMPDEST PUSH32 0x4E487B7100000000000000000000000000000000000000000000000000000000 PUSH0 MSTORE PUSH1 0x11 PUSH1 0x4 MSTORE PUSH1 0x24 PUSH0 REVERT JUMPDEST PUSH0 PUSH2 0x227A DUP3 PUSH2 0x1537 JUMP JUMPDEST SWAP2 POP PUSH2 0x2285 DUP4 PUSH2 0x1537 JUMP JUMPDEST SWAP3 POP DUP3 DUP3 SUB SWAP1 POP DUP2 DUP2 GT ISZERO PUSH2 0x229D JUMPI PUSH2 0x229C PUSH2 0x2243 JUMP JUMPDEST JUMPDEST SWAP3 SWAP2 POP POP JUMP JUMPDEST PUSH0 PUSH2 0x22AD DUP3 PUSH2 0x1537 JUMP JUMPDEST SWAP2 POP PUSH2 0x22B8 DUP4 PUSH2 0x1537 JUMP JUMPDEST SWAP3 POP DUP3 DUP3 ADD SWAP1 POP DUP1 DUP3 GT ISZERO PUSH2 0x22D0 JUMPI PUSH2 0x22CF PUSH2 0x2243 JUMP JUMPDEST JUMPDEST SWAP3 SWAP2 POP POP JUMP INVALID LOG2 PUSH5 0x6970667358 0x22 SLT KECCAK256 SELFDESTRUCT EXP 0xF9 0xCA 0xAA 0xD4 PUSH19 0x97E03EFB929CC310FF7EDC9495CCD1332CBB79 DUP13 0xC7 0xC4 CREATE2 0xE0 SWAP10 PUSH5 0x736F6C6343 STOP ADDMOD SHL STOP CALLER "
				},
				"gasEstimates": {
					"creation": {
						"codeDepositCost": "1794400",
						"executionCost": "infinite",
						"totalCost": "infinite"
					},
					"external": {
						"approve(address,uint256)": "infinite",
						"balanceOf(address)": "2952",
						"getAllTokenIds()": "infinite",
						"getApproved(uint256)": "5188",
						"getPropertyDetails(uint256)": "infinite",
						"getTokenIdByCadastralNumber(string)": "infinite",
						"isApprovedForAll(address,address)": "infinite",
						"mintProperty(address,string,string,uint256)": "infinite",
						"name()": "infinite",
						"ownerOf(uint256)": "3007",
						"propertyDetails(uint256)": "infinite",
						"safeTransferFrom(address,address,uint256)": "infinite",
						"setApprovalForAll(address,bool)": "infinite",
						"symbol()": "infinite"
					},
					"internal": {
						"_approve(address,uint256)": "infinite",
						"_exists(uint256)": "2264",
						"_isApprovedOrOwner(address,uint256)": "infinite",
						"_mint(address,uint256)": "infinite",
						"_transfer(address,address,uint256)": "infinite"
					}
				},
				"methodIdentifiers": {
					"approve(address,uint256)": "095ea7b3",
					"balanceOf(address)": "70a08231",
					"getAllTokenIds()": "bdbed722",
					"getApproved(uint256)": "081812fc",
					"getPropertyDetails(uint256)": "126dbe43",
					"getTokenIdByCadastralNumber(string)": "76e56794",
					"isApprovedForAll(address,address)": "e985e9c5",
					"mintProperty(address,string,string,uint256)": "85a59b21",
					"name()": "06fdde03",
					"ownerOf(uint256)": "6352211e",
					"propertyDetails(uint256)": "81db4147",
					"safeTransferFrom(address,address,uint256)": "42842e0e",
					"setApprovalForAll(address,bool)": "a22cb465",
					"symbol()": "95d89b41"
				}
			},
			"storageLayout": {
				"storage": [
					{
						"astId": 13,
						"contract": "RealEstateERC721.sol:RealEstateERC721",
						"label": "propertyDetails",
						"offset": 0,
						"slot": "0",
						"type": "t_mapping(t_uint256,t_struct(PropertyDetails)8_storage)"
					},
					{
						"astId": 17,
						"contract": "RealEstateERC721.sol:RealEstateERC721",
						"label": "_owners",
						"offset": 0,
						"slot": "1",
						"type": "t_mapping(t_uint256,t_address)"
					},
					{
						"astId": 21,
						"contract": "RealEstateERC721.sol:RealEstateERC721",
						"label": "_balances",
						"offset": 0,
						"slot": "2",
						"type": "t_mapping(t_address,t_uint256)"
					},
					{
						"astId": 25,
						"contract": "RealEstateERC721.sol:RealEstateERC721",
						"label": "_tokenApprovals",
						"offset": 0,
						"slot": "3",
						"type": "t_mapping(t_uint256,t_address)"
					},
					{
						"astId": 31,
						"contract": "RealEstateERC721.sol:RealEstateERC721",
						"label": "_operatorApprovals",
						"offset": 0,
						"slot": "4",
						"type": "t_mapping(t_address,t_mapping(t_address,t_bool))"
					},
					{
						"astId": 33,
						"contract": "RealEstateERC721.sol:RealEstateERC721",
						"label": "_name",
						"offset": 0,
						"slot": "5",
						"type": "t_string_storage"
					},
					{
						"astId": 35,
						"contract": "RealEstateERC721.sol:RealEstateERC721",
						"label": "_symbol",
						"offset": 0,
						"slot": "6",
						"type": "t_string_storage"
					},
					{
						"astId": 38,
						"contract": "RealEstateERC721.sol:RealEstateERC721",
						"label": "_allTokenIds",
						"offset": 0,
						"slot": "7",
						"type": "t_array(t_uint256)dyn_storage"
					}
				],
				"types": {
					"t_address": {
						"encoding": "inplace",
						"label": "address",
						"numberOfBytes": "20"
					},
					"t_array(t_uint256)dyn_storage": {
						"base": "t_uint256",
						"encoding": "dynamic_array",
						"label": "uint256[]",
						"numberOfBytes": "32"
					},
					"t_bool": {
						"encoding": "inplace",
						"label": "bool",
						"numberOfBytes": "1"
					},
					"t_mapping(t_address,t_bool)": {
						"encoding": "mapping",
						"key": "t_address",
						"label": "mapping(address => bool)",
						"numberOfBytes": "32",
						"value": "t_bool"
					},
					"t_mapping(t_address,t_mapping(t_address,t_bool))": {
						"encoding": "mapping",
						"key": "t_address",
						"label": "mapping(address => mapping(address => bool))",
						"numberOfBytes": "32",
						"value": "t_mapping(t_address,t_bool)"
					},
					"t_mapping(t_address,t_uint256)": {
						"encoding": "mapping",
						"key": "t_address",
						"label": "mapping(address => uint256)",
						"numberOfBytes": "32",
						"value": "t_uint256"
					},
					"t_mapping(t_uint256,t_address)": {
						"encoding": "mapping",
						"key": "t_uint256",
						"label": "mapping(uint256 => address)",
						"numberOfBytes": "32",
						"value": "t_address"
					},
					"t_mapping(t_uint256,t_struct(PropertyDetails)8_storage)": {
						"encoding": "mapping",
						"key": "t_uint256",
						"label": "mapping(uint256 => struct RealEstateERC721.PropertyDetails)",
						"numberOfBytes": "32",
						"value": "t_struct(PropertyDetails)8_storage"
					},
					"t_string_storage": {
						"encoding": "bytes",
						"label": "string",
						"numberOfBytes": "32"
					},
					"t_struct(PropertyDetails)8_storage": {
						"encoding": "inplace",
						"label": "struct RealEstateERC721.PropertyDetails",
						"members": [
							{
								"astId": 3,
								"contract": "RealEstateERC721.sol:RealEstateERC721",
								"label": "cadastralNumber",
								"offset": 0,
								"slot": "0",
								"type": "t_string_storage"
							},
							{
								"astId": 5,
								"contract": "RealEstateERC721.sol:RealEstateERC721",
								"label": "location",
								"offset": 0,
								"slot": "1",
								"type": "t_string_storage"
							},
							{
								"astId": 7,
								"contract": "RealEstateERC721.sol:RealEstateERC721",
								"label": "valuation",
								"offset": 0,
								"slot": "2",
								"type": "t_uint256"
							}
						],
						"numberOfBytes": "96"
					},
					"t_uint256": {
						"encoding": "inplace",
						"label": "uint256",
						"numberOfBytes": "32"
					}
				}
			},
			"userdoc": {
				"kind": "user",
				"methods": {},
				"version": 1
			}
		}
	}
}