{"abi":[{"type":"constructor","inputs":[{"name":"_propertyToken","type":"address","internalType":"address"},{"name":"_rentableToken","type":"address","internalType":"address"},{"name":"_platformFeePercentage","type":"uint256","internalType":"uint256"},{"name":"_feeCollector","type":"address","internalType":"address"}],"stateMutability":"nonpayable"},{"type":"receive","stateMutability":"payable"},{"type":"function","name":"approveSale","inputs":[{"name":"saleId","type":"uint256","internalType":"uint256"}],"outputs":[],"stateMutability":"nonpayable"},{"type":"function","name":"assignNotary","inputs":[{"name":"saleId","type":"uint256","internalType":"uint256"}],"outputs":[],"stateMutability":"nonpayable"},{"type":"function","name":"authorizeNotary","inputs":[{"name":"notary","type":"address","internalType":"address"}],"outputs":[],"stateMutability":"nonpayable"},{"type":"function","name":"authorizedNotaries","inputs":[{"name":"","type":"address","internalType":"address"}],"outputs":[{"name":"","type":"bool","internalType":"bool"}],"stateMutability":"view"},{"type":"function","name":"cancelSale","inputs":[{"name":"saleId","type":"uint256","internalType":"uint256"},{"name":"reason","type":"string","internalType":"string"}],"outputs":[],"stateMutability":"nonpayable"},{"type":"function","name":"completeSale","inputs":[{"name":"saleId","type":"uint256","internalType":"uint256"}],"outputs":[],"stateMutability":"nonpayable"},{"type":"function","name":"configureRentableTokens","inputs":[{"name":"saleId","type":"uint256","internalType":"uint256"},{"name":"included","type":"bool","internalType":"bool"},{"name":"amount","type":"uint256","internalType":"uint256"}],"outputs":[],"stateMutability":"nonpayable"},{"type":"function","name":"createSale","inputs":[{"name":"propertyId","type":"uint256","internalType":"uint256"},{"name":"price","type":"uint256","internalType":"uint256"},{"name":"saleDocumentURI","type":"string","internalType":"string"}],"outputs":[{"name":"","type":"uint256","internalType":"uint256"}],"stateMutability":"nonpayable"},{"type":"function","name":"depositEscrow","inputs":[{"name":"saleId","type":"uint256","internalType":"uint256"}],"outputs":[],"stateMutability":"payable"},{"type":"function","name":"expressInterest","inputs":[{"name":"saleId","type":"uint256","internalType":"uint256"}],"outputs":[],"stateMutability":"nonpayable"},{"type":"function","name":"feeCollector","inputs":[],"outputs":[{"name":"","type":"address","internalType":"address"}],"stateMutability":"view"},{"type":"function","name":"getActiveSaleForProperty","inputs":[{"name":"propertyId","type":"uint256","internalType":"uint256"}],"outputs":[{"name":"","type":"uint256","internalType":"uint256"}],"stateMutability":"view"},{"type":"function","name":"getEscrowBalance","inputs":[{"name":"saleId","type":"uint256","internalType":"uint256"}],"outputs":[{"name":"","type":"uint256","internalType":"uint256"}],"stateMutability":"view"},{"type":"function","name":"getSale","inputs":[{"name":"saleId","type":"uint256","internalType":"uint256"}],"outputs":[{"name":"","type":"tuple","internalType":"struct RealEstateSale.Sale","components":[{"name":"propertyId","type":"uint256","internalType":"uint256"},{"name":"seller","type":"address","internalType":"address"},{"name":"buyer","type":"address","internalType":"address"},{"name":"price","type":"uint256","internalType":"uint256"},{"name":"notary","type":"address","internalType":"address"},{"name":"status","type":"uint8","internalType":"enum RealEstateSale.SaleStatus"},{"name":"createdAt","type":"uint256","internalType":"uint256"},{"name":"updatedAt","type":"uint256","internalType":"uint256"},{"name":"completedAt","type":"uint256","internalType":"uint256"},{"name":"saleDocumentURI","type":"string","internalType":"string"},{"name":"rentableTokensIncluded","type":"bool","internalType":"bool"},{"name":"rentableTokenAmount","type":"uint256","internalType":"uint256"}]}],"stateMutability":"view"},{"type":"function","name":"isAuthorizedNotary","inputs":[{"name":"notary","type":"address","internalType":"address"}],"outputs":[{"name":"","type":"bool","internalType":"bool"}],"stateMutability":"view"},{"type":"function","name":"owner","inputs":[],"outputs":[{"name":"","type":"address","internalType":"address"}],"stateMutability":"view"},{"type":"function","name":"platformFeePercentage","inputs":[],"outputs":[{"name":"","type":"uint256","internalType":"uint256"}],"stateMutability":"view"},{"type":"function","name":"propertyToActiveSale","inputs":[{"name":"","type":"uint256","internalType":"uint256"}],"outputs":[{"name":"","type":"uint256","internalType":"uint256"}],"stateMutability":"view"},{"type":"function","name":"propertyToken","inputs":[],"outputs":[{"name":"","type":"address","internalType":"contract RealEstateERC721"}],"stateMutability":"view"},{"type":"function","name":"removeNotary","inputs":[{"name":"notary","type":"address","internalType":"address"}],"outputs":[],"stateMutability":"nonpayable"},{"type":"function","name":"rentableToken","inputs":[],"outputs":[{"name":"","type":"address","internalType":"contract RentableToken"}],"stateMutability":"view"},{"type":"function","name":"saleCounter","inputs":[],"outputs":[{"name":"","type":"uint256","internalType":"uint256"}],"stateMutability":"view"},{"type":"function","name":"saleEscrow","inputs":[{"name":"","type":"uint256","internalType":"uint256"}],"outputs":[{"name":"","type":"uint256","internalType":"uint256"}],"stateMutability":"view"},{"type":"function","name":"sales","inputs":[{"name":"","type":"uint256","internalType":"uint256"}],"outputs":[{"name":"propertyId","type":"uint256","internalType":"uint256"},{"name":"seller","type":"address","internalType":"address"},{"name":"buyer","type":"address","internalType":"address"},{"name":"price","type":"uint256","internalType":"uint256"},{"name":"notary","type":"address","internalType":"address"},{"name":"status","type":"uint8","internalType":"enum RealEstateSale.SaleStatus"},{"name":"createdAt","type":"uint256","internalType":"uint256"},{"name":"updatedAt","type":"uint256","internalType":"uint256"},{"name":"completedAt","type":"uint256","internalType":"uint256"},{"name":"saleDocumentURI","type":"string","internalType":"string"},{"name":"rentableTokensIncluded","type":"bool","internalType":"bool"},{"name":"rentableTokenAmount","type":"uint256","internalType":"uint256"}],"stateMutability":"view"},{"type":"function","name":"transferOwnership","inputs":[{"name":"newOwner","type":"address","internalType":"address"}],"outputs":[],"stateMutability":"nonpayable"},{"type":"function","name":"updateFeeCollector","inputs":[{"name":"newFeeCollector","type":"address","internalType":"address"}],"outputs":[],"stateMutability":"nonpayable"},{"type":"function","name":"updatePlatformFee","inputs":[{"name":"newFeePercentage","type":"uint256","internalType":"uint256"}],"outputs":[],"stateMutability":"nonpayable"},{"type":"function","name":"updateSalePrice","inputs":[{"name":"saleId","type":"uint256","internalType":"uint256"},{"name":"newPrice","type":"uint256","internalType":"uint256"}],"outputs":[],"stateMutability":"nonpayable"},{"type":"event","name":"BuyerAssigned","inputs":[{"name":"saleId","type":"uint256","indexed":true,"internalType":"uint256"},{"name":"buyer","type":"address","indexed":false,"internalType":"address"}],"anonymous":false},{"type":"event","name":"EscrowDeposited","inputs":[{"name":"saleId","type":"uint256","indexed":true,"internalType":"uint256"},{"name":"buyer","type":"address","indexed":false,"internalType":"address"},{"name":"amount","type":"uint256","indexed":false,"internalType":"uint256"}],"anonymous":false},{"type":"event","name":"FeeCollectorUpdated","inputs":[{"name":"oldCollector","type":"address","indexed":false,"internalType":"address"},{"name":"newCollector","type":"address","indexed":false,"internalType":"address"}],"anonymous":false},{"type":"event","name":"NotaryAssigned","inputs":[{"name":"saleId","type":"uint256","indexed":true,"internalType":"uint256"},{"name":"notary","type":"address","indexed":false,"internalType":"address"}],"anonymous":false},{"type":"event","name":"NotaryAuthorized","inputs":[{"name":"notary","type":"address","indexed":true,"internalType":"address"}],"anonymous":false},{"type":"event","name":"NotaryRemoved","inputs":[{"name":"notary","type":"address","indexed":true,"internalType":"address"}],"anonymous":false},{"type":"event","name":"PlatformFeeUpdated","inputs":[{"name":"oldFee","type":"uint256","indexed":false,"internalType":"uint256"},{"name":"newFee","type":"uint256","indexed":false,"internalType":"uint256"}],"anonymous":false},{"type":"event","name":"PriceUpdated","inputs":[{"name":"saleId","type":"uint256","indexed":true,"internalType":"uint256"},{"name":"oldPrice","type":"uint256","indexed":false,"internalType":"uint256"},{"name":"newPrice","type":"uint256","indexed":false,"internalType":"uint256"}],"anonymous":false},{"type":"event","name":"RentableTokensConfigured","inputs":[{"name":"saleId","type":"uint256","indexed":true,"internalType":"uint256"},{"name":"included","type":"bool","indexed":false,"internalType":"bool"},{"name":"amount","type":"uint256","indexed":false,"internalType":"uint256"}],"anonymous":false},{"type":"event","name":"SaleApproved","inputs":[{"name":"saleId","type":"uint256","indexed":true,"internalType":"uint256"},{"name":"notary","type":"address","indexed":false,"internalType":"address"}],"anonymous":false},{"type":"event","name":"SaleCancelled","inputs":[{"name":"saleId","type":"uint256","indexed":true,"internalType":"uint256"},{"name":"reason","type":"string","indexed":false,"internalType":"string"}],"anonymous":false},{"type":"event","name":"SaleCompleted","inputs":[{"name":"saleId","type":"uint256","indexed":true,"internalType":"uint256"},{"name":"propertyId","type":"uint256","indexed":true,"internalType":"uint256"},{"name":"seller","type":"address","indexed":false,"internalType":"address"},{"name":"buyer","type":"address","indexed":false,"internalType":"address"},{"name":"price","type":"uint256","indexed":false,"internalType":"uint256"}],"anonymous":false},{"type":"event","name":"SaleCreated","inputs":[{"name":"saleId","type":"uint256","indexed":true,"internalType":"uint256"},{"name":"propertyId","type":"uint256","indexed":true,"internalType":"uint256"},{"name":"seller","type":"address","indexed":false,"internalType":"address"},{"name":"price","type":"uint256","indexed":false,"internalType":"uint256"}],"anonymous":false},{"type":"error","name":"ReentrancyGuardReentrantCall","inputs":[]}],"bytecode":{"object":"0x60803461024d57601f61264b38819003918201601f19168301916001600160401b038311848410176102515780849260809460405283398101031261024d5761004781610265565b9061005460208201610265565b610065606060408401519301610265565b60015f556001600160a01b039093169283156101f1576001600160a01b0316928315610196576103e8831161014157600180546001600160a01b0319169190911790556001600160a01b031680610127575b503360018060a01b03196003541617600355335f52600460205260405f20600160ff1982541617905560095560018060a01b0319600a541617600a55604051337f4cef700177ebd839ae39bd5d8e5ffb253bc8792fdcebd25be9b3c8cb061ed5625f80a26123d1908161027a8239f35b600280546001600160a01b0319169190911790555f6100b7565b60405162461bcd60e51b815260206004820152602760248201527f5265616c45737461746553616c653a206665652070657263656e7461676520746044820152660dede40d0d2ced60cb1b6064820152608490fd5b60405162461bcd60e51b815260206004820152602d60248201527f5265616c45737461746553616c653a20696e76616c69642066656520636f6c6c60448201526c6563746f72206164647265737360981b6064820152608490fd5b60405162461bcd60e51b815260206004820152602e60248201527f5265616c45737461746553616c653a20696e76616c69642070726f706572747960448201526d20746f6b656e206164647265737360901b6064820152608490fd5b5f80fd5b634e487b7160e01b5f52604160045260245ffd5b51906001600160a01b038216820361024d5756fe6080806040526004361015610072575b50361561001a575f80fd5b60405162461bcd60e51b815260206004820152602a60248201527f5265616c45737461746553616c653a20757365206465706f736974457363726f6044820152693b90333ab731ba34b7b760b11b6064820152608490fd5b5f905f3560e01c9081630387b0a214611f095750806312dc743414611ee157806314a72feb14611e285780632782dafb14611cd257806341f6b6fa14611de757806343ae269514611dbf5780634896672e14611cfc57806361a3324b14611cd2578063750225d01461170b578063856e50b5146114a057806386785a6f146113765780638da5cb5b1461134d5780638e5936f214611323578063a8ded25b1461123a578063aa0b598814611178578063b5f522f714611093578063c415b95c1461106a578063cb991efe14610f0b578063cdd78cfc14610eed578063d2c35ce814610e53578063d8f6d59614610c66578063eb1fde32146107a2578063eb2f6433146104da578063eb96fe2b14610498578063f2fde38b1461043a578063f796c7241461030a578063faa9c89c146101da5763fce609030361000f57346101d75760203660031901126101d75760406020916004358152600883522054604051908152f35b80fd5b50346101d75760203660031901126101d757600435338252600460205260ff604083205416156102aa57808252600560205260ff600460408420015460a01c16600681101561029657600261022f9114612134565b80825260056020526004604083200160018060a01b0333166001600160601b0360a01b82541617905580825260056020524260066040842001557f3207b981cab81fd439a626f03ee4ae5a046c4f342706dbd9c644dd80b7e8608f6020604051338152a280f35b634e487b7160e01b83526021600452602483fd5b60405162461bcd60e51b815260206004820152603260248201527f5265616c45737461746553616c653a2063616c6c6572206973206e6f7420616e60448201527120617574686f72697a6564206e6f7461727960701b6064820152608490fd5b50346101d75760203660031901126101d757600435808252600560205260ff600460408420015460a01c16600681101561029657600161034a9114612134565b808252600560205260408220600101546001600160a01b031633146103e65780825260056020818152604080852060020180546001600160a01b03191633908117909155848652838352818620600401805460ff60a01b1916600160a11b1790558486529282528085204260069190910155519182527f2861cfac45347b9db519919bcef22f0389c553caa40ff05384e22a8b695a772391a280f35b60405162461bcd60e51b815260206004820152602660248201527f5265616c45737461746553616c653a2073656c6c65722063616e6e6f7420626560448201526510313abcb2b960d11b6064820152608490fd5b50346101d75760203660031901126101d7576004356001600160a01b0381169081900361049457600354610478336001600160a01b038316146122c8565b610483821515612311565b6001600160a01b0319161760035580f35b5080fd5b50346101d75760203660031901126101d7576004356001600160a01b038116908190036104945760408260ff9260209452600484522054166040519015158152f35b50346101d75760603660031901126101d75760043560243580151580820361079e5760443591838552600560205261052260018060a01b03600160408820015416331461218c565b838552600560205260ff600460408720015460a01c16600681101561078a57600161054d9114612134565b6002546001600160a01b0316801561072f57816105e9575b50907f8e540d062a5abe25bfb7a485f764a02f8b6a65227486b574b134049c3eb6273d9260409285875260056020526105af816009868a20019060ff801983541691151516179055565b156105e357805b8587526005602052600a84882001558486526005602052426006848820015582519182526020820152a280f35b856105b6565b83929192156106de578486526005602052602060018060a01b036001604089200154166024604051809481936370a0823160e01b835260048301525afa80156106d3578491879161069a575b501061064257905f610565565b60405162461bcd60e51b815260206004820152602a60248201527f5265616c45737461746553616c653a20696e73756666696369656e7420746f6b604482015269656e2062616c616e636560b01b6064820152608490fd5b9150506020813d6020116106cb575b816106b660209383611f54565b810103126106c7578390515f610635565b8580fd5b3d91506106a9565b6040513d88823e3d90fd5b60405162461bcd60e51b8152602060048201526024808201527f5265616c45737461746553616c653a20696e76616c696420746f6b656e20616d6044820152631bdd5b9d60e21b6064820152608490fd5b60405162461bcd60e51b815260206004820152602d60248201527f5265616c45737461746553616c653a2072656e7461626c6520746f6b656e206e60448201526c1bdd0818dbdb999a59dd5c9959609a1b6064820152608490fd5b634e487b7160e01b86526021600452602486fd5b8380fd5b50346101d75760603660031901126101d75760243560043560443567ffffffffffffffff811161079e576107da903690600401611f92565b926107e361235d565b6001546040516331a9108f60e11b81526004810184905290602090829060249082906001600160a01b03165afa908115610c5b578291610c2c575b50336001600160a01b0390911603610be15781815260076020526040812054610b845761084c8315156121d6565b6006545f198114610b7057600101918260065560405161086b81611f23565b8181526020810133815260408201848152606083018781526080840186815260a08501906001825260c086019042825260e08701924284526101008801948a865261012089019d8e526101408901968b88526101608a01988c8a528d8d52600560205260408d209a518b5560018060a01b0390511660018b019060018060a01b03166001600160601b0360a01b82541617905560018060a01b0390511660028a019060018060a01b03166001600160601b0360a01b825416179055516003890155600488019160018060a01b039060018060a01b03905116166001600160601b0360a01b835416178255516006811015610b5c57815460ff60a01b191660a09190911b60ff60a01b1617905551600586015551600685015551600784015596518051909790600884019067ffffffffffffffff8111610b48576109ae8254611fd8565b601f8111610b03575b506020998a90601f8311600114610a705794610a30610a59958b9c958560019d9a96600a967f131c6dd5b6cb12a2a5fa0a614243dc39b5d83151a8741b90984cd629f402d9609b8f92610a65575b50505f19600383901b1c1916908e1b1790555b511515600985019060ff801983541691151516179055565b519101558486526007895260408087208590558051338152602081019290925290918291820190565b0390a355604051908152f35b015190505f80610a05565b8389528189209190601f1984168a5b818110610aec5750958b9c95600186600a96829f9c9896610a30967f131c6dd5b6cb12a2a5fa0a614243dc39b5d83151a8741b90984cd629f402d9609d98610a599d10610ad4575b505050811b019055610a18565b01515f1960f88460031b161c191690555f8080610ac7565b92938e600181928786015181550195019301610a7f565b82885260208820601f830160051c81019160208410610b3e575b601f0160051c01905b818110610b3357506109b7565b888155600101610b26565b9091508190610b1d565b634e487b7160e01b87526041600452602487fd5b634e487b7160e01b8a52602160045260248afd5b634e487b7160e01b82526011600452602482fd5b60405162461bcd60e51b815260206004820152602f60248201527f5265616c45737461746553616c653a2070726f706572747920616c726561647960448201526e20696e206163746976652073616c6560881b6064820152608490fd5b60405162461bcd60e51b815260206004820152603060248201525f51602061237c5f395f51905f5260448201526f3290383937b832b93a3c9037bbb732b960811b6064820152608490fd5b610c4e915060203d602011610c54575b610c468183611f54565b810190612222565b5f61081e565b503d610c3c565b6040513d84823e3d90fd5b50346101d75760203660031901126101d75780610160604051610c8881611f23565b8281528260208201528260408201528260608201528260808201528260a08201528260c08201528260e0820152826101008201526060610120820152826101408201520152600435815260056020526040812060405190610ce882611f23565b8054825260018101546001600160a01b039081166020840190815260028301548216604085019081526003840154606086019081526004850154938416608087019081529196929593909260a08086019392901c60ff16906006821015610e3f575096610e2a93610e0184889460409b89975260058601549360c0880194855260068701549560e08901968752600a60ff600960078b01549a6101008d019b8c52610120610d9860088301612010565b9d019c8d5201541615156101408d019081529c01546101608c019081528e5160208082529c519c81019c909c529c516001600160a01b039081169e8c019e909e52518d1660608b01525160808a015251909a1660a08801529851959889989660c08a01906120b0565b5160e08801525161010087015251610120860152516101806101408601526101a08501906120bd565b91511515610160840152516101808301520390f35b634e487b7160e01b81526021600452602490fd5b50346101d75760203660031901126101d7576004356001600160a01b038116908190036104945760407f5d16ad41baeb009cd23eb8f6c7cde5c2e0cd5acf4a33926ab488875c37c37f3891610eb360018060a01b036003541633146122c8565b610ebe811515612311565b600a80546001600160a01b03198116831790915582516001600160a01b0390911681526020810191909152a180f35b50346101d757806003193601126101d7576020600954604051908152f35b5060203660031901126101d757600435808252600560205260408220600201546001600160a01b0316330361102857808252600560205260ff600460408420015460a01c166006811015610296576003610f659114612134565b610f6d61235d565b808252600560205260036040832001543403610fd25780825260086020908152604080842034908190558151338152928301527f9a57bbb234b70fc26fbb5c8d65f00c0bba23b19c4a7bb1aedb26c7a04269f7479190819081015b0390a26001815580f35b60405162461bcd60e51b815260206004820152602860248201527f5265616c45737461746553616c653a20696e636f7272656374207061796d656e6044820152671d08185b5bdd5b9d60c21b6064820152608490fd5b60405162461bcd60e51b815260206004820152602760248201525f51602061237c5f395f51905f526044820152663290313abcb2b960c91b6064820152608490fd5b50346101d757806003193601126101d757600a546040516001600160a01b039091168152602090f35b50346101d75760203660031901126101d7576040906004358152600560205220805460018060a01b036001830154169160018060a01b036002820154166111656003830154600484015460058501546006860154906111416007880154936110fd60088a01612010565b95600a60ff60098c0154169a0154986040519c8d9c8d5260208d015260408c015260608b015260018060a01b03811660808b015260ff60a08b019160a01c166120b0565b60c088015260e08701526101008601526101806101208601526101808501906120bd565b9115156101408401526101608301520390f35b50346101d75760203660031901126101d7576004356111a260018060a01b036003541633146122c8565b6103e881116111e55760407fd347e206f25a89b917fc9482f1a2d294d749baa4dc9bde7fb495ee11fe49164391600954908060095582519182526020820152a180f35b60405162461bcd60e51b815260206004820152602760248201527f5265616c45737461746553616c653a206665652070657263656e7461676520746044820152660dede40d0d2ced60cb1b6064820152608490fd5b50346101d75760203660031901126101d7576004356001600160a01b038116908190036104945761127660018060a01b036003541633146122c8565b611281811515612311565b808252600460205260ff6040832054166112d357808252600460205260408220805460ff191660011790557f4cef700177ebd839ae39bd5d8e5ffb253bc8792fdcebd25be9b3c8cb061ed5628280a280f35b60405162461bcd60e51b815260206004820152602260248201527f5265616c45737461746553616c653a20616c726561647920617574686f72697a604482015261195960f21b6064820152608490fd5b50346101d75760203660031901126101d75760406020916004358152600883522054604051908152f35b50346101d757806003193601126101d7576003546040516001600160a01b039091168152602090f35b50346101d75760203660031901126101d7576004356001600160a01b03811690819003610494576003546001600160a01b03166113b43382146122c8565b818352600460205260ff6040842054161561145b57811461140a57808252600460205260408220805460ff191690557f45cce36eb5ff15aa76102843427340e3e843a80b527a3b355f927fcff9ab84048280a280f35b60405162461bcd60e51b815260206004820152602360248201527f5265616c45737461746553616c653a2063616e6e6f742072656d6f7665206f776044820152623732b960e91b6064820152608490fd5b60405162461bcd60e51b815260206004820152601e60248201527f5265616c45737461746553616c653a206e6f7420617574686f72697a656400006044820152606490fd5b50346101d75760403660031901126101d75760043560243567ffffffffffffffff8111611707576114d5903690600401611f92565b6114dd61235d565b818352600560205260408320906004820190815460ff8160a01c1660068110156116f3576001811491826116dc575b8215611681575b50501561162a577f5a07ee7e5147c5ecaafd12fa6b531c99bbaa9c868cf52c411cfc8cd0f5dd9b0492610fc89285875260086020526040872054151580611614575b611594575b805460ff60a01b1916600560a01b1790554260068201555485526007602090815260408087208790555181815292839290918301906120bd565b8587526008602052857f9a57bbb234b70fc26fbb5c8d65f00c0bba23b19c4a7bb1aedb26c7a04269f7476040808a2054838b5260086020528a828120556115f78b80808060028b019560018060a01b038754165af16115f1612241565b50612270565b5481516001600160a01b039091168152602081018b9052a261155a565b5060028201546001600160a01b03161515611555565b60405162461bcd60e51b815260206004820152602960248201527f5265616c45737461746553616c653a20756e617574686f72697a65642063616e60448201526831b2b63630ba34b7b760b91b6064820152608490fd5b6002821492509082156116d1575b508161169e575b505f80611513565b60018501546001600160a01b03163314915081156116be575b505f611696565b6001600160a01b0316331490505f6116b7565b60031491505f61168f565b60018601546001600160a01b03163314925061150c565b634e487b7160e01b87526021600452602487fd5b8280fd5b5034611bcd576020366003190112611bcd5760043590815f52600560205261174360018060a01b03600460405f2001541633146120e1565b815f52600560205260ff600460405f20015460a01c166006811015611cbe57600361176e9114612134565b61177661235d565b815f52600560205260405f20825f52600860205260405f205492600382018054809503611c6d5760018060a01b036001541692602081546024604051809781936331a9108f60e11b835260048301525afa938415611c62575f94611c41575b5060018101805490946001600160a01b03918216911603611be557600954808702908782041487151715611bd157612710900490818703968711611bd1575f8481526008602052604081208054919055600154865460028401805485546001600160a01b039384169c9598929792959294929392831692909116823b15611bcd57604051632142170760e11b81526001600160a01b039d8e1660048201529c1660248d015260448c01528a6064815a5f948591f180611bb3575b899a5098969798155f1461192457505091549495506118c4948493849350839250906001600160a01b03165af16115f1612241565b7f5a07ee7e5147c5ecaafd12fa6b531c99bbaa9c868cf52c411cfc8cd0f5dd9b04606060405160208152601860208201527f50726f7065727479207472616e73666572206661696c656400000000000000006040820152a25b6001815580f35b909295809295506009870160ff81541680611ba6575b611ab9575b5080809260018060a01b038b54165af1611957612241565b5015611a66578087916119ec575b505060048301805460ff60a01b1916600160a21b17905542600780850182905560068501919091558354875260209081526040808820889055935495549154925484516001600160a01b0393841681529290931690820152918201527fd8756b5863614c83a87fb9ed181f715ef1532c99fc8ce3a56d438da7fcfa8a6590606090a361191d565b600a54829182918291906001600160a01b03165af1611a09612241565b5015611a1657855f611965565b60405162461bcd60e51b815260206004820152602260248201527f5265616c45737461746553616c653a20666565207061796d656e74206661696c604482015261195960f21b6064820152608490fd5b60405162461bcd60e51b815260206004820152602560248201527f5265616c45737461746553616c653a2073656c6c6572207061796d656e742066604482015264185a5b195960da1b6064820152608490fd5b6002548a548754600a8b0180546040516323b872dd60e01b81526001600160a01b039485166004820152928416602484015260448301529593929091602091839160649183918991165af19081611b63575b5083948493928492155f14611b5b5760ff19815416905555897f8e540d062a5abe25bfb7a485f764a02f8b6a65227486b574b134049c3eb6273d60408051858152856020820152a25b925061193f565b505050611b54565b90929193506020813d602011611b9e575b81611b8160209383611f54565b810103126106c7575180151581036106c757508492909183611b0b565b3d9150611b74565b50600a880154151561193a565b96979850985f611bc291611f54565b5f979695899061188f565b5f80fd5b634e487b7160e01b5f52601160045260245ffd5b60405162461bcd60e51b815260206004820152602e60248201527f5265616c45737461746553616c653a2073656c6c6572206e6f206c6f6e67657260448201526d206f776e732070726f706572747960901b6064820152608490fd5b611c5b91945060203d602011610c5457610c468183611f54565b925f6117d5565b6040513d5f823e3d90fd5b60405162461bcd60e51b8152602060048201526024808201527f5265616c45737461746553616c653a20657363726f77206e6f74206465706f736044820152631a5d195960e21b6064820152608490fd5b634e487b7160e01b5f52602160045260245ffd5b34611bcd576020366003190112611bcd576004355f526007602052602060405f2054604051908152f35b34611bcd576040366003190112611bcd57600435602435815f526005602052611d3560018060a01b03600160405f20015416331461218c565b815f52600560205260ff600460405f20015460a01c166006811015611cbe577f15819dd2fd9f6418b142e798d08a18d0bf06ea368f4480b7b0d3f75bd966bc4891611d84600160409314612134565b611d8f8115156121d6565b5f8481526005602090815283822060030180549084905591849020426006909101558351918252810191909152a2005b34611bcd575f366003190112611bcd576001546040516001600160a01b039091168152602090f35b34611bcd576020366003190112611bcd576004356001600160a01b03811690819003611bcd575f526004602052602060ff60405f2054166040519015158152f35b34611bcd576020366003190112611bcd57600435805f526005602052611e5e60018060a01b03600460405f2001541633146120e1565b805f52600560205260ff600460405f20015460a01c166006811015611cbe576002611e899114612134565b5f8181526005602090815260409182902060048101805460ff60a01b1916600360a01b1790554260069091015590513381527f4dc60bf23e5a965cf059957e78d62c6c6cc8835ad6cea32928a940f447197cbc9190a2005b34611bcd575f366003190112611bcd576002546040516001600160a01b039091168152602090f35b34611bcd575f366003190112611bcd576020906006548152f35b610180810190811067ffffffffffffffff821117611f4057604052565b634e487b7160e01b5f52604160045260245ffd5b90601f8019910116810190811067ffffffffffffffff821117611f4057604052565b67ffffffffffffffff8111611f4057601f01601f191660200190565b81601f82011215611bcd57803590611fa982611f76565b92611fb76040519485611f54565b82845260208383010111611bcd57815f926020809301838601378301015290565b90600182811c92168015612006575b6020831014611ff257565b634e487b7160e01b5f52602260045260245ffd5b91607f1691611fe7565b9060405191825f82549261202384611fd8565b808452936001811690811561208e575060011461204a575b5061204892500383611f54565b565b90505f9291925260205f20905f915b818310612072575050906020612048928201015f61203b565b6020919350806001915483858901015201910190918492612059565b90506020925061204894915060ff191682840152151560051b8201015f61203b565b906006821015611cbe5752565b805180835260209291819084018484015e5f828201840152601f01601f1916010190565b156120e857565b60405162461bcd60e51b815260206004820152603160248201525f51602061237c5f395f51905f52604482015270652061737369676e6564206e6f7461727960781b6064820152608490fd5b1561213b57565b60405162461bcd60e51b815260206004820152602360248201527f5265616c45737461746553616c653a20696e76616c69642073616c652073746160448201526274757360e81b6064820152608490fd5b1561219357565b60405162461bcd60e51b815260206004820152602860248201525f51602061237c5f395f51905f52604482015267329039b2b63632b960c11b6064820152608490fd5b156121dd57565b60405162461bcd60e51b815260206004820152601d60248201527f5265616c45737461746553616c653a20696e76616c69642070726963650000006044820152606490fd5b90816020910312611bcd57516001600160a01b0381168103611bcd5790565b3d1561226b573d9061225282611f76565b916122606040519384611f54565b82523d5f602084013e565b606090565b1561227757565b60405162461bcd60e51b8152602060048201526024808201527f5265616c45737461746553616c653a20657363726f7720726566756e642066616044820152631a5b195960e21b6064820152608490fd5b156122cf57565b60405162461bcd60e51b815260206004820152602760248201525f51602061237c5f395f51905f52604482015266329037bbb732b960c91b6064820152608490fd5b1561231857565b60405162461bcd60e51b815260206004820152601f60248201527f5265616c45737461746553616c653a20696e76616c69642061646472657373006044820152606490fd5b60025f541461236c5760025f55565b633ee5aeb560e01b5f5260045ffdfe5265616c45737461746553616c653a2063616c6c6572206973206e6f74207468a2646970667358221220ac595f0f028bdaad96c111aaefa407163205baa8592324c6bbe38e0292f3a25864736f6c634300081c0033","linkReferences":{}},"methodIdentifiers":{"approveSale(uint256)":"14a72feb","assignNotary(uint256)":"faa9c89c","authorizeNotary(address)":"a8ded25b","authorizedNotaries(address)":"eb96fe2b","cancelSale(uint256,string)":"856e50b5","completeSale(uint256)":"750225d0","configureRentableTokens(uint256,bool,uint256)":"eb2f6433","createSale(uint256,uint256,string)":"eb1fde32","depositEscrow(uint256)":"cb991efe","expressInterest(uint256)":"f796c724","feeCollector()":"c415b95c","getActiveSaleForProperty(uint256)":"61a3324b","getEscrowBalance(uint256)":"fce60903","getSale(uint256)":"d8f6d596","isAuthorizedNotary(address)":"41f6b6fa","owner()":"8da5cb5b","platformFeePercentage()":"cdd78cfc","propertyToActiveSale(uint256)":"2782dafb","propertyToken()":"43ae2695","removeNotary(address)":"86785a6f","rentableToken()":"12dc7434","saleCounter()":"0387b0a2","saleEscrow(uint256)":"8e5936f2","sales(uint256)":"b5f522f7","transferOwnership(address)":"f2fde38b","updateFeeCollector(address)":"d2c35ce8","updatePlatformFee(uint256)":"aa0b5988","updateSalePrice(uint256,uint256)":"4896672e"},"id":39}