{"abi":[{"type":"constructor","inputs":[{"name":"name_","type":"string","internalType":"string"},{"name":"symbol_","type":"string","internalType":"string"}],"stateMutability":"nonpayable"},{"type":"function","name":"addAdministrator","inputs":[{"name":"admin","type":"address","internalType":"address"}],"outputs":[],"stateMutability":"nonpayable"},{"type":"function","name":"administrators","inputs":[{"name":"","type":"address","internalType":"address"}],"outputs":[{"name":"","type":"bool","internalType":"bool"}],"stateMutability":"view"},{"type":"function","name":"approve","inputs":[{"name":"to","type":"address","internalType":"address"},{"name":"tokenId","type":"uint256","internalType":"uint256"}],"outputs":[],"stateMutability":"nonpayable"},{"type":"function","name":"balanceOf","inputs":[{"name":"account","type":"address","internalType":"address"}],"outputs":[{"name":"","type":"uint256","internalType":"uint256"}],"stateMutability":"view"},{"type":"function","name":"getAllTokenIds","inputs":[],"outputs":[{"name":"","type":"uint256[]","internalType":"uint256[]"}],"stateMutability":"view"},{"type":"function","name":"getApproved","inputs":[{"name":"tokenId","type":"uint256","internalType":"uint256"}],"outputs":[{"name":"","type":"address","internalType":"address"}],"stateMutability":"view"},{"type":"function","name":"getPropertyDetails","inputs":[{"name":"tokenId","type":"uint256","internalType":"uint256"}],"outputs":[{"name":"","type":"tuple","internalType":"struct RealEstateERC721.PropertyDetails","components":[{"name":"cadastralNumber","type":"string","internalType":"string"},{"name":"location","type":"string","internalType":"string"},{"name":"valuation","type":"uint256","internalType":"uint256"},{"name":"active","type":"bool","internalType":"bool"},{"name":"lastUpdated","type":"uint256","internalType":"uint256"},{"name":"metadataURI","type":"string","internalType":"string"}]}],"stateMutability":"view"},{"type":"function","name":"getTokenIdByCadastralNumber","inputs":[{"name":"_cadastralNumber","type":"string","internalType":"string"}],"outputs":[{"name":"","type":"uint256","internalType":"uint256"}],"stateMutability":"view"},{"type":"function","name":"isApprovedForAll","inputs":[{"name":"tokenOwner","type":"address","internalType":"address"},{"name":"operator","type":"address","internalType":"address"}],"outputs":[{"name":"","type":"bool","internalType":"bool"}],"stateMutability":"view"},{"type":"function","name":"mintProperty","inputs":[{"name":"to","type":"address","internalType":"address"},{"name":"_cadastralNumber","type":"string","internalType":"string"},{"name":"_location","type":"string","internalType":"string"},{"name":"_valuation","type":"uint256","internalType":"uint256"},{"name":"_metadataURI","type":"string","internalType":"string"}],"outputs":[{"name":"","type":"uint256","internalType":"uint256"}],"stateMutability":"nonpayable"},{"type":"function","name":"name","inputs":[],"outputs":[{"name":"","type":"string","internalType":"string"}],"stateMutability":"view"},{"type":"function","name":"owner","inputs":[],"outputs":[{"name":"","type":"address","internalType":"address"}],"stateMutability":"view"},{"type":"function","name":"ownerOf","inputs":[{"name":"tokenId","type":"uint256","internalType":"uint256"}],"outputs":[{"name":"","type":"address","internalType":"address"}],"stateMutability":"view"},{"type":"function","name":"propertyDetails","inputs":[{"name":"","type":"uint256","internalType":"uint256"}],"outputs":[{"name":"cadastralNumber","type":"string","internalType":"string"},{"name":"location","type":"string","internalType":"string"},{"name":"valuation","type":"uint256","internalType":"uint256"},{"name":"active","type":"bool","internalType":"bool"},{"name":"lastUpdated","type":"uint256","internalType":"uint256"},{"name":"metadataURI","type":"string","internalType":"string"}],"stateMutability":"view"},{"type":"function","name":"removeAdministrator","inputs":[{"name":"admin","type":"address","internalType":"address"}],"outputs":[],"stateMutability":"nonpayable"},{"type":"function","name":"safeTransferFrom","inputs":[{"name":"from","type":"address","internalType":"address"},{"name":"to","type":"address","internalType":"address"},{"name":"tokenId","type":"uint256","internalType":"uint256"}],"outputs":[],"stateMutability":"nonpayable"},{"type":"function","name":"safeTransferFrom","inputs":[{"name":"from","type":"address","internalType":"address"},{"name":"to","type":"address","internalType":"address"},{"name":"tokenId","type":"uint256","internalType":"uint256"},{"name":"data","type":"bytes","internalType":"bytes"}],"outputs":[],"stateMutability":"nonpayable"},{"type":"function","name":"setApprovalForAll","inputs":[{"name":"operator","type":"address","internalType":"address"},{"name":"approved","type":"bool","internalType":"bool"}],"outputs":[],"stateMutability":"nonpayable"},{"type":"function","name":"setPropertyMetadataURI","inputs":[{"name":"tokenId","type":"uint256","internalType":"uint256"},{"name":"metadataURI","type":"string","internalType":"string"}],"outputs":[],"stateMutability":"nonpayable"},{"type":"function","name":"setPropertyStatus","inputs":[{"name":"tokenId","type":"uint256","internalType":"uint256"},{"name":"active","type":"bool","internalType":"bool"}],"outputs":[],"stateMutability":"nonpayable"},{"type":"function","name":"symbol","inputs":[],"outputs":[{"name":"","type":"string","internalType":"string"}],"stateMutability":"view"},{"type":"function","name":"tokenURI","inputs":[{"name":"tokenId","type":"uint256","internalType":"uint256"}],"outputs":[{"name":"","type":"string","internalType":"string"}],"stateMutability":"view"},{"type":"function","name":"transferFrom","inputs":[{"name":"from","type":"address","internalType":"address"},{"name":"to","type":"address","internalType":"address"},{"name":"tokenId","type":"uint256","internalType":"uint256"}],"outputs":[],"stateMutability":"nonpayable"},{"type":"function","name":"transferOwnership","inputs":[{"name":"newOwner","type":"address","internalType":"address"}],"outputs":[],"stateMutability":"nonpayable"},{"type":"function","name":"updatePropertyLocation","inputs":[{"name":"tokenId","type":"uint256","internalType":"uint256"},{"name":"newLocation","type":"string","internalType":"string"}],"outputs":[],"stateMutability":"nonpayable"},{"type":"function","name":"updatePropertyValuation","inputs":[{"name":"tokenId","type":"uint256","internalType":"uint256"},{"name":"newValuation","type":"uint256","internalType":"uint256"}],"outputs":[],"stateMutability":"nonpayable"},{"type":"event","name":"AdministratorAdded","inputs":[{"name":"admin","type":"address","indexed":true,"internalType":"address"}],"anonymous":false},{"type":"event","name":"AdministratorRemoved","inputs":[{"name":"admin","type":"address","indexed":true,"internalType":"address"}],"anonymous":false},{"type":"event","name":"Approval","inputs":[{"name":"owner","type":"address","indexed":true,"internalType":"address"},{"name":"approved","type":"address","indexed":true,"internalType":"address"},{"name":"tokenId","type":"uint256","indexed":true,"internalType":"uint256"}],"anonymous":false},{"type":"event","name":"ApprovalForAll","inputs":[{"name":"owner","type":"address","indexed":true,"internalType":"address"},{"name":"operator","type":"address","indexed":true,"internalType":"address"},{"name":"approved","type":"bool","indexed":false,"internalType":"bool"}],"anonymous":false},{"type":"event","name":"PropertyMetadataUpdated","inputs":[{"name":"tokenId","type":"uint256","indexed":true,"internalType":"uint256"},{"name":"metadataURI","type":"string","indexed":false,"internalType":"string"}],"anonymous":false},{"type":"event","name":"PropertyMinted","inputs":[{"name":"tokenId","type":"uint256","indexed":true,"internalType":"uint256"},{"name":"cadastralNumber","type":"string","indexed":false,"internalType":"string"},{"name":"owner","type":"address","indexed":true,"internalType":"address"}],"anonymous":false},{"type":"event","name":"PropertyStatusChanged","inputs":[{"name":"tokenId","type":"uint256","indexed":true,"internalType":"uint256"},{"name":"active","type":"bool","indexed":false,"internalType":"bool"}],"anonymous":false},{"type":"event","name":"PropertyUpdated","inputs":[{"name":"tokenId","type":"uint256","indexed":true,"internalType":"uint256"},{"name":"field","type":"string","indexed":false,"internalType":"string"},{"name":"value","type":"uint256","indexed":false,"internalType":"uint256"}],"anonymous":false},{"type":"event","name":"Transfer","inputs":[{"name":"from","type":"address","indexed":true,"internalType":"address"},{"name":"to","type":"address","indexed":true,"internalType":"address"},{"name":"tokenId","type":"uint256","indexed":true,"internalType":"uint256"}],"anonymous":false}],"bytecode":{"object":"0x608060405234610333576129428038038061001981610337565b9283398101906040818303126103335780516001600160401b038111610333578261004591830161035c565b60208201519092906001600160401b03811161033357610065920161035c565b81516001600160401b038111610249575f54600181811c91168015610329575b602082101461022b57601f81116102c7575b50602092601f821160011461026857928192935f9261025d575b50508160011b915f199060031b1c1916175f555b80516001600160401b03811161024957600154600181811c9116801561023f575b602082101461022b57601f81116101c8575b50602091601f8211600114610168579181925f9261015d575b50508160011b915f199060031b1c1916176001555b3360018060a01b03196002541617600255335f52600360205260405f20600160ff1982541617905560405161259490816103ae8239f35b015190505f80610111565b601f1982169260015f52805f20915f5b8581106101b057508360019510610198575b505050811b01600155610126565b01515f1960f88460031b161c191690555f808061018a565b91926020600181928685015181550194019201610178565b60015f527fb10e2d527612073b26eecdfd717e6a320cf44b4afac2b0732d9fcbe2b7fa0cf6601f830160051c81019160208410610221575b601f0160051c01905b81811061021657506100f8565b5f8155600101610209565b9091508190610200565b634e487b7160e01b5f52602260045260245ffd5b90607f16906100e6565b634e487b7160e01b5f52604160045260245ffd5b015190505f806100b1565b601f198216935f8052805f20915f5b8681106102af5750836001959610610297575b505050811b015f556100c5565b01515f1960f88460031b161c191690555f808061028a565b91926020600181928685015181550194019201610277565b5f80527f290decd9548b62a8d60345a988386fc84ba6bc95484008f6362f93160ef3e563601f830160051c8101916020841061031f575b601f0160051c01905b8181106103145750610097565b5f8155600101610307565b90915081906102fe565b90607f1690610085565b5f80fd5b6040519190601f01601f191682016001600160401b0381118382101761024957604052565b81601f82011215610333578051906001600160401b0382116102495761038b601f8301601f1916602001610337565b928284526020838301011161033357815f9260208093018386015e830101529056fe60806040526004361015610011575f80fd5b5f3560e01c806306fdde03146101b4578063081812fc146101af578063095ea7b3146101aa578063126dbe43146101a557806323b872dd146101a0578063382061251461019b57806342842e0e146101965780635057ea5f1461019157806352b592191461018c5780636352211e1461018757806368fa81341461018257806370a082311461017d57806376be15851461017857806376e567941461017357806379879ca91461016e57806381db4147146101695780638da5cb5b1461016457806395d89b411461015f578063a22cb4651461015a578063b88d4fde14610155578063bb40d16814610150578063bdbed7221461014b578063c87b56dd14610146578063c999117614610141578063e985e9c51461013c5763f2fde38b14610137575f80fd5b61154e565b6114f2565b6113f5565b611392565b611312565b61112b565b6110cc565b610fe7565b610f42565b610f1a565b610e7b565b610cd1565b610c27565b610bea565b610b44565b610a36565b610a18565b61086a565b6107a2565b6106a7565b6105ca565b6105a1565b61048c565b610328565b6102cc565b6101f1565b805180835260209291819084018484015e5f828201840152601f01601f1916010190565b9060206101ee9281815201906101b9565b90565b346102c8575f3660031901126102c8576040515f5f5461021081610da5565b80845290600181169081156102a45750600114610248575b6102448361023881850382610704565b604051918291826101dd565b0390f35b5f8080527f290decd9548b62a8d60345a988386fc84ba6bc95484008f6362f93160ef3e563939250905b80821061028a57509091508101602001610238610228565b919260018160209254838588010152019101909291610272565b60ff191660208086019190915291151560051b840190910191506102389050610228565b5f80fd5b346102c85760203660031901126102c85760206102ea600435611613565b6040516001600160a01b039091168152f35b600435906001600160a01b03821682036102c857565b602435906001600160a01b03821682036102c857565b346102c85760403660031901126102c8576103416102fc565b60243561034d81611d48565b916001600160a01b0380841690821681146103c55761037f9361037a913314908115610381575b506116ad565b611fca565b005b6001600160a01b03165f9081526008602052604090206103bf91506103b89033905b9060018060a01b03165f5260205260405f2090565b5460ff1690565b5f610374565b60405162461bcd60e51b815260206004820152602b60248201527f5265616c4573746174654552433732313a20617070726f76616c20746f20637560448201526a393932b73a1037bbb732b960a91b6064820152608490fd5b906101ee916020815260a0610458610442845160c0602086015260e08501906101b9565b6020850151848203601f190160408601526101b9565b926040810151606084015260608101511515608084015260808101518284015201519060c0601f19828503019101526101b9565b346102c85760203660031901126102c857600435606060a06040516104b0816106e4565b8281528260208201525f60408201525f838201525f608082015201526104f16104ec825f52600560205260018060a01b0360405f205416151590565b611712565b5f52600960205261024460405f20610556600560405192610511846106e4565b61051a81610ddd565b845261052860018201610ddd565b60208501526002810154604085015260ff600382015416151560608501526004810154608085015201610ddd565b60a08201526040519182918261041e565b60609060031901126102c8576004356001600160a01b03811681036102c857906024356001600160a01b03811681036102c8579060443590565b346102c85761037f6105b236610567565b916105c56105c08433612034565b61176d565b6121a0565b346102c85760403660031901126102c8576004357fc7d6594ab03628ef3f6852d4225a8d2b1461544207142d9c0fba9747a789ade560806024356002546001600160a01b03163314801561068f575b610622906117df565b5f84815260056020526040902054610644906001600160a01b03161515611712565b835f52600960205280600260405f200155835f52600960205242600460405f200155604051906040825260096040830152683b30b63ab0ba34b7b760b91b60608301526020820152a2005b50335f9081526003602052604090205460ff16610619565b346102c85761037f6106b836610567565b90604051926106c8602085610704565b5f8452611e81565b634e487b7160e01b5f52604160045260245ffd5b60c081019081106001600160401b038211176106ff57604052565b6106d0565b90601f801991011681019081106001600160401b038211176106ff57604052565b6040519061073460c083610704565b565b6001600160401b0381116106ff57601f01601f191660200190565b92919261075d82610736565b9161076b6040519384610704565b8294818452818301116102c8578281602093845f960137010152565b9080601f830112156102c8578160206101ee93359101610751565b346102c85760a03660031901126102c8576107bb6102fc565b6024356001600160401b0381116102c8576107da903690600401610787565b906044356001600160401b0381116102c8576107fa903690600401610787565b90606435608435926001600160401b0384116102c8576102449461082561082b953690600401610787565b93611844565b6040519081529081906020820190565b9060406003198301126102c85760043591602435906001600160401b0382116102c8576101ee91600401610787565b346102c8576108783661083b565b9060018060a01b036002541633148015610a00575b610896906117df565b5f818152600560205260409020546108b8906001600160a01b03161515611712565b805f526009602052600160405f200182516001600160401b0381116106ff576108eb816108e58454610da5565b84611ab7565b6020601f821160011461099857819061091b9394955f9261098d575b50508160011b915f199060031b1c19161790565b90555b426004610933835f52600960205260405f2090565b01557fc7d6594ab03628ef3f6852d4225a8d2b1461544207142d9c0fba9747a789ade560405180610988428291906040835260086040840152673637b1b0ba34b7b760c11b6060840152602060808401930152565b0390a2005b015190505f80610907565b601f198216906109ab845f5260205f2090565b915f5b8181106109e8575095836001959697106109d0575b505050811b01905561091e565b01515f1960f88460031b161c191690555f80806109c3565b9192602060018192868b0151815501940192016109ae565b50335f9081526003602052604090205460ff1661088d565b346102c85760203660031901126102c85760206102ea600435611d48565b346102c85760203660031901126102c857610a4f6102fc565b60025490610a67336001600160a01b03841614611dc9565b6001600160a01b0381165f8181526003602052604090205490929060ff1615610af057610aca91610ac091610aa7906001600160a01b0316851415611e27565b6001600160a01b03165f90815260036020526040902090565b805460ff19169055565b7fd5c9a61a4ab4b84f78da506149b7b0d376843283a81eee2dbdc9a55f988ab6435f80a2005b60405162461bcd60e51b815260206004820152602660248201527f5265616c4573746174654552433732313a206e6f7420616e2061646d696e69736044820152653a3930ba37b960d11b6064820152608490fd5b346102c85760203660031901126102c8576001600160a01b03610b656102fc565b168015610b8c575f52600660205261024460405f2054604051918291829190602083019252565b60405162461bcd60e51b815260206004820152603060248201527f5265616c4573746174654552433732313a2062616c616e63652071756572792060448201526f666f72207a65726f206164647265737360801b6064820152608490fd5b346102c85760203660031901126102c8576001600160a01b03610c0b6102fc565b165f526003602052602060ff60405f2054166040519015158152f35b346102c85760203660031901126102c8576004356001600160401b0381116102c857610c5a610c5f913690600401610787565b611a10565b548015610c7157604051908152602090f35b60405162461bcd60e51b8152602060048201526024808201527f5265616c4573746174654552433732313a2070726f7065727479206e6f7420666044820152631bdd5b9960e21b6064820152608490fd5b6024359081151582036102c857565b346102c85760403660031901126102c8576004357f4913279a14e045717d5dc101f12736a9f31ea76548d0c3c8283cf449706d9c646020610d10610cc2565b6002546001600160a01b031633148015610d8e575b610d2e906117df565b5f84815260056020526040902054610d50906001600160a01b03161515611712565b835f5260098252610d7381600360405f20019060ff801983541691151516179055565b835f526009825242600460405f2001556040519015158152a2005b50335f90815260038352604090205460ff16610d25565b90600182811c92168015610dd3575b6020831014610dbf57565b634e487b7160e01b5f52602260045260245ffd5b91607f1691610db4565b9060405191825f825492610df084610da5565b8084529360018116908115610e595750600114610e15575b5061073492500383610704565b90505f9291925260205f20905f915b818310610e3d575050906020610734928201015f610e08565b6020919350806001915483858901015201910190918492610e24565b90506020925061073494915060ff191682840152151560051b8201015f610e08565b346102c85760203660031901126102c8576004355f526009602052610eed60405f20610244610ea982610ddd565b91610eb660018201610ddd565b60028201549160ff600382015416610efb610ed8600560048501549401610ddd565b9360405198899860c08a5260c08a01906101b9565b9088820360208a01526101b9565b93604087015215156060860152608085015283820360a08501526101b9565b346102c8575f3660031901126102c8576002546040516001600160a01b039091168152602090f35b346102c8575f3660031901126102c8576040515f600154610f6281610da5565b80845290600181169081156102a45750600114610f89576102448361023881850382610704565b60015f9081527fb10e2d527612073b26eecdfd717e6a320cf44b4afac2b0732d9fcbe2b7fa0cf6939250905b808210610fcd57509091508101602001610238610228565b919260018160209254838588010152019101909291610fb5565b346102c85760403660031901126102c8576110006102fc565b611008610cc2565b6001600160a01b0382169133831461107b57335f90815260086020526040902061104991839161103891906103a3565b9060ff801983541691151516179055565b604051901515815233907f17307eab39ab6107e8899845ad3d59bd9653f200f220920489ca2b5937696c3190602090a3005b60405162461bcd60e51b815260206004820152602360248201527f5265616c4573746174654552433732313a20617070726f766520746f2063616c6044820152623632b960e91b6064820152608490fd5b346102c85760803660031901126102c8576110e56102fc565b6110ed610312565b90604435606435926001600160401b0384116102c857366023850112156102c85761112561037f943690602481600401359101610751565b92611e81565b346102c8576111393661083b565b9060018060a01b0360025416331480156112c1575b611157906117df565b5f81815260056020526040902054611179906001600160a01b03161515611712565b805f526009602052600560405f2001918051926001600160401b0384116106ff576111ae846111a88354610da5565b83611ab7565b602093601f811160011461123457906112038261098894937fadf717693da3dcba2a1307f4398706220f44f15b75640a26b917bf347515583596975f91611229575b508160011b915f199060031b1c19161790565b90555b42600461121b865f52600960205260405f2090565b0155604051918291826101dd565b90508401515f6111f0565b601f198116611246835f5260205f2090565b905f5b8181106112a95750916001917fadf717693da3dcba2a1307f4398706220f44f15b75640a26b917bf347515583596978261098897969510611291575b5050811b019055611206565b8501515f1960f88460031b161c191690555f80611285565b85880151835560209788019760019093019201611249565b50335f9081526003602052604090205460ff1661114e565b60206040818301928281528451809452019201905f5b8181106112fc5750505090565b82518452602093840193909201916001016112ef565b346102c8575f3660031901126102c857604051806020600b54918281520190600b5f527f0175b7a638427703f0dbe7bb9bbf987a2551717b34e79f33b5b1008d1fa01db9905f5b81811061137c576102448561137081870382610704565b604051918291826112d9565b8254845260209093019260019283019201611359565b346102c85760203660031901126102c8576004355f818152600560205260409020546113c8906001600160a01b03161515611712565b5f5260096020526102446113e1600560405f2001610ddd565b6040519182916020835260208301906101b9565b346102c85760203660031901126102c85761140e6102fc565b61142360018060a01b03600254163314611dc9565b6001600160a01b03811690611439821515611f2b565b815f52600360205260ff60405f20541661149a576001600160a01b03165f90815260036020526040902061147490805460ff19166001179055565b7fe78a1675a4b4d68d04fc70b93f9c37c5288e084d9b02d718103f7ad5e292b6885f80a2005b60405162461bcd60e51b815260206004820152602a60248201527f5265616c4573746174654552433732313a20616c726561647920616e2061646d60448201526934b734b9ba3930ba37b960b11b6064820152608490fd5b346102c85760403660031901126102c857602060ff6115426115126102fc565b61151a610312565b6001600160a01b039182165f9081526008865260408082209290931681526020919091522090565b54166040519015158152f35b346102c85760203660031901126102c85761037f61156a6102fc565b61157f60018060a01b03600254163314611dc9565b6001600160a01b038116611594811515611f2b565b805f52600360205260ff60405f205416156115cd575b5060018060a01b03166bffffffffffffffffffffffff60a01b6002541617600255565b805f5260036020526115e960405f20600160ff19825416179055565b7fe78a1675a4b4d68d04fc70b93f9c37c5288e084d9b02d718103f7ad5e292b6885f80a25f6115aa565b5f818152600560205260409020546001600160a01b031615611649575f908152600760205260409020546001600160a01b031690565b60405162461bcd60e51b815260206004820152603660248201527f5265616c4573746174654552433732313a20617070726f766564207175657279604482015275103337b9103737b732bc34b9ba32b73a103a37b5b2b760511b6064820152608490fd5b156116b457565b60405162461bcd60e51b815260206004820152603060248201527f5265616c4573746174654552433732313a206e6f74206f776e6572206f72206160448201526f38383937bb32b21037b832b930ba37b960811b6064820152608490fd5b1561171957565b60405162461bcd60e51b815260206004820152602660248201527f5265616c4573746174654552433732313a20746f6b656e20646f6573206e6f7460448201526508195e1a5cdd60d21b6064820152608490fd5b1561177457565b60405162461bcd60e51b815260206004820152603a60248201527f5265616c4573746174654552433732313a207472616e736665722063616c6c6560448201527f72206973206e6f74206f776e6572206f7220617070726f7665640000000000006064820152608490fd5b156117e657565b60405162461bcd60e51b815260206004820152603060248201527f5265616c4573746174654552433732313a2063616c6c6572206973206e6f742060448201526f30b71030b236b4b734b9ba3930ba37b960811b6064820152608490fd5b917fd7aef3579c13480da55b8f8a0f1d863890a61c8b3cfd308c1f04705a3cdbcaaa9161192661193a926118e19760018060a01b036002541633148015611940575b61188f906117df565b6001600160a01b038716976118a5891515611958565b6118b1855115156119b3565b6118c46118bd86611a10565b5415611a2f565b6118cf600454611aa4565b998a80996118dc82600455565b6122e9565b6118e9610725565b92858452602084015260408301526119046060830160019052565b42608083015260a0820152611921865f52600960205260405f2090565b611bbf565b8361193082611a10565b5561023884611ce8565b0390a390565b50335f9081526003602052604090205460ff16611886565b1561195f57565b60405162461bcd60e51b815260206004820152602660248201527f5265616c4573746174654552433732313a206d696e7420746f207a65726f206160448201526564647265737360d01b6064820152608490fd5b156119ba57565b60405162461bcd60e51b815260206004820152602860248201527f5265616c4573746174654552433732313a20656d7074792063616461737472616044820152673610373ab6b132b960c11b6064820152608490fd5b60208091604051928184925191829101835e8101600a81520301902090565b15611a3657565b60405162461bcd60e51b815260206004820152602c60248201527f5265616c4573746174654552433732313a2070726f706572747920616c72656160448201526b191e481d1bdad95b9a5e995960a21b6064820152608490fd5b634e487b7160e01b5f52601160045260245ffd5b5f198114611ab25760010190565b611a90565b601f8211611ac457505050565b5f5260205f20906020601f840160051c83019310611afc575b601f0160051c01905b818110611af1575050565b5f8155600101611ae6565b9091508190611add565b91909182516001600160401b0381116106ff57611b27816108e58454610da5565b6020601f8211600114611b5a578190611b569394955f9261098d5750508160011b915f199060031b1c19161790565b9055565b601f19821690611b6d845f5260205f2090565b915f5b818110611ba757509583600195969710611b8f575b505050811b019055565b01515f1960f88460031b161c191690555f8080611b85565b9192602060018192868b015181550194019201611b70565b91909182519283516001600160401b0381116106ff57611be981611be38554610da5565b85611ab7565b6020601f8211600114611c765791611c208260a09360059561073498995f9261098d5750508160011b915f199060031b1c19161790565b84555b611c34602082015160018601611b06565b60408101516002850155611c63611c4e6060830151151590565b600386019060ff801983541691151516179055565b6080810151600485015501519101611b06565b601f19821695611c89855f5260205f2090565b965f5b818110611cd05750926107349697600595936001938360a09710611cb8575b505050811b018455611c23565b01515f1960f88460031b161c191690555f8080611cab565b83830151895560019098019760209384019301611c8c565b600b54680100000000000000008110156106ff576001810180600b55811015611d3457600b5f527f0175b7a638427703f0dbe7bb9bbf987a2551717b34e79f33b5b1008d1fa01db90155565b634e487b7160e01b5f52603260045260245ffd5b5f908152600560205260409020546001600160a01b03168015611d685790565b60405162461bcd60e51b815260206004820152603360248201527f5265616c4573746174654552433732313a206f776e657220717565727920666f60448201527239103737b732bc34b9ba32b73a103a37b5b2b760691b6064820152608490fd5b15611dd057565b60405162461bcd60e51b815260206004820152602960248201527f5265616c4573746174654552433732313a2063616c6c6572206973206e6f74206044820152683a34329037bbb732b960b91b6064820152608490fd5b15611e2e57565b60405162461bcd60e51b815260206004820152602560248201527f5265616c4573746174654552433732313a2063616e6e6f742072656d6f76652060448201526437bbb732b960d91b6064820152608490fd5b929190611e916105c08333612034565b611e9c8282866121a0565b803b611ea9575b50505050565b611eb29361244f565b15611ec0575f808080611ea3565b60405162461bcd60e51b815260206004820152603c60248201527f5265616c4573746174654552433732313a207472616e7366657220746f206e6f60448201527f6e20455243373231526563656976657220696d706c656d656e746572000000006064820152608490fd5b15611f3257565b60405162461bcd60e51b815260206004820152601e60248201527f5265616c4573746174654552433732313a207a65726f206164647265737300006044820152606490fd5b5f81815260076020526040812080546001600160a01b03191690556001600160a01b03611fa383611d48565b167f8c5be1e5ebec7d5bd14f71427d1e84f3dd0314c0f7b2291e5b200ac8c7c3b9258280a4565b5f82815260076020526040902080546001600160a01b0319166001600160a01b0383161790556001600160a01b0361200183611d48565b6001600160a01b0390921691167f8c5be1e5ebec7d5bd14f71427d1e84f3dd0314c0f7b2291e5b200ac8c7c3b9255f80a4565b5f828152600560205260409020546001600160a01b0316156120c15761205982611d48565b6001600160a01b0382811690821681149384156120a3575b5050821561207e57505090565b6001600160a01b03165f9081526008602052604090206101ee92506103b891906103a3565b6120af91929450611613565b6001600160a01b031614915f80612071565b60405162461bcd60e51b815260206004820152603660248201527f5265616c4573746174654552433732313a206f70657261746f72207175657279604482015275103337b9103737b732bc34b9ba32b73a103a37b5b2b760511b6064820152608490fd5b1561212c57565b60405162461bcd60e51b815260206004820152602a60248201527f5265616c4573746174654552433732313a207472616e7366657220746f207a65604482015269726f206164647265737360b01b6064820152608490fd5b5f19810191908211611ab257565b9060018201809211611ab257565b906121aa83611d48565b6001600160a01b03838116929116829003612286576001600160a01b038116926122609190612200906121de861515612125565b6121e787611f77565b6001600160a01b03165f90815260066020526040902090565b61220a8154612184565b90556001600160a01b0381165f90815260066020526040902061222d8154612192565b9055612241855f52600560205260405f2090565b80546001600160a01b0319166001600160a01b03909216919091179055565b7fddf252ad1be2c89b69c2b068fc378daa952ba7f163c4a11628f55a4df523b3ef5f80a4565b60405162461bcd60e51b815260206004820152603560248201527f5265616c4573746174654552433732313a207472616e73666572206f6620746f6044820152741ad95b881d1a185d081a5cc81b9bdd081bdddb9959605a1b6064820152608490fd5b6001600160a01b038116906122ff821515611958565b5f838152600560205260409020546001600160a01b031661237b576001600160a01b0381165f90815260066020526040902061235491906123408154612192565b9055612241845f52600560205260405f2090565b5f7fddf252ad1be2c89b69c2b068fc378daa952ba7f163c4a11628f55a4df523b3ef8180a4565b60405162461bcd60e51b815260206004820152602660248201527f5265616c4573746174654552433732313a20746f6b656e20616c7265616479206044820152651b5a5b9d195960d21b6064820152608490fd5b908160209103126102c857516001600160e01b0319811681036102c85790565b6001600160a01b0391821681529116602082015260408101919091526080606082018190526101ee929101906101b9565b3d1561244a573d9061243182610736565b9161243f6040519384610704565b82523d5f602084013e565b606090565b919290803b156125555761247f935f60209460405196879586948593630a85bd0160e11b855233600486016123ef565b03926001600160a01b03165af15f9181612524575b5061250e576124a1612420565b805190816125095760405162461bcd60e51b815260206004820152603260248201527f4552433732313a207472616e7366657220746f206e6f6e20455243373231526560448201527131b2b4bb32b91034b6b83632b6b2b73a32b960711b6064820152608490fd5b602001fd5b6001600160e01b031916630a85bd0160e11b1490565b61254791925060203d60201161254e575b61253f8183610704565b8101906123cf565b905f612494565b503d612535565b5050505060019056fea2646970667358221220bfe17960736d0f0cb9adc4dc626f98a7b0f9b9b4c6a061fe0a9e723f065518d264736f6c634300081c0033","linkReferences":{}},"methodIdentifiers":{"addAdministrator(address)":"c9991176","administrators(address)":"76be1585","approve(address,uint256)":"095ea7b3","balanceOf(address)":"70a08231","getAllTokenIds()":"bdbed722","getApproved(uint256)":"081812fc","getPropertyDetails(uint256)":"126dbe43","getTokenIdByCadastralNumber(string)":"76e56794","isApprovedForAll(address,address)":"e985e9c5","mintProperty(address,string,string,uint256,string)":"5057ea5f","name()":"06fdde03","owner()":"8da5cb5b","ownerOf(uint256)":"6352211e","propertyDetails(uint256)":"81db4147","removeAdministrator(address)":"68fa8134","safeTransferFrom(address,address,uint256)":"42842e0e","safeTransferFrom(address,address,uint256,bytes)":"b88d4fde","setApprovalForAll(address,bool)":"a22cb465","setPropertyMetadataURI(uint256,string)":"bb40d168","setPropertyStatus(uint256,bool)":"79879ca9","symbol()":"95d89b41","tokenURI(uint256)":"c87b56dd","transferFrom(address,address,uint256)":"23b872dd","transferOwnership(address)":"f2fde38b","updatePropertyLocation(uint256,string)":"52b59219","updatePropertyValuation(uint256,uint256)":"38206125"},"id":38}