{"abi":[{"type":"constructor","inputs":[{"name":"propertyTokenAddress","type":"address","internalType":"address"},{"name":"saleContractAddress","type":"address","internalType":"address"},{"name":"rentableTokenAddress","type":"address","internalType":"address"},{"name":"lendingProtocolAddress","type":"address","internalType":"address"},{"name":"rentalAgreementAddress","type":"address","internalType":"address"}],"stateMutability":"nonpayable"},{"type":"function","name":"DEFAULT_ADMIN_ROLE","inputs":[],"outputs":[{"name":"","type":"bytes32","internalType":"bytes32"}],"stateMutability":"view"},{"type":"function","name":"OPERATOR_ROLE","inputs":[],"outputs":[{"name":"","type":"bytes32","internalType":"bytes32"}],"stateMutability":"view"},{"type":"function","name":"getAllListedProperties","inputs":[],"outputs":[{"name":"","type":"uint256[]","internalType":"uint256[]"}],"stateMutability":"view"},{"type":"function","name":"getListing","inputs":[{"name":"propertyId","type":"uint256","internalType":"uint256"}],"outputs":[{"name":"","type":"tuple","internalType":"struct MarketplaceOrchestrator.PropertyListing","components":[{"name":"propertyId","type":"uint256","internalType":"uint256"},{"name":"owner","type":"address","internalType":"address"},{"name":"forSale","type":"bool","internalType":"bool"},{"name":"forRent","type":"bool","internalType":"bool"},{"name":"salePrice","type":"uint256","internalType":"uint256"},{"name":"monthlyRent","type":"uint256","internalType":"uint256"},{"name":"listedAt","type":"uint256","internalType":"uint256"}]}],"stateMutability":"view"},{"type":"function","name":"getPropertiesForRent","inputs":[],"outputs":[{"name":"","type":"uint256[]","internalType":"uint256[]"}],"stateMutability":"view"},{"type":"function","name":"getPropertiesForSale","inputs":[],"outputs":[{"name":"","type":"uint256[]","internalType":"uint256[]"}],"stateMutability":"view"},{"type":"function","name":"getRoleAdmin","inputs":[{"name":"role","type":"bytes32","internalType":"bytes32"}],"outputs":[{"name":"","type":"bytes32","internalType":"bytes32"}],"stateMutability":"view"},{"type":"function","name":"grantRole","inputs":[{"name":"role","type":"bytes32","internalType":"bytes32"},{"name":"account","type":"address","internalType":"address"}],"outputs":[],"stateMutability":"nonpayable"},{"type":"function","name":"hasRole","inputs":[{"name":"role","type":"bytes32","internalType":"bytes32"},{"name":"account","type":"address","internalType":"address"}],"outputs":[{"name":"","type":"bool","internalType":"bool"}],"stateMutability":"view"},{"type":"function","name":"initiateRentalFromListing","inputs":[{"name":"propertyId","type":"uint256","internalType":"uint256"},{"name":"tenant","type":"address","internalType":"address"},{"name":"securityDeposit","type":"uint256","internalType":"uint256"},{"name":"durationMonths","type":"uint256","internalType":"uint256"},{"name":"agreementURI","type":"string","internalType":"string"}],"outputs":[{"name":"","type":"uint256","internalType":"uint256"}],"stateMutability":"payable"},{"type":"function","name":"initiateSaleFromListing","inputs":[{"name":"propertyId","type":"uint256","internalType":"uint256"},{"name":"saleDocumentURI","type":"string","internalType":"string"}],"outputs":[{"name":"","type":"uint256","internalType":"uint256"}],"stateMutability":"nonpayable"},{"type":"function","name":"lendingProtocol","inputs":[],"outputs":[{"name":"","type":"address","internalType":"contract LendingProtocol"}],"stateMutability":"view"},{"type":"function","name":"listProperty","inputs":[{"name":"propertyId","type":"uint256","internalType":"uint256"},{"name":"forSale","type":"bool","internalType":"bool"},{"name":"forRent","type":"bool","internalType":"bool"},{"name":"salePrice","type":"uint256","internalType":"uint256"},{"name":"monthlyRent","type":"uint256","internalType":"uint256"}],"outputs":[],"stateMutability":"nonpayable"},{"type":"function","name":"propertyToken","inputs":[],"outputs":[{"name":"","type":"address","internalType":"contract RealEstateERC721"}],"stateMutability":"view"},{"type":"function","name":"renounceRole","inputs":[{"name":"role","type":"bytes32","internalType":"bytes32"},{"name":"callerConfirmation","type":"address","internalType":"address"}],"outputs":[],"stateMutability":"nonpayable"},{"type":"function","name":"rentableToken","inputs":[],"outputs":[{"name":"","type":"address","internalType":"contract RentableToken"}],"stateMutability":"view"},{"type":"function","name":"rentalAgreement","inputs":[],"outputs":[{"name":"","type":"address","internalType":"contract RentalAgreement"}],"stateMutability":"view"},{"type":"function","name":"revokeRole","inputs":[{"name":"role","type":"bytes32","internalType":"bytes32"},{"name":"account","type":"address","internalType":"address"}],"outputs":[],"stateMutability":"nonpayable"},{"type":"function","name":"saleContract","inputs":[],"outputs":[{"name":"","type":"address","internalType":"contract RealEstateSale"}],"stateMutability":"view"},{"type":"function","name":"supportsInterface","inputs":[{"name":"interfaceId","type":"bytes4","internalType":"bytes4"}],"outputs":[{"name":"","type":"bool","internalType":"bool"}],"stateMutability":"view"},{"type":"function","name":"unlistProperty","inputs":[{"name":"propertyId","type":"uint256","internalType":"uint256"}],"outputs":[],"stateMutability":"nonpayable"},{"type":"function","name":"updateListing","inputs":[{"name":"propertyId","type":"uint256","internalType":"uint256"},{"name":"forSale","type":"bool","internalType":"bool"},{"name":"forRent","type":"bool","internalType":"bool"},{"name":"salePrice","type":"uint256","internalType":"uint256"},{"name":"monthlyRent","type":"uint256","internalType":"uint256"}],"outputs":[],"stateMutability":"nonpayable"},{"type":"event","name":"ListingUpdated","inputs":[{"name":"propertyId","type":"uint256","indexed":true,"internalType":"uint256"},{"name":"forSale","type":"bool","indexed":false,"internalType":"bool"},{"name":"forRent","type":"bool","indexed":false,"internalType":"bool"},{"name":"salePrice","type":"uint256","indexed":false,"internalType":"uint256"},{"name":"monthlyRent","type":"uint256","indexed":false,"internalType":"uint256"}],"anonymous":false},{"type":"event","name":"PropertyListed","inputs":[{"name":"propertyId","type":"uint256","indexed":true,"internalType":"uint256"},{"name":"forSale","type":"bool","indexed":false,"internalType":"bool"},{"name":"forRent","type":"bool","indexed":false,"internalType":"bool"},{"name":"salePrice","type":"uint256","indexed":false,"internalType":"uint256"},{"name":"monthlyRent","type":"uint256","indexed":false,"internalType":"uint256"}],"anonymous":false},{"type":"event","name":"PropertyUnlisted","inputs":[{"name":"propertyId","type":"uint256","indexed":true,"internalType":"uint256"}],"anonymous":false},{"type":"event","name":"RoleAdminChanged","inputs":[{"name":"role","type":"bytes32","indexed":true,"internalType":"bytes32"},{"name":"previousAdminRole","type":"bytes32","indexed":true,"internalType":"bytes32"},{"name":"newAdminRole","type":"bytes32","indexed":true,"internalType":"bytes32"}],"anonymous":false},{"type":"event","name":"RoleGranted","inputs":[{"name":"role","type":"bytes32","indexed":true,"internalType":"bytes32"},{"name":"account","type":"address","indexed":true,"internalType":"address"},{"name":"sender","type":"address","indexed":true,"internalType":"address"}],"anonymous":false},{"type":"event","name":"RoleRevoked","inputs":[{"name":"role","type":"bytes32","indexed":true,"internalType":"bytes32"},{"name":"account","type":"address","indexed":true,"internalType":"address"},{"name":"sender","type":"address","indexed":true,"internalType":"address"}],"anonymous":false},{"type":"error","name":"AccessControlBadConfirmation","inputs":[]},{"type":"error","name":"AccessControlUnauthorizedAccount","inputs":[{"name":"account","type":"address","internalType":"address"},{"name":"neededRole","type":"bytes32","internalType":"bytes32"}]}],"bytecode":{"object":"0x6080346100fa57601f61185e38819003918201601f19168301916001600160401b038311848410176100fe5780849260a0946040528339810103126100fa5761004781610112565b9061005460208201610112565b61006060408301610112565b90610079608061007260608601610112565b9401610112565b600180546001600160a01b03199081166001600160a01b03978816179091556002805482169387169390931790925560038054831693861693909317909255600480548216938516939093179092556005805490921692169190911790556100e033610126565b506100ea3361019c565b506040516115ce90816102308239f35b5f80fd5b634e487b7160e01b5f52604160045260245ffd5b51906001600160a01b03821682036100fa57565b6001600160a01b0381165f9081525f51602061183e5f395f51905f52602052604090205460ff16610197576001600160a01b03165f8181525f51602061183e5f395f51905f5260205260408120805460ff191660011790553391905f5160206117fe5f395f51905f528180a4600190565b505f90565b6001600160a01b0381165f9081525f51602061181e5f395f51905f52602052604090205460ff16610197576001600160a01b03165f8181525f51602061181e5f395f51905f5260205260408120805460ff191660011790553391907f97667070c54ef182b0f5858b034beac1b6f3089aa2d3188bb1e8929f4fa9b929905f5160206117fe5f395f51905f529080a460019056fe6080806040526004361015610012575f80fd5b5f3560e01c90816301ffc9a714610eef575080630910fefa14610cb0578063107a274a14610bba57806312dc743414610b92578063248a9ca314610b685780632f2ff15d14610b2b57806336568abe14610ae75780633d0ffcf614610abf57806343ae269514610a97578063480777b1146109c75780637ad10442146108e05780637bea0490146106bd578063841ad8b9146106a157806384436d3e146106795780638dff9eca1461056857806391d1485414610520578063a1e2305f1461049c578063a217fddf14610482578063d547741f1461043e578063daf6ca3014610416578063f5b541a6146103dc5763f63e6b431461010e575f80fd5b346103d85761011c36611025565b92906024602060018060a01b0360015416604051928380926331a9108f60e11b82528a60048301525afa9081156103cd575f9161039e575b50336001600160a01b039091160361035a57811583838083610353575b61017a90611348565b610343575b610333575b855f526006602052600460405f200154156102ae575b936102a9917fe74b057e72ba36f8ca0d2134edde10e9aeeecec7f8da7e42405af1b42e652c5195600488604051926101d184610f58565b818452336020808601918252911560408087019182528b1515606088019081526080880189815260a0808a018c81524260c08c019081525f998a5260069098529390972098518955935160018901805494516001600160a81b03199095166001600160a01b03929092169190911793151590961b60ff60a01b1692909217855592936102729151815460ff60a81b191690151560a81b60ff60a81b16179055565b5160028501555160038401555191015560405194859485909493926060926080830196151583521515602083015260408201520152565b0390a2005b93600754916801000000000000000083101561031f577fe74b057e72ba36f8ca0d2134edde10e9aeeecec7f8da7e42405af1b42e652c5195610315886102fd8660016102a9980160075561113b565b90919082549060031b91821b915f19901b1916179055565b919550915061019a565b634e487b7160e01b5f52604160045260245ffd5b61033e8515156113fd565b610184565b61034e8315156113a5565b61017f565b5081610171565b606460405162461bcd60e51b815260206004820152602060248201527f43616c6c6572206973206e6f74207468652070726f7065727479206f776e65726044820152fd5b6103c0915060203d6020116103c6575b6103b88183610f74565b81019061109e565b5f610154565b503d6103ae565b6040513d5f823e3d90fd5b5f80fd5b346103d8575f3660031901126103d85760206040517f97667070c54ef182b0f5858b034beac1b6f3089aa2d3188bb1e8929f4fa9b9298152f35b346103d8575f3660031901126103d8576002546040516001600160a01b039091168152602090f35b346103d85760403660031901126103d85761048060043561045d610f42565b9061047b610476825f525f602052600160405f20015490565b611458565b611518565b005b346103d8575f3660031901126103d85760206040515f8152f35b346103d8575f3660031901126103d85760405180602060075491828152019060075f527fa66cc928b5edb82af9bd49922954155ab7b0942694bea4ce44661d9a8736c688905f5b81811061050a57610506856104fa81870382610f74565b60405191829182610fec565b0390f35b82548452602090930192600192830192016104e3565b346103d85760403660031901126103d857610539610f42565b6004355f525f60205260405f209060018060a01b03165f52602052602060ff60405f2054166040519015158152f35b346103d8576102a97f3e62a676db02a4e2ab9982bb83d07ed3d56a727664801eb1e03f77521dde9a9d61059a36611025565b90845f9793959752600660205281600360405f206105bd60048201541515611059565b61062388600183016105d960018060a01b0382541633146111e7565b818a808115610672575b6105ec90611348565b610662575b610652575b80548a151560a01b60ff60a01b1661ffff60a01b199091161791151560a81b60ff60a81b16919091179055565b836002820155015560405194859485909493926060926080830196151583521515602083015260408201520152565b61065d8615156113fd565b6105f6565b61066d8815156113a5565b6105f1565b50816105e3565b346103d8575f3660031901126103d8576004546040516001600160a01b039091168152602090f35b346103d85760203660031901126103d857610480600435611233565b346103d85760403660031901126103d85760043560243567ffffffffffffffff81116103d8576106f1903690600401610f96565b815f52600660205260405f209161070d60048401541515611059565b6001830192835460ff8160a01c161561089b576001546040516331a9108f60e11b8152600481018590529490602090869060249082906001600160a01b03165afa9485156103cd576107bb9560209361077b925f9261087c575b506001600160a01b039182169116146110bd565b60018060a01b036002541660028401545f60405180988195829463758fef1960e11b84528a60048501526024840152606060448401526064830190611117565b03925af19283156103cd575f93610845575b50835460ff60a01b19811690945560209360a81c60ff16159081156107ff5750506107f790611233565b604051908152f35b7f3e62a676db02a4e2ab9982bb83d07ed3d56a727664801eb1e03f77521dde9a9d9160036080920154604051915f835215878301525f60408301526060820152a26107f7565b9392506020843d602011610874575b8161086160209383610f74565b810103126103d8579251919260ff6107cd565b3d9150610854565b610894919250853d87116103c6576103b88183610f74565b9089610767565b60405162461bcd60e51b815260206004820152601860248201527f50726f7065727479206973206e6f7420666f722073616c6500000000000000006044820152606490fd5b346103d8575f3660031901126103d8576007545f805b8281106109815750610907906111a1565b905f5f5b82811061092057604051806105068682610fec565b6109298161113b565b90549060031b1c5f52600660205260ff600160405f20015460a81c16610952575b60010161090b565b906109796001916109628461113b565b90549060031b1c61097382886111d3565b52611167565b91905061094a565b61098a8161113b565b90549060031b1c5f52600660205260ff600160405f20015460a81c166109b3575b6001016108f6565b906109bf600191611167565b9190506109ab565b346103d8575f3660031901126103d8576007545f805b828110610a5157506109ee906111a1565b905f5f5b828110610a0757604051806105068682610fec565b610a108161113b565b90549060031b1c5f52600660205260ff600160405f20015460a01c16610a39575b6001016109f2565b90610a496001916109628461113b565b919050610a31565b610a5a8161113b565b90549060031b1c5f52600660205260ff600160405f20015460a01c16610a83575b6001016109dd565b90610a8f600191611167565b919050610a7b565b346103d8575f3660031901126103d8576001546040516001600160a01b039091168152602090f35b346103d8575f3660031901126103d8576005546040516001600160a01b039091168152602090f35b346103d85760403660031901126103d857610b00610f42565b336001600160a01b03821603610b1c5761048090600435611518565b63334bd91960e11b5f5260045ffd5b346103d85760403660031901126103d857610480600435610b4a610f42565b90610b63610476825f525f602052600160405f20015490565b611490565b346103d85760203660031901126103d85760206107f76004355f525f602052600160405f20015490565b346103d8575f3660031901126103d8576003546040516001600160a01b039091168152602090f35b346103d85760203660031901126103d8575f60c0604051610bda81610f58565b8281528260208201528260408201528260608201528260808201528260a082015201526004355f52600660205260e060405f20604051610c1981610f58565b8154918282526001810154602083019060018060a01b03811682526040840160ff8260a01c161515815260ff606086019260a81c16151582526002840154926080860193845260c0600460038701549660a089019788520154960195865260405196875260018060a01b039051166020870152511515604086015251151560608501525160808401525160a08301525160c0820152f35b60a03660031901126103d857600435610cc7610f42565b60843567ffffffffffffffff81116103d857610ce7903690600401610f96565b91805f52600660205260405f20610d0360048201541515611059565b600181019384549060ff8260a81c1615610eaa576001546040516331a9108f60e11b8152600481018690529590602090879060249082906001600160a01b03165afa9586156103cd57610dd096602094610d71925f92610e8b57506001600160a01b039182169116146110bd565b60018060a01b0360055416906003850154906040519788948593849363db2bac1360e01b85528a600486015260018060a01b0316602485015260448401526044356064840152606435608484015260c060a484015260c4830190611117565b039134905af19283156103cd575f93610e54575b50835460ff60a81b19811690945560209360a01c60ff1615908115610e0e5750506107f790611233565b7f3e62a676db02a4e2ab9982bb83d07ed3d56a727664801eb1e03f77521dde9a9d9160026080920154604051911582525f8783015260408201525f6060820152a26107f7565b9392506020843d602011610e83575b81610e7060209383610f74565b810103126103d8579251919260ff610de4565b3d9150610e63565b610ea3919250863d88116103c6576103b88183610f74565b908a610767565b60405162461bcd60e51b815260206004820152601860248201527f50726f7065727479206973206e6f7420666f722072656e7400000000000000006044820152606490fd5b346103d85760203660031901126103d8576004359063ffffffff60e01b82168092036103d857602091637965db0b60e01b8114908115610f31575b5015158152f35b6301ffc9a760e01b14905083610f2a565b602435906001600160a01b03821682036103d857565b60e0810190811067ffffffffffffffff82111761031f57604052565b90601f8019910116810190811067ffffffffffffffff82111761031f57604052565b81601f820112156103d85780359067ffffffffffffffff821161031f5760405192610fcb601f8401601f191660200185610f74565b828452602083830101116103d857815f926020809301838601378301015290565b60206040818301928281528451809452019201905f5b81811061100f5750505090565b8251845260209384019390920191600101611002565b60a09060031901126103d8576004359060243580151581036103d8579060443580151581036103d857906064359060843590565b1561106057565b60405162461bcd60e51b8152602060048201526016602482015275141c9bdc195c9d1e481a5cc81b9bdd081b1a5cdd195960521b6044820152606490fd5b908160209103126103d857516001600160a01b03811681036103d85790565b156110c457565b60405162461bcd60e51b815260206004820152602560248201527f4c697374696e67206f776e6572206e6f206c6f6e676572206f776e732070726f604482015264706572747960d81b6064820152608490fd5b805180835260209291819084018484015e5f828201840152601f01601f1916010190565b6007548110156111535760075f5260205f2001905f90565b634e487b7160e01b5f52603260045260245ffd5b5f1981146111755760010190565b634e487b7160e01b5f52601160045260245ffd5b67ffffffffffffffff811161031f5760051b60200190565b906111ab82611189565b6111b86040519182610f74565b82815280926111c9601f1991611189565b0190602036910137565b80518210156111535760209160051b010190565b156111ee57565b60405162461bcd60e51b815260206004820152601f60248201527f43616c6c6572206973206e6f7420746865206c697374696e67206f776e6572006044820152606490fd5b805f52600660205261126560405f2061125160048201541515611059565b600101546001600160a01b031633146111e7565b805f5260066020525f60046040822082815582600182015582600282015582600382015501555f5b600754908181101561134157826112a38261113b565b90549060031b1c146112b957600191500161128d565b5f198201918211611175576102fd6112d36112e09361113b565b90549060031b1c9161113b565b600754801561132d575f19016112f58161113b565b8154905f199060031b1b191690556007555b7f3b818a41b4017c13a2ffa077cad15f93753644f8625bdafb19f3f08d53c959245f80a2565b634e487b7160e01b5f52603160045260245ffd5b5050611307565b1561134f57565b60405162461bcd60e51b815260206004820152602860248201527f50726f7065727479206d757374206265206c697374656420666f722073616c65604482015267081bdc881c995b9d60c21b6064820152608490fd5b156113ac57565b60405162461bcd60e51b8152602060048201526024808201527f53616c65207072696365206d7573742062652067726561746572207468616e206044820152637a65726f60e01b6064820152608490fd5b1561140457565b60405162461bcd60e51b815260206004820152602660248201527f4d6f6e74686c792072656e74206d7573742062652067726561746572207468616044820152656e207a65726f60d01b6064820152608490fd5b5f8181526020818152604080832033845290915290205460ff161561147a5750565b63e2517d3f60e01b5f523360045260245260445ffd5b5f818152602081815260408083206001600160a01b038616845290915290205460ff16611512575f818152602081815260408083206001600160a01b0395909516808452949091528120805460ff19166001179055339291907f2f8788117e7eff1d82e926ec794901d17c78024a50270940304540a733656f0d9080a4600190565b50505f90565b5f818152602081815260408083206001600160a01b038616845290915290205460ff1615611512575f818152602081815260408083206001600160a01b0395909516808452949091528120805460ff19169055339291907ff6391f5c32d9c69d2a47ea670b442974b53935d1edc7fd64eb21e047a839171b9080a460019056fea2646970667358221220d10d9316e0359db90d3f4224a80f2ea49e39db85f39414e7cbea35e2a4d0b14064736f6c634300081c00332f8788117e7eff1d82e926ec794901d17c78024a50270940304540a733656f0dee57cd81e84075558e8fcc182a1f4393f91fc97f963a136e66b7f949a62f319fad3228b676f7d3cd4284a5443f17f1962b36e491b30a40b2405849e597ba5fb5","linkReferences":{}},"methodIdentifiers":{"DEFAULT_ADMIN_ROLE()":"a217fddf","OPERATOR_ROLE()":"f5b541a6","getAllListedProperties()":"a1e2305f","getListing(uint256)":"107a274a","getPropertiesForRent()":"7ad10442","getPropertiesForSale()":"480777b1","getRoleAdmin(bytes32)":"248a9ca3","grantRole(bytes32,address)":"2f2ff15d","hasRole(bytes32,address)":"91d14854","initiateRentalFromListing(uint256,address,uint256,uint256,string)":"0910fefa","initiateSaleFromListing(uint256,string)":"7bea0490","lendingProtocol()":"84436d3e","listProperty(uint256,bool,bool,uint256,uint256)":"f63e6b43","propertyToken()":"43ae2695","renounceRole(bytes32,address)":"36568abe","rentableToken()":"12dc7434","rentalAgreement()":"3d0ffcf6","revokeRole(bytes32,address)":"d547741f","saleContract()":"daf6ca30","supportsInterface(bytes4)":"01ffc9a7","unlistProperty(uint256)":"841ad8b9","updateListing(uint256,bool,bool,uint256,uint256)":"8dff9eca"},"id":37}