{"abi":[{"type":"constructor","inputs":[{"name":"name","type":"string","internalType":"string"},{"name":"symbol","type":"string","internalType":"string"},{"name":"initialTokenPrice","type":"uint256","internalType":"uint256"},{"name":"initialYieldRate","type":"uint256","internalType":"uint256"}],"stateMutability":"nonpayable"},{"type":"receive","stateMutability":"payable"},{"type":"function","name":"ADMIN_ROLE","inputs":[],"outputs":[{"name":"","type":"bytes32","internalType":"bytes32"}],"stateMutability":"view"},{"type":"function","name":"DEFAULT_ADMIN_ROLE","inputs":[],"outputs":[{"name":"","type":"bytes32","internalType":"bytes32"}],"stateMutability":"view"},{"type":"function","name":"EMERGENCY_ROLE","inputs":[],"outputs":[{"name":"","type":"bytes32","internalType":"bytes32"}],"stateMutability":"view"},{"type":"function","name":"YIELD_MANAGER_ROLE","inputs":[],"outputs":[{"name":"","type":"bytes32","internalType":"bytes32"}],"stateMutability":"view"},{"type":"function","name":"allowance","inputs":[{"name":"owner","type":"address","internalType":"address"},{"name":"spender","type":"address","internalType":"address"}],"outputs":[{"name":"","type":"uint256","internalType":"uint256"}],"stateMutability":"view"},{"type":"function","name":"annualYieldRate","inputs":[],"outputs":[{"name":"","type":"uint256","internalType":"uint256"}],"stateMutability":"view"},{"type":"function","name":"approve","inputs":[{"name":"spender","type":"address","internalType":"address"},{"name":"value","type":"uint256","internalType":"uint256"}],"outputs":[{"name":"","type":"bool","internalType":"bool"}],"stateMutability":"nonpayable"},{"type":"function","name":"balanceOf","inputs":[{"name":"account","type":"address","internalType":"address"}],"outputs":[{"name":"","type":"uint256","internalType":"uint256"}],"stateMutability":"view"},{"type":"function","name":"burn","inputs":[{"name":"amount","type":"uint256","internalType":"uint256"}],"outputs":[],"stateMutability":"nonpayable"},{"type":"function","name":"calculateClaimableYield","inputs":[{"name":"account","type":"address","internalType":"address"}],"outputs":[{"name":"","type":"uint256","internalType":"uint256"}],"stateMutability":"view"},{"type":"function","name":"claimYield","inputs":[],"outputs":[{"name":"","type":"uint256","internalType":"uint256"}],"stateMutability":"nonpayable"},{"type":"function","name":"decimals","inputs":[],"outputs":[{"name":"","type":"uint8","internalType":"uint8"}],"stateMutability":"view"},{"type":"function","name":"distributeYield","inputs":[],"outputs":[],"stateMutability":"nonpayable"},{"type":"function","name":"emergencyWithdraw","inputs":[{"name":"recipient","type":"address","internalType":"address payable"}],"outputs":[],"stateMutability":"nonpayable"},{"type":"function","name":"getRoleAdmin","inputs":[{"name":"role","type":"bytes32","internalType":"bytes32"}],"outputs":[{"name":"","type":"bytes32","internalType":"bytes32"}],"stateMutability":"view"},{"type":"function","name":"getStakingPositions","inputs":[{"name":"account","type":"address","internalType":"address"}],"outputs":[{"name":"","type":"tuple[]","internalType":"struct RentableToken.StakingPosition[]","components":[{"name":"amount","type":"uint256","internalType":"uint256"},{"name":"startTime","type":"uint256","internalType":"uint256"},{"name":"lockPeriod","type":"uint256","internalType":"uint256"},{"name":"bonusRate","type":"uint256","internalType":"uint256"}]}],"stateMutability":"view"},{"type":"function","name":"grantRole","inputs":[{"name":"role","type":"bytes32","internalType":"bytes32"},{"name":"account","type":"address","internalType":"address"}],"outputs":[],"stateMutability":"nonpayable"},{"type":"function","name":"hasRole","inputs":[{"name":"role","type":"bytes32","internalType":"bytes32"},{"name":"account","type":"address","internalType":"address"}],"outputs":[{"name":"","type":"bool","internalType":"bool"}],"stateMutability":"view"},{"type":"function","name":"lastYieldDistribution","inputs":[],"outputs":[{"name":"","type":"uint256","internalType":"uint256"}],"stateMutability":"view"},{"type":"function","name":"maxBurnPercentage","inputs":[],"outputs":[{"name":"","type":"uint256","internalType":"uint256"}],"stateMutability":"view"},{"type":"function","name":"maxTransferPercentage","inputs":[],"outputs":[{"name":"","type":"uint256","internalType":"uint256"}],"stateMutability":"view"},{"type":"function","name":"name","inputs":[],"outputs":[{"name":"","type":"string","internalType":"string"}],"stateMutability":"view"},{"type":"function","name":"paused","inputs":[],"outputs":[{"name":"","type":"bool","internalType":"bool"}],"stateMutability":"view"},{"type":"function","name":"propertyId","inputs":[],"outputs":[{"name":"","type":"uint256","internalType":"uint256"}],"stateMutability":"view"},{"type":"function","name":"propertyToken","inputs":[],"outputs":[{"name":"","type":"address","internalType":"address"}],"stateMutability":"view"},{"type":"function","name":"purchaseTokens","inputs":[],"outputs":[{"name":"","type":"uint256","internalType":"uint256"}],"stateMutability":"payable"},{"type":"function","name":"recoverERC20","inputs":[{"name":"tokenAddress","type":"address","internalType":"address"},{"name":"recipient","type":"address","internalType":"address"},{"name":"amount","type":"uint256","internalType":"uint256"}],"outputs":[],"stateMutability":"nonpayable"},{"type":"function","name":"renounceRole","inputs":[{"name":"role","type":"bytes32","internalType":"bytes32"},{"name":"callerConfirmation","type":"address","internalType":"address"}],"outputs":[],"stateMutability":"nonpayable"},{"type":"function","name":"revokeRole","inputs":[{"name":"role","type":"bytes32","internalType":"bytes32"},{"name":"account","type":"address","internalType":"address"}],"outputs":[],"stateMutability":"nonpayable"},{"type":"function","name":"setAnnualYieldRate","inputs":[{"name":"newRate","type":"uint256","internalType":"uint256"}],"outputs":[],"stateMutability":"nonpayable"},{"type":"function","name":"setPaused","inputs":[{"name":"_paused","type":"bool","internalType":"bool"}],"outputs":[],"stateMutability":"nonpayable"},{"type":"function","name":"setPropertyReference","inputs":[{"name":"_propertyToken","type":"address","internalType":"address"},{"name":"_propertyId","type":"uint256","internalType":"uint256"}],"outputs":[],"stateMutability":"nonpayable"},{"type":"function","name":"setTokenPrice","inputs":[{"name":"newPrice","type":"uint256","internalType":"uint256"}],"outputs":[],"stateMutability":"nonpayable"},{"type":"function","name":"setTransferLimitExempt","inputs":[{"name":"account","type":"address","internalType":"address"},{"name":"exempt","type":"bool","internalType":"bool"}],"outputs":[],"stateMutability":"nonpayable"},{"type":"function","name":"setTransferLimits","inputs":[{"name":"newMaxTransfer","type":"uint256","internalType":"uint256"},{"name":"newMaxBurn","type":"uint256","internalType":"uint256"}],"outputs":[],"stateMutability":"nonpayable"},{"type":"function","name":"setYieldDistributionPeriod","inputs":[{"name":"newPeriod","type":"uint256","internalType":"uint256"}],"outputs":[],"stateMutability":"nonpayable"},{"type":"function","name":"stakeTokens","inputs":[{"name":"amount","type":"uint256","internalType":"uint256"},{"name":"lockPeriod","type":"uint256","internalType":"uint256"}],"outputs":[{"name":"","type":"uint256","internalType":"uint256"}],"stateMutability":"nonpayable"},{"type":"function","name":"supportsInterface","inputs":[{"name":"interfaceId","type":"bytes4","internalType":"bytes4"}],"outputs":[{"name":"","type":"bool","internalType":"bool"}],"stateMutability":"view"},{"type":"function","name":"symbol","inputs":[],"outputs":[{"name":"","type":"string","internalType":"string"}],"stateMutability":"view"},{"type":"function","name":"tokenPrice","inputs":[],"outputs":[{"name":"","type":"uint256","internalType":"uint256"}],"stateMutability":"view"},{"type":"function","name":"totalSupply","inputs":[],"outputs":[{"name":"","type":"uint256","internalType":"uint256"}],"stateMutability":"view"},{"type":"function","name":"transfer","inputs":[{"name":"recipient","type":"address","internalType":"address"},{"name":"amount","type":"uint256","internalType":"uint256"}],"outputs":[{"name":"","type":"bool","internalType":"bool"}],"stateMutability":"nonpayable"},{"type":"function","name":"transferFrom","inputs":[{"name":"sender","type":"address","internalType":"address"},{"name":"recipient","type":"address","internalType":"address"},{"name":"amount","type":"uint256","internalType":"uint256"}],"outputs":[{"name":"","type":"bool","internalType":"bool"}],"stateMutability":"nonpayable"},{"type":"function","name":"transferLimitExempt","inputs":[{"name":"","type":"address","internalType":"address"}],"outputs":[{"name":"","type":"bool","internalType":"bool"}],"stateMutability":"view"},{"type":"function","name":"unstakeTokens","inputs":[{"name":"positionIndex","type":"uint256","internalType":"uint256"}],"outputs":[{"name":"","type":"uint256","internalType":"uint256"},{"name":"","type":"uint256","internalType":"uint256"}],"stateMutability":"nonpayable"},{"type":"function","name":"yieldDistributionPeriod","inputs":[],"outputs":[{"name":"","type":"uint256","internalType":"uint256"}],"stateMutability":"view"},{"type":"event","name":"Approval","inputs":[{"name":"owner","type":"address","indexed":true,"internalType":"address"},{"name":"spender","type":"address","indexed":true,"internalType":"address"},{"name":"value","type":"uint256","indexed":false,"internalType":"uint256"}],"anonymous":false},{"type":"event","name":"EmergencyPause","inputs":[{"name":"paused","type":"bool","indexed":false,"internalType":"bool"}],"anonymous":false},{"type":"event","name":"PropertyReferenceSet","inputs":[{"name":"propertyToken","type":"address","indexed":false,"internalType":"address"},{"name":"propertyId","type":"uint256","indexed":false,"internalType":"uint256"}],"anonymous":false},{"type":"event","name":"RoleAdminChanged","inputs":[{"name":"role","type":"bytes32","indexed":true,"internalType":"bytes32"},{"name":"previousAdminRole","type":"bytes32","indexed":true,"internalType":"bytes32"},{"name":"newAdminRole","type":"bytes32","indexed":true,"internalType":"bytes32"}],"anonymous":false},{"type":"event","name":"RoleGranted","inputs":[{"name":"role","type":"bytes32","indexed":true,"internalType":"bytes32"},{"name":"account","type":"address","indexed":true,"internalType":"address"},{"name":"sender","type":"address","indexed":true,"internalType":"address"}],"anonymous":false},{"type":"event","name":"RoleRevoked","inputs":[{"name":"role","type":"bytes32","indexed":true,"internalType":"bytes32"},{"name":"account","type":"address","indexed":true,"internalType":"address"},{"name":"sender","type":"address","indexed":true,"internalType":"address"}],"anonymous":false},{"type":"event","name":"TokenPriceUpdated","inputs":[{"name":"oldPrice","type":"uint256","indexed":false,"internalType":"uint256"},{"name":"newPrice","type":"uint256","indexed":false,"internalType":"uint256"}],"anonymous":false},{"type":"event","name":"TokensPurchased","inputs":[{"name":"buyer","type":"address","indexed":true,"internalType":"address"},{"name":"amount","type":"uint256","indexed":false,"internalType":"uint256"},{"name":"cost","type":"uint256","indexed":false,"internalType":"uint256"}],"anonymous":false},{"type":"event","name":"TokensStaked","inputs":[{"name":"staker","type":"address","indexed":true,"internalType":"address"},{"name":"amount","type":"uint256","indexed":false,"internalType":"uint256"},{"name":"lockPeriod","type":"uint256","indexed":false,"internalType":"uint256"},{"name":"bonusRate","type":"uint256","indexed":false,"internalType":"uint256"}],"anonymous":false},{"type":"event","name":"TokensUnstaked","inputs":[{"name":"staker","type":"address","indexed":true,"internalType":"address"},{"name":"amount","type":"uint256","indexed":false,"internalType":"uint256"},{"name":"yieldEarned","type":"uint256","indexed":false,"internalType":"uint256"}],"anonymous":false},{"type":"event","name":"Transfer","inputs":[{"name":"from","type":"address","indexed":true,"internalType":"address"},{"name":"to","type":"address","indexed":true,"internalType":"address"},{"name":"value","type":"uint256","indexed":false,"internalType":"uint256"}],"anonymous":false},{"type":"event","name":"TransferLimitExemptionSet","inputs":[{"name":"account","type":"address","indexed":true,"internalType":"address"},{"name":"exempt","type":"bool","indexed":false,"internalType":"bool"}],"anonymous":false},{"type":"event","name":"TransferLimitsUpdated","inputs":[{"name":"maxTransfer","type":"uint256","indexed":false,"internalType":"uint256"},{"name":"maxBurn","type":"uint256","indexed":false,"internalType":"uint256"}],"anonymous":false},{"type":"event","name":"YieldClaimed","inputs":[{"name":"claimer","type":"address","indexed":true,"internalType":"address"},{"name":"amount","type":"uint256","indexed":false,"internalType":"uint256"}],"anonymous":false},{"type":"event","name":"YieldDistributed","inputs":[{"name":"totalAmount","type":"uint256","indexed":false,"internalType":"uint256"}],"anonymous":false},{"type":"event","name":"YieldDistributionPeriodUpdated","inputs":[{"name":"oldPeriod","type":"uint256","indexed":false,"internalType":"uint256"},{"name":"newPeriod","type":"uint256","indexed":false,"internalType":"uint256"}],"anonymous":false},{"type":"event","name":"YieldRateUpdated","inputs":[{"name":"oldRate","type":"uint256","indexed":false,"internalType":"uint256"},{"name":"newRate","type":"uint256","indexed":false,"internalType":"uint256"}],"anonymous":false},{"type":"error","name":"AccessControlBadConfirmation","inputs":[]},{"type":"error","name":"AccessControlUnauthorizedAccount","inputs":[{"name":"account","type":"address","internalType":"address"},{"name":"neededRole","type":"bytes32","internalType":"bytes32"}]},{"type":"error","name":"ERC20InsufficientAllowance","inputs":[{"name":"spender","type":"address","internalType":"address"},{"name":"allowance","type":"uint256","internalType":"uint256"},{"name":"needed","type":"uint256","internalType":"uint256"}]},{"type":"error","name":"ERC20InsufficientBalance","inputs":[{"name":"sender","type":"address","internalType":"address"},{"name":"balance","type":"uint256","internalType":"uint256"},{"name":"needed","type":"uint256","internalType":"uint256"}]},{"type":"error","name":"ERC20InvalidApprover","inputs":[{"name":"approver","type":"address","internalType":"address"}]},{"type":"error","name":"ERC20InvalidReceiver","inputs":[{"name":"receiver","type":"address","internalType":"address"}]},{"type":"error","name":"ERC20InvalidSender","inputs":[{"name":"sender","type":"address","internalType":"address"}]},{"type":"error","name":"ERC20InvalidSpender","inputs":[{"name":"spender","type":"address","internalType":"address"}]},{"type":"error","name":"ReentrancyGuardReentrantCall","inputs":[]}],"bytecode":{"object":"0x60806040523461039157612c818038038061001981610395565b9283398101906080818303126103915780516001600160401b03811161039157826100459183016103ba565b602082015190926001600160401b038211610391576100659183016103ba565b60408201516060909201518351919290916001600160401b0381116102a257600354600181811c91168015610387575b602082101461028457601f8111610324575b50602094601f82116001146102c1579481929394955f926102b6575b50508160011b915f199060031b1c1916176003555b82516001600160401b0381116102a257600454600181811c91168015610298575b602082101461028457601f8111610221575b506020601f82116001146101be57819293945f926101b3575b50508160011b915f199060031b1c1916176004555b60016006556101473361040b565b5061015133610481565b5061015b33610514565b50610165336105a7565b5060075560085562278d0060095542600a556107d0600d556103e8600e55335f52600f60205260405f20600160ff1982541617905560ff19601154166011556040516125a6908161063b8239f35b015190505f80610124565b601f1982169060045f52805f20915f5b818110610209575095836001959697106101f1575b505050811b01600455610139565b01515f1960f88460031b161c191690555f80806101e3565b9192602060018192868b0151815501940192016101ce565b60045f527f8a35acfbc15ff81a39ae7d344fd709f28e8600b4aa8c65c6b64bfe7fe36bd19b601f830160051c8101916020841061027a575b601f0160051c01905b81811061026f575061010b565b5f8155600101610262565b9091508190610259565b634e487b7160e01b5f52602260045260245ffd5b90607f16906100f9565b634e487b7160e01b5f52604160045260245ffd5b015190505f806100c3565b601f1982169560035f52805f20915f5b88811061030c575083600195969798106102f4575b505050811b016003556100d8565b01515f1960f88460031b161c191690555f80806102e6565b919260206001819286850151815501940192016102d1565b60035f527fc2575a0e9e593c00f959f8c92f12db2869c3395a3b0502d05e2516446f71f85b601f830160051c8101916020841061037d575b601f0160051c01905b81811061037257506100a7565b5f8155600101610365565b909150819061035c565b90607f1690610095565b5f80fd5b6040519190601f01601f191682016001600160401b038111838210176102a257604052565b81601f82011215610391578051906001600160401b0382116102a2576103e9601f8301601f1916602001610395565b928284526020838301011161039157815f9260208093018386015e8301015290565b6001600160a01b0381165f9081525f516020612c615f395f51905f52602052604090205460ff1661047c576001600160a01b03165f8181525f516020612c615f395f51905f5260205260408120805460ff191660011790553391905f516020612be15f395f51905f528180a4600190565b505f90565b6001600160a01b0381165f9081525f516020612c015f395f51905f52602052604090205460ff1661047c576001600160a01b03165f8181525f516020612c015f395f51905f5260205260408120805460ff191660011790553391907fa49807205ce4d355092ef5a8a18f56e8913cf4a201fbe287825b095693c21775905f516020612be15f395f51905f529080a4600190565b6001600160a01b0381165f9081525f516020612c215f395f51905f52602052604090205460ff1661047c576001600160a01b03165f8181525f516020612c215f395f51905f5260205260408120805460ff191660011790553391907f470f4f1717679395b6a9e0700797bfeeaa970f1643e72f5684d687c0be10fe27905f516020612be15f395f51905f529080a4600190565b6001600160a01b0381165f9081525f516020612c415f395f51905f52602052604090205460ff1661047c576001600160a01b03165f8181525f516020612c415f395f51905f5260205260408120805460ff191660011790553391907fbf233dd2aafeb4d50879c4aa5c81e96d92f6e6945c906a58f9f2d1c1631b4b26905f516020612be15f395f51905f529080a460019056fe60808060405260043610156100c5575b50361561001a575f80fd5b30331415806100b8575b61002a57005b61004861003f670de0b6b3a764000034611f7c565b60075490611f8f565b8061004f57005b61005981336123c5565b335f52600b60205261006f60405f204290612074565b335f52600c6020526100848160405f20612074565b6040519081523460208201527f8fafebcaf9d154343dad25669bfa277f4fbacd7ac6b0c4fed522580e040a0f3360403392a2005b5060ff6011541615610024565b5f3560e01c90816301ffc9a714611dfa5750806306fdde0314611d3f578063095ea7b314611cbd5780631171bda914611b4e57806316c38b3c14611aec57806318160ddd14611acf57806320df435914611a9557806322a5310814611a5857806323b872dd146118e8578063248a9ca3146118bd57806329eb5f2c146118a05780632b37472b146118185780632f2ff15d146117da578063313ce567146117bf5780633290ce291461167e57806336568abe1461163a5780633b7b6188146113e25780633fb24ac5146113b7578063406cf229146112f757806342966c68146111c057806342ab9b261461114357806343ae2695146111175780634b6968b0146110fa5780635c975abb146110d8578063608e4dd014610e2a5780636a61e5fc14610d735780636abe713914610d565780636ff1c9bc14610c3257806370a0823114610bfb57806375b238fc14610bc157806375ec49b714610aa75780637ff9b59614610a8a5780638a570a12146108af57806391d148541461086657806395d89b4114610762578063a217fddf14610748578063a9059cbb14610627578063bed4a7c11461056f578063c3e2ca411461051b578063d547741f146104d6578063dd62ed3e14610486578063dfd83a0f14610469578063ee7a3b8e1461044c578063f043a58714610326578063fe9e9640146102ec5763ff3cf3f0146102cb575f61000f565b346102e8575f3660031901126102e8576020600d54604051908152f35b5f80fd5b346102e8575f3660031901126102e85760206040517f470f4f1717679395b6a9e0700797bfeeaa970f1643e72f5684d687c0be10fe278152f35b346102e85760203660031901126102e8576001600160a01b03610347611e77565b165f52601060205260405f2080549067ffffffffffffffff8211610438576040519161037960208260051b0184611f0f565b8083526020830180925f5260205f205f915b8383106103f7578486604051918291602083019060208452518091526040830191905f5b8181106103bd575050500390f35b91935091602060806001926060875180518352848101518584015260408101516040840152015160608201520194019101918493926103af565b6004602060019260405161040a81611ef3565b855481528486015483820152600286015460408201526003860154606082015281520192019201919061038b565b634e487b7160e01b5f52604160045260245ffd5b346102e8575f3660031901126102e8576020601254604051908152f35b346102e8575f3660031901126102e8576020600954604051908152f35b346102e85760403660031901126102e85761049f611e77565b6104a7611e8d565b6001600160a01b039182165f908152600160209081526040808320949093168252928352819020549051908152f35b346102e85760403660031901126102e8576105196004356104f5611e8d565b9061051461050f825f526005602052600160405f20015490565b6122df565b612435565b005b346102e85760203660031901126102e8577f4959ad9023bf5b492922b51fbc7c0b5e5ec66aa39700e0da6d8af9b2d430898e604060043561055a612283565b600854908060085582519182526020820152a1005b346102e85760203660031901126102e85760043561058b612283565b80156105ca5760407f767645b802ee6a17c4010a9eca2bb782c4d57dd263e96a97032fc2e865aebd2e91600954908060095582519182526020820152a1005b60405162461bcd60e51b815260206004820152602f60248201527f52656e7461626c65546f6b656e3a20706572696f64206d75737420626520677260448201526e6561746572207468616e207a65726f60881b6064820152608490fd5b346102e85760403660031901126102e857610640611e77565b602435335f52600f60205260ff60405f2054161561071c575b60ff60115416806106f7575b806106c9575b6106845761067991336124b9565b602060405160018152f35b60405162461bcd60e51b815260206004820152601f60248201527f52656e7461626c65546f6b656e3a207472616e736665727320706175736564006044820152606490fd5b506001600160a01b0382165f9081525f5160206125515f395f51905f52602052604090205460ff161561066b565b50335f9081525f5160206125515f395f51905f52602052604090205460ff1615610665565b335f525f60205261074361271061073a60405f2054600d5490611f7c565b04821115611fad565b610659565b346102e8575f3660031901126102e85760206040515f8152f35b346102e8575f3660031901126102e8576040515f6004548060011c9060018116801561085c575b6020831081146108485782855290811561082457506001146107c6575b6107c2836107b681850382611f0f565b60405191829182611e4d565b0390f35b91905060045f527f8a35acfbc15ff81a39ae7d344fd709f28e8600b4aa8c65c6b64bfe7fe36bd19b915f905b80821061080a575090915081016020016107b66107a6565b9192600181602092548385880101520191019092916107f2565b60ff191660208086019190915291151560051b840190910191506107b690506107a6565b634e487b7160e01b5f52602260045260245ffd5b91607f1691610789565b346102e85760403660031901126102e85761087f611e8d565b6004355f52600560205260405f209060018060a01b03165f52602052602060ff60405f2054166040519015158152f35b346102e8575f3660031901126102e857335f9081527f0867ed765a4ffb35b1b243a04ffbdd72fa0c3d3da4a3844a11b52e5049ad745a602052604090205460ff1615610a53576108fd6123a5565b61090c60ff6011541615612007565b600a5461091b600954826120ce565b42106109f7576002549081156109a2576109546301e133809161094e6109476127109560085490611f7c565b91426120c1565b90611f7c565b040442600a5580610967575b6001600655005b6020816109957fe8ed0a697f15301f06fd3d30bc896682e7826c5397076a3eda05844cfc35648093306123c5565b604051908152a180610960565b60405162461bcd60e51b815260206004820152602760248201527f52656e7461626c65546f6b656e3a206e6f20746f6b656e7320696e20636972636044820152663ab630ba34b7b760c91b6064820152608490fd5b60405162461bcd60e51b815260206004820152602e60248201527f52656e7461626c65546f6b656e3a20646973747269627574696f6e207065726960448201526d1bd9081b9bdd08195b185c1cd95960921b6064820152608490fd5b63e2517d3f60e01b5f52336004527f470f4f1717679395b6a9e0700797bfeeaa970f1643e72f5684d687c0be10fe2760245260445ffd5b346102e8575f3660031901126102e8576020600754604051908152f35b346102e857610ab536611edd565b610abd612283565b6127108211610b63576127108111610b0957816040917f6760899b76c18d484b54687ae679eda47f1c46f9d901d949807e96339002d2b493600d5580600e5582519182526020820152a1005b60405162461bcd60e51b815260206004820152602c60248201527f52656e7461626c65546f6b656e3a206275726e206c696d69742063616e6e6f7460448201526b20657863656564203130302560a01b6064820152608490fd5b60405162461bcd60e51b815260206004820152603060248201527f52656e7461626c65546f6b656e3a207472616e73666572206c696d697420636160448201526f6e6e6f7420657863656564203130302560801b6064820152608490fd5b346102e8575f3660031901126102e85760206040517fa49807205ce4d355092ef5a8a18f56e8913cf4a201fbe287825b095693c217758152f35b346102e85760203660031901126102e8576001600160a01b03610c1c611e77565b165f525f602052602060405f2054604051908152f35b346102e85760203660031901126102e8576004356001600160a01b038116908190036102e857610c60612214565b610c6b811515611f31565b47908115610d03575f80809381935af13d15610cfe573d67ffffffffffffffff81116104385760405190610ca9601f8201601f191660200183611f0f565b81525f60203d92013e5b15610cba57005b606460405162461bcd60e51b815260206004820152602060248201527f52656e7461626c65546f6b656e3a207769746864726177616c206661696c65646044820152fd5b610cb3565b60405162461bcd60e51b815260206004820152602560248201527f52656e7461626c65546f6b656e3a206e6f2062616c616e636520746f20776974604482015264686472617760d81b6064820152608490fd5b346102e8575f3660031901126102e8576020600854604051908152f35b346102e85760203660031901126102e857600435610d8f612283565b8015610dce5760407fd9cc159fa79112d02593601db522a6696e6c5c82d9e9ca9332f89ec824935bb091600754908060075582519182526020820152a1005b60405162461bcd60e51b815260206004820152602e60248201527f52656e7461626c65546f6b656e3a207072696365206d7573742062652067726560448201526d61746572207468616e207a65726f60901b6064820152608490fd5b346102e85760203660031901126102e857600435610e466123a5565b610e5560ff6011541615612007565b335f52601060205260405f205481101561108557335f526010602052610e7e8160405f206120a8565b50600181015490610e936002820154836120ce565b4210611034576301e13380610ed182610ecc610ec6610eb7612710965497426120c1565b926003600854910154906120ce565b86611f7c565b611f7c565b04049182611025575b610ee58233306124b9565b335f52601060205260405f20545f19810190811161101157808203610fb0575b5050335f52601060205260405f209182548015610f9c575f1901610f2981856120a8565b949094610f89575f600386826040985582600182015582600282015501555582518281528160208201527f6f2d3e000c89d37446b7c0374c0125068ff316d1e3ee302336478a8cd03c2336843392a2600160065582519182526020820152f35b634e487b7160e01b5f525f60045260245ffd5b634e487b7160e01b5f52603160045260245ffd5b610fc8610fdb91335f52601060205260405f206120a8565b5091335f52601060205260405f206120a8565b919091610f8957818114610f05576003818192548455600181015460018501556002810154600285015501549101558280610f05565b634e487b7160e01b5f52601160045260245ffd5b61102f83336123c5565b610eda565b60405162461bcd60e51b815260206004820152602360248201527f52656e7461626c65546f6b656e3a207374696c6c20696e206c6f636b207065726044820152621a5bd960ea1b6064820152608490fd5b60405162461bcd60e51b815260206004820152602560248201527f52656e7461626c65546f6b656e3a20696e76616c696420706f736974696f6e206044820152640d2dcc8caf60db1b6064820152608490fd5b346102e8575f3660031901126102e857602060ff601154166040519015158152f35b346102e8575f3660031901126102e8576020600e54604051908152f35b346102e8575f3660031901126102e85760115460405160089190911c6001600160a01b03168152602090f35b346102e85760403660031901126102e85761115c611e77565b602435908115158092036102e85760207fa4f747f0b6aef8ae521fbb85a6618066737b372d22bd6ce90cf47c3e8a8de56191611196612283565b60018060a01b031692835f52600f825260405f2060ff1981541660ff8316179055604051908152a2005b346102e85760203660031901126102e8576004356111e360ff6011541615612007565b335f52600f60205260ff60405f20541615611285575b331561127257335f525f60205260405f20548181106112595790805f923384528360205203604083205580600254036002556040519081527fddf252ad1be2c89b69c2b068fc378daa952ba7f163c4a11628f55a4df523b3ef60203392a3005b63391434e360e21b5f523360045260245260445260645ffd5b634b637e8f60e11b5f525f60045260245ffd5b335f525f6020526127106112a060405f2054600e5490611f7c565b048111156111f95760405162461bcd60e51b815260206004820152602160248201527f52656e7461626c65546f6b656e3a206275726e2065786365656473206c696d696044820152601d60fa1b6064820152608490fd5b346102e8575f3660031901126102e85761130f6123a5565b61131e60ff6011541615612007565b611327336120db565b8015611373578061133b60209233306124b9565b6040518181527fc04825ba3f383b602255d2a13065a68e325c65c9e0ed5d031ea2b06f641873af833392a26001600655604051908152f35b606460405162461bcd60e51b815260206004820152602060248201527f52656e7461626c65546f6b656e3a206e6f207969656c6420746f20636c61696d6044820152fd5b346102e85760203660031901126102e85760206113da6113d5611e77565b6120db565b604051908152f35b346102e8576113f036611edd565b6113f86123a5565b61140760ff6011541615612007565b81156115dd57335f525f6020528160405f20541061158c576301e133808110611504576101f4905b61143a8330336124b9565b335f52601060205260405f2060405161145281611ef3565b84815260208101914283526040820184815260608301918683528054600160401b81101561043857611489916001820181556120a8565b949094610f895760039351855551600185015551600284015551910155604051928352602083015260408201527f0fc5b1bac0416800b42a669229a346b6e5a15db3896339dbdc5fa376e1e4570a60603392a2335f52601060205260405f20545f198101908111611011576020906001600655604051908152f35b62ed4e0081106115175761012c9061142f565b6276a70081106115295760969061142f565b62278d00811061153b5760329061142f565b60405162461bcd60e51b8152602060048201526024808201527f52656e7461626c65546f6b656e3a206c6f636b20706572696f6420746f6f20736044820152631a1bdc9d60e21b6064820152608490fd5b60405162461bcd60e51b815260206004820152602360248201527f52656e7461626c65546f6b656e3a20696e73756666696369656e742062616c616044820152626e636560e81b6064820152608490fd5b60405162461bcd60e51b815260206004820152602f60248201527f52656e7461626c65546f6b656e3a20616d6f756e74206d75737420626520677260448201526e6561746572207468616e207a65726f60881b6064820152608490fd5b346102e85760403660031901126102e857611653611e8d565b336001600160a01b0382160361166f5761051990600435612435565b63334bd91960e11b5f5260045ffd5b5f3660031901126102e8576116916123a5565b6116a060ff6011541615612007565b341561177a576116bb61003f670de0b6b3a764000034611f7c565b801561173557806116ce602092336123c5565b335f52600b82526116e360405f204290612074565b335f52600c82526116f78160405f20612074565b60405181815234838201527f8fafebcaf9d154343dad25669bfa277f4fbacd7ac6b0c4fed522580e040a0f3360403392a26001600655604051908152f35b60405162461bcd60e51b815260206004820152601f60248201527f52656e7461626c65546f6b656e3a20616d6f756e7420746f6f20736d616c6c006044820152606490fd5b60405162461bcd60e51b815260206004820152601f60248201527f52656e7461626c65546f6b656e3a207061796d656e74207265717569726564006044820152606490fd5b346102e8575f3660031901126102e857602060405160128152f35b346102e85760403660031901126102e8576105196004356117f9611e8d565b9061181361050f825f526005602052600160405f20015490565b612319565b346102e85760403660031901126102e8577f54676dc3eef7db8f96050ca04e703f37fb78228650e102ca00acd33d1440bb5e611852611e77565b6024359061185e612283565b60118054610100600160a81b031916600883901b610100600160a81b03161790556012829055604080516001600160a01b0390921682526020820192909252a1005b346102e8575f3660031901126102e8576020600a54604051908152f35b346102e85760203660031901126102e85760206113da6004355f526005602052600160405f20015490565b346102e8576118f636611ea3565b9060018060a01b03831692835f52600f60205260ff60405f20541615611a2c575b60ff6011541680611a08575b806119da575b610684575f8481526001602090815260408083203384529091529020545f19811061195a575b5061067993506124b9565b8381106119bf5784156119ac57331561199957610679945f52600160205260405f2060018060a01b0333165f526020528360405f20910390558461194f565b634a1406b160e11b5f525f60045260245ffd5b63e602df0560e01b5f525f60045260245ffd5b8390637dc7a0d960e11b5f523360045260245260445260645ffd5b506001600160a01b0382165f9081525f5160206125515f395f51905f52602052604090205460ff1615611929565b505f8481525f5160206125515f395f51905f52602052604090205460ff1615611923565b835f525f602052611a53612710611a4a60405f2054600d5490611f7c565b04841115611fad565b611917565b346102e85760203660031901126102e8576001600160a01b03611a79611e77565b165f52600f602052602060ff60405f2054166040519015158152f35b346102e8575f3660031901126102e85760206040517fbf233dd2aafeb4d50879c4aa5c81e96d92f6e6945c906a58f9f2d1c1631b4b268152f35b346102e8575f3660031901126102e8576020600254604051908152f35b346102e85760203660031901126102e8576004358015158091036102e85760207fb80d1ae5628c2af91424c54c87acfd15016be4bebeef0425b328238702f3483191611b36612214565b60ff196011541660ff821617601155604051908152a1005b346102e857611b5c36611ea3565b91611b65612214565b6001600160a01b031691308314611c6d57611bc892602092611b916001600160a01b0382161515611f31565b60405163a9059cbb60e01b81526001600160a01b0390911660048201526024810192909252909283919082905f9082906044820190565b03925af1908115611c62575f91611c27575b5015611be257005b60405162461bcd60e51b815260206004820152601e60248201527f52656e7461626c65546f6b656e3a207265636f76657279206661696c656400006044820152606490fd5b90506020813d602011611c5a575b81611c4260209383611f0f565b810103126102e8575180151581036102e85781611bda565b3d9150611c35565b6040513d5f823e3d90fd5b60405162461bcd60e51b815260206004820152602260248201527f52656e7461626c65546f6b656e3a2063616e6e6f74207265636f766572207365604482015261363360f11b6064820152608490fd5b346102e85760403660031901126102e857611cd6611e77565b6024359033156119ac576001600160a01b031690811561199957335f52600160205260405f20825f526020528060405f20556040519081527f8c5be1e5ebec7d5bd14f71427d1e84f3dd0314c0f7b2291e5b200ac8c7c3b92560203392a3602060405160018152f35b346102e8575f3660031901126102e8576040515f6003548060011c90600181168015611df0575b602083108114610848578285529081156108245750600114611d92576107c2836107b681850382611f0f565b91905060035f527fc2575a0e9e593c00f959f8c92f12db2869c3395a3b0502d05e2516446f71f85b915f905b808210611dd6575090915081016020016107b66107a6565b919260018160209254838588010152019101909291611dbe565b91607f1691611d66565b346102e85760203660031901126102e8576004359063ffffffff60e01b82168092036102e857602091637965db0b60e01b8114908115611e3c575b5015158152f35b6301ffc9a760e01b14905083611e35565b602060409281835280519182918282860152018484015e5f828201840152601f01601f1916010190565b600435906001600160a01b03821682036102e857565b602435906001600160a01b03821682036102e857565b60609060031901126102e8576004356001600160a01b03811681036102e857906024356001600160a01b03811681036102e8579060443590565b60409060031901126102e8576004359060243590565b6080810190811067ffffffffffffffff82111761043857604052565b90601f8019910116810190811067ffffffffffffffff82111761043857604052565b15611f3857565b606460405162461bcd60e51b815260206004820152602060248201527f52656e7461626c65546f6b656e3a20696e76616c696420726563697069656e746044820152fd5b8181029291811591840414171561101157565b8115611f99570490565b634e487b7160e01b5f52601260045260245ffd5b15611fb457565b60405162461bcd60e51b815260206004820152602560248201527f52656e7461626c65546f6b656e3a207472616e736665722065786365656473206044820152641b1a5b5a5d60da1b6064820152608490fd5b1561200e57565b60405162461bcd60e51b815260206004820152601560248201527414995b9d18589b19551bdad95b8e881c185d5cd959605a1b6044820152606490fd5b8054821015612060575f5260205f2001905f90565b634e487b7160e01b5f52603260045260245ffd5b8054600160401b811015610438576120919160018201815561204b565b819291549060031b91821b915f19901b1916179055565b8054821015612060575f5260205f209060021b01905f90565b9190820391821161101157565b9190820180921161101157565b5f905f5b6001600160a01b0382165f818152600b602052604090205482101561218e57805f52600b6020526121138260405f2061204b565b90549060031b1c815f52600c60205261212f8360405f2061204b565b90549060031b1c915f525f6020528160405f20541015612154575b50506001016120df565b936127106301e1338061217e61218694610ecc6121746001989a426120c1565b9160085490611f7c565b0404906120ce565b92905f61214a565b505060085490925f925b6001600160a01b0385165f8181526010602052604090205485101561220c57600191612204915f5260106020526127106301e1338061217e6121dd8960405f206120a8565b50610ecc6121ee88830154426120c1565b916121fd60038201548c6120ce565b9054611f7c565b930192612198565b509350915050565b335f9081527ffbc93671eda18a3103415c6de11b46be272fd03129c33970fab0bfd26d35c8a0602052604090205460ff161561224c57565b63e2517d3f60e01b5f52336004527fbf233dd2aafeb4d50879c4aa5c81e96d92f6e6945c906a58f9f2d1c1631b4b2660245260445ffd5b335f9081525f5160206125515f395f51905f52602052604090205460ff16156122a857565b63e2517d3f60e01b5f52336004527fa49807205ce4d355092ef5a8a18f56e8913cf4a201fbe287825b095693c2177560245260445ffd5b5f81815260056020908152604080832033845290915290205460ff16156123035750565b63e2517d3f60e01b5f523360045260245260445ffd5b5f8181526005602090815260408083206001600160a01b038616845290915290205460ff1661239f575f8181526005602090815260408083206001600160a01b0395909516808452949091528120805460ff19166001179055339291907f2f8788117e7eff1d82e926ec794901d17c78024a50270940304540a733656f0d9080a4600190565b50505f90565b6002600654146123b6576002600655565b633ee5aeb560e01b5f5260045ffd5b6001600160a01b0316908115612422577fddf252ad1be2c89b69c2b068fc378daa952ba7f163c4a11628f55a4df523b3ef6020826124065f946002546120ce565b60025584845283825260408420818154019055604051908152a3565b63ec442f0560e01b5f525f60045260245ffd5b5f8181526005602090815260408083206001600160a01b038616845290915290205460ff161561239f575f8181526005602090815260408083206001600160a01b0395909516808452949091528120805460ff19169055339291907ff6391f5c32d9c69d2a47ea670b442974b53935d1edc7fd64eb21e047a839171b9080a4600190565b6001600160a01b0316908115611272576001600160a01b031691821561242257815f525f60205260405f205481811061253757817fddf252ad1be2c89b69c2b068fc378daa952ba7f163c4a11628f55a4df523b3ef92602092855f525f84520360405f2055845f525f825260405f20818154019055604051908152a3565b8263391434e360e21b5f5260045260245260445260645ffdfed8ef4509105c3edb0b04658b4528edc5ddd30ea5a81e623a2623c88db1eb54b6a264697066735822122043d32df08f5bd7a962a3153890c0acd93e3b3f2f5b7f5f69b4cd89f9c6a6251864736f6c634300081c00332f8788117e7eff1d82e926ec794901d17c78024a50270940304540a733656f0dd8ef4509105c3edb0b04658b4528edc5ddd30ea5a81e623a2623c88db1eb54b60867ed765a4ffb35b1b243a04ffbdd72fa0c3d3da4a3844a11b52e5049ad745afbc93671eda18a3103415c6de11b46be272fd03129c33970fab0bfd26d35c8a005b8ccbb9d4d8fb16ea74ce3c29a41f1b461fbdaff4714a0d9a8eb05499746bc","linkReferences":{}},"methodIdentifiers":{"ADMIN_ROLE()":"75b238fc","DEFAULT_ADMIN_ROLE()":"a217fddf","EMERGENCY_ROLE()":"20df4359","YIELD_MANAGER_ROLE()":"fe9e9640","allowance(address,address)":"dd62ed3e","annualYieldRate()":"6abe7139","approve(address,uint256)":"095ea7b3","balanceOf(address)":"70a08231","burn(uint256)":"42966c68","calculateClaimableYield(address)":"3fb24ac5","claimYield()":"406cf229","decimals()":"313ce567","distributeYield()":"8a570a12","emergencyWithdraw(address)":"6ff1c9bc","getRoleAdmin(bytes32)":"248a9ca3","getStakingPositions(address)":"f043a587","grantRole(bytes32,address)":"2f2ff15d","hasRole(bytes32,address)":"91d14854","lastYieldDistribution()":"29eb5f2c","maxBurnPercentage()":"4b6968b0","maxTransferPercentage()":"ff3cf3f0","name()":"06fdde03","paused()":"5c975abb","propertyId()":"ee7a3b8e","propertyToken()":"43ae2695","purchaseTokens()":"3290ce29","recoverERC20(address,address,uint256)":"1171bda9","renounceRole(bytes32,address)":"36568abe","revokeRole(bytes32,address)":"d547741f","setAnnualYieldRate(uint256)":"c3e2ca41","setPaused(bool)":"16c38b3c","setPropertyReference(address,uint256)":"2b37472b","setTokenPrice(uint256)":"6a61e5fc","setTransferLimitExempt(address,bool)":"42ab9b26","setTransferLimits(uint256,uint256)":"75ec49b7","setYieldDistributionPeriod(uint256)":"bed4a7c1","stakeTokens(uint256,uint256)":"3b7b6188","supportsInterface(bytes4)":"01ffc9a7","symbol()":"95d89b41","tokenPrice()":"7ff9b596","totalSupply()":"18160ddd","transfer(address,uint256)":"a9059cbb","transferFrom(address,address,uint256)":"23b872dd","transferLimitExempt(address)":"22a53108","unstakeTokens(uint256)":"608e4dd0","yieldDistributionPeriod()":"dfd83a0f"},"id":40}