{"abi":[{"type":"constructor","inputs":[{"name":"propertyTokenAddress","type":"address","internalType":"address"}],"stateMutability":"nonpayable"},{"type":"function","name":"ADMIN_ROLE","inputs":[],"outputs":[{"name":"","type":"bytes32","internalType":"bytes32"}],"stateMutability":"view"},{"type":"function","name":"DEFAULT_ADMIN_ROLE","inputs":[],"outputs":[{"name":"","type":"bytes32","internalType":"bytes32"}],"stateMutability":"view"},{"type":"function","name":"allowance","inputs":[{"name":"owner","type":"address","internalType":"address"},{"name":"spender","type":"address","internalType":"address"}],"outputs":[{"name":"","type":"uint256","internalType":"uint256"}],"stateMutability":"view"},{"type":"function","name":"approve","inputs":[{"name":"spender","type":"address","internalType":"address"},{"name":"value","type":"uint256","internalType":"uint256"}],"outputs":[{"name":"","type":"bool","internalType":"bool"}],"stateMutability":"nonpayable"},{"type":"function","name":"balanceOf","inputs":[{"name":"account","type":"address","internalType":"address"}],"outputs":[{"name":"","type":"uint256","internalType":"uint256"}],"stateMutability":"view"},{"type":"function","name":"burn","inputs":[{"name":"value","type":"uint256","internalType":"uint256"}],"outputs":[],"stateMutability":"nonpayable"},{"type":"function","name":"burnFrom","inputs":[{"name":"account","type":"address","internalType":"address"},{"name":"value","type":"uint256","internalType":"uint256"}],"outputs":[],"stateMutability":"nonpayable"},{"type":"function","name":"decimals","inputs":[],"outputs":[{"name":"","type":"uint8","internalType":"uint8"}],"stateMutability":"view"},{"type":"function","name":"defractionalizeProperty","inputs":[{"name":"propertyId","type":"uint256","internalType":"uint256"}],"outputs":[],"stateMutability":"nonpayable"},{"type":"function","name":"fractionalizeProperty","inputs":[{"name":"propertyId","type":"uint256","internalType":"uint256"},{"name":"totalShares","type":"uint256","internalType":"uint256"},{"name":"sharePrice","type":"uint256","internalType":"uint256"}],"outputs":[],"stateMutability":"nonpayable"},{"type":"function","name":"getFractionalizedProperty","inputs":[{"name":"propertyId","type":"uint256","internalType":"uint256"}],"outputs":[{"name":"","type":"tuple","internalType":"struct FractionalOwnership.FractionalizedProperty","components":[{"name":"propertyId","type":"uint256","internalType":"uint256"},{"name":"totalShares","type":"uint256","internalType":"uint256"},{"name":"sharePrice","type":"uint256","internalType":"uint256"},{"name":"active","type":"bool","internalType":"bool"}]}],"stateMutability":"view"},{"type":"function","name":"getRoleAdmin","inputs":[{"name":"role","type":"bytes32","internalType":"bytes32"}],"outputs":[{"name":"","type":"bytes32","internalType":"bytes32"}],"stateMutability":"view"},{"type":"function","name":"getRoleMember","inputs":[{"name":"role","type":"bytes32","internalType":"bytes32"},{"name":"index","type":"uint256","internalType":"uint256"}],"outputs":[{"name":"","type":"address","internalType":"address"}],"stateMutability":"view"},{"type":"function","name":"getRoleMemberCount","inputs":[{"name":"role","type":"bytes32","internalType":"bytes32"}],"outputs":[{"name":"","type":"uint256","internalType":"uint256"}],"stateMutability":"view"},{"type":"function","name":"grantRole","inputs":[{"name":"role","type":"bytes32","internalType":"bytes32"},{"name":"account","type":"address","internalType":"address"}],"outputs":[],"stateMutability":"nonpayable"},{"type":"function","name":"hasRole","inputs":[{"name":"role","type":"bytes32","internalType":"bytes32"},{"name":"account","type":"address","internalType":"address"}],"outputs":[{"name":"","type":"bool","internalType":"bool"}],"stateMutability":"view"},{"type":"function","name":"isPropertyFractionalized","inputs":[{"name":"propertyId","type":"uint256","internalType":"uint256"}],"outputs":[{"name":"","type":"bool","internalType":"bool"}],"stateMutability":"view"},{"type":"function","name":"name","inputs":[],"outputs":[{"name":"","type":"string","internalType":"string"}],"stateMutability":"view"},{"type":"function","name":"onERC721Received","inputs":[{"name":"","type":"address","internalType":"address"},{"name":"","type":"address","internalType":"address"},{"name":"","type":"uint256","internalType":"uint256"},{"name":"","type":"bytes","internalType":"bytes"}],"outputs":[{"name":"","type":"bytes4","internalType":"bytes4"}],"stateMutability":"nonpayable"},{"type":"function","name":"propertyToken","inputs":[],"outputs":[{"name":"","type":"address","internalType":"contract RealEstateERC721"}],"stateMutability":"view"},{"type":"function","name":"purchaseShares","inputs":[{"name":"propertyId","type":"uint256","internalType":"uint256"},{"name":"shares","type":"uint256","internalType":"uint256"}],"outputs":[],"stateMutability":"payable"},{"type":"function","name":"renounceRole","inputs":[{"name":"role","type":"bytes32","internalType":"bytes32"},{"name":"callerConfirmation","type":"address","internalType":"address"}],"outputs":[],"stateMutability":"nonpayable"},{"type":"function","name":"revokeRole","inputs":[{"name":"role","type":"bytes32","internalType":"bytes32"},{"name":"account","type":"address","internalType":"address"}],"outputs":[],"stateMutability":"nonpayable"},{"type":"function","name":"supportsInterface","inputs":[{"name":"interfaceId","type":"bytes4","internalType":"bytes4"}],"outputs":[{"name":"","type":"bool","internalType":"bool"}],"stateMutability":"view"},{"type":"function","name":"symbol","inputs":[],"outputs":[{"name":"","type":"string","internalType":"string"}],"stateMutability":"view"},{"type":"function","name":"totalSupply","inputs":[],"outputs":[{"name":"","type":"uint256","internalType":"uint256"}],"stateMutability":"view"},{"type":"function","name":"transfer","inputs":[{"name":"to","type":"address","internalType":"address"},{"name":"value","type":"uint256","internalType":"uint256"}],"outputs":[{"name":"","type":"bool","internalType":"bool"}],"stateMutability":"nonpayable"},{"type":"function","name":"transferFrom","inputs":[{"name":"from","type":"address","internalType":"address"},{"name":"to","type":"address","internalType":"address"},{"name":"value","type":"uint256","internalType":"uint256"}],"outputs":[{"name":"","type":"bool","internalType":"bool"}],"stateMutability":"nonpayable"},{"type":"event","name":"Approval","inputs":[{"name":"owner","type":"address","indexed":true,"internalType":"address"},{"name":"spender","type":"address","indexed":true,"internalType":"address"},{"name":"value","type":"uint256","indexed":false,"internalType":"uint256"}],"anonymous":false},{"type":"event","name":"PropertyDefactionalized","inputs":[{"name":"propertyId","type":"uint256","indexed":true,"internalType":"uint256"}],"anonymous":false},{"type":"event","name":"PropertyFractionalized","inputs":[{"name":"propertyId","type":"uint256","indexed":true,"internalType":"uint256"},{"name":"totalShares","type":"uint256","indexed":false,"internalType":"uint256"},{"name":"sharePrice","type":"uint256","indexed":false,"internalType":"uint256"}],"anonymous":false},{"type":"event","name":"RoleAdminChanged","inputs":[{"name":"role","type":"bytes32","indexed":true,"internalType":"bytes32"},{"name":"previousAdminRole","type":"bytes32","indexed":true,"internalType":"bytes32"},{"name":"newAdminRole","type":"bytes32","indexed":true,"internalType":"bytes32"}],"anonymous":false},{"type":"event","name":"RoleGranted","inputs":[{"name":"role","type":"bytes32","indexed":true,"internalType":"bytes32"},{"name":"account","type":"address","indexed":true,"internalType":"address"},{"name":"sender","type":"address","indexed":true,"internalType":"address"}],"anonymous":false},{"type":"event","name":"RoleRevoked","inputs":[{"name":"role","type":"bytes32","indexed":true,"internalType":"bytes32"},{"name":"account","type":"address","indexed":true,"internalType":"address"},{"name":"sender","type":"address","indexed":true,"internalType":"address"}],"anonymous":false},{"type":"event","name":"SharesPurchased","inputs":[{"name":"propertyId","type":"uint256","indexed":true,"internalType":"uint256"},{"name":"buyer","type":"address","indexed":false,"internalType":"address"},{"name":"shares","type":"uint256","indexed":false,"internalType":"uint256"},{"name":"cost","type":"uint256","indexed":false,"internalType":"uint256"}],"anonymous":false},{"type":"event","name":"Transfer","inputs":[{"name":"from","type":"address","indexed":true,"internalType":"address"},{"name":"to","type":"address","indexed":true,"internalType":"address"},{"name":"value","type":"uint256","indexed":false,"internalType":"uint256"}],"anonymous":false},{"type":"error","name":"AccessControlBadConfirmation","inputs":[]},{"type":"error","name":"AccessControlUnauthorizedAccount","inputs":[{"name":"account","type":"address","internalType":"address"},{"name":"neededRole","type":"bytes32","internalType":"bytes32"}]},{"type":"error","name":"ERC20InsufficientAllowance","inputs":[{"name":"spender","type":"address","internalType":"address"},{"name":"allowance","type":"uint256","internalType":"uint256"},{"name":"needed","type":"uint256","internalType":"uint256"}]},{"type":"error","name":"ERC20InsufficientBalance","inputs":[{"name":"sender","type":"address","internalType":"address"},{"name":"balance","type":"uint256","internalType":"uint256"},{"name":"needed","type":"uint256","internalType":"uint256"}]},{"type":"error","name":"ERC20InvalidApprover","inputs":[{"name":"approver","type":"address","internalType":"address"}]},{"type":"error","name":"ERC20InvalidReceiver","inputs":[{"name":"receiver","type":"address","internalType":"address"}]},{"type":"error","name":"ERC20InvalidSender","inputs":[{"name":"sender","type":"address","internalType":"address"}]},{"type":"error","name":"ERC20InvalidSpender","inputs":[{"name":"spender","type":"address","internalType":"address"}]}],"bytecode":{"object":"0x6080604052346103d857611cbf6020813803918261001c816103dc565b9384928339810103126103d857516001600160a01b038116908190036103d85761004660406103dc565b90601c82527f4672616374696f6e616c205265616c2045737461746520546f6b656e00000000602083015261007b60406103dc565b60048152631194915560e21b602082015282519091906001600160401b0381116102e957600354600181811c911680156103ce575b60208210146102cb57601f811161036b575b506020601f821160011461030857819293945f926102fd575b50508160011b915f199060031b1c1916176003555b81516001600160401b0381116102e957600454600181811c911680156102df575b60208210146102cb57601f8111610268575b50602092601f821160011461020757928192935f926101fc575b50508160011b915f199060031b1c1916176004555b600780546001600160a01b03191691909117905561016f33610401565b505f805260066020526101a2337f54cdd369e4e8a8515e52ca72ec816c2101831ad1f18bf44102ed171459c9b4f86104f7565b506101ac33610477565b505f516020611c7f5f395f51905f525f5260066020526101ec337f0c3bb05773fb95f6688e1e7d9c896674dccd66884026cf30a3d5e3a9bfecd8116104f7565b506040516116d790816105688239f35b015190505f8061013d565b601f1982169360045f52805f20915f5b8681106102505750836001959610610238575b505050811b01600455610152565b01515f1960f88460031b161c191690555f808061022a565b91926020600181928685015181550194019201610217565b60045f527f8a35acfbc15ff81a39ae7d344fd709f28e8600b4aa8c65c6b64bfe7fe36bd19b601f830160051c810191602084106102c1575b601f0160051c01905b8181106102b65750610123565b5f81556001016102a9565b90915081906102a0565b634e487b7160e01b5f52602260045260245ffd5b90607f1690610111565b634e487b7160e01b5f52604160045260245ffd5b015190505f806100db565b601f1982169060035f52805f20915f5b8181106103535750958360019596971061033b575b505050811b016003556100f0565b01515f1960f88460031b161c191690555f808061032d565b9192602060018192868b015181550194019201610318565b60035f527fc2575a0e9e593c00f959f8c92f12db2869c3395a3b0502d05e2516446f71f85b601f830160051c810191602084106103c4575b601f0160051c01905b8181106103b957506100c2565b5f81556001016103ac565b90915081906103a3565b90607f16906100b0565b5f80fd5b6040519190601f01601f191682016001600160401b038111838210176102e957604052565b6001600160a01b0381165f9081525f516020611c9f5f395f51905f52602052604090205460ff16610472576001600160a01b03165f8181525f516020611c9f5f395f51905f5260205260408120805460ff191660011790553391905f516020611c3f5f395f51905f528180a4600190565b505f90565b6001600160a01b0381165f9081525f516020611c5f5f395f51905f52602052604090205460ff16610472576001600160a01b03165f8181525f516020611c5f5f395f51905f5260205260408120805460ff191660011790553391905f516020611c7f5f395f51905f52905f516020611c3f5f395f51905f529080a4600190565b6001810190825f528160205260405f2054155f14610560578054680100000000000000008110156102e9576001810180835581101561054c578390825f5260205f20015554915f5260205260405f2055600190565b634e487b7160e01b5f52603260045260245ffd5b5050505f9056fe6080806040526004361015610012575f80fd5b5f905f3560e01c90816301ffc9a714610f8e5750806306fdde0314610e9a578063095ea7b314610df2578063150b7a0214610d8157806318160ddd14610d6457806323b872dd14610d2c578063248a9ca314610cf95780632a36e955146109ad5780632f2ff15d1461094c578063313ce5671461093057806336568abe146108eb57806342966c68146108cd57806343ae2695146108a457806370a082311461086c578063747503921461072a57806375b238fc146106ef57806379cc6790146106bb5780639010d07c1461067557806391d148541461062b57806395d89b4114610522578063a217fddf14610506578063a9059cbb146104d4578063b1a4aedc1461043d578063c9a9fa8d1461040b578063ca15c873146103e1578063d2bcdc60146101ef578063d547741f146101a75763dd62ed3e14610152575f80fd5b346101a45760403660031901126101a457604061016d61103f565b91610176611055565b9260018060a01b031681526001602052209060018060a01b03165f52602052602060405f2054604051908152f35b80fd5b50346101a45760403660031901126101a4576101eb6004356101c7611055565b906101e66101e1825f526005602052600160405f20015490565b611269565b6112a3565b5080f35b5060403660031901126101a45760043560243581835260086020526040832061021e60ff6003830154166110bd565b811561039d576002015480820290828204036103895780341061034d5761024482611359565b6001600160a01b03811680156103085785808481949361026788849633906111ac565b8282156102ff575bf1156102d7578034116102b7575b7fce81571c08c76465bdf390ad1abe80af8c51c6c4566e3485f9395f13d5ad6328916060916040519133835260208301526040820152a280f35b8034033481116102eb578480808093818634146102e2575b3390f161027d575b6040513d85823e3d90fd5b506108fc6102cf565b634e487b7160e01b85526011600452602485fd5b506108fc61026f565b60405162461bcd60e51b815260206004820152601c60248201527f4e6f2073656c6c6572207769746820656e6f75676820736861726573000000006044820152606490fd5b60405162461bcd60e51b8152602060048201526014602482015273125b9cdd59999a58da595b9d081c185e5b595b9d60621b6044820152606490fd5b634e487b7160e01b84526011600452602484fd5b606460405162461bcd60e51b815260206004820152602060248201527f536861726573206d7573742062652067726561746572207468616e207a65726f6044820152fd5b50346101a45760203660031901126101a45760406020916004358152600683522054604051908152f35b50346101a45760203660031901126101a45760ff60036040602093600435815260088552200154166040519015158152f35b50346101a45760203660031901126101a457604081608092606083516104628161106b565b8281528260208201528285820152015260043581526008602052206040516104898161106b565b815491828252600181015460208301908152606060ff600360028501549460408701958652015416930192151583526040519384525160208401525160408301525115156060820152f35b50346101a45760403660031901126101a4576104fb6104f161103f565b60243590336111ac565b602060405160018152f35b50346101a457806003193601126101a457602090604051908152f35b50346101a457806003193601126101a4576040519080600454908160011c91600181168015610621575b60208410811461060d578386529081156105e65750600114610589575b610585846105798186038261109b565b60405191829182611015565b0390f35b600481527f8a35acfbc15ff81a39ae7d344fd709f28e8600b4aa8c65c6b64bfe7fe36bd19b939250905b8082106105cc5750909150810160200161057982610569565b9192600181602092548385880101520191019092916105b3565b60ff191660208087019190915292151560051b850190920192506105799150839050610569565b634e487b7160e01b83526022600452602483fd5b92607f169261054c565b50346101a45760403660031901126101a4576040610647611055565b9160043581526005602052209060018060a01b03165f52602052602060ff60405f2054166040519015158152f35b50346101a45760403660031901126101a4576106a260406020926004358152600684522060243590611530565b905460405160039290921b1c6001600160a01b03168152f35b50346101a45760403660031901126101a4576106ec6106d861103f565b602435906106e7823383611109565b6112d5565b80f35b50346101a457806003193601126101a45760206040517fa49807205ce4d355092ef5a8a18f56e8913cf4a201fbe287825b095693c217758152f35b50346101a45760203660031901126101a457600435808252600860205260408220600381019061075d60ff8354166110bd565b33845283602052600160408520549101908154036108275760075484906001600160a01b0316803b1561082357604051632142170760e11b8152306004820152336024820152604481018690529082908290606490829084905af18015610818576107ff575b50506107d09054336112d5565b805460ff191690557f9610c3738a8c4cc760828c2a101ad30f8669123d72b132cea600d1019c4984138280a280f35b816108099161109b565b61081457835f6107c3565b8380fd5b6040513d84823e3d90fd5b5080fd5b60405162461bcd60e51b815260206004820152601e60248201527f43616c6c657220646f6573206e6f74206f776e20616c6c2073686172657300006044820152606490fd5b50346101a45760203660031901126101a4576020906040906001600160a01b0361089461103f565b1681528083522054604051908152f35b50346101a457806003193601126101a4576007546040516001600160a01b039091168152602090f35b50346101a45760203660031901126101a4576106ec600435336112d5565b50346101a45760403660031901126101a457610905611055565b336001600160a01b03821603610921576101eb906004356112a3565b63334bd91960e11b8252600482fd5b50346101a457806003193601126101a457602060405160128152f35b50346101a45760403660031901126101a4576101eb60043561096c611055565b906109866101e1825f526005602052600160405f20015490565b6109908282611420565b5083526006602052604083206001600160a01b0390911690611559565b5034610b83576060366003190112610b835760043560243560443560018060a01b03600754166040516331a9108f60e11b8152846004820152602081602481855afa908115610b78575f91610cb7575b50336001600160a01b0390911603610c73578215610c1f578115610bcc57835f52600860205260ff600360405f20015416610b8757803b15610b8357604051632142170760e11b815233600482015230602482015260448101859052905f908290606490829084905af18015610b7857610b63575b50604051610a7f8161106b565b838152600360208201918483526040810184815260608201936001855287895260086020526040892092518355516001830155516002820155019051151560ff801983541691161790553315610b4f576002548281018091116102eb57916040917f57ec5805c6cef678400a3cca874aa8227fd7fd2947b39f2afeef32296f168b5593600255338652856020528286208281540190558251828152867fddf252ad1be2c89b69c2b068fc378daa952ba7f163c4a11628f55a4df523b3ef60203393a382519182526020820152a280f35b63ec442f0560e01b84526004849052602484fd5b610b709194505f9061109b565b5f925f610a72565b6040513d5f823e3d90fd5b5f80fd5b60405162461bcd60e51b815260206004820152601f60248201527f50726f706572747920616c7265616479206672616374696f6e616c697a6564006044820152606490fd5b60405162461bcd60e51b815260206004820152602560248201527f5368617265207072696365206d7573742062652067726561746572207468616e604482015264207a65726f60d81b6064820152608490fd5b60405162461bcd60e51b815260206004820152602660248201527f546f74616c20736861726573206d7573742062652067726561746572207468616044820152656e207a65726f60d01b6064820152608490fd5b606460405162461bcd60e51b815260206004820152602060248201527f43616c6c6572206973206e6f74207468652070726f7065727479206f776e65726044820152fd5b90506020813d602011610cf1575b81610cd26020938361109b565b81010312610b8357516001600160a01b0381168103610b83575f6109fd565b3d9150610cc5565b34610b83576020366003190112610b83576020610d246004355f526005602052600160405f20015490565b604051908152f35b34610b83576060366003190112610b83576104fb610d4861103f565b610d50611055565b60443591610d5f833383611109565b6111ac565b34610b83575f366003190112610b83576020600254604051908152f35b34610b83576080366003190112610b8357610d9a61103f565b50610da3611055565b5060643567ffffffffffffffff8111610b835736602382011215610b8357806004013567ffffffffffffffff8111610b835736910160240111610b8357604051630a85bd0160e11b8152602090f35b34610b83576040366003190112610b8357610e0b61103f565b602435903315610e87576001600160a01b0316908115610e7457335f52600160205260405f20825f526020528060405f20556040519081527f8c5be1e5ebec7d5bd14f71427d1e84f3dd0314c0f7b2291e5b200ac8c7c3b92560203392a3602060405160018152f35b634a1406b160e11b5f525f60045260245ffd5b63e602df0560e01b5f525f60045260245ffd5b34610b83575f366003190112610b83576040515f6003548060011c90600181168015610f84575b602083108114610f7057828552908115610f4c5750600114610eee575b610585836105798185038261109b565b91905060035f527fc2575a0e9e593c00f959f8c92f12db2869c3395a3b0502d05e2516446f71f85b915f905b808210610f3257509091508101602001610579610ede565b919260018160209254838588010152019101909291610f1a565b60ff191660208086019190915291151560051b840190910191506105799050610ede565b634e487b7160e01b5f52602260045260245ffd5b91607f1691610ec1565b34610b83576020366003190112610b83576004359063ffffffff60e01b8216809203610b8357602091630a85bd0160e11b8114908115610fd0575b5015158152f35b635a05180f60e01b811491508115610fea575b5083610fc9565b637965db0b60e01b811491508115611004575b5083610fe3565b6301ffc9a760e01b14905083610ffd565b602060409281835280519182918282860152018484015e5f828201840152601f01601f1916010190565b600435906001600160a01b0382168203610b8357565b602435906001600160a01b0382168203610b8357565b6080810190811067ffffffffffffffff82111761108757604052565b634e487b7160e01b5f52604160045260245ffd5b90601f8019910116810190811067ffffffffffffffff82111761108757604052565b156110c457565b60405162461bcd60e51b815260206004820152601e60248201527f50726f7065727479206973206e6f74206672616374696f6e616c697a656400006044820152606490fd5b6001600160a01b039081165f818152600160209081526040808320948616835293905291909120549291905f198410611143575b50505050565b828410611189578015610e87576001600160a01b03821615610e74575f52600160205260405f209060018060a01b03165f5260205260405f20910390555f80808061113d565b508290637dc7a0d960e11b5f5260018060a01b031660045260245260445260645ffd5b6001600160a01b0316908115611256576001600160a01b031691821561124357815f525f60205260405f205481811061122a57817fddf252ad1be2c89b69c2b068fc378daa952ba7f163c4a11628f55a4df523b3ef92602092855f525f84520360405f2055845f525f825260405f20818154019055604051908152a3565b8263391434e360e21b5f5260045260245260445260645ffd5b63ec442f0560e01b5f525f60045260245ffd5b634b637e8f60e11b5f525f60045260245ffd5b5f81815260056020908152604080832033845290915290205460ff161561128d5750565b63e2517d3f60e01b5f523360045260245260445ffd5b906112d1906112b281846114ac565b5f938452600660205260409093206001600160a01b03909116906115c8565b5090565b9091906001600160a01b0316801561125657805f525f60205260405f205483811061133f576020845f94957fddf252ad1be2c89b69c2b068fc378daa952ba7f163c4a11628f55a4df523b3ef938587528684520360408620558060025403600255604051908152a3565b915063391434e360e21b5f5260045260245260445260645ffd5b7fa49807205ce4d355092ef5a8a18f56e8913cf4a201fbe287825b095693c217755f52600660205260405f2054905f5b828110611397575050505f90565b7fa49807205ce4d355092ef5a8a18f56e8913cf4a201fbe287825b095693c217755f5260066020526113e9817f0c3bb05773fb95f6688e1e7d9c896674dccd66884026cf30a3d5e3a9bfecd811611530565b905460039190911b1c6001600160a01b03165f818152602081905260409020548311156114195750600101611389565b9250505090565b5f8181526005602090815260408083206001600160a01b038616845290915290205460ff166114a6575f8181526005602090815260408083206001600160a01b0395909516808452949091528120805460ff19166001179055339291907f2f8788117e7eff1d82e926ec794901d17c78024a50270940304540a733656f0d9080a4600190565b50505f90565b5f8181526005602090815260408083206001600160a01b038616845290915290205460ff16156114a6575f8181526005602090815260408083206001600160a01b0395909516808452949091528120805460ff19169055339291907ff6391f5c32d9c69d2a47ea670b442974b53935d1edc7fd64eb21e047a839171b9080a4600190565b8054821015611545575f5260205f2001905f90565b634e487b7160e01b5f52603260045260245ffd5b6001810190825f528160205260405f2054155f146115c157805468010000000000000000811015611087576115ae611598826001879401855584611530565b819391549060031b91821b915f19901b19161790565b905554915f5260205260405f2055600190565b5050505f90565b906001820191815f528260205260405f20548015155f14611699575f1981018181116116855782545f1981019190821161168557818103611650575b5050508054801561163c575f19019061161d8282611530565b8154905f199060031b1b19169055555f526020525f6040812055600190565b634e487b7160e01b5f52603160045260245ffd5b6116706116606115989386611530565b90549060031b1c92839286611530565b90555f528360205260405f20555f8080611604565b634e487b7160e01b5f52601160045260245ffd5b505050505f9056fea264697066735822122060c0469747cb29d47f1a2849d58b83d6561b7f10125c2f190e4326673822131464736f6c634300081c00332f8788117e7eff1d82e926ec794901d17c78024a50270940304540a733656f0dd8ef4509105c3edb0b04658b4528edc5ddd30ea5a81e623a2623c88db1eb54b6a49807205ce4d355092ef5a8a18f56e8913cf4a201fbe287825b095693c2177505b8ccbb9d4d8fb16ea74ce3c29a41f1b461fbdaff4714a0d9a8eb05499746bc","linkReferences":{}},"methodIdentifiers":{"ADMIN_ROLE()":"75b238fc","DEFAULT_ADMIN_ROLE()":"a217fddf","allowance(address,address)":"dd62ed3e","approve(address,uint256)":"095ea7b3","balanceOf(address)":"70a08231","burn(uint256)":"42966c68","burnFrom(address,uint256)":"79cc6790","decimals()":"313ce567","defractionalizeProperty(uint256)":"74750392","fractionalizeProperty(uint256,uint256,uint256)":"2a36e955","getFractionalizedProperty(uint256)":"b1a4aedc","getRoleAdmin(bytes32)":"248a9ca3","getRoleMember(bytes32,uint256)":"9010d07c","getRoleMemberCount(bytes32)":"ca15c873","grantRole(bytes32,address)":"2f2ff15d","hasRole(bytes32,address)":"91d14854","isPropertyFractionalized(uint256)":"c9a9fa8d","name()":"06fdde03","onERC721Received(address,address,uint256,bytes)":"150b7a02","propertyToken()":"43ae2695","purchaseShares(uint256,uint256)":"d2bcdc60","renounceRole(bytes32,address)":"36568abe","revokeRole(bytes32,address)":"d547741f","supportsInterface(bytes4)":"01ffc9a7","symbol()":"95d89b41","totalSupply()":"18160ddd","transfer(address,uint256)":"a9059cbb","transferFrom(address,address,uint256)":"23b872dd"},"id":35}