{"abi":[{"type":"constructor","inputs":[{"name":"propertyTokenAddress","type":"address","internalType":"address"}],"stateMutability":"nonpayable"},{"type":"receive","stateMutability":"payable"},{"type":"function","name":"DEFAULT_ADMIN_ROLE","inputs":[],"outputs":[{"name":"","type":"bytes32","internalType":"bytes32"}],"stateMutability":"view"},{"type":"function","name":"RENTAL_MANAGER_ROLE","inputs":[],"outputs":[{"name":"","type":"bytes32","internalType":"bytes32"}],"stateMutability":"view"},{"type":"function","name":"createRental","inputs":[{"name":"propertyId","type":"uint256","internalType":"uint256"},{"name":"tenant","type":"address","internalType":"address"},{"name":"monthlyRent","type":"uint256","internalType":"uint256"},{"name":"securityDeposit","type":"uint256","internalType":"uint256"},{"name":"durationMonths","type":"uint256","internalType":"uint256"},{"name":"agreementURI","type":"string","internalType":"string"}],"outputs":[{"name":"","type":"uint256","internalType":"uint256"}],"stateMutability":"payable"},{"type":"function","name":"expireRental","inputs":[{"name":"rentalId","type":"uint256","internalType":"uint256"}],"outputs":[],"stateMutability":"nonpayable"},{"type":"function","name":"getRental","inputs":[{"name":"rentalId","type":"uint256","internalType":"uint256"}],"outputs":[{"name":"","type":"tuple","internalType":"struct RentalAgreement.Rental","components":[{"name":"propertyId","type":"uint256","internalType":"uint256"},{"name":"landlord","type":"address","internalType":"address"},{"name":"tenant","type":"address","internalType":"address"},{"name":"monthlyRent","type":"uint256","internalType":"uint256"},{"name":"securityDeposit","type":"uint256","internalType":"uint256"},{"name":"startDate","type":"uint256","internalType":"uint256"},{"name":"endDate","type":"uint256","internalType":"uint256"},{"name":"lastPaymentDate","type":"uint256","internalType":"uint256"},{"name":"status","type":"uint8","internalType":"enum RentalAgreement.RentalStatus"},{"name":"agreementURI","type":"string","internalType":"string"}]}],"stateMutability":"view"},{"type":"function","name":"getRoleAdmin","inputs":[{"name":"role","type":"bytes32","internalType":"bytes32"}],"outputs":[{"name":"","type":"bytes32","internalType":"bytes32"}],"stateMutability":"view"},{"type":"function","name":"getSecurityDeposit","inputs":[{"name":"rentalId","type":"uint256","internalType":"uint256"}],"outputs":[{"name":"","type":"uint256","internalType":"uint256"}],"stateMutability":"view"},{"type":"function","name":"grantRole","inputs":[{"name":"role","type":"bytes32","internalType":"bytes32"},{"name":"account","type":"address","internalType":"address"}],"outputs":[],"stateMutability":"nonpayable"},{"type":"function","name":"hasRole","inputs":[{"name":"role","type":"bytes32","internalType":"bytes32"},{"name":"account","type":"address","internalType":"address"}],"outputs":[{"name":"","type":"bool","internalType":"bool"}],"stateMutability":"view"},{"type":"function","name":"isRentOverdue","inputs":[{"name":"rentalId","type":"uint256","internalType":"uint256"}],"outputs":[{"name":"","type":"bool","internalType":"bool"}],"stateMutability":"view"},{"type":"function","name":"payRent","inputs":[{"name":"rentalId","type":"uint256","internalType":"uint256"}],"outputs":[],"stateMutability":"payable"},{"type":"function","name":"propertyToken","inputs":[],"outputs":[{"name":"","type":"address","internalType":"contract RealEstateERC721"}],"stateMutability":"view"},{"type":"function","name":"renounceRole","inputs":[{"name":"role","type":"bytes32","internalType":"bytes32"},{"name":"callerConfirmation","type":"address","internalType":"address"}],"outputs":[],"stateMutability":"nonpayable"},{"type":"function","name":"returnSecurityDeposit","inputs":[{"name":"rentalId","type":"uint256","internalType":"uint256"},{"name":"deductions","type":"uint256","internalType":"uint256"}],"outputs":[],"stateMutability":"nonpayable"},{"type":"function","name":"revokeRole","inputs":[{"name":"role","type":"bytes32","internalType":"bytes32"},{"name":"account","type":"address","internalType":"address"}],"outputs":[],"stateMutability":"nonpayable"},{"type":"function","name":"supportsInterface","inputs":[{"name":"interfaceId","type":"bytes4","internalType":"bytes4"}],"outputs":[{"name":"","type":"bool","internalType":"bool"}],"stateMutability":"view"},{"type":"function","name":"terminateRental","inputs":[{"name":"rentalId","type":"uint256","internalType":"uint256"},{"name":"reason","type":"string","internalType":"string"}],"outputs":[],"stateMutability":"nonpayable"},{"type":"event","name":"RentPaid","inputs":[{"name":"rentalId","type":"uint256","indexed":true,"internalType":"uint256"},{"name":"amount","type":"uint256","indexed":false,"internalType":"uint256"},{"name":"paymentDate","type":"uint256","indexed":false,"internalType":"uint256"}],"anonymous":false},{"type":"event","name":"RentalCreated","inputs":[{"name":"rentalId","type":"uint256","indexed":true,"internalType":"uint256"},{"name":"propertyId","type":"uint256","indexed":true,"internalType":"uint256"},{"name":"landlord","type":"address","indexed":false,"internalType":"address"},{"name":"tenant","type":"address","indexed":false,"internalType":"address"}],"anonymous":false},{"type":"event","name":"RentalExpired","inputs":[{"name":"rentalId","type":"uint256","indexed":true,"internalType":"uint256"}],"anonymous":false},{"type":"event","name":"RentalTerminated","inputs":[{"name":"rentalId","type":"uint256","indexed":true,"internalType":"uint256"},{"name":"reason","type":"string","indexed":false,"internalType":"string"}],"anonymous":false},{"type":"event","name":"RoleAdminChanged","inputs":[{"name":"role","type":"bytes32","indexed":true,"internalType":"bytes32"},{"name":"previousAdminRole","type":"bytes32","indexed":true,"internalType":"bytes32"},{"name":"newAdminRole","type":"bytes32","indexed":true,"internalType":"bytes32"}],"anonymous":false},{"type":"event","name":"RoleGranted","inputs":[{"name":"role","type":"bytes32","indexed":true,"internalType":"bytes32"},{"name":"account","type":"address","indexed":true,"internalType":"address"},{"name":"sender","type":"address","indexed":true,"internalType":"address"}],"anonymous":false},{"type":"event","name":"RoleRevoked","inputs":[{"name":"role","type":"bytes32","indexed":true,"internalType":"bytes32"},{"name":"account","type":"address","indexed":true,"internalType":"address"},{"name":"sender","type":"address","indexed":true,"internalType":"address"}],"anonymous":false},{"type":"event","name":"SecurityDepositReturned","inputs":[{"name":"rentalId","type":"uint256","indexed":true,"internalType":"uint256"},{"name":"tenant","type":"address","indexed":false,"internalType":"address"},{"name":"amount","type":"uint256","indexed":false,"internalType":"uint256"}],"anonymous":false},{"type":"error","name":"AccessControlBadConfirmation","inputs":[]},{"type":"error","name":"AccessControlUnauthorizedAccount","inputs":[{"name":"account","type":"address","internalType":"address"},{"name":"neededRole","type":"bytes32","internalType":"bytes32"}]},{"type":"error","name":"ReentrancyGuardReentrantCall","inputs":[]}],"bytecode":{"object":"0x60803461008c57601f61164138819003918201601f19168301916001600160401b038311848410176100905780849260209460405283398101031261008c57516001600160a01b0381169081900361008c5760015f55600280546001600160a01b031916919091179055610072336100a4565b5061007c3361011a565b5060405161143390816101ae8239f35b5f80fd5b634e487b7160e01b5f52604160045260245ffd5b6001600160a01b0381165f9081525f5160206116015f395f51905f52602052604090205460ff16610115576001600160a01b03165f8181525f5160206116015f395f51905f5260205260408120805460ff191660011790553391905f5160206115e15f395f51905f528180a4600190565b505f90565b6001600160a01b0381165f9081525f5160206116215f395f51905f52602052604090205460ff16610115576001600160a01b03165f8181525f5160206116215f395f51905f5260205260408120805460ff191660011790553391907f8162f2d0a72b96ba5894e27f73d96591f1c0c2756818850eaab7404654388817905f5160206115e15f395f51905f529080a460019056fe608080604052600436101561001c575b50361561001a575f80fd5b005b5f3560e01c90816301ffc9a7146110ad5750806314b2b27f14611073578063164dad0114610f24578063248a9ca314610ef15780632f2ff15d14610eb357806336568abe14610e6f57806343ae269514610e4757806343f684bb14610e1f578063444a852014610df5578063652bd29e14610bdd57806391d1485414610b94578063a217fddf14610b7a578063bc1af044146108e8578063c71e3dfd14610828578063d547741f146107e5578063d9e8843f146106565763db2bac13146100e3575f61000f565b60c036600319011261064a576004356100fa611195565b906084359060643560443560a43567ffffffffffffffff811161064a5761012590369060040161113f565b946024602060018060a01b0360025416604051928380926331a9108f60e11b82528960048301525afa90811561038f575f91610610575b50336001600160a01b03909116036105cc576001600160a01b031694851561058e57811561053a5784156104ea57821515918261049d575b600454955f198714610489576001870160045562278d00810290810462278d00036104895742019081421161048957604051906101d082611100565b868252602082019233845260408301918a8352606084019081526080840188815260a085019142835260c0860193845260e0860194428652610100870197600189526101208801998a528d5f52600360205260405f209751885560018060a01b03905116600188019060018060a01b03166bffffffffffffffffffffffff60a01b82541617905560018060a01b03905116600287019060018060a01b03166bffffffffffffffffffffffff60a01b8254161790555160038601555160048501555160058401555160068301555160078201556008810191519160048310156104755760099260ff8019835416911617905501905180519067ffffffffffffffff82116104615781906102e28454611250565b601f8111610411575b50602090601f83116001146103ae575f926103a3575b50508160011b915f199060031b1c19161790555b610355575b50817ff83bf6113b796610b35e985c4c74d7039cc857a5a0f19e9e2b6034caeaecdfa4604060209581519033825287820152a3604051908152f35b825f5260056020528060405f20558034111561031a575f8080610379819434611288565b81811561039a575b3390f11561038f575f61031a565b6040513d5f823e3d90fd5b506108fc610381565b015190505f80610301565b5f8581528281209350601f198516905b8181106103f957509084600195949392106103e1575b505050811b019055610315565b01515f1960f88460031b161c191690555f80806103d4565b929360206001819287860151815501950193016103be565b909150835f5260205f20601f840160051c81019160208510610457575b90601f859493920160051c01905b81811061044957506102eb565b5f815584935060010161043c565b909150819061042e565b634e487b7160e01b5f52604160045260245ffd5b634e487b7160e01b5f52602160045260245ffd5b634e487b7160e01b5f52601160045260245ffd5b833410156101945760405162461bcd60e51b815260206004820152601d60248201527f496e73756666696369656e74207365637572697479206465706f7369740000006044820152606490fd5b60405162461bcd60e51b815260206004820152602260248201527f4475726174696f6e206d7573742062652067726561746572207468616e207a65604482015261726f60f01b6064820152608490fd5b60405162461bcd60e51b815260206004820152602660248201527f4d6f6e74686c792072656e74206d7573742062652067726561746572207468616044820152656e207a65726f60d01b6064820152608490fd5b60405162461bcd60e51b8152602060048201526016602482015275496e76616c69642074656e616e74206164647265737360501b6044820152606490fd5b606460405162461bcd60e51b815260206004820152602060248201527f43616c6c6572206973206e6f74207468652070726f7065727479206f776e65726044820152fd5b90506020813d60201161064e575b8161062b6020938361111d565b8101031261064a57516001600160a01b038116810361064a575f61015c565b5f80fd5b3d915061061e565b602036600319011261064a5760043561066d6113df565b805f52600360205260405f2060ff600882015416600481101561047557600161069691146111cf565b60028101546001600160a01b031633036107a0576003810190815480341061075b5760018201545f918291829182916001600160a01b0316828215610752575bf11561038f578154803411610725575b507fa62c35dfc0ff11d3713608ebcdc5c5d1952c7702620f2c46c22950f7b70d579791604091600742910155548151908152426020820152a260015f55005b5f8080610733819434611288565b818115610749575b3390f11561038f57836106e6565b506108fc61073b565b506108fc6106d6565b60405162461bcd60e51b815260206004820152601960248201527f496e73756666696369656e742072656e74207061796d656e74000000000000006044820152606490fd5b60405162461bcd60e51b815260206004820152601860248201527f4f6e6c792074656e616e742063616e207061792072656e7400000000000000006044820152606490fd5b3461064a57604036600319011261064a5761001a600435610804611195565b9061082361081e825f526001602052600160405f20015490565b611295565b61135b565b3461064a57602036600319011261064a57600435805f52600360205260405f20600881019060ff8254169060048210156104755761086a6001600693146111cf565b015442106108a357805460ff191660031790557f92d7aa7dad40045cbbd5c900d8082d6eadcc5ddb0a4ef702296615ade9a7936b5f80a2005b60405162461bcd60e51b815260206004820152601b60248201527f52656e74616c206973206e6f74207061737420656e64206461746500000000006044820152606490fd5b3461064a57604036600319011261064a576004356024356109076113df565b815f52600360205260405f2060ff60088201541660048110156104755760028114908115610b6f575b5015610b1e576001810180549092906001600160a01b03163303610ac757835f52600560205260405f20548015610a8257808211610a3d578161097291611288565b92845f5260056020525f60408120558380158015610a0c575b505081159081156109dc575b857fbdc5db6e99672dfd55e3abd2052db33b6ce83f8891889ecde4535d4a219fce4660408787600260018060a01b03910154169082519182526020820152a260015f55005b5f80938193829360018060a01b03905416908390610a03575bf11561038f57838080610997565b506108fc6109f5565b5f808093819360018060a01b0360028a015416908390610a34575bf11561038f57838661098b565b506108fc610a27565b60405162461bcd60e51b815260206004820152601960248201527f446564756374696f6e7320657863656564206465706f736974000000000000006044820152606490fd5b60405162461bcd60e51b815260206004820152601d60248201527f4e6f207365637572697479206465706f73697420746f2072657475726e0000006044820152606490fd5b60405162461bcd60e51b815260206004820152602960248201527f4f6e6c79206c616e646c6f72642063616e2072657475726e20736563757269746044820152681e4819195c1bdcda5d60ba1b6064820152608490fd5b60405162461bcd60e51b8152602060048201526024808201527f52656e74616c206d757374206265207465726d696e61746564206f72206578706044820152631a5c995960e21b6064820152608490fd5b600391501484610930565b3461064a575f36600319011261064a5760206040515f8152f35b3461064a57604036600319011261064a57610bad611195565b6004355f52600160205260405f209060018060a01b03165f52602052602060ff60405f2054166040519015158152f35b3461064a57602036600319011261064a576060610120604051610bff81611100565b5f81525f60208201525f60408201525f838201525f60808201525f60a08201525f60c08201525f60e08201525f61010082015201526004355f52600360205260405f2060405190610c4f82611100565b8054825260018060a01b03600182015416906020830191825260018060a01b036002820154166040840190815260038201546060850190815260048301546080860190815260058401549060a0870191825260068501549260c0880193845260078601549460e0890195865260ff6008880154166101008a01976004821015610475576009918952019760405198895f825492610ceb84611250565b8084529360018116908115610dd35750600114610d90575b50610d109250038a61111d565b6101208a019889526040519960208b525160208b015260018060a01b0390511660408a015260018060a01b0390511660608901525160808801525160a08701525160c08601525160e085015251610100840152516004811015610475578291610d8c9161012084015251610140808401526101608301906111ab565b0390f35b90505f9291925260205f20905f915b818310610db8575050906020610d10928201018d610d03565b80602092948385600194549201015201910190918b92610d9f565b905060209250610d1094915060ff191682840152151560051b8201018d610d03565b3461064a57602036600319011261064a576004355f526005602052602060405f2054604051908152f35b3461064a57602036600319011261064a576020610e3d600435611212565b6040519015158152f35b3461064a575f36600319011261064a576002546040516001600160a01b039091168152602090f35b3461064a57604036600319011261064a57610e88611195565b336001600160a01b03821603610ea45761001a9060043561135b565b63334bd91960e11b5f5260045ffd5b3461064a57604036600319011261064a5761001a600435610ed2611195565b90610eec61081e825f526001602052600160405f20015490565b6112cf565b3461064a57602036600319011261064a576020610f1c6004355f526001602052600160405f20015490565b604051908152f35b3461064a57604036600319011261064a5760043560243567ffffffffffffffff811161064a57610f5890369060040161113f565b815f52600360205260405f20600881019060ff8254166004811015610475576001610f8391146111cf565b60018101546001600160a01b0316331490811561105c575b508015611025575b15610ff157805460ff1916600217905560405160208082527fdb598dd76ab394fcc8a9c6570cba0f0b703d4e13aa6f899725040e8aa1395cb2928291610fec91908301906111ab565b0390a2005b60405162461bcd60e51b815260206004820152600c60248201526b155b985d5d1a1bdc9a5e995960a21b6044820152606490fd5b50335f9081527fdcc251c7197c40b013b9859ea15f8cc007f2c528c4bd385efce408dba517240f602052604090205460ff16610fa3565b600201546001600160a01b03163314905084610f9b565b3461064a575f36600319011261064a5760206040517f8162f2d0a72b96ba5894e27f73d96591f1c0c2756818850eaab74046543888178152f35b3461064a57602036600319011261064a576004359063ffffffff60e01b821680920361064a57602091637965db0b60e01b81149081156110ef575b5015158152f35b6301ffc9a760e01b149050836110e8565b610140810190811067ffffffffffffffff82111761046157604052565b90601f8019910116810190811067ffffffffffffffff82111761046157604052565b81601f8201121561064a5780359067ffffffffffffffff82116104615760405192611174601f8401601f19166020018561111d565b8284526020838301011161064a57815f926020809301838601378301015290565b602435906001600160a01b038216820361064a57565b805180835260209291819084018484015e5f828201840152601f01601f1916010190565b156111d657565b60405162461bcd60e51b815260206004820152601460248201527352656e74616c206973206e6f742061637469766560601b6044820152606490fd5b5f52600360205260405f2060ff60088201541660048110156104755760010361124b576007015462278d00810180911161048957421190565b505f90565b90600182811c9216801561127e575b602083101461126a57565b634e487b7160e01b5f52602260045260245ffd5b91607f169161125f565b9190820391821161048957565b5f81815260016020908152604080832033845290915290205460ff16156112b95750565b63e2517d3f60e01b5f523360045260245260445ffd5b5f8181526001602090815260408083206001600160a01b038616845290915290205460ff16611355575f8181526001602081815260408084206001600160a01b0396909616808552959091528220805460ff19169091179055339291907f2f8788117e7eff1d82e926ec794901d17c78024a50270940304540a733656f0d9080a4600190565b50505f90565b5f8181526001602090815260408083206001600160a01b038616845290915290205460ff1615611355575f8181526001602090815260408083206001600160a01b0395909516808452949091528120805460ff19169055339291907ff6391f5c32d9c69d2a47ea670b442974b53935d1edc7fd64eb21e047a839171b9080a4600190565b60025f54146113ee5760025f55565b633ee5aeb560e01b5f5260045ffdfea264697066735822122013f694c390749e86c60a3f9915dfed8360fec06dda9b1a98271c0d98e69f581364736f6c634300081c00332f8788117e7eff1d82e926ec794901d17c78024a50270940304540a733656f0da6eef7e35abe7026729641147f7915573c7e97b47efa546f5f6e3230263bcb49dcc251c7197c40b013b9859ea15f8cc007f2c528c4bd385efce408dba517240f","linkReferences":{}},"methodIdentifiers":{"DEFAULT_ADMIN_ROLE()":"a217fddf","RENTAL_MANAGER_ROLE()":"14b2b27f","createRental(uint256,address,uint256,uint256,uint256,string)":"db2bac13","expireRental(uint256)":"c71e3dfd","getRental(uint256)":"652bd29e","getRoleAdmin(bytes32)":"248a9ca3","getSecurityDeposit(uint256)":"444a8520","grantRole(bytes32,address)":"2f2ff15d","hasRole(bytes32,address)":"91d14854","isRentOverdue(uint256)":"43f684bb","payRent(uint256)":"d9e8843f","propertyToken()":"43ae2695","renounceRole(bytes32,address)":"36568abe","returnSecurityDeposit(uint256,uint256)":"bc1af044","revokeRole(bytes32,address)":"d547741f","supportsInterface(bytes4)":"01ffc9a7","terminateRental(uint256,string)":"164dad01"},"id":41}