{"abi":[{"type":"constructor","inputs":[{"name":"_propertyToken","type":"address","internalType":"address"},{"name":"_minLoanAmount","type":"uint256","internalType":"uint256"},{"name":"_maxLoanToValueRatio","type":"uint256","internalType":"uint256"},{"name":"_liquidationThreshold","type":"uint256","internalType":"uint256"},{"name":"_liquidationPenalty","type":"uint256","internalType":"uint256"},{"name":"_protocolFeePercentage","type":"uint256","internalType":"uint256"},{"name":"_feeCollector","type":"address","internalType":"address"}],"stateMutability":"nonpayable"},{"type":"receive","stateMutability":"payable"},{"type":"function","name":"addLoanOfficer","inputs":[{"name":"officer","type":"address","internalType":"address"}],"outputs":[],"stateMutability":"nonpayable"},{"type":"function","name":"approveLoan","inputs":[{"name":"loanId","type":"uint256","internalType":"uint256"}],"outputs":[],"stateMutability":"nonpayable"},{"type":"function","name":"auctions","inputs":[{"name":"","type":"uint256","internalType":"uint256"}],"outputs":[{"name":"loanId","type":"uint256","internalType":"uint256"},{"name":"propertyId","type":"uint256","internalType":"uint256"},{"name":"startingPrice","type":"uint256","internalType":"uint256"},{"name":"currentPrice","type":"uint256","internalType":"uint256"},{"name":"startTime","type":"uint256","internalType":"uint256"},{"name":"endTime","type":"uint256","internalType":"uint256"},{"name":"highestBidder","type":"address","internalType":"address"},{"name":"highestBid","type":"uint256","internalType":"uint256"},{"name":"finalized","type":"bool","internalType":"bool"}],"stateMutability":"view"},{"type":"function","name":"borrowerLoans","inputs":[{"name":"","type":"address","internalType":"address"},{"name":"","type":"uint256","internalType":"uint256"}],"outputs":[{"name":"","type":"uint256","internalType":"uint256"}],"stateMutability":"view"},{"type":"function","name":"calculateInterest","inputs":[{"name":"principal","type":"uint256","internalType":"uint256"},{"name":"interestRate","type":"uint256","internalType":"uint256"},{"name":"timeElapsed","type":"uint256","internalType":"uint256"}],"outputs":[{"name":"","type":"uint256","internalType":"uint256"}],"stateMutability":"pure"},{"type":"function","name":"calculatePayoffAmount","inputs":[{"name":"loanId","type":"uint256","internalType":"uint256"}],"outputs":[{"name":"","type":"uint256","internalType":"uint256"}],"stateMutability":"view"},{"type":"function","name":"feeCollector","inputs":[],"outputs":[{"name":"","type":"address","internalType":"address"}],"stateMutability":"view"},{"type":"function","name":"finalizeAuction","inputs":[{"name":"loanId","type":"uint256","internalType":"uint256"}],"outputs":[],"stateMutability":"nonpayable"},{"type":"function","name":"fundLoan","inputs":[{"name":"loanId","type":"uint256","internalType":"uint256"}],"outputs":[],"stateMutability":"payable"},{"type":"function","name":"getActiveLoanForProperty","inputs":[{"name":"propertyId","type":"uint256","internalType":"uint256"}],"outputs":[{"name":"","type":"uint256","internalType":"uint256"}],"stateMutability":"view"},{"type":"function","name":"getAuction","inputs":[{"name":"loanId","type":"uint256","internalType":"uint256"}],"outputs":[{"name":"","type":"tuple","internalType":"struct LendingProtocol.Auction","components":[{"name":"loanId","type":"uint256","internalType":"uint256"},{"name":"propertyId","type":"uint256","internalType":"uint256"},{"name":"startingPrice","type":"uint256","internalType":"uint256"},{"name":"currentPrice","type":"uint256","internalType":"uint256"},{"name":"startTime","type":"uint256","internalType":"uint256"},{"name":"endTime","type":"uint256","internalType":"uint256"},{"name":"highestBidder","type":"address","internalType":"address"},{"name":"highestBid","type":"uint256","internalType":"uint256"},{"name":"finalized","type":"bool","internalType":"bool"}]}],"stateMutability":"view"},{"type":"function","name":"getBorrowerLoans","inputs":[{"name":"borrower","type":"address","internalType":"address"}],"outputs":[{"name":"","type":"uint256[]","internalType":"uint256[]"}],"stateMutability":"view"},{"type":"function","name":"getLoan","inputs":[{"name":"loanId","type":"uint256","internalType":"uint256"}],"outputs":[{"name":"","type":"tuple","internalType":"struct LendingProtocol.Loan","components":[{"name":"propertyId","type":"uint256","internalType":"uint256"},{"name":"borrower","type":"address","internalType":"address"},{"name":"principal","type":"uint256","internalType":"uint256"},{"name":"interestRate","type":"uint256","internalType":"uint256"},{"name":"originationFee","type":"uint256","internalType":"uint256"},{"name":"term","type":"uint256","internalType":"uint256"},{"name":"startTime","type":"uint256","internalType":"uint256"},{"name":"maturityTime","type":"uint256","internalType":"uint256"},{"name":"lastInterestCalcTime","type":"uint256","internalType":"uint256"},{"name":"totalRepaid","type":"uint256","internalType":"uint256"},{"name":"remainingPrincipal","type":"uint256","internalType":"uint256"},{"name":"status","type":"uint8","internalType":"enum LendingProtocol.LoanStatus"},{"name":"loanOfficer","type":"address","internalType":"address"},{"name":"loanToValueRatio","type":"uint256","internalType":"uint256"},{"name":"liquidationThreshold","type":"uint256","internalType":"uint256"}]}],"stateMutability":"view"},{"type":"function","name":"getLoanPayments","inputs":[{"name":"loanId","type":"uint256","internalType":"uint256"}],"outputs":[{"name":"","type":"tuple[]","internalType":"struct LendingProtocol.Payment[]","components":[{"name":"loanId","type":"uint256","internalType":"uint256"},{"name":"amount","type":"uint256","internalType":"uint256"},{"name":"timestamp","type":"uint256","internalType":"uint256"},{"name":"principalPortion","type":"uint256","internalType":"uint256"},{"name":"interestPortion","type":"uint256","internalType":"uint256"},{"name":"feePortion","type":"uint256","internalType":"uint256"}]}],"stateMutability":"view"},{"type":"function","name":"isLoanOfficer","inputs":[{"name":"officer","type":"address","internalType":"address"}],"outputs":[{"name":"","type":"bool","internalType":"bool"}],"stateMutability":"view"},{"type":"function","name":"liquidationPenalty","inputs":[],"outputs":[{"name":"","type":"uint256","internalType":"uint256"}],"stateMutability":"view"},{"type":"function","name":"liquidationThreshold","inputs":[],"outputs":[{"name":"","type":"uint256","internalType":"uint256"}],"stateMutability":"view"},{"type":"function","name":"loanCounter","inputs":[],"outputs":[{"name":"","type":"uint256","internalType":"uint256"}],"stateMutability":"view"},{"type":"function","name":"loanOfficers","inputs":[{"name":"","type":"address","internalType":"address"}],"outputs":[{"name":"","type":"bool","internalType":"bool"}],"stateMutability":"view"},{"type":"function","name":"loanPayments","inputs":[{"name":"","type":"uint256","internalType":"uint256"},{"name":"","type":"uint256","internalType":"uint256"}],"outputs":[{"name":"loanId","type":"uint256","internalType":"uint256"},{"name":"amount","type":"uint256","internalType":"uint256"},{"name":"timestamp","type":"uint256","internalType":"uint256"},{"name":"principalPortion","type":"uint256","internalType":"uint256"},{"name":"interestPortion","type":"uint256","internalType":"uint256"},{"name":"feePortion","type":"uint256","internalType":"uint256"}],"stateMutability":"view"},{"type":"function","name":"loans","inputs":[{"name":"","type":"uint256","internalType":"uint256"}],"outputs":[{"name":"propertyId","type":"uint256","internalType":"uint256"},{"name":"borrower","type":"address","internalType":"address"},{"name":"principal","type":"uint256","internalType":"uint256"},{"name":"interestRate","type":"uint256","internalType":"uint256"},{"name":"originationFee","type":"uint256","internalType":"uint256"},{"name":"term","type":"uint256","internalType":"uint256"},{"name":"startTime","type":"uint256","internalType":"uint256"},{"name":"maturityTime","type":"uint256","internalType":"uint256"},{"name":"lastInterestCalcTime","type":"uint256","internalType":"uint256"},{"name":"totalRepaid","type":"uint256","internalType":"uint256"},{"name":"remainingPrincipal","type":"uint256","internalType":"uint256"},{"name":"status","type":"uint8","internalType":"enum LendingProtocol.LoanStatus"},{"name":"loanOfficer","type":"address","internalType":"address"},{"name":"loanToValueRatio","type":"uint256","internalType":"uint256"},{"name":"liquidationThreshold","type":"uint256","internalType":"uint256"}],"stateMutability":"view"},{"type":"function","name":"makeRepayment","inputs":[{"name":"loanId","type":"uint256","internalType":"uint256"}],"outputs":[],"stateMutability":"payable"},{"type":"function","name":"markAsDefaulted","inputs":[{"name":"loanId","type":"uint256","internalType":"uint256"}],"outputs":[],"stateMutability":"nonpayable"},{"type":"function","name":"maxLoanToValueRatio","inputs":[],"outputs":[{"name":"","type":"uint256","internalType":"uint256"}],"stateMutability":"view"},{"type":"function","name":"minLoanAmount","inputs":[],"outputs":[{"name":"","type":"uint256","internalType":"uint256"}],"stateMutability":"view"},{"type":"function","name":"onERC721Received","inputs":[{"name":"","type":"address","internalType":"address"},{"name":"","type":"address","internalType":"address"},{"name":"","type":"uint256","internalType":"uint256"},{"name":"","type":"bytes","internalType":"bytes"}],"outputs":[{"name":"","type":"bytes4","internalType":"bytes4"}],"stateMutability":"pure"},{"type":"function","name":"owner","inputs":[],"outputs":[{"name":"","type":"address","internalType":"address"}],"stateMutability":"view"},{"type":"function","name":"placeBid","inputs":[{"name":"loanId","type":"uint256","internalType":"uint256"}],"outputs":[],"stateMutability":"payable"},{"type":"function","name":"propertyToActiveLoan","inputs":[{"name":"","type":"uint256","internalType":"uint256"}],"outputs":[{"name":"","type":"uint256","internalType":"uint256"}],"stateMutability":"view"},{"type":"function","name":"propertyToAuction","inputs":[{"name":"","type":"uint256","internalType":"uint256"}],"outputs":[{"name":"","type":"uint256","internalType":"uint256"}],"stateMutability":"view"},{"type":"function","name":"propertyToken","inputs":[],"outputs":[{"name":"","type":"address","internalType":"contract RealEstateERC721"}],"stateMutability":"view"},{"type":"function","name":"protocolFeePercentage","inputs":[],"outputs":[{"name":"","type":"uint256","internalType":"uint256"}],"stateMutability":"view"},{"type":"function","name":"removeLoanOfficer","inputs":[{"name":"officer","type":"address","internalType":"address"}],"outputs":[],"stateMutability":"nonpayable"},{"type":"function","name":"requestLoan","inputs":[{"name":"propertyId","type":"uint256","internalType":"uint256"},{"name":"loanAmount","type":"uint256","internalType":"uint256"},{"name":"interestRate","type":"uint256","internalType":"uint256"},{"name":"term","type":"uint256","internalType":"uint256"}],"outputs":[{"name":"","type":"uint256","internalType":"uint256"}],"stateMutability":"nonpayable"},{"type":"function","name":"startLiquidationAuction","inputs":[{"name":"loanId","type":"uint256","internalType":"uint256"},{"name":"auctionDuration","type":"uint256","internalType":"uint256"}],"outputs":[],"stateMutability":"nonpayable"},{"type":"function","name":"transferOwnership","inputs":[{"name":"newOwner","type":"address","internalType":"address"}],"outputs":[],"stateMutability":"nonpayable"},{"type":"function","name":"updateFeeCollector","inputs":[{"name":"newFeeCollector","type":"address","internalType":"address"}],"outputs":[],"stateMutability":"nonpayable"},{"type":"function","name":"updateProtocolParameters","inputs":[{"name":"_minLoanAmount","type":"uint256","internalType":"uint256"},{"name":"_maxLoanToValueRatio","type":"uint256","internalType":"uint256"},{"name":"_liquidationThreshold","type":"uint256","internalType":"uint256"},{"name":"_liquidationPenalty","type":"uint256","internalType":"uint256"},{"name":"_protocolFeePercentage","type":"uint256","internalType":"uint256"}],"outputs":[],"stateMutability":"nonpayable"},{"type":"event","name":"AuctionBid","inputs":[{"name":"auctionId","type":"uint256","indexed":true,"internalType":"uint256"},{"name":"bidder","type":"address","indexed":false,"internalType":"address"},{"name":"amount","type":"uint256","indexed":false,"internalType":"uint256"}],"anonymous":false},{"type":"event","name":"AuctionFinalized","inputs":[{"name":"auctionId","type":"uint256","indexed":true,"internalType":"uint256"},{"name":"winner","type":"address","indexed":false,"internalType":"address"},{"name":"amount","type":"uint256","indexed":false,"internalType":"uint256"}],"anonymous":false},{"type":"event","name":"AuctionStarted","inputs":[{"name":"loanId","type":"uint256","indexed":true,"internalType":"uint256"},{"name":"propertyId","type":"uint256","indexed":true,"internalType":"uint256"},{"name":"startingPrice","type":"uint256","indexed":false,"internalType":"uint256"}],"anonymous":false},{"type":"event","name":"CollateralLiquidated","inputs":[{"name":"loanId","type":"uint256","indexed":true,"internalType":"uint256"},{"name":"propertyId","type":"uint256","indexed":true,"internalType":"uint256"}],"anonymous":false},{"type":"event","name":"FeeCollectorUpdated","inputs":[{"name":"oldCollector","type":"address","indexed":false,"internalType":"address"},{"name":"newCollector","type":"address","indexed":false,"internalType":"address"}],"anonymous":false},{"type":"event","name":"LoanApproved","inputs":[{"name":"loanId","type":"uint256","indexed":true,"internalType":"uint256"},{"name":"loanOfficer","type":"address","indexed":false,"internalType":"address"}],"anonymous":false},{"type":"event","name":"LoanDefaulted","inputs":[{"name":"loanId","type":"uint256","indexed":true,"internalType":"uint256"}],"anonymous":false},{"type":"event","name":"LoanFullyRepaid","inputs":[{"name":"loanId","type":"uint256","indexed":true,"internalType":"uint256"}],"anonymous":false},{"type":"event","name":"LoanFunded","inputs":[{"name":"loanId","type":"uint256","indexed":true,"internalType":"uint256"},{"name":"amount","type":"uint256","indexed":false,"internalType":"uint256"}],"anonymous":false},{"type":"event","name":"LoanOfficerAdded","inputs":[{"name":"officer","type":"address","indexed":true,"internalType":"address"}],"anonymous":false},{"type":"event","name":"LoanOfficerRemoved","inputs":[{"name":"officer","type":"address","indexed":true,"internalType":"address"}],"anonymous":false},{"type":"event","name":"LoanRepayment","inputs":[{"name":"loanId","type":"uint256","indexed":true,"internalType":"uint256"},{"name":"amount","type":"uint256","indexed":false,"internalType":"uint256"},{"name":"principalPortion","type":"uint256","indexed":false,"internalType":"uint256"},{"name":"interestPortion","type":"uint256","indexed":false,"internalType":"uint256"}],"anonymous":false},{"type":"event","name":"LoanRequested","inputs":[{"name":"loanId","type":"uint256","indexed":true,"internalType":"uint256"},{"name":"propertyId","type":"uint256","indexed":true,"internalType":"uint256"},{"name":"borrower","type":"address","indexed":false,"internalType":"address"},{"name":"amount","type":"uint256","indexed":false,"internalType":"uint256"}],"anonymous":false},{"type":"event","name":"ProtocolParametersUpdated","inputs":[{"name":"parameter","type":"string","indexed":false,"internalType":"string"},{"name":"value","type":"uint256","indexed":false,"internalType":"uint256"}],"anonymous":false},{"type":"error","name":"ReentrancyGuardReentrantCall","inputs":[]}],"bytecode":{"object":"0x60803461035c57601f6133d138819003918201601f19168301916001600160401b038311848410176103605780849260e09460405283398101031261035c5761004781610374565b906020810151604082015160608301519060808401519261006f60c060a08701519601610374565b60015f556001600160a01b039096169586156102ff576001600160a01b03169586156102a357611f40831161025257828411156101f65761251c8411610199576103e886116101435760018060a01b031960015416176001553360018060a01b03196002541617600255335f52600360205260405f20600160ff19825416179055600955600a55600b55600c55600d5560018060a01b0319600e541617600e55604051337f51bcb25b10eb62ca35078154e08534af852173c26d0bbb73d1e22012846bd1a25f80a261304890816103898239f35b60405162461bcd60e51b815260206004820152602860248201527f4c656e64696e6750726f746f636f6c3a206665652070657263656e74616765206044820152670e8dede40d0d2ced60c31b6064820152608490fd5b60405162461bcd60e51b815260206004820152602f60248201527f4c656e64696e6750726f746f636f6c3a206c69717569646174696f6e2074687260448201526e0cae6d0ded8c840e8dede40d0d2ced608b1b6064820152608490fd5b60405162461bcd60e51b815260206004820152602e60248201527f4c656e64696e6750726f746f636f6c3a20696e76616c6964206c69717569646160448201526d1d1a5bdb881d1a1c995cda1bdb1960921b6064820152608490fd5b60405162461bcd60e51b815260206004820152602360248201527f4c656e64696e6750726f746f636f6c3a204c545620726174696f20746f6f20686044820152620d2ced60eb1b6064820152608490fd5b60405162461bcd60e51b815260206004820152602e60248201527f4c656e64696e6750726f746f636f6c3a20696e76616c69642066656520636f6c60448201526d6c6563746f72206164647265737360901b6064820152608490fd5b60405162461bcd60e51b815260206004820152602f60248201527f4c656e64696e6750726f746f636f6c3a20696e76616c69642070726f7065727460448201526e7920746f6b656e206164647265737360881b6064820152608490fd5b5f80fd5b634e487b7160e01b5f52604160045260245ffd5b51906001600160a01b038216820361035c5756fe608080604052600436101561007b575b50361561001a575f80fd5b60405162461bcd60e51b815260206004820152603360248201527f4c656e64696e6750726f746f636f6c3a207573652073706563696669632066756044820152720dcc6e8d2dedce640e8de40e6cadcc8408aa89606b1b6064820152608490fd5b5f905f3560e01c90816304884992146129f25750806305e1bd8c146129b957806308daf9c6146125df578063150b7a021461294857806323f5589a1461292b57806334d9289e1461290e5780633a2163d3146128e45780634031234c146128c757806343ae26951461289f578063504006ca146126ab578063571a26a01461261c5780635c1165ac146125df578063753c7ff914611f9657806378bd793514611e6e5780637b3ee04114611e48578063846b909a14611a2b5780638da5cb5b14611a025780638e50e509146119e45780639979ef451461180f578063a654023314611568578063a874302214611462578063aadc1ac1146112af578063ae6ca2bd14611285578063af3d3e9814611212578063b3028222146110dc578063c415b95c146110b3578063c6875fa314611095578063ce47311414610f55578063d2c35ce814610ec0578063d37415fe14610b73578063e06a913814610b55578063e1ec3c6814610a72578063e3ed190214610a1b578063e80838631461067b578063eee8b7ff146105c6578063f2fde38b1461056e578063fd91b9f1146104845763fe8125ff0361000f57346104815761023336612a51565b90338352600360205261024c60ff604085205416612c8a565b808352600460205260ff600b60408520015416600581101561046d5760036102749114612f51565b620151808210610414576212750082116103bc5780835260046020527f44c53be110c6aa83aa83cd02e351ed172359268272ee1b5d31c0fe48db35c6c76020604085208360086102d8600a8401546127106102d1600c5483612aa9565b0490612c1a565b96886102e685549242612c1a565b91604051926102f484612af5565b858452878401918252604084018b8152606085018c8152608086019142835260a0870193845260c0870194868652604060e08901978089526101008a019b818d528152600f8e52209751885551600188015551600287015551600386015551600485015551600584015560018060a01b03905116600683019060018060a01b03166bffffffffffffffffffffffff60a01b825416179055516007820155019051151560ff8019835416911617905580548652601082528360408720555493604051908152a380f35b60405162461bcd60e51b815260206004820152602a60248201527f4c656e64696e6750726f746f636f6c3a2061756374696f6e206475726174696f6044820152696e20746f6f206c6f6e6760b01b6064820152608490fd5b60405162461bcd60e51b815260206004820152602b60248201527f4c656e64696e6750726f746f636f6c3a2061756374696f6e206475726174696f60448201526a1b881d1bdbc81cda1bdc9d60aa1b6064820152608490fd5b634e487b7160e01b84526021600452602484fd5b80fd5b50346104815760203660031901126104815761049e612a18565b6104b360018060a01b03600254163314612ef4565b6001600160a01b03166104c7811515612fa9565b808252600360205260ff60408320541661051957808252600360205260408220805460ff191660011790557f51bcb25b10eb62ca35078154e08534af852173c26d0bbb73d1e22012846bd1a28280a280f35b60405162461bcd60e51b815260206004820152602760248201527f4c656e64696e6750726f746f636f6c3a20616c72656164792061206c6f616e2060448201526637b33334b1b2b960c91b6064820152608490fd5b503461048157602036600319011261048157610588612a18565b600254906105a0336001600160a01b03841614612ef4565b6001600160a01b0316906105b5821515612fa9565b6001600160a01b0319161760025580f35b5034610481576020366003190112610481576001600160a01b036105e8612a18565b168152600760205260408120604051908160208254918281520190819285526020852090855b8181106106655750505082610624910383612b12565b604051928392602084019060208552518091526040840192915b81811061064c575050500390f35b825184528594506020938401939092019160010161063e565b825484526020909301926001928301920161060e565b50346104815760203660031901126104815760043533825260036020526106a860ff604084205416612c8a565b6106b0612ff4565b808252600f602052604082208183526004602052604083209060048101546106d9811515612e39565b60088201908154906106ee60ff831615612e95565b60058401544210908115916109d4575b50156109785760ff191660011790556006810180549091906001600160a01b03161561096f57600b8301805460ff19166004179055600a830185815583548652600660205260408620869055600154835485546001600160a01b039283169593899390921690863b1561096b57604051632142170760e11b81523060048201526001600160a01b0392909216602483015260448201529482908690606490829084905af1948515610960578795610946575b50600790549301928354906127106107ca600d5484612aa9565b0491836107d78484612c1a565b82111561092457506107ed6107f2928492612c0d565b612c0d565b905b82816108f7575b505080610872575b5050549054604080516001600160a01b03909316835260208301919091527f4d9113a1377d665eaa1f9168a9c9080f2e488cb820b10149de3d6d2e0f2780c791a254907f524adb2d966e366fe4ac4c5d94b814afdb2e4a8879615407f112a91812251b608380a35b6001815580f35b818093949550809160018060a01b036001890154165af1610891612db2565b50156108a157908391855f610803565b60405162461bcd60e51b815260206004820152602860248201527f4c656e64696e6750726f746f636f6c3a20626f72726f776572207061796d656e6044820152671d0819985a5b195960c21b6064820152608490fd5b600e5461091d928291829182916001600160a01b03165af1610917612db2565b50612de1565b5f826107fb565b9250908082111561093d5761093891612c0d565b6107f4565b508290506107f4565b828092965061095491612b12565b6104815785935f6107b0565b6040513d84823e3d90fd5b8380fd5b5050505061086b565b60405162461bcd60e51b815260206004820152602e60248201527f4c656e64696e6750726f746f636f6c3a2061756374696f6e206e6f742072656160448201526d647920746f2066696e616c697a6560901b6064820152608490fd5b6007850154600286015411159150816109ef575b505f6106fe565b9050620151808101809111610a07574210155f6109e8565b634e487b7160e01b87526011600452602487fd5b503461048157604036600319011261048157610a35612a18565b6001600160a01b0316815260076020526040812080546024359290831015610481576020610a638484612a94565b90549060031b1c604051908152f35b50346104815760203660031901126104815760406101e091600435815260046020522080549060018060a01b036001820154169060028101546003820154600483015460058401546006850154600786015490600887015492600988015494600a89015496600b8a015498600d600c8c01549b01549b60206040519e8f908152015260408d015260608c015260808b015260a08a015260c089015260e0880152610100870152610120860152610140850152610b35610160850160ff8316612a44565b60081c6001600160a01b03166101808401526101a08301526101c0820152f35b50346104815780600319360112610481576020600954604051908152f35b5060203660031901126104815760043590610b8c612ff4565b81815260046020526040812091600b83019260ff845416600581101561046d57600103610e7c573415610e1e576008810193610bc9855442612c0d565b94600a8301906301e13380612710610bf0845499610beb60038901548c612aa9565b612aa9565b0404904290553481115f14610e195750345b610c0c8134612c0d565b9660098501610c1c348254612c1a565b905587610dec575b5084865260086020526040862060405190610c3e82612ad9565b868252602082013481526040830142815260608401908b8252608085019286845260a08601948c8652805490600160401b821015610dd85790610c8691600182018155612a67565b969096610dc457948c9d948c9d9c98947fa03b7d491110a334e10644115ad5d0430fc1344a2ccb4510b8e635266328193c9894600594606099518755516001870155516002860155516003850155516004840155519101556040519134835260208301526040820152a25415610cff575b826001815580f35b805460ff1916600217905580548252600660205260408220829055600180549082015491546001600160a01b039182169290911690823b1561096b57604051632142170760e11b81523060048201526001600160a01b0392909216602483015260448201529082908290606490829084905af1801561096057610dab575b50807f6a65a58027e68282a85ac65a7afc6580ef3d139c6e6ec12ae8d82de13566e8cc91a25f818180610cf7565b81610db591612b12565b610dc057815f610d7d565b5080fd5b634e487b7160e01b8d5260048d905260248dfd5b634e487b7160e01b8e52604160045260248efd5b909690808210610e055750508054958582555b5f610c24565b81610e1291989298612c0d565b8255610dff565b610c02565b60405162461bcd60e51b815260206004820152603060248201527f4c656e64696e6750726f746f636f6c3a207061796d656e7420616d6f756e742060448201526f6d75737420626520706f73697469766560801b6064820152608490fd5b606460405162461bcd60e51b815260206004820152602060248201527f4c656e64696e6750726f746f636f6c3a206c6f616e206e6f74206163746976656044820152fd5b5034610481576020366003190112610481577f5d16ad41baeb009cd23eb8f6c7cde5c2e0cd5acf4a33926ab488875c37c37f386040610efd612a18565b610f1260018060a01b03600254163314612ef4565b6001600160a01b0316610f26811515612fa9565b600e80546001600160a01b03198116831790915582516001600160a01b0390911681526020810191909152a180f35b5034610481576020366003190112610481576004358152600860205260408120805467ffffffffffffffff81116110815760405190610f9a60208260051b0183612b12565b80825260208201809385526020852085915b83831061102c57868587604051928392602084019060208552518091526040840192915b818110610fde575050500390f35b91935091602060c060019260a08751805183528481015185840152604081015160408401526060810151606084015260808101516080840152015160a0820152019401910191849392610fd0565b6006602060019260405161103f81612ad9565b855481528486015483820152600286015460408201526003860154606082015260048601546080820152600586015460a0820152815201920192019190610fac565b634e487b7160e01b83526041600452602483fd5b50346104815780600319360112610481576020600a54604051908152f35b5034610481578060031936011261048157600e546040516001600160a01b039091168152602090f35b5034610481576020366003190112610481576110f6612a18565b6002546001600160a01b03169061110e338314612ef4565b6001600160a01b03168083526003602052604083205490919060ff16156111c157811461117057808252600360205260408220805460ff191690557ffa6e0b38983f0093bbbcf41856d3946597f70672fccfebcd0e37b2201d7a98cf8280a280f35b60405162461bcd60e51b8152602060048201526024808201527f4c656e64696e6750726f746f636f6c3a2063616e6e6f742072656d6f7665206f6044820152633bb732b960e11b6064820152608490fd5b60405162461bcd60e51b815260206004820152602360248201527f4c656e64696e6750726f746f636f6c3a206e6f742061206c6f616e206f66666960448201526231b2b960e91b6064820152608490fd5b50346104815761122136612a51565b919081526008602052604081209081548310156104815760c06112448484612a67565b5080549060018101549060028101546003820154906005600484015493015493604051958652602086015260408501526060840152608083015260a0820152f35b50346104815760203660031901126104815760406020916004358152600683522054604051908152f35b50346104815760203660031901126104815760043533825260036020526112dc60ff604084205416612c8a565b808252600460205260408220600b8101805460ff8116600581101561144e576113059015612cec565b60081c6001600160a01b03166113f45760018060a01b0360015416602083546024604051809481936331a9108f60e11b835260048301525afa80156113e95761138b9361136b9287926113b8575b50600101546001600160a01b03918216911614612d4c565b8054610100600160a81b0319163360081b610100600160a81b0316179055565b7f8b6240997bc3af56f5a9aec0408b8286fb78fb0573f2ba96445be3918511cb936020604051338152a280f35b6113db91925060203d6020116113e2575b6113d38183612b12565b810190612b34565b905f611353565b503d6113c9565b6040513d87823e3d90fd5b60405162461bcd60e51b815260206004820152602c60248201527f4c656e64696e6750726f746f636f6c3a206c6f616e20616c726561647920686160448201526b399030b71037b33334b1b2b960a11b6064820152608490fd5b634e487b7160e01b86526021600452602486fd5b503461048157602036600319011261048157600435338252600360205261148f60ff604084205416612c8a565b808252600460205260ff600b6040842001541660058110156115545760016114b79114612f51565b808252600460205260408220600781015442111561150457600b01805460ff191660031790557f0789b7097e8066538cfaa1132488b132e14ba5f0c938c8b7aaf8cf40356aab0b8280a280f35b60405162461bcd60e51b815260206004820152602260248201527f4c656e64696e6750726f746f636f6c3a206c6f616e206e6f7420706173742064604482015261756560f01b6064820152608490fd5b634e487b7160e01b83526021600452602483fd5b50346104815760a03660031901126104815760043560243560443560643592608435916115a060018060a01b03600254163314612ef4565b6115ae611f40851115612bb5565b838111156117b35761251c8111611756576103e88311611700577f0c5ec18888d84138afbb08328a75290570cf4202a893162eb8b0f5da3c52e447948560808096938282809682828a829b60095583600a5586600b5589600c558c600d556040519060408252600d60408301526c1b5a5b931bd85b905b5bdd5b9d609a1b60608301526020820152a1604051906040825260136040830152726d61784c6f616e546f56616c7565526174696f60681b60608301526020820152a1604051906040825260146040830152731b1a5c5d5a59185d1a5bdb951a1c995cda1bdb1960621b60608301526020820152a1604051906040825260126040830152716c69717569646174696f6e50656e616c747960701b60608301526020820152a16040519060408252601560408301527470726f746f636f6c46656550657263656e7461676560581b60608301526020820152a180f35b60405162461bcd60e51b815260206004820152602860248201527f4c656e64696e6750726f746f636f6c3a206665652070657263656e74616765206044820152670e8dede40d0d2ced60c31b6064820152608490fd5b60405162461bcd60e51b815260206004820152602f60248201527f4c656e64696e6750726f746f636f6c3a206c69717569646174696f6e2074687260448201526e0cae6d0ded8c840e8dede40d0d2ced608b1b6064820152608490fd5b60405162461bcd60e51b815260206004820152602e60248201527f4c656e64696e6750726f746f636f6c3a20696e76616c6964206c69717569646160448201526d1d1a5bdb881d1a1c995cda1bdb1960921b6064820152608490fd5b50602036600319011261048157600435611827612ff4565b808252600f6020526040822061184260048201541515612e39565b61185360ff60088301541615612e95565b600581015442101561199f5760078101908154908134111561195a576006018054909185916001600160a01b031690816118dd575b505081546001600160a01b031916339081179092555034918290556040805191825260208201929092527fb8d756f2d1da4663767eb4d559780ace84f2f65a421a60ddcb47e8b2e5d2fd269190a26001815580f35b8280929181925af16118ed612db2565b50156118fb57835f80611888565b60405162461bcd60e51b815260206004820152603160248201527f4c656e64696e6750726f746f636f6c3a20726566756e6420746f2070726576696044820152701bdd5cc8189a5919195c8819985a5b1959607a1b6064820152608490fd5b60405162461bcd60e51b815260206004820152601c60248201527f4c656e64696e6750726f746f636f6c3a2062696420746f6f206c6f77000000006044820152606490fd5b60405162461bcd60e51b815260206004820152601e60248201527f4c656e64696e6750726f746f636f6c3a2061756374696f6e20656e64656400006044820152606490fd5b50346104815780600319360112610481576020600d54604051908152f35b50346104815780600319360112610481576002546040516001600160a01b039091168152602090f35b506020366003190112611d5b57600435335f526003602052611a5360ff60405f205416612c8a565b611a5b612ff4565b805f52600460205260405f20600b810190815460ff81166005811015611e3457611a859015612cec565b3360089190911c6001600160a01b031603611dd5576002810191825490813403611d7e5760018060a01b036001541692602081546024604051809781936331a9108f60e11b835260048301525afa8015611d5057611b27945f91611d5f575b506001820180549091611b04916001600160a01b03918216911614612d4c565b612710611b13600d5486612aa9565b049485946107ed6004850154968792612c0d565b91600160ff19855416178455426006820155611b47600582015442612c1a565b600782015542600882015580545f908152600660205260409020889055600154825491546001600160a01b039182169290911690823b15611d5b57604051632142170760e11b81526001600160a01b039290921660048301523060248301526044820152905f908290606490829084905af18015611d5057611d39575b505487918291829182916001600160a01b03165af1611be1612db2565b5015611cdf5782868094611cb8575b505081611c2e575b50505060207fea9cce54fc29194e0a726c8d4d5462633f965462664714b80ce5c52d3f94b9609154604051908152a26001815580f35b548291829182919060081c6001600160a01b03165af1611c4c612db2565b5015611c5a57825f80611bf8565b60405162461bcd60e51b815260206004820152603060248201527f4c656e64696e6750726f746f636f6c3a206f726967696e6174696f6e2066656560448201526f081d1c985b9cd9995c8819985a5b195960821b6064820152608490fd5b600e54611cd8928291829182916001600160a01b03165af1610917612db2565b5f83611bf0565b60405162461bcd60e51b815260206004820152602c60248201527f4c656e64696e6750726f746f636f6c3a207472616e7366657220746f20626f7260448201526b1c9bddd95c8819985a5b195960a21b6064820152608490fd5b611d47919298505f90612b12565b5f96905f611bc4565b6040513d5f823e3d90fd5b5f80fd5b611d78915060203d6020116113e2576113d38183612b12565b5f611ae4565b60405162461bcd60e51b815260206004820152602960248201527f4c656e64696e6750726f746f636f6c3a20696e636f72726563742066756e64696044820152681b99c8185b5bdd5b9d60ba1b6064820152608490fd5b60405162461bcd60e51b815260206004820152603160248201527f4c656e64696e6750726f746f636f6c3a2063616c6c6572206e6f74206173736960448201527033b732b2103a37903a3434b9903637b0b760791b6064820152608490fd5b634e487b7160e01b5f52602160045260245ffd5b34611d5b576020366003190112611d5b576020611e66600435612c27565b604051908152f35b34611d5b576020366003190112611d5b575f610100604051611e8f81612af5565b8281528260208201528260408201528260608201528260808201528260a08201528260c08201528260e082015201526004355f52600f60205261012060405f20604051611edb81612af5565b8154918282526001810154602083019081526002820154604084019081526003830154606085019081526004840154906080860191825260058501549260a0870193845260018060a01b036006870154169460c0880195865261010060ff600860078a01549960e08c019a8b52015416980197151588526040519889525160208901525160408801525160608701525160808601525160a085015260018060a01b0390511660c08401525160e0830152511515610100820152f35b34611d5b576080366003190112611d5b57602435604435600435606435611fbb612ff4565b6001546040516331a9108f60e11b8152600481018490526001600160a01b039091169190602081602481865afa908115611d50575f916125c0575b50336001600160a01b039091160361256157825f52600660205260405f20546125035760095485106124ab57831561244e5762093a808110612409575f6024926040519384809263126dbe4360e01b82528760048301525afa918215611d50575f9261232b575b506060820151156122da576127108502851592868204612710148417156122b257604001519081156122c6570493612099600a54861115612bb5565b6005545f1981146122b2576001019485600555606487029387850460641417156122b257859287600b5493604051906120d182612abc565b888252602082019733895260408301948486526060840192835260808401916127109004825260a0840190815260c08401905f825260e08501925f84526101008601945f86526101208701965f885261014081019889526101608101995f8b5261018082019d5f8f526101a083019c8d526101c083019d8e525f52600460205260405f209e8f92518355600160a01b600190039051166001830190600160a01b60019003166bffffffffffffffffffffffff60a01b8254161790555190600201555160038d01555160048c01555160058b01555160068a015551600789015551600888015551600987015551600a860155600b85019051906005821015611e345780549451610100600160a81b0360089190911b1660ff929092166001600160a81b03199095169490941717909255600d9151600c84015551910155335f52600760205260405f2092835493600160401b85101561229e5761228f8492612261877f4646f5cd4a4f4bf52faac5741fe6ca4768f0d5ee724f7199979656af37fcf4ad94600160209a018155612a94565b81545f1960039290921b91821b19169086901b17905560408051338152602081019290925290918291820190565b0390a360015f55604051908152f35b634e487b7160e01b5f52604160045260245ffd5b634e487b7160e01b5f52601160045260245ffd5b634e487b7160e01b5f52601260045260245ffd5b60405162461bcd60e51b8152602060048201526024808201527f4c656e64696e6750726f746f636f6c3a2070726f7065727479206e6f742061636044820152637469766560e01b6064820152608490fd5b9091503d805f833e61233d8183612b12565b810190602081830312611d5b5780519067ffffffffffffffff8211611d5b570160c081830312611d5b576040519161237483612ad9565b815167ffffffffffffffff8111611d5b5781612391918401612b6f565b8352602082015167ffffffffffffffff8111611d5b57816123b3918401612b6f565b60208401526040820151604084015260608201518015158103611d5b5760608401526080820151608084015260a082015167ffffffffffffffff8111611d5b576123fd9201612b6f565b60a0820152908561205d565b60405162461bcd60e51b815260206004820152601f60248201527f4c656e64696e6750726f746f636f6c3a207465726d20746f6f2073686f7274006044820152606490fd5b60405162461bcd60e51b815260206004820152602f60248201527f4c656e64696e6750726f746f636f6c3a20696e7465726573742072617465206d60448201526e75737420626520706f73697469766560881b6064820152608490fd5b60405162461bcd60e51b815260206004820152602a60248201527f4c656e64696e6750726f746f636f6c3a206c6f616e20616d6f756e742062656c6044820152696f77206d696e696d756d60b01b6064820152608490fd5b60405162461bcd60e51b815260206004820152603060248201527f4c656e64696e6750726f746f636f6c3a2070726f706572747920616c7265616460448201526f1e4818dbdb1b185d195c985b1a5e995960821b6064820152608490fd5b60405162461bcd60e51b815260206004820152603160248201527f4c656e64696e6750726f746f636f6c3a2063616c6c6572206973206e6f742074604482015270343290383937b832b93a3c9037bbb732b960791b6064820152608490fd5b6125d9915060203d6020116113e2576113d38183612b12565b86611ff6565b34611d5b576020366003190112611d5b576001600160a01b03612600612a18565b165f526003602052602060ff60405f2054166040519015158152f35b34611d5b576020366003190112611d5b576004355f52600f60205261012060405f2080549060018101549060028101546003820154600483015460058401549160018060a01b036006860154169360ff600860078801549701541696604051988952602089015260408801526060870152608086015260a085015260c084015260e08301521515610100820152f35b34611d5b576020366003190112611d5b575f6101c06040516126cc81612abc565b8281528260208201528260408201528260608201528260808201528260a08201528260c08201528260e08201528261010082015282610120820152826101408201528261016082015282610180820152826101a082015201526004355f52600460205260405f2060405161273f81612abc565b8154815260018060a01b0360018301541691602082019283526002810154916040810192835260038201549060608101918252600483015460808201908152600584015460a08301908152600685015460c08401908152600786015460e0850190815260088701549161010086019283526009880154936101208701948552600a890154956101408801968752600b8a01549860ff8a16986101608101996005811015611e34578a5261018081019a600160a01b600190039060081c168b52600c8c01549b6101a082019c8d52600d01549c6101c082019d8e526040519e8f92518352600160a01b6001900390511660208301525190604001525160608d01525160808c01525160a08b01525160c08a01525160e089015251610100880152516101208701525161014086015251610160850161287b91612a44565b516001600160a01b0316610180840152516101a0830152516101c08201526101e090f35b34611d5b575f366003190112611d5b576001546040516001600160a01b039091168152602090f35b34611d5b575f366003190112611d5b576020600b54604051908152f35b34611d5b576020366003190112611d5b576004355f526010602052602060405f2054604051908152f35b34611d5b575f366003190112611d5b576020600554604051908152f35b34611d5b575f366003190112611d5b576020600c54604051908152f35b34611d5b576080366003190112611d5b57612961612a18565b5061296a612a2e565b5060643567ffffffffffffffff8111611d5b5736602382011215611d5b57806004013567ffffffffffffffff8111611d5b5736910160240111611d5b57604051630a85bd0160e11b8152602090f35b34611d5b576060366003190112611d5b5760206301e133806127106129e8604435610beb602435600435612aa9565b0404604051908152f35b34611d5b576020366003190112611d5b576020906004355f526006825260405f20548152f35b600435906001600160a01b0382168203611d5b57565b602435906001600160a01b0382168203611d5b57565b906005821015611e345752565b6040906003190112611d5b576004359060243590565b8054821015612a80575f52600660205f20910201905f90565b634e487b7160e01b5f52603260045260245ffd5b8054821015612a80575f5260205f2001905f90565b818102929181159184041417156122b257565b6101e0810190811067ffffffffffffffff82111761229e57604052565b60c0810190811067ffffffffffffffff82111761229e57604052565b610120810190811067ffffffffffffffff82111761229e57604052565b90601f8019910116810190811067ffffffffffffffff82111761229e57604052565b90816020910312611d5b57516001600160a01b0381168103611d5b5790565b67ffffffffffffffff811161229e57601f01601f191660200190565b81601f82011215611d5b57805190612b8682612b53565b92612b946040519485612b12565b82845260208383010111611d5b57815f9260208093018386015e8301015290565b15612bbc57565b60405162461bcd60e51b815260206004820152602360248201527f4c656e64696e6750726f746f636f6c3a204c545620726174696f20746f6f20686044820152620d2ced60eb1b6064820152608490fd5b919082039182116122b257565b919082018092116122b257565b5f52600460205260405f2060ff600b820154166005811015611e3457600103612c8557806301e13380612710612c7a612c676008612c8296015442612c0d565b610beb6003600a87015496015486612aa9565b040490612c1a565b90565b505f90565b15612c9157565b60405162461bcd60e51b815260206004820152602d60248201527f4c656e64696e6750726f746f636f6c3a2063616c6c6572206973206e6f74206160448201526c103637b0b71037b33334b1b2b960991b6064820152608490fd5b15612cf357565b60405162461bcd60e51b815260206004820152602b60248201527f4c656e64696e6750726f746f636f6c3a206c6f616e206e6f7420696e2070656e60448201526a64696e672073746174757360a81b6064820152608490fd5b15612d5357565b60405162461bcd60e51b815260206004820152603160248201527f4c656e64696e6750726f746f636f6c3a20626f72726f776572206e6f206c6f6e604482015270676572206f776e732070726f706572747960781b6064820152608490fd5b3d15612ddc573d90612dc382612b53565b91612dd16040519384612b12565b82523d5f602084013e565b606090565b15612de857565b60405162461bcd60e51b8152602060048201526024808201527f4c656e64696e6750726f746f636f6c3a20666565207472616e736665722066616044820152631a5b195960e21b6064820152608490fd5b15612e4057565b60405162461bcd60e51b815260206004820152602760248201527f4c656e64696e6750726f746f636f6c3a2061756374696f6e20646f6573206e6f6044820152661d08195e1a5cdd60ca1b6064820152608490fd5b15612e9c57565b60405162461bcd60e51b815260206004820152602a60248201527f4c656e64696e6750726f746f636f6c3a2061756374696f6e20616c726561647960448201526908199a5b985b1a5e995960b21b6064820152608490fd5b15612efb57565b60405162461bcd60e51b815260206004820152602860248201527f4c656e64696e6750726f746f636f6c3a2063616c6c6572206973206e6f74207460448201526734329037bbb732b960c11b6064820152608490fd5b15612f5857565b60405162461bcd60e51b8152602060048201526024808201527f4c656e64696e6750726f746f636f6c3a20696e76616c6964206c6f616e2073746044820152636174757360e01b6064820152608490fd5b15612fb057565b606460405162461bcd60e51b815260206004820152602060248201527f4c656e64696e6750726f746f636f6c3a20696e76616c696420616464726573736044820152fd5b60025f54146130035760025f55565b633ee5aeb560e01b5f5260045ffdfea264697066735822122090163e0166b294f71ae471d0e3727f2cfb5f9acc322ccee8685e1f1dac79ce5264736f6c634300081c0033","linkReferences":{}},"methodIdentifiers":{"addLoanOfficer(address)":"fd91b9f1","approveLoan(uint256)":"aadc1ac1","auctions(uint256)":"571a26a0","borrowerLoans(address,uint256)":"e3ed1902","calculateInterest(uint256,uint256,uint256)":"05e1bd8c","calculatePayoffAmount(uint256)":"7b3ee041","feeCollector()":"c415b95c","finalizeAuction(uint256)":"e8083863","fundLoan(uint256)":"846b909a","getActiveLoanForProperty(uint256)":"ae6ca2bd","getAuction(uint256)":"78bd7935","getBorrowerLoans(address)":"eee8b7ff","getLoan(uint256)":"504006ca","getLoanPayments(uint256)":"ce473114","isLoanOfficer(address)":"08daf9c6","liquidationPenalty()":"23f5589a","liquidationThreshold()":"4031234c","loanCounter()":"34d9289e","loanOfficers(address)":"5c1165ac","loanPayments(uint256,uint256)":"af3d3e98","loans(uint256)":"e1ec3c68","makeRepayment(uint256)":"d37415fe","markAsDefaulted(uint256)":"a8743022","maxLoanToValueRatio()":"c6875fa3","minLoanAmount()":"e06a9138","onERC721Received(address,address,uint256,bytes)":"150b7a02","owner()":"8da5cb5b","placeBid(uint256)":"9979ef45","propertyToActiveLoan(uint256)":"04884992","propertyToAuction(uint256)":"3a2163d3","propertyToken()":"43ae2695","protocolFeePercentage()":"8e50e509","removeLoanOfficer(address)":"b3028222","requestLoan(uint256,uint256,uint256,uint256)":"753c7ff9","startLiquidationAuction(uint256,uint256)":"fe8125ff","transferOwnership(address)":"f2fde38b","updateFeeCollector(address)":"d2c35ce8","updateProtocolParameters(uint256,uint256,uint256,uint256,uint256)":"a6540233"},"id":36}